{
  "_format": "hh-sol-artifact-1",
  "contractName": "MutantAureliusAurei",
  "sourceName": "contracts/MutantAureliusAurei.sol",
  "abi": [
    {
      "inputs": [],
      "stateMutability": "nonpayable",
      "type": "constructor"
    },
    {
      "anonymous": false,
      "inputs": [
        {
          "indexed": true,
          "internalType": "address",
          "name": "owner",
          "type": "address"
        },
        {
          "indexed": true,
          "internalType": "address",
          "name": "approved",
          "type": "address"
        },
        {
          "indexed": true,
          "internalType": "uint256",
          "name": "tokenId",
          "type": "uint256"
        }
      ],
      "name": "Approval",
      "type": "event"
    },
    {
      "anonymous": false,
      "inputs": [
        {
          "indexed": true,
          "internalType": "address",
          "name": "owner",
          "type": "address"
        },
        {
          "indexed": true,
          "internalType": "address",
          "name": "operator",
          "type": "address"
        },
        {
          "indexed": false,
          "internalType": "bool",
          "name": "approved",
          "type": "bool"
        }
      ],
      "name": "ApprovalForAll",
      "type": "event"
    },
    {
      "anonymous": false,
      "inputs": [
        {
          "indexed": true,
          "internalType": "address",
          "name": "from",
          "type": "address"
        },
        {
          "indexed": true,
          "internalType": "address",
          "name": "to",
          "type": "address"
        },
        {
          "indexed": true,
          "internalType": "uint256",
          "name": "tokenId",
          "type": "uint256"
        }
      ],
      "name": "Transfer",
      "type": "event"
    },
    {
      "inputs": [
        {
          "internalType": "address",
          "name": "to",
          "type": "address"
        },
        {
          "internalType": "uint256",
          "name": "tokenId",
          "type": "uint256"
        }
      ],
      "name": "approve",
      "outputs": [],
      "stateMutability": "nonpayable",
      "type": "function"
    },
    {
      "inputs": [
        {
          "internalType": "address",
          "name": "owner",
          "type": "address"
        }
      ],
      "name": "balanceOf",
      "outputs": [
        {
          "internalType": "uint256",
          "name": "",
          "type": "uint256"
        }
      ],
      "stateMutability": "view",
      "type": "function"
    },
    {
      "inputs": [
        {
          "internalType": "uint256",
          "name": "tokenId",
          "type": "uint256"
        }
      ],
      "name": "getApproved",
      "outputs": [
        {
          "internalType": "address",
          "name": "",
          "type": "address"
        }
      ],
      "stateMutability": "view",
      "type": "function"
    },
    {
      "inputs": [],
      "name": "getContractIsPaused",
      "outputs": [
        {
          "internalType": "bool",
          "name": "",
          "type": "bool"
        }
      ],
      "stateMutability": "view",
      "type": "function"
    },
    {
      "inputs": [],
      "name": "getIndexedAureiCount",
      "outputs": [
        {
          "internalType": "uint256",
          "name": "",
          "type": "uint256"
        }
      ],
      "stateMutability": "view",
      "type": "function"
    },
    {
      "inputs": [],
      "name": "getIssuedMementoCount",
      "outputs": [
        {
          "internalType": "uint256",
          "name": "",
          "type": "uint256"
        }
      ],
      "stateMutability": "view",
      "type": "function"
    },
    {
      "inputs": [],
      "name": "getTotalAureiMinted",
      "outputs": [
        {
          "internalType": "uint256",
          "name": "",
          "type": "uint256"
        }
      ],
      "stateMutability": "view",
      "type": "function"
    },
    {
      "inputs": [],
      "name": "initialOwnerManagedTokens",
      "outputs": [
        {
          "internalType": "uint256",
          "name": "",
          "type": "uint256"
        }
      ],
      "stateMutability": "view",
      "type": "function"
    },
    {
      "inputs": [
        {
          "internalType": "address",
          "name": "owner",
          "type": "address"
        },
        {
          "internalType": "address",
          "name": "operator",
          "type": "address"
        }
      ],
      "name": "isApprovedForAll",
      "outputs": [
        {
          "internalType": "bool",
          "name": "",
          "type": "bool"
        }
      ],
      "stateMutability": "view",
      "type": "function"
    },
    {
      "inputs": [
        {
          "internalType": "address",
          "name": "questionedAddress",
          "type": "address"
        }
      ],
      "name": "isOnExtendedOwnerList",
      "outputs": [
        {
          "internalType": "bool",
          "name": "",
          "type": "bool"
        }
      ],
      "stateMutability": "view",
      "type": "function"
    },
    {
      "inputs": [
        {
          "internalType": "address",
          "name": "questionedAddress",
          "type": "address"
        }
      ],
      "name": "isOnShitlist",
      "outputs": [
        {
          "internalType": "bool",
          "name": "",
          "type": "bool"
        }
      ],
      "stateMutability": "view",
      "type": "function"
    },
    {
      "inputs": [],
      "name": "mint",
      "outputs": [],
      "stateMutability": "nonpayable",
      "type": "function"
    },
    {
      "inputs": [
        {
          "internalType": "uint256",
          "name": "tokenId",
          "type": "uint256"
        }
      ],
      "name": "mintFavorite",
      "outputs": [],
      "stateMutability": "nonpayable",
      "type": "function"
    },
    {
      "inputs": [],
      "name": "name",
      "outputs": [
        {
          "internalType": "string",
          "name": "",
          "type": "string"
        }
      ],
      "stateMutability": "view",
      "type": "function"
    },
    {
      "inputs": [],
      "name": "owner",
      "outputs": [
        {
          "internalType": "address",
          "name": "",
          "type": "address"
        }
      ],
      "stateMutability": "view",
      "type": "function"
    },
    {
      "inputs": [
        {
          "internalType": "address",
          "name": "_allowAddress",
          "type": "address"
        }
      ],
      "name": "ownerAddToAllowlist",
      "outputs": [],
      "stateMutability": "nonpayable",
      "type": "function"
    },
    {
      "inputs": [
        {
          "internalType": "address",
          "name": "_shittyAddress",
          "type": "address"
        }
      ],
      "name": "ownerAddToShitlist",
      "outputs": [],
      "stateMutability": "nonpayable",
      "type": "function"
    },
    {
      "inputs": [
        {
          "internalType": "uint256",
          "name": "tokenId",
          "type": "uint256"
        }
      ],
      "name": "ownerOf",
      "outputs": [
        {
          "internalType": "address",
          "name": "",
          "type": "address"
        }
      ],
      "stateMutability": "view",
      "type": "function"
    },
    {
      "inputs": [
        {
          "internalType": "address",
          "name": "_allowAddress",
          "type": "address"
        }
      ],
      "name": "ownerRemoveFromAllowlist",
      "outputs": [],
      "stateMutability": "nonpayable",
      "type": "function"
    },
    {
      "inputs": [
        {
          "internalType": "address",
          "name": "_shittyAddress",
          "type": "address"
        }
      ],
      "name": "ownerRemoveFromShitlist",
      "outputs": [],
      "stateMutability": "nonpayable",
      "type": "function"
    },
    {
      "inputs": [
        {
          "internalType": "bool",
          "name": "allowlistActivityLevel",
          "type": "bool"
        }
      ],
      "name": "ownerSetAllowlistActive",
      "outputs": [],
      "stateMutability": "nonpayable",
      "type": "function"
    },
    {
      "inputs": [
        {
          "internalType": "string",
          "name": "newBaseTokenURI",
          "type": "string"
        }
      ],
      "name": "ownerSetBaseTokenURI",
      "outputs": [],
      "stateMutability": "nonpayable",
      "type": "function"
    },
    {
      "inputs": [
        {
          "internalType": "uint256",
          "name": "tokenId",
          "type": "uint256"
        },
        {
          "internalType": "address",
          "name": "newOwner",
          "type": "address"
        }
      ],
      "name": "ownerSetNewTokenOwner",
      "outputs": [],
      "stateMutability": "nonpayable",
      "type": "function"
    },
    {
      "inputs": [
        {
          "internalType": "bool",
          "name": "contractIsPaused",
          "type": "bool"
        }
      ],
      "name": "ownerSetPausedState",
      "outputs": [],
      "stateMutability": "nonpayable",
      "type": "function"
    },
    {
      "inputs": [
        {
          "internalType": "uint256",
          "name": "new_limit",
          "type": "uint256"
        }
      ],
      "name": "ownerUpdateWalletLimit",
      "outputs": [],
      "stateMutability": "nonpayable",
      "type": "function"
    },
    {
      "inputs": [],
      "name": "ownerWithdrawContractBalance",
      "outputs": [],
      "stateMutability": "nonpayable",
      "type": "function"
    },
    {
      "inputs": [
        {
          "internalType": "address",
          "name": "from",
          "type": "address"
        },
        {
          "internalType": "address",
          "name": "to",
          "type": "address"
        },
        {
          "internalType": "uint256",
          "name": "tokenId",
          "type": "uint256"
        }
      ],
      "name": "safeTransferFrom",
      "outputs": [],
      "stateMutability": "nonpayable",
      "type": "function"
    },
    {
      "inputs": [
        {
          "internalType": "address",
          "name": "from",
          "type": "address"
        },
        {
          "internalType": "address",
          "name": "to",
          "type": "address"
        },
        {
          "internalType": "uint256",
          "name": "tokenId",
          "type": "uint256"
        },
        {
          "internalType": "bytes",
          "name": "_data",
          "type": "bytes"
        }
      ],
      "name": "safeTransferFrom",
      "outputs": [],
      "stateMutability": "nonpayable",
      "type": "function"
    },
    {
      "inputs": [
        {
          "internalType": "address",
          "name": "operator",
          "type": "address"
        },
        {
          "internalType": "bool",
          "name": "approved",
          "type": "bool"
        }
      ],
      "name": "setApprovalForAll",
      "outputs": [],
      "stateMutability": "nonpayable",
      "type": "function"
    },
    {
      "inputs": [
        {
          "internalType": "bytes4",
          "name": "interfaceId",
          "type": "bytes4"
        }
      ],
      "name": "supportsInterface",
      "outputs": [
        {
          "internalType": "bool",
          "name": "",
          "type": "bool"
        }
      ],
      "stateMutability": "view",
      "type": "function"
    },
    {
      "inputs": [],
      "name": "symbol",
      "outputs": [
        {
          "internalType": "string",
          "name": "",
          "type": "string"
        }
      ],
      "stateMutability": "view",
      "type": "function"
    },
    {
      "inputs": [
        {
          "internalType": "uint256",
          "name": "tokenId",
          "type": "uint256"
        }
      ],
      "name": "tokenURI",
      "outputs": [
        {
          "internalType": "string",
          "name": "",
          "type": "string"
        }
      ],
      "stateMutability": "view",
      "type": "function"
    },
    {
      "inputs": [],
      "name": "totalAureiSupply",
      "outputs": [
        {
          "internalType": "uint256",
          "name": "",
          "type": "uint256"
        }
      ],
      "stateMutability": "view",
      "type": "function"
    },
    {
      "inputs": [],
      "name": "totalSupply",
      "outputs": [
        {
          "internalType": "uint256",
          "name": "",
          "type": "uint256"
        }
      ],
      "stateMutability": "view",
      "type": "function"
    },
    {
      "inputs": [
        {
          "internalType": "address",
          "name": "from",
          "type": "address"
        },
        {
          "internalType": "address",
          "name": "to",
          "type": "address"
        },
        {
          "internalType": "uint256",
          "name": "tokenId",
          "type": "uint256"
        }
      ],
      "name": "transferFrom",
      "outputs": [],
      "stateMutability": "nonpayable",
      "type": "function"
    },
    {
      "inputs": [
        {
          "internalType": "address",
          "name": "_extendedOwnerAddress",
          "type": "address"
        },
        {
          "internalType": "bool",
          "name": "isExtendedOwner",
          "type": "bool"
        }
      ],
      "name": "updateExtendedOwnerList",
      "outputs": [],
      "stateMutability": "nonpayable",
      "type": "function"
    },
    {
      "inputs": [
        {
          "internalType": "address",
          "name": "_newOwnerAddress",
          "type": "address"
        }
      ],
      "name": "updateOwner",
      "outputs": [],
      "stateMutability": "nonpayable",
      "type": "function"
    }
  ],
  "bytecode": "0x60806040526001600955610378600a556007600b553480156200002157600080fd5b506040518060400160405280601581526020017f4d7574616e7420417572656c69757320417572656900000000000000000000008152506040518060400160405280600381526020017f4d414100000000000000000000000000000000000000000000000000000000008152508160009080519060200190620000a692919062001244565b508060019080519060200190620000bf92919062001244565b50505060405180606001604052806036815260200162005f5b60369139600c9080519060200190620000f392919062001244565b5033600d60026101000a81548173ffffffffffffffffffffffffffffffffffffffff021916908373ffffffffffffffffffffffffffffffffffffffff1602179055506001600e6000737d4c4d5380ca2f9c7a091bb622b80613da7eae8c73ffffffffffffffffffffffffffffffffffffffff1673ffffffffffffffffffffffffffffffffffffffff16815260200190815260200160002060006101000a81548160ff0219169083151502179055506001600e600073385375fd99d6019c630b1315d3815bb162aa039e73ffffffffffffffffffffffffffffffffffffffff1673ffffffffffffffffffffffffffffffffffffffff16815260200190815260200160002060006101000a81548160ff0219169083151502179055506001600e6000737683ebb2190a3bccab1203773e0df54283df1d5c73ffffffffffffffffffffffffffffffffffffffff1673ffffffffffffffffffffffffffffffffffffffff16815260200190815260200160002060006101000a81548160ff0219169083151502179055506001600e60007390f79bf6eb2c4f870365e785982e1f101e93b90673ffffffffffffffffffffffffffffffffffffffff1673ffffffffffffffffffffffffffffffffffffffff16815260200190815260200160002060006101000a81548160ff0219169083151502179055506001600f600073f5324be5db41ba9e464e14f3940eccde9899368273ffffffffffffffffffffffffffffffffffffffff1673ffffffffffffffffffffffffffffffffffffffff16815260200190815260200160002060006101000a81548160ff0219169083151502179055506001600f600073bd6907023e8129c6219536c1bf2e7fb9e0ced8e173ffffffffffffffffffffffffffffffffffffffff1673ffffffffffffffffffffffffffffffffffffffff16815260200190815260200160002060006101000a81548160ff0219169083151502179055506001600f6000730bfff40545a2250c3f11993e7b75dbbcb11e36ac73ffffffffffffffffffffffffffffffffffffffff1673ffffffffffffffffffffffffffffffffffffffff16815260200190815260200160002060006101000a81548160ff0219169083151502179055506001600f600073ef21c2d39f4d7d7a2ea698043affa888c1295cd373ffffffffffffffffffffffffffffffffffffffff1673ffffffffffffffffffffffffffffffffffffffff16815260200190815260200160002060006101000a81548160ff0219169083151502179055506001600f600073b0c63f8e0264a05421f2f4fc7f68b578c5e700d673ffffffffffffffffffffffffffffffffffffffff1673ffffffffffffffffffffffffffffffffffffffff16815260200190815260200160002060006101000a81548160ff0219169083151502179055506001600f600073866f74c2c65d230cb6a4cea159daa5996377f81d73ffffffffffffffffffffffffffffffffffffffff1673ffffffffffffffffffffffffffffffffffffffff16815260200190815260200160002060006101000a81548160ff0219169083151502179055506001600f600073e5e06284e9041428dc3d4506aeea5d59e91dd51473ffffffffffffffffffffffffffffffffffffffff1673ffffffffffffffffffffffffffffffffffffffff16815260200190815260200160002060006101000a81548160ff0219169083151502179055506001600f600073df6d32981752c438a8adfc801576e4e4dac204c073ffffffffffffffffffffffffffffffffffffffff1673ffffffffffffffffffffffffffffffffffffffff16815260200190815260200160002060006101000a81548160ff0219169083151502179055506001600f60007368d4a6fad7b5682db97c0a4455e282ce4f193be673ffffffffffffffffffffffffffffffffffffffff1673ffffffffffffffffffffffffffffffffffffffff16815260200190815260200160002060006101000a81548160ff0219169083151502179055506001600f600073fdf3df1c1bbe75e33c33b3335a305ff7233479fa73ffffffffffffffffffffffffffffffffffffffff1673ffffffffffffffffffffffffffffffffffffffff16815260200190815260200160002060006101000a81548160ff0219169083151502179055506001600f600073205443bf37ba94c0cd58f0b53611e17a5502085d73ffffffffffffffffffffffffffffffffffffffff1673ffffffffffffffffffffffffffffffffffffffff16815260200190815260200160002060006101000a81548160ff0219169083151502179055506001600f6000733eb62c8aa2ac0315f7967c765b62dbbc30da771b73ffffffffffffffffffffffffffffffffffffffff1673ffffffffffffffffffffffffffffffffffffffff16815260200190815260200160002060006101000a81548160ff0219169083151502179055506001600f6000735bf3e69ea5359f739f8239278210b371bc22058273ffffffffffffffffffffffffffffffffffffffff1673ffffffffffffffffffffffffffffffffffffffff16815260200190815260200160002060006101000a81548160ff0219169083151502179055506001600f6000738c062bc26b5f976d3f59c1251e8b6ebcb120f09173ffffffffffffffffffffffffffffffffffffffff1673ffffffffffffffffffffffffffffffffffffffff16815260200190815260200160002060006101000a81548160ff0219169083151502179055506001600f600073407d6475bf21bc1c328e2d48003b86cc4f5ff51f73ffffffffffffffffffffffffffffffffffffffff1673ffffffffffffffffffffffffffffffffffffffff16815260200190815260200160002060006101000a81548160ff0219169083151502179055506001600f6000736444d68647760c75df9da50176eeed944628046c73ffffffffffffffffffffffffffffffffffffffff1673ffffffffffffffffffffffffffffffffffffffff16815260200190815260200160002060006101000a81548160ff0219169083151502179055506001600f6000730707d3b48f7d810c96c4b348dc4a1d8086e576ef73ffffffffffffffffffffffffffffffffffffffff1673ffffffffffffffffffffffffffffffffffffffff16815260200190815260200160002060006101000a81548160ff0219169083151502179055506001600f600073ad8ae856e7ca9e62bdcdc2c1e812ff46c9dcea1f73ffffffffffffffffffffffffffffffffffffffff1673ffffffffffffffffffffffffffffffffffffffff16815260200190815260200160002060006101000a81548160ff0219169083151502179055506001600f6000733376b95e03c1b03bc408dbcb4e9734f4456932df73ffffffffffffffffffffffffffffffffffffffff1673ffffffffffffffffffffffffffffffffffffffff16815260200190815260200160002060006101000a81548160ff0219169083151502179055506001600f6000731afa798e2185e38411084bb6d7e5dab975f032c873ffffffffffffffffffffffffffffffffffffffff1673ffffffffffffffffffffffffffffffffffffffff16815260200190815260200160002060006101000a81548160ff021916908315150217905550600160106000600d60029054906101000a900473ffffffffffffffffffffffffffffffffffffffff1673ffffffffffffffffffffffffffffffffffffffff1673ffffffffffffffffffffffffffffffffffffffff16815260200190815260200160002060006101000a81548160ff021916908315150217905550600160106000735a97d44de4fe69e194541a4d78db37218872d85973ffffffffffffffffffffffffffffffffffffffff1673ffffffffffffffffffffffffffffffffffffffff16815260200190815260200160002060006101000a81548160ff0219169083151502179055506000600d60006101000a81548160ff0219169083151502179055506001600d60016101000a81548160ff02191690831515021790555062000c8162000ca260201b60201c565b6001600d60006101000a81548160ff021916908315150217905550620016ae565b600d60009054906101000a900460ff161562000cf5576040517f08c379a000000000000000000000000000000000000000000000000000000000815260040162000cec90620013b7565b60405180910390fd5b6000600190505b600b54811162000d7e5762000d1d600662000dce60201b62001d841760201c565b62000d34600862000dce60201b62001d841760201c565b62000d68600d60029054906101000a900473ffffffffffffffffffffffffffffffffffffffff168262000de460201b60201c565b808062000d75906200150f565b91505062000cfc565b5062000d96600862000dce60201b62001d841760201c565b62000dcc600d60029054906101000a900473ffffffffffffffffffffffffffffffffffffffff1661037862000de460201b60201c565b565b6001816000016000828254019250508190555050565b600073ffffffffffffffffffffffffffffffffffffffff168273ffffffffffffffffffffffffffffffffffffffff16141562000e57576040517f08c379a000000000000000000000000000000000000000000000000000000000815260040162000e4e906200143f565b60405180910390fd5b62000e688162000fde60201b60201c565b1562000eab576040517f08c379a000000000000000000000000000000000000000000000000000000000815260040162000ea290620013d9565b60405180910390fd5b62000ebf600083836200104a60201b60201c565b6001600360008473ffffffffffffffffffffffffffffffffffffffff1673ffffffffffffffffffffffffffffffffffffffff168152602001908152602001600020600082825462000f11919062001472565b92505081905550816002600083815260200190815260200160002060006101000a81548173ffffffffffffffffffffffffffffffffffffffff021916908373ffffffffffffffffffffffffffffffffffffffff160217905550808273ffffffffffffffffffffffffffffffffffffffff16600073ffffffffffffffffffffffffffffffffffffffff167fddf252ad1be2c89b69c2b068fc378daa952ba7f163c4a11628f55a4df523b3ef60405160405180910390a462000fda60008383620011ff60201b60201c565b5050565b60008073ffffffffffffffffffffffffffffffffffffffff166002600084815260200190815260200160002060009054906101000a900473ffffffffffffffffffffffffffffffffffffffff1673ffffffffffffffffffffffffffffffffffffffff1614159050919050565b600d60009054906101000a900460ff16156200109d576040517f08c379a00000000000000000000000000000000000000000000000000000000081526004016200109490620013b7565b60405180910390fd5b60011515600e60008473ffffffffffffffffffffffffffffffffffffffff1673ffffffffffffffffffffffffffffffffffffffff16815260200190815260200160002060009054906101000a900460ff161515141562001134576040517f08c379a00000000000000000000000000000000000000000000000000000000081526004016200112b906200141d565b60405180910390fd5b62001145816200120460201b60201c565b15620011e25760011515601060003373ffffffffffffffffffffffffffffffffffffffff1673ffffffffffffffffffffffffffffffffffffffff16815260200190815260200160002060009054906101000a900460ff16151514620011e1576040517f08c379a0000000000000000000000000000000000000000000000000000000008152600401620011d890620013fb565b60405180910390fd5b5b620011fa8383836200123f60201b62001d9a1760201c565b505050565b505050565b60008082118015620012185750600b548211155b8062001225575061037882145b156200123557600190506200123a565b600090505b919050565b505050565b8280546200125290620014d9565b90600052602060002090601f016020900481019282620012765760008555620012c2565b82601f106200129157805160ff1916838001178555620012c2565b82800160010185558215620012c2579182015b82811115620012c1578251825591602001919060010190620012a4565b5b509050620012d19190620012d5565b5090565b5b80821115620012f0576000816000905550600101620012d6565b5090565b60006200130360048362001461565b91506200131082620015bb565b602082019050919050565b60006200132a601c8362001461565b91506200133782620015e4565b602082019050919050565b60006200135160408362001461565b91506200135e826200160d565b604082019050919050565b600062001378600c8362001461565b915062001385826200165c565b602082019050919050565b60006200139f60208362001461565b9150620013ac8262001685565b602082019050919050565b60006020820190508181036000830152620013d281620012f4565b9050919050565b60006020820190508181036000830152620013f4816200131b565b9050919050565b60006020820190508181036000830152620014168162001342565b9050919050565b60006020820190508181036000830152620014388162001369565b9050919050565b600060208201905081810360008301526200145a8162001390565b9050919050565b600082825260208201905092915050565b60006200147f82620014cf565b91506200148c83620014cf565b9250827fffffffffffffffffffffffffffffffffffffffffffffffffffffffffffffffff03821115620014c457620014c36200155d565b5b828201905092915050565b6000819050919050565b60006002820490506001821680620014f257607f821691505b602082108114156200150957620015086200158c565b5b50919050565b60006200151c82620014cf565b91507fffffffffffffffffffffffffffffffffffffffffffffffffffffffffffffffff8214156200155257620015516200155d565b5b600182019050919050565b7f4e487b7100000000000000000000000000000000000000000000000000000000600052601160045260246000fd5b7f4e487b7100000000000000000000000000000000000000000000000000000000600052602260045260246000fd5b7f534f4f4e00000000000000000000000000000000000000000000000000000000600082015250565b7f4552433732313a20746f6b656e20616c7265616479206d696e74656400000000600082015250565b7f4f6e6c79204d7574616e7420417572656c6975732063616e20626573746f772060008201527f6f776e657220686973206661766f722075706f6e20746865206d61737365732e602082015250565b7f4e4f4e4520464f5220594f550000000000000000000000000000000000000000600082015250565b7f4552433732313a206d696e7420746f20746865207a65726f2061646472657373600082015250565b61489d80620016be6000396000f3fe608060405234801561001057600080fd5b50600436106102275760003560e01c80636bbcdc1611610130578063a39000a7116100b8578063ccacd0c51161007c578063ccacd0c514610624578063d981d59614610642578063e985e9c514610660578063ea193cda14610690578063f7cedd85146106ac57610227565b8063a39000a714610582578063b3e8524b1461058c578063b88d4fde146105bc578063bfd06af7146105d8578063c87b56dd146105f457610227565b8063880cdc31116100ff578063880cdc31146104f25780638da5cb5b1461050e57806395d89b411461052c57806396a0db301461054a578063a22cb4651461056657610227565b80636bbcdc161461046c5780636c7f7b321461048a57806370a08231146104a6578063775ce033146104d657610227565b80632ecdbc48116101b35780634563649d116101825780634563649d146103b65780634bc26106146103d45780635b627c70146104045780635fc82523146104205780636352211e1461043c57610227565b80632ecdbc4814610344578063332b3a8d1461036057806342842e0e1461037e5780634441d1321461039a57610227565b80631249c58b116101fa5780631249c58b146102c657806318160ddd146102d05780631b3bf3d8146102ee57806323b872dd1461030a57806326c6adeb1461032657610227565b806301ffc9a71461022c57806306fdde031461025c578063081812fc1461027a578063095ea7b3146102aa575b600080fd5b610246600480360381019061024191906131d9565b6106c8565b604051610253919061387d565b60405180910390f35b6102646107aa565b6040516102719190613898565b60405180910390f35b610294600480360381019061028f919061326c565b61083c565b6040516102a19190613816565b60405180910390f35b6102c460048036038101906102bf9190613174565b6108c1565b005b6102ce6109d9565b005b6102d8610adf565b6040516102e59190613c3a565b60405180910390f35b61030860048036038101906103039190613295565b610ae9565b005b610324600480360381019061031f919061306e565b610c5f565b005b61032e610cbf565b60405161033b919061387d565b60405180910390f35b61035e60048036038101906103599190613009565b610cd6565b005b610368610dc1565b6040516103759190613c3a565b60405180910390f35b6103986004803603810190610393919061306e565b610dd2565b005b6103b460048036038101906103af9190613009565b610df2565b005b6103be610edd565b6040516103cb9190613c3a565b60405180910390f35b6103ee60048036038101906103e99190613009565b610ee3565b6040516103fb919061387d565b60405180910390f35b61041e6004803603810190610419919061326c565b610f39565b005b61043a600480360381019061043591906131b0565b610fd3565b005b6104566004803603810190610451919061326c565b611080565b6040516104639190613816565b60405180910390f35b610474611132565b6040516104819190613c3a565b60405180910390f35b6104a4600480360381019061049f9190613138565b611143565b005b6104c060048036038101906104bb9190613009565b61122e565b6040516104cd9190613c3a565b60405180910390f35b6104f060048036038101906104eb919061322b565b6112e6565b005b61050c60048036038101906105079190613009565b611390565b005b610516611464565b6040516105239190613816565b60405180910390f35b61053461148e565b6040516105419190613898565b60405180910390f35b610564600480360381019061055f9190613009565b611520565b005b610580600480360381019061057b9190613138565b61160b565b005b61058a611621565b005b6105a660048036038101906105a19190613009565b6117a9565b6040516105b3919061387d565b60405180910390f35b6105d660048036038101906105d191906130bd565b6117ff565b005b6105f260048036038101906105ed9190613009565b611861565b005b61060e6004803603810190610609919061326c565b61194c565b60405161061b9190613898565b60405180910390f35b61062c611a5f565b6040516106399190613c3a565b60405180910390f35b61064a611a65565b6040516106579190613c3a565b60405180910390f35b61067a60048036038101906106759190613032565b611a76565b604051610687919061387d565b60405180910390f35b6106aa60048036038101906106a5919061326c565b611b0a565b005b6106c660048036038101906106c191906131b0565b611cd7565b005b60007f80ac58cd000000000000000000000000000000000000000000000000000000007bffffffffffffffffffffffffffffffffffffffffffffffffffffffff1916827bffffffffffffffffffffffffffffffffffffffffffffffffffffffff1916148061079357507f5b5e139f000000000000000000000000000000000000000000000000000000007bffffffffffffffffffffffffffffffffffffffffffffffffffffffff1916827bffffffffffffffffffffffffffffffffffffffffffffffffffffffff1916145b806107a357506107a282611d9f565b5b9050919050565b6060600080546107b990613e9b565b80601f01602080910402602001604051908101604052809291908181526020018280546107e590613e9b565b80156108325780601f1061080757610100808354040283529160200191610832565b820191906000526020600020905b81548152906001019060200180831161081557829003601f168201915b5050505050905090565b600061084782611e09565b610886576040517f08c379a000000000000000000000000000000000000000000000000000000000815260040161087d90613afa565b60405180910390fd5b6004600083815260200190815260200160002060009054906101000a900473ffffffffffffffffffffffffffffffffffffffff169050919050565b60006108cc82611080565b90508073ffffffffffffffffffffffffffffffffffffffff168373ffffffffffffffffffffffffffffffffffffffff16141561093d576040517f08c379a000000000000000000000000000000000000000000000000000000000815260040161093490613b7a565b60405180910390fd5b8073ffffffffffffffffffffffffffffffffffffffff1661095c611e75565b73ffffffffffffffffffffffffffffffffffffffff16148061098b575061098a81610985611e75565b611a76565b5b6109ca576040517f08c379a00000000000000000000000000000000000000000000000000000000081526004016109c190613a3a565b60405180910390fd5b6109d48383611e7d565b505050565b600d60009054906101000a900460ff1615610a29576040517f08c379a0000000000000000000000000000000000000000000000000000000008152600401610a20906138fa565b60405180910390fd5b600d60019054906101000a900460ff1615610ad25760011515600f60003373ffffffffffffffffffffffffffffffffffffffff1673ffffffffffffffffffffffffffffffffffffffff16815260200190815260200160002060009054906101000a900460ff16151514610ad1576040517f08c379a0000000000000000000000000000000000000000000000000000000008152600401610ac890613bda565b60405180910390fd5b5b610add336000611f36565b565b6000610378905090565b60011515601060003373ffffffffffffffffffffffffffffffffffffffff1673ffffffffffffffffffffffffffffffffffffffff16815260200190815260200160002060009054906101000a900460ff16151514610b7c576040517f08c379a0000000000000000000000000000000000000000000000000000000008152600401610b7390613b9a565b60405180910390fd5b610b85826120c5565b610bc4576040517f08c379a0000000000000000000000000000000000000000000000000000000008152600401610bbb90613bfa565b60405180910390fd5b6000610bcf83611080565b9050600d60029054906101000a900473ffffffffffffffffffffffffffffffffffffffff1673ffffffffffffffffffffffffffffffffffffffff168173ffffffffffffffffffffffffffffffffffffffff1614610c4f57610c306007611d84565b610c4e81610c3c611132565b600a54610c499190613d2a565b6120fc565b5b610c5a8183856122d6565b505050565b610c70610c6a611e75565b8261253d565b610caf576040517f08c379a0000000000000000000000000000000000000000000000000000000008152600401610ca690613bba565b60405180910390fd5b610cba8383836122d6565b505050565b6000600d60009054906101000a900460ff16905090565b600d60029054906101000a900473ffffffffffffffffffffffffffffffffffffffff1673ffffffffffffffffffffffffffffffffffffffff163373ffffffffffffffffffffffffffffffffffffffff1614610d66576040517f08c379a0000000000000000000000000000000000000000000000000000000008152600401610d5d90613b9a565b60405180910390fd5b6000600e60008373ffffffffffffffffffffffffffffffffffffffff1673ffffffffffffffffffffffffffffffffffffffff16815260200190815260200160002060006101000a81548160ff02191690831515021790555050565b6000610dcd600861261b565b905090565b610ded838383604051806020016040528060008152506117ff565b505050565b600d60029054906101000a900473ffffffffffffffffffffffffffffffffffffffff1673ffffffffffffffffffffffffffffffffffffffff163373ffffffffffffffffffffffffffffffffffffffff1614610e82576040517f08c379a0000000000000000000000000000000000000000000000000000000008152600401610e7990613b9a565b60405180910390fd5b6000600f60008373ffffffffffffffffffffffffffffffffffffffff1673ffffffffffffffffffffffffffffffffffffffff16815260200190815260200160002060006101000a81548160ff02191690831515021790555050565b600b5481565b6000600e60008373ffffffffffffffffffffffffffffffffffffffff1673ffffffffffffffffffffffffffffffffffffffff16815260200190815260200160002060009054906101000a900460ff169050919050565b600d60029054906101000a900473ffffffffffffffffffffffffffffffffffffffff1673ffffffffffffffffffffffffffffffffffffffff163373ffffffffffffffffffffffffffffffffffffffff1614610fc9576040517f08c379a0000000000000000000000000000000000000000000000000000000008152600401610fc090613b9a565b60405180910390fd5b8060098190555050565b600d60029054906101000a900473ffffffffffffffffffffffffffffffffffffffff1673ffffffffffffffffffffffffffffffffffffffff163373ffffffffffffffffffffffffffffffffffffffff1614611063576040517f08c379a000000000000000000000000000000000000000000000000000000000815260040161105a90613b9a565b60405180910390fd5b80600d60006101000a81548160ff02191690831515021790555050565b6000806002600084815260200190815260200160002060009054906101000a900473ffffffffffffffffffffffffffffffffffffffff169050600073ffffffffffffffffffffffffffffffffffffffff168173ffffffffffffffffffffffffffffffffffffffff161415611129576040517f08c379a000000000000000000000000000000000000000000000000000000000815260040161112090613a9a565b60405180910390fd5b80915050919050565b600061113e600761261b565b905090565b600d60029054906101000a900473ffffffffffffffffffffffffffffffffffffffff1673ffffffffffffffffffffffffffffffffffffffff163373ffffffffffffffffffffffffffffffffffffffff16146111d3576040517f08c379a00000000000000000000000000000000000000000000000000000000081526004016111ca90613b9a565b60405180910390fd5b80601060008473ffffffffffffffffffffffffffffffffffffffff1673ffffffffffffffffffffffffffffffffffffffff16815260200190815260200160002060006101000a81548160ff0219169083151502179055505050565b60008073ffffffffffffffffffffffffffffffffffffffff168273ffffffffffffffffffffffffffffffffffffffff16141561129f576040517f08c379a000000000000000000000000000000000000000000000000000000000815260040161129690613a7a565b60405180910390fd5b600360008373ffffffffffffffffffffffffffffffffffffffff1673ffffffffffffffffffffffffffffffffffffffff168152602001908152602001600020549050919050565b600d60029054906101000a900473ffffffffffffffffffffffffffffffffffffffff1673ffffffffffffffffffffffffffffffffffffffff163373ffffffffffffffffffffffffffffffffffffffff1614611376576040517f08c379a000000000000000000000000000000000000000000000000000000000815260040161136d90613b9a565b60405180910390fd5b80600c908051906020019061138c929190612e2d565b5050565b600d60029054906101000a900473ffffffffffffffffffffffffffffffffffffffff1673ffffffffffffffffffffffffffffffffffffffff163373ffffffffffffffffffffffffffffffffffffffff1614611420576040517f08c379a000000000000000000000000000000000000000000000000000000000815260040161141790613b9a565b60405180910390fd5b80600d60026101000a81548173ffffffffffffffffffffffffffffffffffffffff021916908373ffffffffffffffffffffffffffffffffffffffff16021790555050565b6000600d60029054906101000a900473ffffffffffffffffffffffffffffffffffffffff16905090565b60606001805461149d90613e9b565b80601f01602080910402602001604051908101604052809291908181526020018280546114c990613e9b565b80156115165780601f106114eb57610100808354040283529160200191611516565b820191906000526020600020905b8154815290600101906020018083116114f957829003601f168201915b5050505050905090565b600d60029054906101000a900473ffffffffffffffffffffffffffffffffffffffff1673ffffffffffffffffffffffffffffffffffffffff163373ffffffffffffffffffffffffffffffffffffffff16146115b0576040517f08c379a00000000000000000000000000000000000000000000000000000000081526004016115a790613b9a565b60405180910390fd5b6001600e60008373ffffffffffffffffffffffffffffffffffffffff1673ffffffffffffffffffffffffffffffffffffffff16815260200190815260200160002060006101000a81548160ff02191690831515021790555050565b61161d611616611e75565b8383612629565b5050565b600d60029054906101000a900473ffffffffffffffffffffffffffffffffffffffff1673ffffffffffffffffffffffffffffffffffffffff163373ffffffffffffffffffffffffffffffffffffffff16146116b1576040517f08c379a00000000000000000000000000000000000000000000000000000000081526004016116a890613b9a565b60405180910390fd5b6000479050600081116116f9576040517f08c379a00000000000000000000000000000000000000000000000000000000081526004016116f090613c1a565b60405180910390fd5b60003373ffffffffffffffffffffffffffffffffffffffff168260405161171f90613801565b60006040518083038185875af1925050503d806000811461175c576040519150601f19603f3d011682016040523d82523d6000602084013e611761565b606091505b50509050806117a5576040517f08c379a000000000000000000000000000000000000000000000000000000000815260040161179c90613aba565b60405180910390fd5b5050565b6000601060008373ffffffffffffffffffffffffffffffffffffffff1673ffffffffffffffffffffffffffffffffffffffff16815260200190815260200160002060009054906101000a900460ff169050919050565b61181061180a611e75565b8361253d565b61184f576040517f08c379a000000000000000000000000000000000000000000000000000000000815260040161184690613bba565b60405180910390fd5b61185b84848484612796565b50505050565b600d60029054906101000a900473ffffffffffffffffffffffffffffffffffffffff1673ffffffffffffffffffffffffffffffffffffffff163373ffffffffffffffffffffffffffffffffffffffff16146118f1576040517f08c379a00000000000000000000000000000000000000000000000000000000081526004016118e890613b9a565b60405180910390fd5b6001600f60008373ffffffffffffffffffffffffffffffffffffffff1673ffffffffffffffffffffffffffffffffffffffff16815260200190815260200160002060006101000a81548160ff02191690831515021790555050565b606061195782611e09565b611996576040517f08c379a000000000000000000000000000000000000000000000000000000000815260040161198d90613b3a565b60405180910390fd5b61037882116119af576119a8826127f2565b9050611a5a565b6119b882611e09565b15611a115760006119c7612899565b51116119e25760405180602001604052806000815250611a0a565b6119ea612899565b6040516020016119fa91906137df565b6040516020818303038152906040525b9050611a5a565b611a1a82611e09565b611a59576040517f08c379a0000000000000000000000000000000000000000000000000000000008152600401611a5090613b3a565b60405180910390fd5b5b919050565b600a5481565b6000611a71600661261b565b905090565b6000600560008473ffffffffffffffffffffffffffffffffffffffff1673ffffffffffffffffffffffffffffffffffffffff16815260200190815260200160002060008373ffffffffffffffffffffffffffffffffffffffff1673ffffffffffffffffffffffffffffffffffffffff16815260200190815260200160002060009054906101000a900460ff16905092915050565b600d60009054906101000a900460ff1615611b5a576040517f08c379a0000000000000000000000000000000000000000000000000000000008152600401611b51906138fa565b60405180910390fd5b600d60019054906101000a900460ff16611ba9576040517f08c379a0000000000000000000000000000000000000000000000000000000008152600401611ba09061391a565b60405180910390fd5b60011515600f60003373ffffffffffffffffffffffffffffffffffffffff1673ffffffffffffffffffffffffffffffffffffffff16815260200190815260200160002060009054906101000a900460ff16151514611c3c576040517f08c379a0000000000000000000000000000000000000000000000000000000008152600401611c3390613bda565b60405180910390fd5b610378811115611c81576040517f08c379a0000000000000000000000000000000000000000000000000000000008152600401611c7890613b5a565b60405180910390fd5b611c8a81611e09565b15611cca576040517f08c379a0000000000000000000000000000000000000000000000000000000008152600401611cc1906138ba565b60405180910390fd5b611cd43382611f36565b50565b600d60029054906101000a900473ffffffffffffffffffffffffffffffffffffffff1673ffffffffffffffffffffffffffffffffffffffff163373ffffffffffffffffffffffffffffffffffffffff1614611d67576040517f08c379a0000000000000000000000000000000000000000000000000000000008152600401611d5e90613b9a565b60405180910390fd5b80600d60016101000a81548160ff02191690831515021790555050565b6001816000016000828254019250508190555050565b505050565b60007f01ffc9a7000000000000000000000000000000000000000000000000000000007bffffffffffffffffffffffffffffffffffffffffffffffffffffffff1916827bffffffffffffffffffffffffffffffffffffffffffffffffffffffff1916149050919050565b60008073ffffffffffffffffffffffffffffffffffffffff166002600084815260200190815260200160002060009054906101000a900473ffffffffffffffffffffffffffffffffffffffff1673ffffffffffffffffffffffffffffffffffffffff1614159050919050565b600033905090565b816004600083815260200190815260200160002060006101000a81548173ffffffffffffffffffffffffffffffffffffffff021916908373ffffffffffffffffffffffffffffffffffffffff160217905550808273ffffffffffffffffffffffffffffffffffffffff16611ef083611080565b73ffffffffffffffffffffffffffffffffffffffff167f8c5be1e5ebec7d5bd14f71427d1e84f3dd0314c0f7b2291e5b200ac8c7c3b92560405160405180910390a45050565b600a54611f41610dc1565b10611f81576040517f08c379a0000000000000000000000000000000000000000000000000000000008152600401611f7890613a5a565b60405180910390fd5b600954611f8d3361122e565b10611fcd576040517f08c379a0000000000000000000000000000000000000000000000000000000008152600401611fc49061397a565b60405180910390fd5b60011515600e60008473ffffffffffffffffffffffffffffffffffffffff1673ffffffffffffffffffffffffffffffffffffffff16815260200190815260200160002060009054906101000a900460ff1615151415612061576040517f08c379a0000000000000000000000000000000000000000000000000000000008152600401612058906139fa565b60405180910390fd5b5b60011515612076612071611a65565b611e09565b1515141561208d576120886006611d84565b612062565b6120976008611d84565b60008114156120b6576120b1826120ac611a65565b6120fc565b6120c1565b6120c082826120fc565b5b5050565b600080821180156120d85750600b548211155b806120e4575061037882145b156120f257600190506120f7565b600090505b919050565b600073ffffffffffffffffffffffffffffffffffffffff168273ffffffffffffffffffffffffffffffffffffffff16141561216c576040517f08c379a000000000000000000000000000000000000000000000000000000000815260040161216390613ada565b60405180910390fd5b61217581611e09565b156121b5576040517f08c379a00000000000000000000000000000000000000000000000000000000081526004016121ac9061395a565b60405180910390fd5b6121c16000838361292b565b6001600360008473ffffffffffffffffffffffffffffffffffffffff1673ffffffffffffffffffffffffffffffffffffffff16815260200190815260200160002060008282546122119190613d2a565b92505081905550816002600083815260200190815260200160002060006101000a81548173ffffffffffffffffffffffffffffffffffffffff021916908373ffffffffffffffffffffffffffffffffffffffff160217905550808273ffffffffffffffffffffffffffffffffffffffff16600073ffffffffffffffffffffffffffffffffffffffff167fddf252ad1be2c89b69c2b068fc378daa952ba7f163c4a11628f55a4df523b3ef60405160405180910390a46122d260008383612ac1565b5050565b8273ffffffffffffffffffffffffffffffffffffffff166122f682611080565b73ffffffffffffffffffffffffffffffffffffffff161461234c576040517f08c379a00000000000000000000000000000000000000000000000000000000081526004016123439061393a565b60405180910390fd5b600073ffffffffffffffffffffffffffffffffffffffff168273ffffffffffffffffffffffffffffffffffffffff1614156123bc576040517f08c379a00000000000000000000000000000000000000000000000000000000081526004016123b39061399a565b60405180910390fd5b6123c783838361292b565b6123d2600082611e7d565b6001600360008573ffffffffffffffffffffffffffffffffffffffff1673ffffffffffffffffffffffffffffffffffffffff16815260200190815260200160002060008282546124229190613db1565b925050819055506001600360008473ffffffffffffffffffffffffffffffffffffffff1673ffffffffffffffffffffffffffffffffffffffff16815260200190815260200160002060008282546124799190613d2a565b92505081905550816002600083815260200190815260200160002060006101000a81548173ffffffffffffffffffffffffffffffffffffffff021916908373ffffffffffffffffffffffffffffffffffffffff160217905550808273ffffffffffffffffffffffffffffffffffffffff168473ffffffffffffffffffffffffffffffffffffffff167fddf252ad1be2c89b69c2b068fc378daa952ba7f163c4a11628f55a4df523b3ef60405160405180910390a4612538838383612ac1565b505050565b600061254882611e09565b612587576040517f08c379a000000000000000000000000000000000000000000000000000000000815260040161257e90613a1a565b60405180910390fd5b600061259283611080565b90508073ffffffffffffffffffffffffffffffffffffffff168473ffffffffffffffffffffffffffffffffffffffff1614806125d457506125d38185611a76565b5b8061261257508373ffffffffffffffffffffffffffffffffffffffff166125fa8461083c565b73ffffffffffffffffffffffffffffffffffffffff16145b91505092915050565b600081600001549050919050565b8173ffffffffffffffffffffffffffffffffffffffff168373ffffffffffffffffffffffffffffffffffffffff161415612698576040517f08c379a000000000000000000000000000000000000000000000000000000000815260040161268f906139ba565b60405180910390fd5b80600560008573ffffffffffffffffffffffffffffffffffffffff1673ffffffffffffffffffffffffffffffffffffffff16815260200190815260200160002060008473ffffffffffffffffffffffffffffffffffffffff1673ffffffffffffffffffffffffffffffffffffffff16815260200190815260200160002060006101000a81548160ff0219169083151502179055508173ffffffffffffffffffffffffffffffffffffffff168373ffffffffffffffffffffffffffffffffffffffff167f17307eab39ab6107e8899845ad3d59bd9653f200f220920489ca2b5937696c3183604051612789919061387d565b60405180910390a3505050565b6127a18484846122d6565b6127ad84848484612ac6565b6127ec576040517f08c379a00000000000000000000000000000000000000000000000000000000081526004016127e3906138da565b60405180910390fd5b50505050565b60606127fd82611e09565b61283c576040517f08c379a000000000000000000000000000000000000000000000000000000000815260040161283390613b1a565b60405180910390fd5b6000612846612899565b905060008151116128665760405180602001604052806000815250612891565b8061287084612c5d565b6040516020016128819291906137bb565b6040516020818303038152906040525b915050919050565b6060600c80546128a890613e9b565b80601f01602080910402602001604051908101604052809291908181526020018280546128d490613e9b565b80156129215780601f106128f657610100808354040283529160200191612921565b820191906000526020600020905b81548152906001019060200180831161290457829003601f168201915b5050505050905090565b600d60009054906101000a900460ff161561297b576040517f08c379a0000000000000000000000000000000000000000000000000000000008152600401612972906138fa565b60405180910390fd5b60011515600e60008473ffffffffffffffffffffffffffffffffffffffff1673ffffffffffffffffffffffffffffffffffffffff16815260200190815260200160002060009054906101000a900460ff1615151415612a0f576040517f08c379a0000000000000000000000000000000000000000000000000000000008152600401612a06906139fa565b60405180910390fd5b612a18816120c5565b15612ab15760011515601060003373ffffffffffffffffffffffffffffffffffffffff1673ffffffffffffffffffffffffffffffffffffffff16815260200190815260200160002060009054906101000a900460ff16151514612ab0576040517f08c379a0000000000000000000000000000000000000000000000000000000008152600401612aa7906139da565b60405180910390fd5b5b612abc838383611d9a565b505050565b505050565b6000612ae78473ffffffffffffffffffffffffffffffffffffffff16612e0a565b15612c50578373ffffffffffffffffffffffffffffffffffffffff1663150b7a02612b10611e75565b8786866040518563ffffffff1660e01b8152600401612b329493929190613831565b602060405180830381600087803b158015612b4c57600080fd5b505af1925050508015612b7d57506040513d601f19601f82011682018060405250810190612b7a9190613202565b60015b612c00573d8060008114612bad576040519150601f19603f3d011682016040523d82523d6000602084013e612bb2565b606091505b50600081511415612bf8576040517f08c379a0000000000000000000000000000000000000000000000000000000008152600401612bef906138da565b60405180910390fd5b805181602001fd5b63150b7a0260e01b7bffffffffffffffffffffffffffffffffffffffffffffffffffffffff1916817bffffffffffffffffffffffffffffffffffffffffffffffffffffffff191614915050612c55565b600190505b949350505050565b60606000821415612ca5576040518060400160405280600181526020017f30000000000000000000000000000000000000000000000000000000000000008152509050612e05565b600082905060005b60008214612cd7578080612cc090613efe565b915050600a82612cd09190613d80565b9150612cad565b60008167ffffffffffffffff811115612d19577f4e487b7100000000000000000000000000000000000000000000000000000000600052604160045260246000fd5b6040519080825280601f01601f191660200182016040528015612d4b5781602001600182028036833780820191505090505b5090505b60008514612dfe57600182612d649190613db1565b9150600a85612d739190613f47565b6030612d7f9190613d2a565b60f81b818381518110612dbb577f4e487b7100000000000000000000000000000000000000000000000000000000600052603260045260246000fd5b60200101907effffffffffffffffffffffffffffffffffffffffffffffffffffffffffffff1916908160001a905350600a85612df79190613d80565b9450612d4f565b8093505050505b919050565b6000808273ffffffffffffffffffffffffffffffffffffffff163b119050919050565b828054612e3990613e9b565b90600052602060002090601f016020900481019282612e5b5760008555612ea2565b82601f10612e7457805160ff1916838001178555612ea2565b82800160010185558215612ea2579182015b82811115612ea1578251825591602001919060010190612e86565b5b509050612eaf9190612eb3565b5090565b5b80821115612ecc576000816000905550600101612eb4565b5090565b6000612ee3612ede84613c7a565b613c55565b905082815260208101848484011115612efb57600080fd5b612f06848285613e59565b509392505050565b6000612f21612f1c84613cab565b613c55565b905082815260208101848484011115612f3957600080fd5b612f44848285613e59565b509392505050565b600081359050612f5b8161480b565b92915050565b600081359050612f7081614822565b92915050565b600081359050612f8581614839565b92915050565b600081519050612f9a81614839565b92915050565b600082601f830112612fb157600080fd5b8135612fc1848260208601612ed0565b91505092915050565b600082601f830112612fdb57600080fd5b8135612feb848260208601612f0e565b91505092915050565b60008135905061300381614850565b92915050565b60006020828403121561301b57600080fd5b600061302984828501612f4c565b91505092915050565b6000806040838503121561304557600080fd5b600061305385828601612f4c565b925050602061306485828601612f4c565b9150509250929050565b60008060006060848603121561308357600080fd5b600061309186828701612f4c565b93505060206130a286828701612f4c565b92505060406130b386828701612ff4565b9150509250925092565b600080600080608085870312156130d357600080fd5b60006130e187828801612f4c565b94505060206130f287828801612f4c565b935050604061310387828801612ff4565b925050606085013567ffffffffffffffff81111561312057600080fd5b61312c87828801612fa0565b91505092959194509250565b6000806040838503121561314b57600080fd5b600061315985828601612f4c565b925050602061316a85828601612f61565b9150509250929050565b6000806040838503121561318757600080fd5b600061319585828601612f4c565b92505060206131a685828601612ff4565b9150509250929050565b6000602082840312156131c257600080fd5b60006131d084828501612f61565b91505092915050565b6000602082840312156131eb57600080fd5b60006131f984828501612f76565b91505092915050565b60006020828403121561321457600080fd5b600061322284828501612f8b565b91505092915050565b60006020828403121561323d57600080fd5b600082013567ffffffffffffffff81111561325757600080fd5b61326384828501612fca565b91505092915050565b60006020828403121561327e57600080fd5b600061328c84828501612ff4565b91505092915050565b600080604083850312156132a857600080fd5b60006132b685828601612ff4565b92505060206132c785828601612f4c565b9150509250929050565b6132da81613de5565b82525050565b6132e981613df7565b82525050565b60006132fa82613cdc565b6133048185613cf2565b9350613314818560208601613e68565b61331d81614034565b840191505092915050565b600061333382613ce7565b61333d8185613d0e565b935061334d818560208601613e68565b61335681614034565b840191505092915050565b600061336c82613ce7565b6133768185613d1f565b9350613386818560208601613e68565b80840191505092915050565b600061339f604483613d0e565b91506133aa82614045565b606082019050919050565b60006133c2603283613d0e565b91506133cd826140ba565b604082019050919050565b60006133e5600483613d0e565b91506133f082614109565b602082019050919050565b6000613408604583613d0e565b915061341382614132565b606082019050919050565b600061342b602583613d0e565b9150613436826141a7565b604082019050919050565b600061344e601c83613d0e565b9150613459826141f6565b602082019050919050565b6000613471601e83613d0e565b915061347c8261421f565b602082019050919050565b6000613494602483613d0e565b915061349f82614248565b604082019050919050565b60006134b7601983613d0e565b91506134c282614297565b602082019050919050565b60006134da604083613d0e565b91506134e5826142c0565b604082019050919050565b60006134fd600c83613d0e565b91506135088261430f565b602082019050919050565b6000613520602c83613d0e565b915061352b82614338565b604082019050919050565b6000613543603883613d0e565b915061354e82614387565b604082019050919050565b6000613566602d83613d0e565b9150613571826143d6565b604082019050919050565b6000613589602a83613d0e565b915061359482614425565b604082019050919050565b60006135ac602983613d0e565b91506135b782614474565b604082019050919050565b60006135cf601a83613d0e565b91506135da826144c3565b602082019050919050565b60006135f2602083613d0e565b91506135fd826144ec565b602082019050919050565b6000613615600783613d1f565b915061362082614515565b600782019050919050565b6000613638602c83613d0e565b91506136438261453e565b604082019050919050565b600061365b602f83613d0e565b91506136668261458d565b604082019050919050565b600061367e601883613d0e565b9150613689826145dc565b602082019050919050565b60006136a1602f83613d0e565b91506136ac82614605565b604082019050919050565b60006136c4602183613d0e565b91506136cf82614654565b604082019050919050565b60006136e7600083613d03565b91506136f2826146a3565b600082019050919050565b600061370a603283613d0e565b9150613715826146a6565b604082019050919050565b600061372d603183613d0e565b9150613738826146f5565b604082019050919050565b6000613750601783613d0e565b915061375b82614744565b602082019050919050565b6000613773603183613d0e565b915061377e8261476d565b604082019050919050565b6000613796603683613d0e565b91506137a1826147bc565b604082019050919050565b6137b581613e4f565b82525050565b60006137c78285613361565b91506137d38284613361565b91508190509392505050565b60006137eb8284613361565b91506137f682613608565b915081905092915050565b600061380c826136da565b9150819050919050565b600060208201905061382b60008301846132d1565b92915050565b600060808201905061384660008301876132d1565b61385360208301866132d1565b61386060408301856137ac565b818103606083015261387281846132ef565b905095945050505050565b600060208201905061389260008301846132e0565b92915050565b600060208201905081810360008301526138b28184613328565b905092915050565b600060208201905081810360008301526138d381613392565b9050919050565b600060208201905081810360008301526138f3816133b5565b9050919050565b60006020820190508181036000830152613913816133d8565b9050919050565b60006020820190508181036000830152613933816133fb565b9050919050565b600060208201905081810360008301526139538161341e565b9050919050565b6000602082019050818103600083015261397381613441565b9050919050565b6000602082019050818103600083015261399381613464565b9050919050565b600060208201905081810360008301526139b381613487565b9050919050565b600060208201905081810360008301526139d3816134aa565b9050919050565b600060208201905081810360008301526139f3816134cd565b9050919050565b60006020820190508181036000830152613a13816134f0565b9050919050565b60006020820190508181036000830152613a3381613513565b9050919050565b60006020820190508181036000830152613a5381613536565b9050919050565b60006020820190508181036000830152613a7381613559565b9050919050565b60006020820190508181036000830152613a938161357c565b9050919050565b60006020820190508181036000830152613ab38161359f565b9050919050565b60006020820190508181036000830152613ad3816135c2565b9050919050565b60006020820190508181036000830152613af3816135e5565b9050919050565b60006020820190508181036000830152613b138161362b565b9050919050565b60006020820190508181036000830152613b338161364e565b9050919050565b60006020820190508181036000830152613b5381613671565b9050919050565b60006020820190508181036000830152613b7381613694565b9050919050565b60006020820190508181036000830152613b93816136b7565b9050919050565b60006020820190508181036000830152613bb3816136fd565b9050919050565b60006020820190508181036000830152613bd381613720565b9050919050565b60006020820190508181036000830152613bf381613743565b9050919050565b60006020820190508181036000830152613c1381613766565b9050919050565b60006020820190508181036000830152613c3381613789565b9050919050565b6000602082019050613c4f60008301846137ac565b92915050565b6000613c5f613c70565b9050613c6b8282613ecd565b919050565b6000604051905090565b600067ffffffffffffffff821115613c9557613c94614005565b5b613c9e82614034565b9050602081019050919050565b600067ffffffffffffffff821115613cc657613cc5614005565b5b613ccf82614034565b9050602081019050919050565b600081519050919050565b600081519050919050565b600082825260208201905092915050565b600081905092915050565b600082825260208201905092915050565b600081905092915050565b6000613d3582613e4f565b9150613d4083613e4f565b9250827fffffffffffffffffffffffffffffffffffffffffffffffffffffffffffffffff03821115613d7557613d74613f78565b5b828201905092915050565b6000613d8b82613e4f565b9150613d9683613e4f565b925082613da657613da5613fa7565b5b828204905092915050565b6000613dbc82613e4f565b9150613dc783613e4f565b925082821015613dda57613dd9613f78565b5b828203905092915050565b6000613df082613e2f565b9050919050565b60008115159050919050565b60007fffffffff0000000000000000000000000000000000000000000000000000000082169050919050565b600073ffffffffffffffffffffffffffffffffffffffff82169050919050565b6000819050919050565b82818337600083830152505050565b60005b83811015613e86578082015181840152602081019050613e6b565b83811115613e95576000848401525b50505050565b60006002820490506001821680613eb357607f821691505b60208210811415613ec757613ec6613fd6565b5b50919050565b613ed682614034565b810181811067ffffffffffffffff82111715613ef557613ef4614005565b5b80604052505050565b6000613f0982613e4f565b91507fffffffffffffffffffffffffffffffffffffffffffffffffffffffffffffffff821415613f3c57613f3b613f78565b5b600182019050919050565b6000613f5282613e4f565b9150613f5d83613e4f565b925082613f6d57613f6c613fa7565b5b828206905092915050565b7f4e487b7100000000000000000000000000000000000000000000000000000000600052601160045260246000fd5b7f4e487b7100000000000000000000000000000000000000000000000000000000600052601260045260246000fd5b7f4e487b7100000000000000000000000000000000000000000000000000000000600052602260045260246000fd5b7f4e487b7100000000000000000000000000000000000000000000000000000000600052604160045260246000fd5b6000601f19601f8301169050919050565b7f596f7520686176652067726561742074617374653b20736f6d656f6e6520656c60008201527f73652068617320616c7265616479206d696e74656420796f7572206661766f7260208201527f6974652e00000000000000000000000000000000000000000000000000000000604082015250565b7f4552433732313a207472616e7366657220746f206e6f6e20455243373231526560008201527f63656976657220696d706c656d656e7465720000000000000000000000000000602082015250565b7f534f4f4e00000000000000000000000000000000000000000000000000000000600082015250565b7f416c6c6f776c697374696e672069736e277420656e61626c65642e205069636b60008201527f696e67206661766f72697465732069732061207468696e67206f66207468652060208201527f706173742e000000000000000000000000000000000000000000000000000000604082015250565b7f4552433732313a207472616e736665722066726f6d20696e636f72726563742060008201527f6f776e6572000000000000000000000000000000000000000000000000000000602082015250565b7f4552433732313a20746f6b656e20616c7265616479206d696e74656400000000600082015250565b7f416c77617973206c656176652027656d2077616e74696e67206d6f72652e0000600082015250565b7f4552433732313a207472616e7366657220746f20746865207a65726f2061646460008201527f7265737300000000000000000000000000000000000000000000000000000000602082015250565b7f4552433732313a20617070726f766520746f2063616c6c657200000000000000600082015250565b7f4f6e6c79204d7574616e7420417572656c6975732063616e20626573746f772060008201527f6f776e657220686973206661766f722075706f6e20746865206d61737365732e602082015250565b7f4e4f4e4520464f5220594f550000000000000000000000000000000000000000600082015250565b7f4552433732313a206f70657261746f7220717565727920666f72206e6f6e657860008201527f697374656e7420746f6b656e0000000000000000000000000000000000000000602082015250565b7f4552433732313a20617070726f76652063616c6c6572206973206e6f74206f7760008201527f6e6572206e6f7220617070726f76656420666f7220616c6c0000000000000000602082015250565b7f4d616e79206861766520636f6d65206265666f726520796f752e20546f6f206d60008201527f616e792c20696e20666163742e00000000000000000000000000000000000000602082015250565b7f4552433732313a2062616c616e636520717565727920666f7220746865207a6560008201527f726f206164647265737300000000000000000000000000000000000000000000602082015250565b7f4552433732313a206f776e657220717565727920666f72206e6f6e657869737460008201527f656e7420746f6b656e0000000000000000000000000000000000000000000000602082015250565b7f7769746864726177206661696c65642c20726576657274696e67000000000000600082015250565b7f4552433732313a206d696e7420746f20746865207a65726f2061646472657373600082015250565b7f6d656d656e746f00000000000000000000000000000000000000000000000000600082015250565b7f4552433732313a20617070726f76656420717565727920666f72206e6f6e657860008201527f697374656e7420746f6b656e0000000000000000000000000000000000000000602082015250565b7f4552433732314d657461646174613a2055524920717565727920666f72206e6f60008201527f6e6578697374656e7420746f6b656e0000000000000000000000000000000000602082015250565b7f4552433732313a20696e76616c696420746f6b656e2049440000000000000000600082015250565b7f596f7527726520747279696e6720746f206d696e7420616e204175726575732060008201527f6f75747369646520746865207365740000000000000000000000000000000000602082015250565b7f4552433732313a20617070726f76616c20746f2063757272656e74206f776e6560008201527f7200000000000000000000000000000000000000000000000000000000000000602082015250565b50565b7f496d706f73746f727320746f20746865207468726f6e6520656d62617272617360008201527f73206f6e6c79207468656d73656c7665732e0000000000000000000000000000602082015250565b7f4552433732313a207472616e736665722063616c6c6572206973206e6f74206f60008201527f776e6572206e6f7220617070726f766564000000000000000000000000000000602082015250565b7f596f75277265206e6f74206f6e20746865206c6973742e000000000000000000600082015250565b7f436865636b20796f757220746f6b656e20494420616761696e2e20536f6d657460008201527f68696e672069736e27742072696768742e000000000000000000000000000000602082015250565b7f646f6e277420776173746520796f75722067617320747279696e6720746f207760008201527f697468647261772061207a65726f2062616c616e636500000000000000000000602082015250565b61481481613de5565b811461481f57600080fd5b50565b61482b81613df7565b811461483657600080fd5b50565b61484281613e03565b811461484d57600080fd5b50565b61485981613e4f565b811461486457600080fd5b5056fea26469706673582212202dac347c6edbad6ec7b90cc0bb749e2ac8795e19418af62a995df53892dec89864736f6c63430008040033697066733a2f2f516d56454e367a6265796f326d68564b776d366264324457424c46466e474c585147754b795145744c43565777562f",
  "linkReferences": {},
  "deployedLinkReferences": {}
}