{
  "_format": "hh-sol-artifact-1",
  "contractName": "MutantAureliusAurei",
  "sourceName": "contracts/MutantAureliusAurei.sol",
  "abi": [
    {
      "inputs": [],
      "stateMutability": "nonpayable",
      "type": "constructor"
    },
    {
      "anonymous": false,
      "inputs": [
        {
          "indexed": true,
          "internalType": "address",
          "name": "owner",
          "type": "address"
        },
        {
          "indexed": true,
          "internalType": "address",
          "name": "approved",
          "type": "address"
        },
        {
          "indexed": true,
          "internalType": "uint256",
          "name": "tokenId",
          "type": "uint256"
        }
      ],
      "name": "Approval",
      "type": "event"
    },
    {
      "anonymous": false,
      "inputs": [
        {
          "indexed": true,
          "internalType": "address",
          "name": "owner",
          "type": "address"
        },
        {
          "indexed": true,
          "internalType": "address",
          "name": "operator",
          "type": "address"
        },
        {
          "indexed": false,
          "internalType": "bool",
          "name": "approved",
          "type": "bool"
        }
      ],
      "name": "ApprovalForAll",
      "type": "event"
    },
    {
      "anonymous": false,
      "inputs": [
        {
          "indexed": true,
          "internalType": "address",
          "name": "from",
          "type": "address"
        },
        {
          "indexed": true,
          "internalType": "address",
          "name": "to",
          "type": "address"
        },
        {
          "indexed": true,
          "internalType": "uint256",
          "name": "tokenId",
          "type": "uint256"
        }
      ],
      "name": "Transfer",
      "type": "event"
    },
    {
      "inputs": [
        {
          "internalType": "address",
          "name": "to",
          "type": "address"
        },
        {
          "internalType": "uint256",
          "name": "tokenId",
          "type": "uint256"
        }
      ],
      "name": "approve",
      "outputs": [],
      "stateMutability": "nonpayable",
      "type": "function"
    },
    {
      "inputs": [
        {
          "internalType": "address",
          "name": "owner",
          "type": "address"
        }
      ],
      "name": "balanceOf",
      "outputs": [
        {
          "internalType": "uint256",
          "name": "",
          "type": "uint256"
        }
      ],
      "stateMutability": "view",
      "type": "function"
    },
    {
      "inputs": [
        {
          "internalType": "uint256",
          "name": "tokenId",
          "type": "uint256"
        }
      ],
      "name": "getApproved",
      "outputs": [
        {
          "internalType": "address",
          "name": "",
          "type": "address"
        }
      ],
      "stateMutability": "view",
      "type": "function"
    },
    {
      "inputs": [],
      "name": "getContractIsPaused",
      "outputs": [
        {
          "internalType": "bool",
          "name": "",
          "type": "bool"
        }
      ],
      "stateMutability": "view",
      "type": "function"
    },
    {
      "inputs": [],
      "name": "getIndexedAureiCount",
      "outputs": [
        {
          "internalType": "uint256",
          "name": "",
          "type": "uint256"
        }
      ],
      "stateMutability": "view",
      "type": "function"
    },
    {
      "inputs": [],
      "name": "getIssuedMementoCount",
      "outputs": [
        {
          "internalType": "uint256",
          "name": "",
          "type": "uint256"
        }
      ],
      "stateMutability": "view",
      "type": "function"
    },
    {
      "inputs": [],
      "name": "getTotalAureiMinted",
      "outputs": [
        {
          "internalType": "uint256",
          "name": "",
          "type": "uint256"
        }
      ],
      "stateMutability": "view",
      "type": "function"
    },
    {
      "inputs": [],
      "name": "initialOwnerManagedTokens",
      "outputs": [
        {
          "internalType": "uint256",
          "name": "",
          "type": "uint256"
        }
      ],
      "stateMutability": "view",
      "type": "function"
    },
    {
      "inputs": [
        {
          "internalType": "address",
          "name": "owner",
          "type": "address"
        },
        {
          "internalType": "address",
          "name": "operator",
          "type": "address"
        }
      ],
      "name": "isApprovedForAll",
      "outputs": [
        {
          "internalType": "bool",
          "name": "",
          "type": "bool"
        }
      ],
      "stateMutability": "view",
      "type": "function"
    },
    {
      "inputs": [
        {
          "internalType": "address",
          "name": "questionedAddress",
          "type": "address"
        }
      ],
      "name": "isOnShitlist",
      "outputs": [
        {
          "internalType": "bool",
          "name": "",
          "type": "bool"
        }
      ],
      "stateMutability": "view",
      "type": "function"
    },
    {
      "inputs": [],
      "name": "mint",
      "outputs": [],
      "stateMutability": "payable",
      "type": "function"
    },
    {
      "inputs": [
        {
          "internalType": "uint256",
          "name": "tokenId",
          "type": "uint256"
        }
      ],
      "name": "mintFavorite",
      "outputs": [],
      "stateMutability": "payable",
      "type": "function"
    },
    {
      "inputs": [],
      "name": "name",
      "outputs": [
        {
          "internalType": "string",
          "name": "",
          "type": "string"
        }
      ],
      "stateMutability": "view",
      "type": "function"
    },
    {
      "inputs": [],
      "name": "owner",
      "outputs": [
        {
          "internalType": "address",
          "name": "",
          "type": "address"
        }
      ],
      "stateMutability": "view",
      "type": "function"
    },
    {
      "inputs": [
        {
          "internalType": "address",
          "name": "_allowAddress",
          "type": "address"
        }
      ],
      "name": "ownerAddToAllowlist",
      "outputs": [],
      "stateMutability": "nonpayable",
      "type": "function"
    },
    {
      "inputs": [
        {
          "internalType": "address",
          "name": "_shittyAddress",
          "type": "address"
        }
      ],
      "name": "ownerAddToShitlist",
      "outputs": [],
      "stateMutability": "nonpayable",
      "type": "function"
    },
    {
      "inputs": [
        {
          "internalType": "uint256",
          "name": "tokenId",
          "type": "uint256"
        }
      ],
      "name": "ownerOf",
      "outputs": [
        {
          "internalType": "address",
          "name": "",
          "type": "address"
        }
      ],
      "stateMutability": "view",
      "type": "function"
    },
    {
      "inputs": [
        {
          "internalType": "address",
          "name": "_allowAddress",
          "type": "address"
        }
      ],
      "name": "ownerRemoveFromAllowlist",
      "outputs": [],
      "stateMutability": "nonpayable",
      "type": "function"
    },
    {
      "inputs": [
        {
          "internalType": "address",
          "name": "_shittyAddress",
          "type": "address"
        }
      ],
      "name": "ownerRemoveFromShitlist",
      "outputs": [],
      "stateMutability": "nonpayable",
      "type": "function"
    },
    {
      "inputs": [
        {
          "internalType": "bool",
          "name": "allowlistActivityLevel",
          "type": "bool"
        }
      ],
      "name": "ownerSetAllowlistActive",
      "outputs": [],
      "stateMutability": "nonpayable",
      "type": "function"
    },
    {
      "inputs": [
        {
          "internalType": "string",
          "name": "newBaseTokenURI",
          "type": "string"
        }
      ],
      "name": "ownerSetBaseTokenURI",
      "outputs": [],
      "stateMutability": "nonpayable",
      "type": "function"
    },
    {
      "inputs": [
        {
          "internalType": "uint256",
          "name": "tokenId",
          "type": "uint256"
        },
        {
          "internalType": "address",
          "name": "newOwner",
          "type": "address"
        }
      ],
      "name": "ownerSetNewTokenOwner",
      "outputs": [],
      "stateMutability": "nonpayable",
      "type": "function"
    },
    {
      "inputs": [
        {
          "internalType": "bool",
          "name": "contractIsPaused",
          "type": "bool"
        }
      ],
      "name": "ownerSetPausedState",
      "outputs": [],
      "stateMutability": "nonpayable",
      "type": "function"
    },
    {
      "inputs": [
        {
          "internalType": "uint256",
          "name": "new_limit",
          "type": "uint256"
        }
      ],
      "name": "ownerUpdateWalletLimit",
      "outputs": [],
      "stateMutability": "nonpayable",
      "type": "function"
    },
    {
      "inputs": [],
      "name": "ownerWithdrawContractBalance",
      "outputs": [],
      "stateMutability": "nonpayable",
      "type": "function"
    },
    {
      "inputs": [
        {
          "internalType": "address",
          "name": "from",
          "type": "address"
        },
        {
          "internalType": "address",
          "name": "to",
          "type": "address"
        },
        {
          "internalType": "uint256",
          "name": "tokenId",
          "type": "uint256"
        }
      ],
      "name": "safeTransferFrom",
      "outputs": [],
      "stateMutability": "nonpayable",
      "type": "function"
    },
    {
      "inputs": [
        {
          "internalType": "address",
          "name": "from",
          "type": "address"
        },
        {
          "internalType": "address",
          "name": "to",
          "type": "address"
        },
        {
          "internalType": "uint256",
          "name": "tokenId",
          "type": "uint256"
        },
        {
          "internalType": "bytes",
          "name": "_data",
          "type": "bytes"
        }
      ],
      "name": "safeTransferFrom",
      "outputs": [],
      "stateMutability": "nonpayable",
      "type": "function"
    },
    {
      "inputs": [
        {
          "internalType": "address",
          "name": "operator",
          "type": "address"
        },
        {
          "internalType": "bool",
          "name": "approved",
          "type": "bool"
        }
      ],
      "name": "setApprovalForAll",
      "outputs": [],
      "stateMutability": "nonpayable",
      "type": "function"
    },
    {
      "inputs": [
        {
          "internalType": "bytes4",
          "name": "interfaceId",
          "type": "bytes4"
        }
      ],
      "name": "supportsInterface",
      "outputs": [
        {
          "internalType": "bool",
          "name": "",
          "type": "bool"
        }
      ],
      "stateMutability": "view",
      "type": "function"
    },
    {
      "inputs": [],
      "name": "symbol",
      "outputs": [
        {
          "internalType": "string",
          "name": "",
          "type": "string"
        }
      ],
      "stateMutability": "view",
      "type": "function"
    },
    {
      "inputs": [
        {
          "internalType": "uint256",
          "name": "tokenId",
          "type": "uint256"
        }
      ],
      "name": "tokenURI",
      "outputs": [
        {
          "internalType": "string",
          "name": "",
          "type": "string"
        }
      ],
      "stateMutability": "view",
      "type": "function"
    },
    {
      "inputs": [],
      "name": "totalAureiSupply",
      "outputs": [
        {
          "internalType": "uint256",
          "name": "",
          "type": "uint256"
        }
      ],
      "stateMutability": "view",
      "type": "function"
    },
    {
      "inputs": [
        {
          "internalType": "address",
          "name": "from",
          "type": "address"
        },
        {
          "internalType": "address",
          "name": "to",
          "type": "address"
        },
        {
          "internalType": "uint256",
          "name": "tokenId",
          "type": "uint256"
        }
      ],
      "name": "transferFrom",
      "outputs": [],
      "stateMutability": "nonpayable",
      "type": "function"
    }
  ],
  "bytecode": "0x60806040526001600955610378600a556007600b553480156200002157600080fd5b506040518060400160405280601581526020017f4d7574616e7420417572656c69757320417572656900000000000000000000008152506040518060400160405280600381526020017f4d414100000000000000000000000000000000000000000000000000000000008152508160009080519060200190620000a69291906200089b565b508060019080519060200190620000bf9291906200089b565b5050506040518060400160405280601281526020017f697066733a2f2f6c6f72656d697073756d2f0000000000000000000000000000815250600c90805190602001906200010f9291906200089b565b5033600d60026101000a81548173ffffffffffffffffffffffffffffffffffffffff021916908373ffffffffffffffffffffffffffffffffffffffff1602179055506000600d60006101000a81548160ff0219169083151502179055506000600d60016101000a81548160ff02191690831515021790555062000197620002fc60201b60201c565b6001600d60006101000a81548160ff0219169083151502179055506001600e6000737d4c4d5380ca2f9c7a091bb622b80613da7eae8c73ffffffffffffffffffffffffffffffffffffffff1673ffffffffffffffffffffffffffffffffffffffff16815260200190815260200160002060006101000a81548160ff0219169083151502179055506001600e600073385375fd99d6019c630b1315d3815bb162aa039e73ffffffffffffffffffffffffffffffffffffffff1673ffffffffffffffffffffffffffffffffffffffff16815260200190815260200160002060006101000a81548160ff0219169083151502179055506001600e60007390f79bf6eb2c4f870365e785982e1f101e93b90673ffffffffffffffffffffffffffffffffffffffff1673ffffffffffffffffffffffffffffffffffffffff16815260200190815260200160002060006101000a81548160ff02191690831515021790555062000d05565b600d60009054906101000a900460ff16156200034f576040517f08c379a0000000000000000000000000000000000000000000000000000000008152600401620003469062000a0e565b60405180910390fd5b6000600190505b600b548111620003d8576200037760066200042860201b62001c351760201c565b6200038e60086200042860201b62001c351760201c565b620003c2600d60029054906101000a900473ffffffffffffffffffffffffffffffffffffffff16826200043e60201b60201c565b8080620003cf9062000b66565b91505062000356565b50620003f060086200042860201b62001c351760201c565b62000426600d60029054906101000a900473ffffffffffffffffffffffffffffffffffffffff166103786200043e60201b60201c565b565b6001816000016000828254019250508190555050565b600073ffffffffffffffffffffffffffffffffffffffff168273ffffffffffffffffffffffffffffffffffffffff161415620004b1576040517f08c379a0000000000000000000000000000000000000000000000000000000008152600401620004a89062000a96565b60405180910390fd5b620004c2816200063860201b60201c565b1562000505576040517f08c379a0000000000000000000000000000000000000000000000000000000008152600401620004fc9062000a30565b60405180910390fd5b6200051960008383620006a460201b60201c565b6001600360008473ffffffffffffffffffffffffffffffffffffffff1673ffffffffffffffffffffffffffffffffffffffff16815260200190815260200160002060008282546200056b919062000ac9565b92505081905550816002600083815260200190815260200160002060006101000a81548173ffffffffffffffffffffffffffffffffffffffff021916908373ffffffffffffffffffffffffffffffffffffffff160217905550808273ffffffffffffffffffffffffffffffffffffffff16600073ffffffffffffffffffffffffffffffffffffffff167fddf252ad1be2c89b69c2b068fc378daa952ba7f163c4a11628f55a4df523b3ef60405160405180910390a462000634600083836200085660201b60201c565b5050565b60008073ffffffffffffffffffffffffffffffffffffffff166002600084815260200190815260200160002060009054906101000a900473ffffffffffffffffffffffffffffffffffffffff1673ffffffffffffffffffffffffffffffffffffffff1614159050919050565b600d60009054906101000a900460ff1615620006f7576040517f08c379a0000000000000000000000000000000000000000000000000000000008152600401620006ee9062000a0e565b60405180910390fd5b60011515600e60008473ffffffffffffffffffffffffffffffffffffffff1673ffffffffffffffffffffffffffffffffffffffff16815260200190815260200160002060009054906101000a900460ff16151514156200078e576040517f08c379a0000000000000000000000000000000000000000000000000000000008152600401620007859062000a74565b60405180910390fd5b6200079f816200085b60201b60201c565b156200083957600d60029054906101000a900473ffffffffffffffffffffffffffffffffffffffff1673ffffffffffffffffffffffffffffffffffffffff163373ffffffffffffffffffffffffffffffffffffffff161462000838576040517f08c379a00000000000000000000000000000000000000000000000000000000081526004016200082f9062000a52565b60405180910390fd5b5b620008518383836200089660201b62001c4b1760201c565b505050565b505050565b600080821180156200086f5750600b548211155b806200087c575061037882145b156200088c576001905062000891565b600090505b919050565b505050565b828054620008a99062000b30565b90600052602060002090601f016020900481019282620008cd576000855562000919565b82601f10620008e857805160ff191683800117855562000919565b8280016001018555821562000919579182015b8281111562000918578251825591602001919060010190620008fb565b5b5090506200092891906200092c565b5090565b5b80821115620009475760008160009055506001016200092d565b5090565b60006200095a60048362000ab8565b9150620009678262000c12565b602082019050919050565b600062000981601c8362000ab8565b91506200098e8262000c3b565b602082019050919050565b6000620009a860408362000ab8565b9150620009b58262000c64565b604082019050919050565b6000620009cf600c8362000ab8565b9150620009dc8262000cb3565b602082019050919050565b6000620009f660208362000ab8565b915062000a038262000cdc565b602082019050919050565b6000602082019050818103600083015262000a29816200094b565b9050919050565b6000602082019050818103600083015262000a4b8162000972565b9050919050565b6000602082019050818103600083015262000a6d8162000999565b9050919050565b6000602082019050818103600083015262000a8f81620009c0565b9050919050565b6000602082019050818103600083015262000ab181620009e7565b9050919050565b600082825260208201905092915050565b600062000ad68262000b26565b915062000ae38362000b26565b9250827fffffffffffffffffffffffffffffffffffffffffffffffffffffffffffffffff0382111562000b1b5762000b1a62000bb4565b5b828201905092915050565b6000819050919050565b6000600282049050600182168062000b4957607f821691505b6020821081141562000b605762000b5f62000be3565b5b50919050565b600062000b738262000b26565b91507fffffffffffffffffffffffffffffffffffffffffffffffffffffffffffffffff82141562000ba95762000ba862000bb4565b5b600182019050919050565b7f4e487b7100000000000000000000000000000000000000000000000000000000600052601160045260246000fd5b7f4e487b7100000000000000000000000000000000000000000000000000000000600052602260045260246000fd5b7f534f4f4e00000000000000000000000000000000000000000000000000000000600082015250565b7f4552433732313a20746f6b656e20616c7265616479206d696e74656400000000600082015250565b7f4f6e6c79204d7574616e7420417572656c6975732063616e20626573746f772060008201527f6f776e657220686973206661766f722075706f6e20746865206d61737365732e602082015250565b7f4e4f4e4520464f5220594f550000000000000000000000000000000000000000600082015250565b7f4552433732313a206d696e7420746f20746865207a65726f2061646472657373600082015250565b6147e38062000d156000396000f3fe6080604052600436106101ee5760003560e01c80636352211e1161010d578063a39000a7116100a0578063ccacd0c51161006f578063ccacd0c5146106c4578063d981d596146106ef578063e985e9c51461071a578063ea193cda14610757578063f7cedd8514610773576101ee565b8063a39000a71461061e578063b88d4fde14610635578063bfd06af71461065e578063c87b56dd14610687576101ee565b80638da5cb5b116100dc5780638da5cb5b1461057657806395d89b41146105a157806396a0db30146105cc578063a22cb465146105f5576101ee565b80636352211e146104a85780636bbcdc16146104e557806370a0823114610510578063775ce0331461054d576101ee565b80632ecdbc48116101855780634563649d116101545780634563649d146103ee5780634bc26106146104195780635b627c70146104565780635fc825231461047f576101ee565b80632ecdbc4814610348578063332b3a8d1461037157806342842e0e1461039c5780634441d132146103c5576101ee565b80631249c58b116101c15780631249c58b146102c15780631b3bf3d8146102cb57806323b872dd146102f457806326c6adeb1461031d576101ee565b806301ffc9a7146101f357806306fdde0314610230578063081812fc1461025b578063095ea7b314610298575b600080fd5b3480156101ff57600080fd5b5061021a60048036038101906102159190613087565b61079c565b604051610227919061372b565b60405180910390f35b34801561023c57600080fd5b5061024561087e565b6040516102529190613746565b60405180910390f35b34801561026757600080fd5b50610282600480360381019061027d919061311a565b610910565b60405161028f91906136c4565b60405180910390f35b3480156102a457600080fd5b506102bf60048036038101906102ba9190613022565b610995565b005b6102c9610aad565b005b3480156102d757600080fd5b506102f260048036038101906102ed9190613143565b610bb3565b005b34801561030057600080fd5b5061031b60048036038101906103169190612f1c565b610d26565b005b34801561032957600080fd5b50610332610d86565b60405161033f919061372b565b60405180910390f35b34801561035457600080fd5b5061036f600480360381019061036a9190612eb7565b610d9d565b005b34801561037d57600080fd5b50610386610e88565b6040516103939190613ae8565b60405180910390f35b3480156103a857600080fd5b506103c360048036038101906103be9190612f1c565b610e99565b005b3480156103d157600080fd5b506103ec60048036038101906103e79190612eb7565b610eb9565b005b3480156103fa57600080fd5b50610403610fa4565b6040516104109190613ae8565b60405180910390f35b34801561042557600080fd5b50610440600480360381019061043b9190612eb7565b610faa565b60405161044d919061372b565b60405180910390f35b34801561046257600080fd5b5061047d6004803603810190610478919061311a565b611000565b005b34801561048b57600080fd5b506104a660048036038101906104a1919061305e565b61109a565b005b3480156104b457600080fd5b506104cf60048036038101906104ca919061311a565b611147565b6040516104dc91906136c4565b60405180910390f35b3480156104f157600080fd5b506104fa6111f9565b6040516105079190613ae8565b60405180910390f35b34801561051c57600080fd5b5061053760048036038101906105329190612eb7565b61120a565b6040516105449190613ae8565b60405180910390f35b34801561055957600080fd5b50610574600480360381019061056f91906130d9565b6112c2565b005b34801561058257600080fd5b5061058b61136c565b60405161059891906136c4565b60405180910390f35b3480156105ad57600080fd5b506105b6611396565b6040516105c39190613746565b60405180910390f35b3480156105d857600080fd5b506105f360048036038101906105ee9190612eb7565b611428565b005b34801561060157600080fd5b5061061c60048036038101906106179190612fe6565b611513565b005b34801561062a57600080fd5b50610633611529565b005b34801561064157600080fd5b5061065c60048036038101906106579190612f6b565b6116b1565b005b34801561066a57600080fd5b5061068560048036038101906106809190612eb7565b611713565b005b34801561069357600080fd5b506106ae60048036038101906106a9919061311a565b6117fe565b6040516106bb9190613746565b60405180910390f35b3480156106d057600080fd5b506106d9611911565b6040516106e69190613ae8565b60405180910390f35b3480156106fb57600080fd5b50610704611917565b6040516107119190613ae8565b60405180910390f35b34801561072657600080fd5b50610741600480360381019061073c9190612ee0565b611928565b60405161074e919061372b565b60405180910390f35b610771600480360381019061076c919061311a565b6119bc565b005b34801561077f57600080fd5b5061079a6004803603810190610795919061305e565b611b88565b005b60007f80ac58cd000000000000000000000000000000000000000000000000000000007bffffffffffffffffffffffffffffffffffffffffffffffffffffffff1916827bffffffffffffffffffffffffffffffffffffffffffffffffffffffff1916148061086757507f5b5e139f000000000000000000000000000000000000000000000000000000007bffffffffffffffffffffffffffffffffffffffffffffffffffffffff1916827bffffffffffffffffffffffffffffffffffffffffffffffffffffffff1916145b80610877575061087682611c50565b5b9050919050565b60606000805461088d90613d49565b80601f01602080910402602001604051908101604052809291908181526020018280546108b990613d49565b80156109065780601f106108db57610100808354040283529160200191610906565b820191906000526020600020905b8154815290600101906020018083116108e957829003601f168201915b5050505050905090565b600061091b82611cba565b61095a576040517f08c379a000000000000000000000000000000000000000000000000000000000815260040161095190613988565b60405180910390fd5b6004600083815260200190815260200160002060009054906101000a900473ffffffffffffffffffffffffffffffffffffffff169050919050565b60006109a082611147565b90508073ffffffffffffffffffffffffffffffffffffffff168373ffffffffffffffffffffffffffffffffffffffff161415610a11576040517f08c379a0000000000000000000000000000000000000000000000000000000008152600401610a0890613a48565b60405180910390fd5b8073ffffffffffffffffffffffffffffffffffffffff16610a30611d26565b73ffffffffffffffffffffffffffffffffffffffff161480610a5f5750610a5e81610a59611d26565b611928565b5b610a9e576040517f08c379a0000000000000000000000000000000000000000000000000000000008152600401610a95906138e8565b60405180910390fd5b610aa88383611d2e565b505050565b600d60009054906101000a900460ff1615610afd576040517f08c379a0000000000000000000000000000000000000000000000000000000008152600401610af4906137c8565b60405180910390fd5b600d60019054906101000a900460ff1615610ba65760011515600f60003373ffffffffffffffffffffffffffffffffffffffff1673ffffffffffffffffffffffffffffffffffffffff16815260200190815260200160002060009054906101000a900460ff16151514610ba5576040517f08c379a0000000000000000000000000000000000000000000000000000000008152600401610b9c90613aa8565b60405180910390fd5b5b610bb1336000611de7565b565b600d60029054906101000a900473ffffffffffffffffffffffffffffffffffffffff1673ffffffffffffffffffffffffffffffffffffffff163373ffffffffffffffffffffffffffffffffffffffff1614610c43576040517f08c379a0000000000000000000000000000000000000000000000000000000008152600401610c3a90613a68565b60405180910390fd5b610c4c82611f76565b610c8b576040517f08c379a0000000000000000000000000000000000000000000000000000000008152600401610c82906139a8565b60405180910390fd5b6000610c9683611147565b9050600d60029054906101000a900473ffffffffffffffffffffffffffffffffffffffff1673ffffffffffffffffffffffffffffffffffffffff168173ffffffffffffffffffffffffffffffffffffffff1614610d1657610cf76007611c35565b610d1581610d036111f9565b600a54610d109190613bd8565b611fad565b5b610d21818385612187565b505050565b610d37610d31611d26565b826123ee565b610d76576040517f08c379a0000000000000000000000000000000000000000000000000000000008152600401610d6d90613a88565b60405180910390fd5b610d81838383612187565b505050565b6000600d60009054906101000a900460ff16905090565b600d60029054906101000a900473ffffffffffffffffffffffffffffffffffffffff1673ffffffffffffffffffffffffffffffffffffffff163373ffffffffffffffffffffffffffffffffffffffff1614610e2d576040517f08c379a0000000000000000000000000000000000000000000000000000000008152600401610e2490613a68565b60405180910390fd5b6000600e60008373ffffffffffffffffffffffffffffffffffffffff1673ffffffffffffffffffffffffffffffffffffffff16815260200190815260200160002060006101000a81548160ff02191690831515021790555050565b6000610e9460086124cc565b905090565b610eb4838383604051806020016040528060008152506116b1565b505050565b600d60029054906101000a900473ffffffffffffffffffffffffffffffffffffffff1673ffffffffffffffffffffffffffffffffffffffff163373ffffffffffffffffffffffffffffffffffffffff1614610f49576040517f08c379a0000000000000000000000000000000000000000000000000000000008152600401610f4090613a68565b60405180910390fd5b6000600f60008373ffffffffffffffffffffffffffffffffffffffff1673ffffffffffffffffffffffffffffffffffffffff16815260200190815260200160002060006101000a81548160ff02191690831515021790555050565b600b5481565b6000600e60008373ffffffffffffffffffffffffffffffffffffffff1673ffffffffffffffffffffffffffffffffffffffff16815260200190815260200160002060009054906101000a900460ff169050919050565b600d60029054906101000a900473ffffffffffffffffffffffffffffffffffffffff1673ffffffffffffffffffffffffffffffffffffffff163373ffffffffffffffffffffffffffffffffffffffff1614611090576040517f08c379a000000000000000000000000000000000000000000000000000000000815260040161108790613a68565b60405180910390fd5b8060098190555050565b600d60029054906101000a900473ffffffffffffffffffffffffffffffffffffffff1673ffffffffffffffffffffffffffffffffffffffff163373ffffffffffffffffffffffffffffffffffffffff161461112a576040517f08c379a000000000000000000000000000000000000000000000000000000000815260040161112190613a68565b60405180910390fd5b80600d60006101000a81548160ff02191690831515021790555050565b6000806002600084815260200190815260200160002060009054906101000a900473ffffffffffffffffffffffffffffffffffffffff169050600073ffffffffffffffffffffffffffffffffffffffff168173ffffffffffffffffffffffffffffffffffffffff1614156111f0576040517f08c379a00000000000000000000000000000000000000000000000000000000081526004016111e790613948565b60405180910390fd5b80915050919050565b600061120560076124cc565b905090565b60008073ffffffffffffffffffffffffffffffffffffffff168273ffffffffffffffffffffffffffffffffffffffff16141561127b576040517f08c379a000000000000000000000000000000000000000000000000000000000815260040161127290613928565b60405180910390fd5b600360008373ffffffffffffffffffffffffffffffffffffffff1673ffffffffffffffffffffffffffffffffffffffff168152602001908152602001600020549050919050565b600d60029054906101000a900473ffffffffffffffffffffffffffffffffffffffff1673ffffffffffffffffffffffffffffffffffffffff163373ffffffffffffffffffffffffffffffffffffffff1614611352576040517f08c379a000000000000000000000000000000000000000000000000000000000815260040161134990613a68565b60405180910390fd5b80600c9080519060200190611368929190612cdb565b5050565b6000600d60029054906101000a900473ffffffffffffffffffffffffffffffffffffffff16905090565b6060600180546113a590613d49565b80601f01602080910402602001604051908101604052809291908181526020018280546113d190613d49565b801561141e5780601f106113f35761010080835404028352916020019161141e565b820191906000526020600020905b81548152906001019060200180831161140157829003601f168201915b5050505050905090565b600d60029054906101000a900473ffffffffffffffffffffffffffffffffffffffff1673ffffffffffffffffffffffffffffffffffffffff163373ffffffffffffffffffffffffffffffffffffffff16146114b8576040517f08c379a00000000000000000000000000000000000000000000000000000000081526004016114af90613a68565b60405180910390fd5b6001600e60008373ffffffffffffffffffffffffffffffffffffffff1673ffffffffffffffffffffffffffffffffffffffff16815260200190815260200160002060006101000a81548160ff02191690831515021790555050565b61152561151e611d26565b83836124da565b5050565b600d60029054906101000a900473ffffffffffffffffffffffffffffffffffffffff1673ffffffffffffffffffffffffffffffffffffffff163373ffffffffffffffffffffffffffffffffffffffff16146115b9576040517f08c379a00000000000000000000000000000000000000000000000000000000081526004016115b090613a68565b60405180910390fd5b600047905060008111611601576040517f08c379a00000000000000000000000000000000000000000000000000000000081526004016115f890613ac8565b60405180910390fd5b60003373ffffffffffffffffffffffffffffffffffffffff1682604051611627906136af565b60006040518083038185875af1925050503d8060008114611664576040519150601f19603f3d011682016040523d82523d6000602084013e611669565b606091505b50509050806116ad576040517f08c379a00000000000000000000000000000000000000000000000000000000081526004016116a490613768565b60405180910390fd5b5050565b6116c26116bc611d26565b836123ee565b611701576040517f08c379a00000000000000000000000000000000000000000000000000000000081526004016116f890613a88565b60405180910390fd5b61170d84848484612647565b50505050565b600d60029054906101000a900473ffffffffffffffffffffffffffffffffffffffff1673ffffffffffffffffffffffffffffffffffffffff163373ffffffffffffffffffffffffffffffffffffffff16146117a3576040517f08c379a000000000000000000000000000000000000000000000000000000000815260040161179a90613a68565b60405180910390fd5b6001600f60008373ffffffffffffffffffffffffffffffffffffffff1673ffffffffffffffffffffffffffffffffffffffff16815260200190815260200160002060006101000a81548160ff02191690831515021790555050565b606061180982611cba565b611848576040517f08c379a000000000000000000000000000000000000000000000000000000000815260040161183f90613a08565b60405180910390fd5b61037882116118615761185a826126a3565b905061190c565b61186a82611cba565b156118c357600061187961274a565b511161189457604051806020016040528060008152506118bc565b61189c61274a565b6040516020016118ac919061368d565b6040516020818303038152906040525b905061190c565b6118cc82611cba565b61190b576040517f08c379a000000000000000000000000000000000000000000000000000000000815260040161190290613a08565b60405180910390fd5b5b919050565b600a5481565b600061192360066124cc565b905090565b6000600560008473ffffffffffffffffffffffffffffffffffffffff1673ffffffffffffffffffffffffffffffffffffffff16815260200190815260200160002060008373ffffffffffffffffffffffffffffffffffffffff1673ffffffffffffffffffffffffffffffffffffffff16815260200190815260200160002060009054906101000a900460ff16905092915050565b600d60009054906101000a900460ff1615611a0c576040517f08c379a0000000000000000000000000000000000000000000000000000000008152600401611a03906137c8565b60405180910390fd5b600d60019054906101000a900460ff16611a5b576040517f08c379a0000000000000000000000000000000000000000000000000000000008152600401611a52906137e8565b60405180910390fd5b60011515600f60003373ffffffffffffffffffffffffffffffffffffffff1673ffffffffffffffffffffffffffffffffffffffff16815260200190815260200160002060009054906101000a900460ff16151514611aee576040517f08c379a0000000000000000000000000000000000000000000000000000000008152600401611ae590613aa8565b60405180910390fd5b6103788110611b32576040517f08c379a0000000000000000000000000000000000000000000000000000000008152600401611b2990613a28565b60405180910390fd5b611b3b81611cba565b15611b7b576040517f08c379a0000000000000000000000000000000000000000000000000000000008152600401611b7290613788565b60405180910390fd5b611b853382611de7565b50565b600d60029054906101000a900473ffffffffffffffffffffffffffffffffffffffff1673ffffffffffffffffffffffffffffffffffffffff163373ffffffffffffffffffffffffffffffffffffffff1614611c18576040517f08c379a0000000000000000000000000000000000000000000000000000000008152600401611c0f90613a68565b60405180910390fd5b80600d60016101000a81548160ff02191690831515021790555050565b6001816000016000828254019250508190555050565b505050565b60007f01ffc9a7000000000000000000000000000000000000000000000000000000007bffffffffffffffffffffffffffffffffffffffffffffffffffffffff1916827bffffffffffffffffffffffffffffffffffffffffffffffffffffffff1916149050919050565b60008073ffffffffffffffffffffffffffffffffffffffff166002600084815260200190815260200160002060009054906101000a900473ffffffffffffffffffffffffffffffffffffffff1673ffffffffffffffffffffffffffffffffffffffff1614159050919050565b600033905090565b816004600083815260200190815260200160002060006101000a81548173ffffffffffffffffffffffffffffffffffffffff021916908373ffffffffffffffffffffffffffffffffffffffff160217905550808273ffffffffffffffffffffffffffffffffffffffff16611da183611147565b73ffffffffffffffffffffffffffffffffffffffff167f8c5be1e5ebec7d5bd14f71427d1e84f3dd0314c0f7b2291e5b200ac8c7c3b92560405160405180910390a45050565b600a54611df2610e88565b10611e32576040517f08c379a0000000000000000000000000000000000000000000000000000000008152600401611e2990613908565b60405180910390fd5b600954611e3e3361120a565b10611e7e576040517f08c379a0000000000000000000000000000000000000000000000000000000008152600401611e75906139e8565b60405180910390fd5b60011515600e60008473ffffffffffffffffffffffffffffffffffffffff1673ffffffffffffffffffffffffffffffffffffffff16815260200190815260200160002060009054906101000a900460ff1615151415611f12576040517f08c379a0000000000000000000000000000000000000000000000000000000008152600401611f09906138a8565b60405180910390fd5b5b60011515611f27611f22611917565b611cba565b15151415611f3e57611f396006611c35565b611f13565b611f486008611c35565b6000811415611f6757611f6282611f5d611917565b611fad565b611f72565b611f718282611fad565b5b5050565b60008082118015611f895750600b548211155b80611f95575061037882145b15611fa35760019050611fa8565b600090505b919050565b600073ffffffffffffffffffffffffffffffffffffffff168273ffffffffffffffffffffffffffffffffffffffff16141561201d576040517f08c379a000000000000000000000000000000000000000000000000000000000815260040161201490613968565b60405180910390fd5b61202681611cba565b15612066576040517f08c379a000000000000000000000000000000000000000000000000000000000815260040161205d90613828565b60405180910390fd5b612072600083836127dc565b6001600360008473ffffffffffffffffffffffffffffffffffffffff1673ffffffffffffffffffffffffffffffffffffffff16815260200190815260200160002060008282546120c29190613bd8565b92505081905550816002600083815260200190815260200160002060006101000a81548173ffffffffffffffffffffffffffffffffffffffff021916908373ffffffffffffffffffffffffffffffffffffffff160217905550808273ffffffffffffffffffffffffffffffffffffffff16600073ffffffffffffffffffffffffffffffffffffffff167fddf252ad1be2c89b69c2b068fc378daa952ba7f163c4a11628f55a4df523b3ef60405160405180910390a46121836000838361296f565b5050565b8273ffffffffffffffffffffffffffffffffffffffff166121a782611147565b73ffffffffffffffffffffffffffffffffffffffff16146121fd576040517f08c379a00000000000000000000000000000000000000000000000000000000081526004016121f490613808565b60405180910390fd5b600073ffffffffffffffffffffffffffffffffffffffff168273ffffffffffffffffffffffffffffffffffffffff16141561226d576040517f08c379a000000000000000000000000000000000000000000000000000000000815260040161226490613848565b60405180910390fd5b6122788383836127dc565b612283600082611d2e565b6001600360008573ffffffffffffffffffffffffffffffffffffffff1673ffffffffffffffffffffffffffffffffffffffff16815260200190815260200160002060008282546122d39190613c5f565b925050819055506001600360008473ffffffffffffffffffffffffffffffffffffffff1673ffffffffffffffffffffffffffffffffffffffff168152602001908152602001600020600082825461232a9190613bd8565b92505081905550816002600083815260200190815260200160002060006101000a81548173ffffffffffffffffffffffffffffffffffffffff021916908373ffffffffffffffffffffffffffffffffffffffff160217905550808273ffffffffffffffffffffffffffffffffffffffff168473ffffffffffffffffffffffffffffffffffffffff167fddf252ad1be2c89b69c2b068fc378daa952ba7f163c4a11628f55a4df523b3ef60405160405180910390a46123e983838361296f565b505050565b60006123f982611cba565b612438576040517f08c379a000000000000000000000000000000000000000000000000000000000815260040161242f906138c8565b60405180910390fd5b600061244383611147565b90508073ffffffffffffffffffffffffffffffffffffffff168473ffffffffffffffffffffffffffffffffffffffff16148061248557506124848185611928565b5b806124c357508373ffffffffffffffffffffffffffffffffffffffff166124ab84610910565b73ffffffffffffffffffffffffffffffffffffffff16145b91505092915050565b600081600001549050919050565b8173ffffffffffffffffffffffffffffffffffffffff168373ffffffffffffffffffffffffffffffffffffffff161415612549576040517f08c379a000000000000000000000000000000000000000000000000000000000815260040161254090613868565b60405180910390fd5b80600560008573ffffffffffffffffffffffffffffffffffffffff1673ffffffffffffffffffffffffffffffffffffffff16815260200190815260200160002060008473ffffffffffffffffffffffffffffffffffffffff1673ffffffffffffffffffffffffffffffffffffffff16815260200190815260200160002060006101000a81548160ff0219169083151502179055508173ffffffffffffffffffffffffffffffffffffffff168373ffffffffffffffffffffffffffffffffffffffff167f17307eab39ab6107e8899845ad3d59bd9653f200f220920489ca2b5937696c318360405161263a919061372b565b60405180910390a3505050565b612652848484612187565b61265e84848484612974565b61269d576040517f08c379a0000000000000000000000000000000000000000000000000000000008152600401612694906137a8565b60405180910390fd5b50505050565b60606126ae82611cba565b6126ed576040517f08c379a00000000000000000000000000000000000000000000000000000000081526004016126e4906139c8565b60405180910390fd5b60006126f761274a565b905060008151116127175760405180602001604052806000815250612742565b8061272184612b0b565b604051602001612732929190613669565b6040516020818303038152906040525b915050919050565b6060600c805461275990613d49565b80601f016020809104026020016040519081016040528092919081815260200182805461278590613d49565b80156127d25780601f106127a7576101008083540402835291602001916127d2565b820191906000526020600020905b8154815290600101906020018083116127b557829003601f168201915b5050505050905090565b600d60009054906101000a900460ff161561282c576040517f08c379a0000000000000000000000000000000000000000000000000000000008152600401612823906137c8565b60405180910390fd5b60011515600e60008473ffffffffffffffffffffffffffffffffffffffff1673ffffffffffffffffffffffffffffffffffffffff16815260200190815260200160002060009054906101000a900460ff16151514156128c0576040517f08c379a00000000000000000000000000000000000000000000000000000000081526004016128b7906138a8565b60405180910390fd5b6128c981611f76565b1561295f57600d60029054906101000a900473ffffffffffffffffffffffffffffffffffffffff1673ffffffffffffffffffffffffffffffffffffffff163373ffffffffffffffffffffffffffffffffffffffff161461295e576040517f08c379a000000000000000000000000000000000000000000000000000000000815260040161295590613888565b60405180910390fd5b5b61296a838383611c4b565b505050565b505050565b60006129958473ffffffffffffffffffffffffffffffffffffffff16612cb8565b15612afe578373ffffffffffffffffffffffffffffffffffffffff1663150b7a026129be611d26565b8786866040518563ffffffff1660e01b81526004016129e094939291906136df565b602060405180830381600087803b1580156129fa57600080fd5b505af1925050508015612a2b57506040513d601f19601f82011682018060405250810190612a2891906130b0565b60015b612aae573d8060008114612a5b576040519150601f19603f3d011682016040523d82523d6000602084013e612a60565b606091505b50600081511415612aa6576040517f08c379a0000000000000000000000000000000000000000000000000000000008152600401612a9d906137a8565b60405180910390fd5b805181602001fd5b63150b7a0260e01b7bffffffffffffffffffffffffffffffffffffffffffffffffffffffff1916817bffffffffffffffffffffffffffffffffffffffffffffffffffffffff191614915050612b03565b600190505b949350505050565b60606000821415612b53576040518060400160405280600181526020017f30000000000000000000000000000000000000000000000000000000000000008152509050612cb3565b600082905060005b60008214612b85578080612b6e90613dac565b915050600a82612b7e9190613c2e565b9150612b5b565b60008167ffffffffffffffff811115612bc7577f4e487b7100000000000000000000000000000000000000000000000000000000600052604160045260246000fd5b6040519080825280601f01601f191660200182016040528015612bf95781602001600182028036833780820191505090505b5090505b60008514612cac57600182612c129190613c5f565b9150600a85612c219190613df5565b6030612c2d9190613bd8565b60f81b818381518110612c69577f4e487b7100000000000000000000000000000000000000000000000000000000600052603260045260246000fd5b60200101907effffffffffffffffffffffffffffffffffffffffffffffffffffffffffffff1916908160001a905350600a85612ca59190613c2e565b9450612bfd565b8093505050505b919050565b6000808273ffffffffffffffffffffffffffffffffffffffff163b119050919050565b828054612ce790613d49565b90600052602060002090601f016020900481019282612d095760008555612d50565b82601f10612d2257805160ff1916838001178555612d50565b82800160010185558215612d50579182015b82811115612d4f578251825591602001919060010190612d34565b5b509050612d5d9190612d61565b5090565b5b80821115612d7a576000816000905550600101612d62565b5090565b6000612d91612d8c84613b28565b613b03565b905082815260208101848484011115612da957600080fd5b612db4848285613d07565b509392505050565b6000612dcf612dca84613b59565b613b03565b905082815260208101848484011115612de757600080fd5b612df2848285613d07565b509392505050565b600081359050612e0981614751565b92915050565b600081359050612e1e81614768565b92915050565b600081359050612e338161477f565b92915050565b600081519050612e488161477f565b92915050565b600082601f830112612e5f57600080fd5b8135612e6f848260208601612d7e565b91505092915050565b600082601f830112612e8957600080fd5b8135612e99848260208601612dbc565b91505092915050565b600081359050612eb181614796565b92915050565b600060208284031215612ec957600080fd5b6000612ed784828501612dfa565b91505092915050565b60008060408385031215612ef357600080fd5b6000612f0185828601612dfa565b9250506020612f1285828601612dfa565b9150509250929050565b600080600060608486031215612f3157600080fd5b6000612f3f86828701612dfa565b9350506020612f5086828701612dfa565b9250506040612f6186828701612ea2565b9150509250925092565b60008060008060808587031215612f8157600080fd5b6000612f8f87828801612dfa565b9450506020612fa087828801612dfa565b9350506040612fb187828801612ea2565b925050606085013567ffffffffffffffff811115612fce57600080fd5b612fda87828801612e4e565b91505092959194509250565b60008060408385031215612ff957600080fd5b600061300785828601612dfa565b925050602061301885828601612e0f565b9150509250929050565b6000806040838503121561303557600080fd5b600061304385828601612dfa565b925050602061305485828601612ea2565b9150509250929050565b60006020828403121561307057600080fd5b600061307e84828501612e0f565b91505092915050565b60006020828403121561309957600080fd5b60006130a784828501612e24565b91505092915050565b6000602082840312156130c257600080fd5b60006130d084828501612e39565b91505092915050565b6000602082840312156130eb57600080fd5b600082013567ffffffffffffffff81111561310557600080fd5b61311184828501612e78565b91505092915050565b60006020828403121561312c57600080fd5b600061313a84828501612ea2565b91505092915050565b6000806040838503121561315657600080fd5b600061316485828601612ea2565b925050602061317585828601612dfa565b9150509250929050565b61318881613c93565b82525050565b61319781613ca5565b82525050565b60006131a882613b8a565b6131b28185613ba0565b93506131c2818560208601613d16565b6131cb81613ee2565b840191505092915050565b60006131e182613b95565b6131eb8185613bbc565b93506131fb818560208601613d16565b61320481613ee2565b840191505092915050565b600061321a82613b95565b6132248185613bcd565b9350613234818560208601613d16565b80840191505092915050565b600061324d602583613bbc565b915061325882613ef3565b604082019050919050565b6000613270604483613bbc565b915061327b82613f42565b606082019050919050565b6000613293603283613bbc565b915061329e82613fb7565b604082019050919050565b60006132b6600483613bbc565b91506132c182614006565b602082019050919050565b60006132d9604583613bbc565b91506132e48261402f565b606082019050919050565b60006132fc602583613bbc565b9150613307826140a4565b604082019050919050565b600061331f601c83613bbc565b915061332a826140f3565b602082019050919050565b6000613342602483613bbc565b915061334d8261411c565b604082019050919050565b6000613365601983613bbc565b91506133708261416b565b602082019050919050565b6000613388604083613bbc565b915061339382614194565b604082019050919050565b60006133ab600c83613bbc565b91506133b6826141e3565b602082019050919050565b60006133ce602c83613bbc565b91506133d98261420c565b604082019050919050565b60006133f1603883613bbc565b91506133fc8261425b565b604082019050919050565b6000613414602d83613bbc565b915061341f826142aa565b604082019050919050565b6000613437602a83613bbc565b9150613442826142f9565b604082019050919050565b600061345a602983613bbc565b915061346582614348565b604082019050919050565b600061347d602083613bbc565b915061348882614397565b602082019050919050565b60006134a0600783613bcd565b91506134ab826143c0565b600782019050919050565b60006134c3602c83613bbc565b91506134ce826143e9565b604082019050919050565b60006134e6604383613bbc565b91506134f182614438565b606082019050919050565b6000613509602f83613bbc565b9150613514826144ad565b604082019050919050565b600061352c603083613bbc565b9150613537826144fc565b604082019050919050565b600061354f601883613bbc565b915061355a8261454b565b602082019050919050565b6000613572602f83613bbc565b915061357d82614574565b604082019050919050565b6000613595602183613bbc565b91506135a0826145c3565b604082019050919050565b60006135b8600083613bb1565b91506135c382614612565b600082019050919050565b60006135db603283613bbc565b91506135e682614615565b604082019050919050565b60006135fe603183613bbc565b915061360982614664565b604082019050919050565b6000613621601783613bbc565b915061362c826146b3565b602082019050919050565b6000613644604183613bbc565b915061364f826146dc565b606082019050919050565b61366381613cfd565b82525050565b6000613675828561320f565b9150613681828461320f565b91508190509392505050565b6000613699828461320f565b91506136a482613493565b915081905092915050565b60006136ba826135ab565b9150819050919050565b60006020820190506136d9600083018461317f565b92915050565b60006080820190506136f4600083018761317f565b613701602083018661317f565b61370e604083018561365a565b8181036060830152613720818461319d565b905095945050505050565b6000602082019050613740600083018461318e565b92915050565b6000602082019050818103600083015261376081846131d6565b905092915050565b6000602082019050818103600083015261378181613240565b9050919050565b600060208201905081810360008301526137a181613263565b9050919050565b600060208201905081810360008301526137c181613286565b9050919050565b600060208201905081810360008301526137e1816132a9565b9050919050565b60006020820190508181036000830152613801816132cc565b9050919050565b60006020820190508181036000830152613821816132ef565b9050919050565b6000602082019050818103600083015261384181613312565b9050919050565b6000602082019050818103600083015261386181613335565b9050919050565b6000602082019050818103600083015261388181613358565b9050919050565b600060208201905081810360008301526138a18161337b565b9050919050565b600060208201905081810360008301526138c18161339e565b9050919050565b600060208201905081810360008301526138e1816133c1565b9050919050565b60006020820190508181036000830152613901816133e4565b9050919050565b6000602082019050818103600083015261392181613407565b9050919050565b600060208201905081810360008301526139418161342a565b9050919050565b600060208201905081810360008301526139618161344d565b9050919050565b6000602082019050818103600083015261398181613470565b9050919050565b600060208201905081810360008301526139a1816134b6565b9050919050565b600060208201905081810360008301526139c1816134d9565b9050919050565b600060208201905081810360008301526139e1816134fc565b9050919050565b60006020820190508181036000830152613a018161351f565b9050919050565b60006020820190508181036000830152613a2181613542565b9050919050565b60006020820190508181036000830152613a4181613565565b9050919050565b60006020820190508181036000830152613a6181613588565b9050919050565b60006020820190508181036000830152613a81816135ce565b9050919050565b60006020820190508181036000830152613aa1816135f1565b9050919050565b60006020820190508181036000830152613ac181613614565b9050919050565b60006020820190508181036000830152613ae181613637565b9050919050565b6000602082019050613afd600083018461365a565b92915050565b6000613b0d613b1e565b9050613b198282613d7b565b919050565b6000604051905090565b600067ffffffffffffffff821115613b4357613b42613eb3565b5b613b4c82613ee2565b9050602081019050919050565b600067ffffffffffffffff821115613b7457613b73613eb3565b5b613b7d82613ee2565b9050602081019050919050565b600081519050919050565b600081519050919050565b600082825260208201905092915050565b600081905092915050565b600082825260208201905092915050565b600081905092915050565b6000613be382613cfd565b9150613bee83613cfd565b9250827fffffffffffffffffffffffffffffffffffffffffffffffffffffffffffffffff03821115613c2357613c22613e26565b5b828201905092915050565b6000613c3982613cfd565b9150613c4483613cfd565b925082613c5457613c53613e55565b5b828204905092915050565b6000613c6a82613cfd565b9150613c7583613cfd565b925082821015613c8857613c87613e26565b5b828203905092915050565b6000613c9e82613cdd565b9050919050565b60008115159050919050565b60007fffffffff0000000000000000000000000000000000000000000000000000000082169050919050565b600073ffffffffffffffffffffffffffffffffffffffff82169050919050565b6000819050919050565b82818337600083830152505050565b60005b83811015613d34578082015181840152602081019050613d19565b83811115613d43576000848401525b50505050565b60006002820490506001821680613d6157607f821691505b60208210811415613d7557613d74613e84565b5b50919050565b613d8482613ee2565b810181811067ffffffffffffffff82111715613da357613da2613eb3565b5b80604052505050565b6000613db782613cfd565b91507fffffffffffffffffffffffffffffffffffffffffffffffffffffffffffffffff821415613dea57613de9613e26565b5b600182019050919050565b6000613e0082613cfd565b9150613e0b83613cfd565b925082613e1b57613e1a613e55565b5b828206905092915050565b7f4e487b7100000000000000000000000000000000000000000000000000000000600052601160045260246000fd5b7f4e487b7100000000000000000000000000000000000000000000000000000000600052601260045260246000fd5b7f4e487b7100000000000000000000000000000000000000000000000000000000600052602260045260246000fd5b7f4e487b7100000000000000000000000000000000000000000000000000000000600052604160045260246000fd5b6000601f19601f8301169050919050565b7f7a706d4020736179733a207769746864726177206661696c65642c207265766560008201527f7274696e67000000000000000000000000000000000000000000000000000000602082015250565b7f596f7520686176652067726561742074617374653b20736f6d656f6e6520656c60008201527f73652068617320616c7265616479206d696e74656420796f7572206661766f7260208201527f6974652e00000000000000000000000000000000000000000000000000000000604082015250565b7f4552433732313a207472616e7366657220746f206e6f6e20455243373231526560008201527f63656976657220696d706c656d656e7465720000000000000000000000000000602082015250565b7f534f4f4e00000000000000000000000000000000000000000000000000000000600082015250565b7f416c6c6f776c697374696e672069736e277420656e61626c65642e205069636b60008201527f696e67206661766f72697465732069732061207468696e67206f66207468652060208201527f706173742e000000000000000000000000000000000000000000000000000000604082015250565b7f4552433732313a207472616e736665722066726f6d20696e636f72726563742060008201527f6f776e6572000000000000000000000000000000000000000000000000000000602082015250565b7f4552433732313a20746f6b656e20616c7265616479206d696e74656400000000600082015250565b7f4552433732313a207472616e7366657220746f20746865207a65726f2061646460008201527f7265737300000000000000000000000000000000000000000000000000000000602082015250565b7f4552433732313a20617070726f766520746f2063616c6c657200000000000000600082015250565b7f4f6e6c79204d7574616e7420417572656c6975732063616e20626573746f772060008201527f6f776e657220686973206661766f722075706f6e20746865206d61737365732e602082015250565b7f4e4f4e4520464f5220594f550000000000000000000000000000000000000000600082015250565b7f4552433732313a206f70657261746f7220717565727920666f72206e6f6e657860008201527f697374656e7420746f6b656e0000000000000000000000000000000000000000602082015250565b7f4552433732313a20617070726f76652063616c6c6572206973206e6f74206f7760008201527f6e6572206e6f7220617070726f76656420666f7220616c6c0000000000000000602082015250565b7f4d616e79206861766520636f6d65206265666f726520796f752e20546f6f206d60008201527f616e792c20696e20666163742e00000000000000000000000000000000000000602082015250565b7f4552433732313a2062616c616e636520717565727920666f7220746865207a6560008201527f726f206164647265737300000000000000000000000000000000000000000000602082015250565b7f4552433732313a206f776e657220717565727920666f72206e6f6e657869737460008201527f656e7420746f6b656e0000000000000000000000000000000000000000000000602082015250565b7f4552433732313a206d696e7420746f20746865207a65726f2061646472657373600082015250565b7f6d656d656e746f00000000000000000000000000000000000000000000000000600082015250565b7f4552433732313a20617070726f76656420717565727920666f72206e6f6e657860008201527f697374656e7420746f6b656e0000000000000000000000000000000000000000602082015250565b7f404d7574616e74417572656c697573202d20636865636b20796f757220746f6b60008201527f656e20494420616761696e2e20536f6d657468696e672069736e27742072696760208201527f68742e0000000000000000000000000000000000000000000000000000000000604082015250565b7f4552433732314d657461646174613a2055524920717565727920666f72206e6f60008201527f6e6578697374656e7420746f6b656e0000000000000000000000000000000000602082015250565b7f4f6e652063616e20706c65646765206f6e652773206c6f79616c7479206f6e6c60008201527f7920736f206d616e792074696d65732e00000000000000000000000000000000602082015250565b7f4552433732313a20696e76616c696420746f6b656e2049440000000000000000600082015250565b7f596f7527726520747279696e6720746f206d696e7420616e204175726575732060008201527f6f75747369646520746865207365740000000000000000000000000000000000602082015250565b7f4552433732313a20617070726f76616c20746f2063757272656e74206f776e6560008201527f7200000000000000000000000000000000000000000000000000000000000000602082015250565b50565b7f496d706f73746f727320746f20746865207468726f6e6520656d62617272617360008201527f73206f6e6c79207468656d73656c7665732e0000000000000000000000000000602082015250565b7f4552433732313a207472616e736665722063616c6c6572206973206e6f74206f60008201527f776e6572206e6f7220617070726f766564000000000000000000000000000000602082015250565b7f596f75277265206e6f74206f6e20746865206c6973742e000000000000000000600082015250565b7f7a706d4020736179733a20646f6e277420776173746520796f7572206761732060008201527f747279696e6720746f2077697468647261772061207a65726f2062616c616e6360208201527f6500000000000000000000000000000000000000000000000000000000000000604082015250565b61475a81613c93565b811461476557600080fd5b50565b61477181613ca5565b811461477c57600080fd5b50565b61478881613cb1565b811461479357600080fd5b50565b61479f81613cfd565b81146147aa57600080fd5b5056fea2646970667358221220566a1ef85e683e8b1cede61a96a38d44685e43f08a41a7dd6accd932e7d570f164736f6c63430008040033",
  "linkReferences": {},
  "deployedLinkReferences": {}
}