{
  "_format": "hh-sol-artifact-1",
  "contractName": "MutantAureliusAurei",
  "sourceName": "contracts/MutantAureliusAurei.sol",
  "abi": [
    {
      "inputs": [],
      "stateMutability": "nonpayable",
      "type": "constructor"
    },
    {
      "anonymous": false,
      "inputs": [
        {
          "indexed": true,
          "internalType": "address",
          "name": "owner",
          "type": "address"
        },
        {
          "indexed": true,
          "internalType": "address",
          "name": "approved",
          "type": "address"
        },
        {
          "indexed": true,
          "internalType": "uint256",
          "name": "tokenId",
          "type": "uint256"
        }
      ],
      "name": "Approval",
      "type": "event"
    },
    {
      "anonymous": false,
      "inputs": [
        {
          "indexed": true,
          "internalType": "address",
          "name": "owner",
          "type": "address"
        },
        {
          "indexed": true,
          "internalType": "address",
          "name": "operator",
          "type": "address"
        },
        {
          "indexed": false,
          "internalType": "bool",
          "name": "approved",
          "type": "bool"
        }
      ],
      "name": "ApprovalForAll",
      "type": "event"
    },
    {
      "anonymous": false,
      "inputs": [
        {
          "indexed": true,
          "internalType": "address",
          "name": "from",
          "type": "address"
        },
        {
          "indexed": true,
          "internalType": "address",
          "name": "to",
          "type": "address"
        },
        {
          "indexed": true,
          "internalType": "uint256",
          "name": "tokenId",
          "type": "uint256"
        }
      ],
      "name": "Transfer",
      "type": "event"
    },
    {
      "inputs": [
        {
          "internalType": "address",
          "name": "to",
          "type": "address"
        },
        {
          "internalType": "uint256",
          "name": "tokenId",
          "type": "uint256"
        }
      ],
      "name": "approve",
      "outputs": [],
      "stateMutability": "nonpayable",
      "type": "function"
    },
    {
      "inputs": [
        {
          "internalType": "address",
          "name": "owner",
          "type": "address"
        }
      ],
      "name": "balanceOf",
      "outputs": [
        {
          "internalType": "uint256",
          "name": "",
          "type": "uint256"
        }
      ],
      "stateMutability": "view",
      "type": "function"
    },
    {
      "inputs": [
        {
          "internalType": "uint256",
          "name": "tokenId",
          "type": "uint256"
        }
      ],
      "name": "getApproved",
      "outputs": [
        {
          "internalType": "address",
          "name": "",
          "type": "address"
        }
      ],
      "stateMutability": "view",
      "type": "function"
    },
    {
      "inputs": [],
      "name": "getContractIsPaused",
      "outputs": [
        {
          "internalType": "bool",
          "name": "",
          "type": "bool"
        }
      ],
      "stateMutability": "view",
      "type": "function"
    },
    {
      "inputs": [],
      "name": "getIndexedAureiCount",
      "outputs": [
        {
          "internalType": "uint256",
          "name": "",
          "type": "uint256"
        }
      ],
      "stateMutability": "view",
      "type": "function"
    },
    {
      "inputs": [],
      "name": "getIssuedMementoCount",
      "outputs": [
        {
          "internalType": "uint256",
          "name": "",
          "type": "uint256"
        }
      ],
      "stateMutability": "view",
      "type": "function"
    },
    {
      "inputs": [],
      "name": "getTotalAureiMinted",
      "outputs": [
        {
          "internalType": "uint256",
          "name": "",
          "type": "uint256"
        }
      ],
      "stateMutability": "view",
      "type": "function"
    },
    {
      "inputs": [],
      "name": "initialOwnerManagedTokens",
      "outputs": [
        {
          "internalType": "uint256",
          "name": "",
          "type": "uint256"
        }
      ],
      "stateMutability": "view",
      "type": "function"
    },
    {
      "inputs": [
        {
          "internalType": "address",
          "name": "owner",
          "type": "address"
        },
        {
          "internalType": "address",
          "name": "operator",
          "type": "address"
        }
      ],
      "name": "isApprovedForAll",
      "outputs": [
        {
          "internalType": "bool",
          "name": "",
          "type": "bool"
        }
      ],
      "stateMutability": "view",
      "type": "function"
    },
    {
      "inputs": [
        {
          "internalType": "address",
          "name": "questionedAddress",
          "type": "address"
        }
      ],
      "name": "isOnExtendedOwnerList",
      "outputs": [
        {
          "internalType": "bool",
          "name": "",
          "type": "bool"
        }
      ],
      "stateMutability": "view",
      "type": "function"
    },
    {
      "inputs": [
        {
          "internalType": "address",
          "name": "questionedAddress",
          "type": "address"
        }
      ],
      "name": "isOnShitlist",
      "outputs": [
        {
          "internalType": "bool",
          "name": "",
          "type": "bool"
        }
      ],
      "stateMutability": "view",
      "type": "function"
    },
    {
      "inputs": [],
      "name": "mint",
      "outputs": [],
      "stateMutability": "nonpayable",
      "type": "function"
    },
    {
      "inputs": [
        {
          "internalType": "uint256",
          "name": "tokenId",
          "type": "uint256"
        }
      ],
      "name": "mintFavorite",
      "outputs": [],
      "stateMutability": "nonpayable",
      "type": "function"
    },
    {
      "inputs": [],
      "name": "name",
      "outputs": [
        {
          "internalType": "string",
          "name": "",
          "type": "string"
        }
      ],
      "stateMutability": "view",
      "type": "function"
    },
    {
      "inputs": [],
      "name": "owner",
      "outputs": [
        {
          "internalType": "address",
          "name": "",
          "type": "address"
        }
      ],
      "stateMutability": "view",
      "type": "function"
    },
    {
      "inputs": [
        {
          "internalType": "address",
          "name": "_allowAddress",
          "type": "address"
        }
      ],
      "name": "ownerAddToAllowlist",
      "outputs": [],
      "stateMutability": "nonpayable",
      "type": "function"
    },
    {
      "inputs": [
        {
          "internalType": "address",
          "name": "_shittyAddress",
          "type": "address"
        }
      ],
      "name": "ownerAddToShitlist",
      "outputs": [],
      "stateMutability": "nonpayable",
      "type": "function"
    },
    {
      "inputs": [
        {
          "internalType": "uint256",
          "name": "tokenId",
          "type": "uint256"
        }
      ],
      "name": "ownerOf",
      "outputs": [
        {
          "internalType": "address",
          "name": "",
          "type": "address"
        }
      ],
      "stateMutability": "view",
      "type": "function"
    },
    {
      "inputs": [
        {
          "internalType": "address",
          "name": "_allowAddress",
          "type": "address"
        }
      ],
      "name": "ownerRemoveFromAllowlist",
      "outputs": [],
      "stateMutability": "nonpayable",
      "type": "function"
    },
    {
      "inputs": [
        {
          "internalType": "address",
          "name": "_shittyAddress",
          "type": "address"
        }
      ],
      "name": "ownerRemoveFromShitlist",
      "outputs": [],
      "stateMutability": "nonpayable",
      "type": "function"
    },
    {
      "inputs": [
        {
          "internalType": "bool",
          "name": "allowlistActivityLevel",
          "type": "bool"
        }
      ],
      "name": "ownerSetAllowlistActive",
      "outputs": [],
      "stateMutability": "nonpayable",
      "type": "function"
    },
    {
      "inputs": [
        {
          "internalType": "string",
          "name": "newBaseTokenURI",
          "type": "string"
        }
      ],
      "name": "ownerSetBaseTokenURI",
      "outputs": [],
      "stateMutability": "nonpayable",
      "type": "function"
    },
    {
      "inputs": [
        {
          "internalType": "uint256",
          "name": "tokenId",
          "type": "uint256"
        },
        {
          "internalType": "address",
          "name": "newOwner",
          "type": "address"
        }
      ],
      "name": "ownerSetNewTokenOwner",
      "outputs": [],
      "stateMutability": "nonpayable",
      "type": "function"
    },
    {
      "inputs": [
        {
          "internalType": "bool",
          "name": "contractIsPaused",
          "type": "bool"
        }
      ],
      "name": "ownerSetPausedState",
      "outputs": [],
      "stateMutability": "nonpayable",
      "type": "function"
    },
    {
      "inputs": [
        {
          "internalType": "uint256",
          "name": "new_limit",
          "type": "uint256"
        }
      ],
      "name": "ownerUpdateWalletLimit",
      "outputs": [],
      "stateMutability": "nonpayable",
      "type": "function"
    },
    {
      "inputs": [],
      "name": "ownerWithdrawContractBalance",
      "outputs": [],
      "stateMutability": "nonpayable",
      "type": "function"
    },
    {
      "inputs": [
        {
          "internalType": "address",
          "name": "from",
          "type": "address"
        },
        {
          "internalType": "address",
          "name": "to",
          "type": "address"
        },
        {
          "internalType": "uint256",
          "name": "tokenId",
          "type": "uint256"
        }
      ],
      "name": "safeTransferFrom",
      "outputs": [],
      "stateMutability": "nonpayable",
      "type": "function"
    },
    {
      "inputs": [
        {
          "internalType": "address",
          "name": "from",
          "type": "address"
        },
        {
          "internalType": "address",
          "name": "to",
          "type": "address"
        },
        {
          "internalType": "uint256",
          "name": "tokenId",
          "type": "uint256"
        },
        {
          "internalType": "bytes",
          "name": "_data",
          "type": "bytes"
        }
      ],
      "name": "safeTransferFrom",
      "outputs": [],
      "stateMutability": "nonpayable",
      "type": "function"
    },
    {
      "inputs": [
        {
          "internalType": "address",
          "name": "operator",
          "type": "address"
        },
        {
          "internalType": "bool",
          "name": "approved",
          "type": "bool"
        }
      ],
      "name": "setApprovalForAll",
      "outputs": [],
      "stateMutability": "nonpayable",
      "type": "function"
    },
    {
      "inputs": [
        {
          "internalType": "bytes4",
          "name": "interfaceId",
          "type": "bytes4"
        }
      ],
      "name": "supportsInterface",
      "outputs": [
        {
          "internalType": "bool",
          "name": "",
          "type": "bool"
        }
      ],
      "stateMutability": "view",
      "type": "function"
    },
    {
      "inputs": [],
      "name": "symbol",
      "outputs": [
        {
          "internalType": "string",
          "name": "",
          "type": "string"
        }
      ],
      "stateMutability": "view",
      "type": "function"
    },
    {
      "inputs": [
        {
          "internalType": "uint256",
          "name": "tokenId",
          "type": "uint256"
        }
      ],
      "name": "tokenURI",
      "outputs": [
        {
          "internalType": "string",
          "name": "",
          "type": "string"
        }
      ],
      "stateMutability": "view",
      "type": "function"
    },
    {
      "inputs": [],
      "name": "totalAureiSupply",
      "outputs": [
        {
          "internalType": "uint256",
          "name": "",
          "type": "uint256"
        }
      ],
      "stateMutability": "view",
      "type": "function"
    },
    {
      "inputs": [],
      "name": "totalSupply",
      "outputs": [
        {
          "internalType": "uint256",
          "name": "",
          "type": "uint256"
        }
      ],
      "stateMutability": "view",
      "type": "function"
    },
    {
      "inputs": [
        {
          "internalType": "address",
          "name": "from",
          "type": "address"
        },
        {
          "internalType": "address",
          "name": "to",
          "type": "address"
        },
        {
          "internalType": "uint256",
          "name": "tokenId",
          "type": "uint256"
        }
      ],
      "name": "transferFrom",
      "outputs": [],
      "stateMutability": "nonpayable",
      "type": "function"
    },
    {
      "inputs": [
        {
          "internalType": "address",
          "name": "_extendedOwnerAddress",
          "type": "address"
        },
        {
          "internalType": "bool",
          "name": "isExtendedOwner",
          "type": "bool"
        }
      ],
      "name": "updateExtendedOwnerList",
      "outputs": [],
      "stateMutability": "nonpayable",
      "type": "function"
    }
  ],
  "bytecode": "0x60806040526001600955610378600a556007600b553480156200002157600080fd5b506040518060400160405280601581526020017f4d7574616e7420417572656c69757320417572656900000000000000000000008152506040518060400160405280600381526020017f4d414100000000000000000000000000000000000000000000000000000000008152508160009080519060200190620000a69291906200101f565b508060019080519060200190620000bf9291906200101f565b505050620000de67e0d8f64c35b4662660c01b6200054e60201b60201c565b620000fa678d8e65ee42cf04f760c01b6200054e60201b60201c565b6040518060400160405280601281526020017f697066733a2f2f6c6f72656d697073756d2f0000000000000000000000000000815250600c9080519060200190620001479291906200101f565b506200016467d66ef6945b1023ed60c01b6200054e60201b60201c565b33600d60026101000a81548173ffffffffffffffffffffffffffffffffffffffff021916908373ffffffffffffffffffffffffffffffffffffffff160217905550620001c167c5e9175ab5631d2260c01b6200054e60201b60201c565b6001600e6000737d4c4d5380ca2f9c7a091bb622b80613da7eae8c73ffffffffffffffffffffffffffffffffffffffff1673ffffffffffffffffffffffffffffffffffffffff16815260200190815260200160002060006101000a81548160ff0219169083151502179055506200024967e087e08251acd61560c01b6200054e60201b60201c565b6001600e600073385375fd99d6019c630b1315d3815bb162aa039e73ffffffffffffffffffffffffffffffffffffffff1673ffffffffffffffffffffffffffffffffffffffff16815260200190815260200160002060006101000a81548160ff021916908315150217905550620002d16744f7115e5f33454a60c01b6200054e60201b60201c565b6001600e60007390f79bf6eb2c4f870365e785982e1f101e93b90673ffffffffffffffffffffffffffffffffffffffff1673ffffffffffffffffffffffffffffffffffffffff16815260200190815260200160002060006101000a81548160ff0219169083151502179055506200035967d63242095c39f4ed60c01b6200054e60201b60201c565b600160106000600d60029054906101000a900473ffffffffffffffffffffffffffffffffffffffff1673ffffffffffffffffffffffffffffffffffffffff1673ffffffffffffffffffffffffffffffffffffffff16815260200190815260200160002060006101000a81548160ff021916908315150217905550620003ef67a3d4a0069cf509d360c01b6200054e60201b60201c565b600160106000735a97d44de4fe69e194541a4d78db37218872d85973ffffffffffffffffffffffffffffffffffffffff1673ffffffffffffffffffffffffffffffffffffffff16815260200190815260200160002060006101000a81548160ff021916908315150217905550620004776790ea1e812e55101960c01b6200054e60201b60201c565b6000600d60006101000a81548160ff021916908315150217905550620004ae67a2b0084584f9a7e460c01b6200054e60201b60201c565b6001600d60016101000a81548160ff021916908315150217905550620004e5675974744348234cfe60c01b6200054e60201b60201c565b6200050167ca50876acd34321860c01b6200054e60201b60201c565b620005116200055160201b60201c565b6200052d6756a9294783d9ac6360c01b6200054e60201b60201c565b6001600d60006101000a81548160ff02191690831515021790555062001489565b50565b6200056d6764577b37abe5ea1b60c01b6200054e60201b60201c565b6200058967cc29fd2a0a061cb860c01b6200054e60201b60201c565b620005a5673408ef2217df15d160c01b6200054e60201b60201c565b620005c1676cd6d473d23fb66360c01b6200054e60201b60201c565b600d60009054906101000a900460ff161562000614576040517f08c379a00000000000000000000000000000000000000000000000000000000081526004016200060b9062001192565b60405180910390fd5b620006306736e80d77e1908c7560c01b6200054e60201b60201c565b6200064c67afb7f0556a84254f60c01b6200054e60201b60201c565b6200066867696846d90c5b70dd60c01b6200054e60201b60201c565b6000600190505b600b5481116200079957620006956761f4f5242cbf82a960c01b6200054e60201b60201c565b620006b1675e8407bdd982041460c01b6200054e60201b60201c565b620006c860066200085960201b62002dd11760201c565b620006e467e6d07700d4a3ec3760c01b6200054e60201b60201c565b6200070067de6693aadf5000c760c01b6200054e60201b60201c565b6200071760086200085960201b62002dd11760201c565b6200073367722e1638f836ad5360c01b6200054e60201b60201c565b6200074f673a4ccab9c1dbabfe60c01b6200054e60201b60201c565b62000783600d60029054906101000a900473ffffffffffffffffffffffffffffffffffffffff16826200086f60201b60201c565b80806200079090620012ea565b9150506200066f565b50620007b667f0070a58d9a3bdd060c01b6200054e60201b60201c565b620007d267f968dbbc425b18e260c01b6200054e60201b60201c565b620007e960086200085960201b62002dd11760201c565b62000805673037e111f582648f60c01b6200054e60201b60201c565b6200082167b7523dd4a2bf665160c01b6200054e60201b60201c565b62000857600d60029054906101000a900473ffffffffffffffffffffffffffffffffffffffff166103786200086f60201b60201c565b565b6001816000016000828254019250508190555050565b600073ffffffffffffffffffffffffffffffffffffffff168273ffffffffffffffffffffffffffffffffffffffff161415620008e2576040517f08c379a0000000000000000000000000000000000000000000000000000000008152600401620008d9906200121a565b60405180910390fd5b620008f38162000a6960201b60201c565b1562000936576040517f08c379a00000000000000000000000000000000000000000000000000000000081526004016200092d90620011b4565b60405180910390fd5b6200094a6000838362000ad560201b60201c565b6001600360008473ffffffffffffffffffffffffffffffffffffffff1673ffffffffffffffffffffffffffffffffffffffff16815260200190815260200160002060008282546200099c91906200124d565b92505081905550816002600083815260200190815260200160002060006101000a81548173ffffffffffffffffffffffffffffffffffffffff021916908373ffffffffffffffffffffffffffffffffffffffff160217905550808273ffffffffffffffffffffffffffffffffffffffff16600073ffffffffffffffffffffffffffffffffffffffff167fddf252ad1be2c89b69c2b068fc378daa952ba7f163c4a11628f55a4df523b3ef60405160405180910390a462000a656000838362000ea460201b60201c565b5050565b60008073ffffffffffffffffffffffffffffffffffffffff166002600084815260200190815260200160002060009054906101000a900473ffffffffffffffffffffffffffffffffffffffff1673ffffffffffffffffffffffffffffffffffffffff1614159050919050565b62000af16706e2413c8db62a0d60c01b6200054e60201b60201c565b62000b0d67d8a6155b83a7b8bf60c01b6200054e60201b60201c565b62000b29670289926b19ee295760c01b6200054e60201b60201c565b62000b45678bda343a6c5da59f60c01b6200054e60201b60201c565b600d60009054906101000a900460ff161562000b98576040517f08c379a000000000000000000000000000000000000000000000000000000000815260040162000b8f9062001192565b60405180910390fd5b62000bb467410593f454ffe1a660c01b6200054e60201b60201c565b62000bd067add512ff733a213360c01b6200054e60201b60201c565b62000bec678bd20b26a03bcb3460c01b6200054e60201b60201c565b62000c086726d4f04165fb512660c01b6200054e60201b60201c565b60011515600e60008473ffffffffffffffffffffffffffffffffffffffff1673ffffffffffffffffffffffffffffffffffffffff16815260200190815260200160002060009054906101000a900460ff161515141562000c9f576040517f08c379a000000000000000000000000000000000000000000000000000000000815260040162000c9690620011f8565b60405180910390fd5b62000cbb671a57195bfbbfd85760c01b6200054e60201b60201c565b62000cd7674f8d154721cf218060c01b6200054e60201b60201c565b62000cf367dd90cacfa325757260c01b6200054e60201b60201c565b62000d048162000ea960201b60201c565b1562000e325762000d2667f52530b2924de71860c01b6200054e60201b60201c565b62000d42675a166a71374ca31360c01b6200054e60201b60201c565b62000d5e670ef3985c130449d060c01b6200054e60201b60201c565b62000d7a6799b124b3f8cd494360c01b6200054e60201b60201c565b60011515601060003373ffffffffffffffffffffffffffffffffffffffff1673ffffffffffffffffffffffffffffffffffffffff16815260200190815260200160002060009054906101000a900460ff1615151462000e10576040517f08c379a000000000000000000000000000000000000000000000000000000000815260040162000e0790620011d6565b60405180910390fd5b62000e2c676bd8945df897d53d60c01b6200054e60201b60201c565b62000e4f565b62000e4e6743d1ec25ed4b8bc960c01b6200054e60201b60201c565b5b62000e6b671b83c72a2f4883e960c01b6200054e60201b60201c565b62000e87675db9ff110706774060c01b6200054e60201b60201c565b62000e9f8383836200100f60201b62002de71760201c565b505050565b505050565b600062000ec767f20f3d1319d9885b60c01b6200054e60201b60201c565b62000ee367c3d4ca910e00e2f660c01b6200054e60201b60201c565b62000eff676561afc9f49df32260c01b6200054e60201b60201c565b60008211801562000f125750600b548211155b801562000f37575062000f366710c53af39164eb5d60c01b6200101460201b60201c565b5b8062000f6957506103788214801562000f68575062000f67674b2fe09683e6711e60c01b6200101460201b60201c565b5b5b1562000fcd5762000f8b67b22b73eab0e23af660c01b6200054e60201b60201c565b62000fa767c986d8e3c5a3635d60c01b6200054e60201b60201c565b62000fc36777519d7cb0e536fa60c01b6200054e60201b60201c565b600190506200100a565b62000fe967c048c98b4e828c3960c01b6200054e60201b60201c565b620010056747663ad070fb122760c01b6200054e60201b60201c565b600090505b919050565b505050565b600060019050919050565b8280546200102d90620012b4565b90600052602060002090601f0160209004810192826200105157600085556200109d565b82601f106200106c57805160ff19168380011785556200109d565b828001600101855582156200109d579182015b828111156200109c5782518255916020019190600101906200107f565b5b509050620010ac9190620010b0565b5090565b5b80821115620010cb576000816000905550600101620010b1565b5090565b6000620010de6004836200123c565b9150620010eb8262001396565b602082019050919050565b600062001105601c836200123c565b91506200111282620013bf565b602082019050919050565b60006200112c6040836200123c565b91506200113982620013e8565b604082019050919050565b600062001153600c836200123c565b9150620011608262001437565b602082019050919050565b60006200117a6020836200123c565b9150620011878262001460565b602082019050919050565b60006020820190508181036000830152620011ad81620010cf565b9050919050565b60006020820190508181036000830152620011cf81620010f6565b9050919050565b60006020820190508181036000830152620011f1816200111d565b9050919050565b60006020820190508181036000830152620012138162001144565b9050919050565b6000602082019050818103600083015262001235816200116b565b9050919050565b600082825260208201905092915050565b60006200125a82620012aa565b91506200126783620012aa565b9250827fffffffffffffffffffffffffffffffffffffffffffffffffffffffffffffffff038211156200129f576200129e62001338565b5b828201905092915050565b6000819050919050565b60006002820490506001821680620012cd57607f821691505b60208210811415620012e457620012e362001367565b5b50919050565b6000620012f782620012aa565b91507fffffffffffffffffffffffffffffffffffffffffffffffffffffffffffffffff8214156200132d576200132c62001338565b5b600182019050919050565b7f4e487b7100000000000000000000000000000000000000000000000000000000600052601160045260246000fd5b7f4e487b7100000000000000000000000000000000000000000000000000000000600052602260045260246000fd5b7f534f4f4e00000000000000000000000000000000000000000000000000000000600082015250565b7f4552433732313a20746f6b656e20616c7265616479206d696e74656400000000600082015250565b7f4f6e6c79204d7574616e7420417572656c6975732063616e20626573746f772060008201527f6f776e657220686973206661766f722075706f6e20746865206d61737365732e602082015250565b7f4e4f4e4520464f5220594f550000000000000000000000000000000000000000600082015250565b7f4552433732313a206d696e7420746f20746865207a65726f2061646472657373600082015250565b615e4880620014996000396000f3fe608060405234801561001057600080fd5b506004361061021c5760003560e01c80636bbcdc1611610125578063b3e8524b116100ad578063ccacd0c51161007c578063ccacd0c5146105fd578063d981d5961461061b578063e985e9c514610639578063ea193cda14610669578063f7cedd85146106855761021c565b8063b3e8524b14610565578063b88d4fde14610595578063bfd06af7146105b1578063c87b56dd146105cd5761021c565b80638da5cb5b116100f45780638da5cb5b146104e757806395d89b411461050557806396a0db3014610523578063a22cb4651461053f578063a39000a71461055b5761021c565b80636bbcdc16146104615780636c7f7b321461047f57806370a082311461049b578063775ce033146104cb5761021c565b80632ecdbc48116101a85780634563649d116101775780634563649d146103ab5780634bc26106146103c95780635b627c70146103f95780635fc82523146104155780636352211e146104315761021c565b80632ecdbc4814610339578063332b3a8d1461035557806342842e0e146103735780634441d1321461038f5761021c565b80631249c58b116101ef5780631249c58b146102bb57806318160ddd146102c55780631b3bf3d8146102e357806323b872dd146102ff57806326c6adeb1461031b5761021c565b806301ffc9a71461022157806306fdde0314610251578063081812fc1461026f578063095ea7b31461029f575b600080fd5b61023b600480360381019061023691906146ec565b6106a1565b6040516102489190614d90565b60405180910390f35b610259610783565b6040516102669190614dab565b60405180910390f35b6102896004803603810190610284919061477f565b610815565b6040516102969190614d29565b60405180910390f35b6102b960048036038101906102b49190614687565b61089a565b005b6102c36109b2565b005b6102cd610be9565b6040516102da919061514d565b60405180910390f35b6102fd60048036038101906102f891906147a8565b610c2f565b005b61031960048036038101906103149190614581565b610f9e565b005b610323610ffe565b6040516103309190614d90565b60405180910390f35b610353600480360381019061034e919061451c565b611051565b005b61035d611204565b60405161036a919061514d565b60405180910390f35b61038d60048036038101906103889190614581565b611251565b005b6103a960048036038101906103a4919061451c565b611271565b005b6103b3611424565b6040516103c0919061514d565b60405180910390f35b6103e360048036038101906103de919061451c565b61142a565b6040516103f09190614d90565b60405180910390f35b610413600480360381019061040e919061477f565b6114bc565b005b61042f600480360381019061042a91906146c3565b61161e565b005b61044b6004803603810190610446919061477f565b611793565b6040516104589190614d29565b60405180910390f35b610469611845565b604051610476919061514d565b60405180910390f35b6104996004803603810190610494919061464b565b611892565b005b6104b560048036038101906104b0919061451c565b611a45565b6040516104c2919061514d565b60405180910390f35b6104e560048036038101906104e0919061473e565b611afd565b005b6104ef611c6f565b6040516104fc9190614d29565b60405180910390f35b61050d611cd5565b60405161051a9190614dab565b60405180910390f35b61053d6004803603810190610538919061451c565b611d67565b005b6105596004803603810190610554919061464b565b611f1a565b005b610563611f30565b005b61057f600480360381019061057a919061451c565b61225c565b60405161058c9190614d90565b60405180910390f35b6105af60048036038101906105aa91906145d0565b6122ee565b005b6105cb60048036038101906105c6919061451c565b612350565b005b6105e760048036038101906105e2919061477f565b612503565b6040516105f49190614dab565b60405180910390f35b6106056127dd565b604051610612919061514d565b60405180910390f35b6106236127e3565b604051610630919061514d565b60405180910390f35b610653600480360381019061064e9190614545565b612830565b6040516106609190614d90565b60405180910390f35b610683600480360381019061067e919061477f565b6128c4565b005b61069f600480360381019061069a91906146c3565b612c5c565b005b60007f80ac58cd000000000000000000000000000000000000000000000000000000007bffffffffffffffffffffffffffffffffffffffffffffffffffffffff1916827bffffffffffffffffffffffffffffffffffffffffffffffffffffffff1916148061076c57507f5b5e139f000000000000000000000000000000000000000000000000000000007bffffffffffffffffffffffffffffffffffffffffffffffffffffffff1916827bffffffffffffffffffffffffffffffffffffffffffffffffffffffff1916145b8061077c575061077b82612dec565b5b9050919050565b606060008054610792906153ae565b80601f01602080910402602001604051908101604052809291908181526020018280546107be906153ae565b801561080b5780601f106107e05761010080835404028352916020019161080b565b820191906000526020600020905b8154815290600101906020018083116107ee57829003601f168201915b5050505050905090565b600061082082612e56565b61085f576040517f08c379a000000000000000000000000000000000000000000000000000000000815260040161085690614fed565b60405180910390fd5b6004600083815260200190815260200160002060009054906101000a900473ffffffffffffffffffffffffffffffffffffffff169050919050565b60006108a582611793565b90508073ffffffffffffffffffffffffffffffffffffffff168373ffffffffffffffffffffffffffffffffffffffff161415610916576040517f08c379a000000000000000000000000000000000000000000000000000000000815260040161090d906150ad565b60405180910390fd5b8073ffffffffffffffffffffffffffffffffffffffff16610935612ec2565b73ffffffffffffffffffffffffffffffffffffffff16148061096457506109638161095e612ec2565b612830565b5b6109a3576040517f08c379a000000000000000000000000000000000000000000000000000000000815260040161099a90614f4d565b60405180910390fd5b6109ad8383612eca565b505050565b6109c667bb9afe525974ed5560c01b612f83565b6109da67247b788fff1451dc60c01b612f83565b6109ee670ef69611e663b52360c01b612f83565b610a0267b81e4183d0cdb46660c01b612f83565b600d60009054906101000a900460ff1615610a52576040517f08c379a0000000000000000000000000000000000000000000000000000000008152600401610a4990614e2d565b60405180910390fd5b610a66674aef920d8dd0e1e760c01b612f83565b610a7a6737d63869d97801c160c01b612f83565b610a8e671cdb204082b7de6360c01b612f83565b600d60019054906101000a900460ff1615610b9f57610ab767140cd1570d2e009e60c01b612f83565b610acb67f88420d63fdffa5160c01b612f83565b610adf67a2585850c7ea3abf60c01b612f83565b610af367df01349864038beb60c01b612f83565b60011515600f60003373ffffffffffffffffffffffffffffffffffffffff1673ffffffffffffffffffffffffffffffffffffffff16815260200190815260200160002060009054906101000a900460ff16151514610b86576040517f08c379a0000000000000000000000000000000000000000000000000000000008152600401610b7d9061510d565b60405180910390fd5b610b9a67ed92f7d46ca4b47f60c01b612f83565b610bb4565b610bb3678174dd5ff2ed8e6b60c01b612f83565b5b610bc867eb6de970bd8b056d60c01b612f83565b610bdc6730e723d74a10ca3760c01b612f83565b610be7336000612f86565b565b6000610bff67c1f1012d8258ccbe60c01b612f83565b610c1367b1c346f604ae3c1160c01b612f83565b610c276715560292c1d3932860c01b612f83565b610378905090565b610c4367ee3f28493222164c60c01b612f83565b610c576715feb02d7de839f260c01b612f83565b610c6b678a0f1ef2dc35c6a960c01b612f83565b610c7f676aeecb1f36bb446e60c01b612f83565b610c9367a2d6d16c56cdcdce60c01b612f83565b60011515601060003373ffffffffffffffffffffffffffffffffffffffff1673ffffffffffffffffffffffffffffffffffffffff16815260200190815260200160002060009054906101000a900460ff16151514610d26576040517f08c379a0000000000000000000000000000000000000000000000000000000008152600401610d1d906150cd565b60405180910390fd5b610d3a67989d0b390c84fe6160c01b612f83565b610d4e6717a84b521799a1a560c01b612f83565b610d6267ffabbb0a40c30b8560c01b612f83565b610d7667c549b8e21e30bce860c01b612f83565b610d8a6775b31f6c38a6a3d960c01b612f83565b610d9e679e3b0ee547054bf960c01b612f83565b610db26775fbdf011bda89a660c01b612f83565b610dbb82613331565b610dfa576040517f08c379a0000000000000000000000000000000000000000000000000000000008152600401610df19061500d565b60405180910390fd5b610e0e67765b1eeb7863749360c01b612f83565b610e22678bd76cfe4bb93b2260c01b612f83565b610e36670a534adc7f5e4ff460c01b612f83565b6000610e4183611793565b9050610e5767c63e4c3c1b1d20d360c01b612f83565b610e6b674864ad180b61da3660c01b612f83565b600d60029054906101000a900473ffffffffffffffffffffffffffffffffffffffff1673ffffffffffffffffffffffffffffffffffffffff168173ffffffffffffffffffffffffffffffffffffffff1614610f5157610ed46743cdd37738221c3060c01b612f83565b610ee867f03c03330d143cfe60c01b612f83565b610efc679a80556ad2fd1a8d60c01b612f83565b610f066007612dd1565b610f1a67bcbdc22267ff2e4160c01b612f83565b610f2e67c3dc2d240d7aee2c60c01b612f83565b610f4c81610f3a611845565b600a54610f47919061523d565b613441565b610f66565b610f6567be8746c906b96c2d60c01b612f83565b5b610f7a67b31a832f98e6b27760c01b612f83565b610f8e67c645bc826220ee8760c01b612f83565b610f9981838561361b565b505050565b610faf610fa9612ec2565b82613882565b610fee576040517f08c379a0000000000000000000000000000000000000000000000000000000008152600401610fe5906150ed565b60405180910390fd5b610ff983838361361b565b505050565b6000611014676e1d49414f0d5ef860c01b612f83565b6110286782cfbed34d01f27b60c01b612f83565b61103c67baf2801f3c398a0160c01b612f83565b600d60009054906101000a900460ff16905090565b611065672c5ed60e69a7511960c01b612f83565b61107967df5b266c534b4ebf60c01b612f83565b61108d67495020856ea8091260c01b612f83565b6110a167b218c995538591e460c01b612f83565b6110b567418b607c7ecece7060c01b612f83565b600d60029054906101000a900473ffffffffffffffffffffffffffffffffffffffff1673ffffffffffffffffffffffffffffffffffffffff163373ffffffffffffffffffffffffffffffffffffffff1614611145576040517f08c379a000000000000000000000000000000000000000000000000000000000815260040161113c906150cd565b60405180910390fd5b61115967b3350cbb98409c9e60c01b612f83565b61116d67d2732c306c76e7c060c01b612f83565b61118167312ebddc72736b1c60c01b612f83565b611195679a10747d1dc4b07660c01b612f83565b6111a9677f4177eb89f1c11f60c01b612f83565b6000600e60008373ffffffffffffffffffffffffffffffffffffffff1673ffffffffffffffffffffffffffffffffffffffff16815260200190815260200160002060006101000a81548160ff02191690831515021790555050565b600061121a6771828f1ac2a66e7a60c01b612f83565b61122e6775cbfe68de29b45a60c01b612f83565b61124267cbfbd24841ae32f160c01b612f83565b61124c6008613960565b905090565b61126c838383604051806020016040528060008152506122ee565b505050565b611285670a2e5354c9ddf19160c01b612f83565b61129967df5b266c534b4ebf60c01b612f83565b6112ad67495020856ea8091260c01b612f83565b6112c167b218c995538591e460c01b612f83565b6112d567418b607c7ecece7060c01b612f83565b600d60029054906101000a900473ffffffffffffffffffffffffffffffffffffffff1673ffffffffffffffffffffffffffffffffffffffff163373ffffffffffffffffffffffffffffffffffffffff1614611365576040517f08c379a000000000000000000000000000000000000000000000000000000000815260040161135c906150cd565b60405180910390fd5b61137967b3350cbb98409c9e60c01b612f83565b61138d67d2732c306c76e7c060c01b612f83565b6113a1670a68d0cf4577a23c60c01b612f83565b6113b56722f7e5dc58909f9260c01b612f83565b6113c967ee8dbb6b1708efa160c01b612f83565b6000600f60008373ffffffffffffffffffffffffffffffffffffffff1673ffffffffffffffffffffffffffffffffffffffff16815260200190815260200160002060006101000a81548160ff02191690831515021790555050565b600b5481565b600061144067c4fdf53b506395b060c01b612f83565b611454670c02717debb4c8a660c01b612f83565b6114686757ed4c930fa636ab60c01b612f83565b600e60008373ffffffffffffffffffffffffffffffffffffffff1673ffffffffffffffffffffffffffffffffffffffff16815260200190815260200160002060009054906101000a900460ff169050919050565b6114d0679163286eada8fa4760c01b612f83565b6114e467df5b266c534b4ebf60c01b612f83565b6114f867495020856ea8091260c01b612f83565b61150c67b218c995538591e460c01b612f83565b61152067418b607c7ecece7060c01b612f83565b600d60029054906101000a900473ffffffffffffffffffffffffffffffffffffffff1673ffffffffffffffffffffffffffffffffffffffff163373ffffffffffffffffffffffffffffffffffffffff16146115b0576040517f08c379a00000000000000000000000000000000000000000000000000000000081526004016115a7906150cd565b60405180910390fd5b6115c467b3350cbb98409c9e60c01b612f83565b6115d867d2732c306c76e7c060c01b612f83565b6115ec67b4df5fe0c6b9b77d60c01b612f83565b611600679b2ca18d721c3b5b60c01b612f83565b61161467c63a4e0a5b3b68b060c01b612f83565b8060098190555050565b611632676c6c44a66d64ad7360c01b612f83565b61164667df5b266c534b4ebf60c01b612f83565b61165a67495020856ea8091260c01b612f83565b61166e67b218c995538591e460c01b612f83565b61168267418b607c7ecece7060c01b612f83565b600d60029054906101000a900473ffffffffffffffffffffffffffffffffffffffff1673ffffffffffffffffffffffffffffffffffffffff163373ffffffffffffffffffffffffffffffffffffffff1614611712576040517f08c379a0000000000000000000000000000000000000000000000000000000008152600401611709906150cd565b60405180910390fd5b61172667b3350cbb98409c9e60c01b612f83565b61173a67d2732c306c76e7c060c01b612f83565b61174e675c3f35492fe3e52360c01b612f83565b6117626785859a2e51f8f9ff60c01b612f83565b61177667938c5be971d81db660c01b612f83565b80600d60006101000a81548160ff02191690831515021790555050565b6000806002600084815260200190815260200160002060009054906101000a900473ffffffffffffffffffffffffffffffffffffffff169050600073ffffffffffffffffffffffffffffffffffffffff168173ffffffffffffffffffffffffffffffffffffffff16141561183c576040517f08c379a000000000000000000000000000000000000000000000000000000000815260040161183390614fad565b60405180910390fd5b80915050919050565b600061185b67345ab38c5829960860c01b612f83565b61186f674fd2c37d1761bcbd60c01b612f83565b61188367885600dccbb6c73160c01b612f83565b61188d6007613960565b905090565b6118a6678153ac3cc9167f7760c01b612f83565b6118ba67df5b266c534b4ebf60c01b612f83565b6118ce67495020856ea8091260c01b612f83565b6118e267b218c995538591e460c01b612f83565b6118f667418b607c7ecece7060c01b612f83565b600d60029054906101000a900473ffffffffffffffffffffffffffffffffffffffff1673ffffffffffffffffffffffffffffffffffffffff163373ffffffffffffffffffffffffffffffffffffffff1614611986576040517f08c379a000000000000000000000000000000000000000000000000000000000815260040161197d906150cd565b60405180910390fd5b61199a67b3350cbb98409c9e60c01b612f83565b6119ae67d2732c306c76e7c060c01b612f83565b6119c26783b5890a689bfc1260c01b612f83565b6119d667c5fb0799aba14a5360c01b612f83565b6119ea67ac89f0d2ee04a44660c01b612f83565b80601060008473ffffffffffffffffffffffffffffffffffffffff1673ffffffffffffffffffffffffffffffffffffffff16815260200190815260200160002060006101000a81548160ff0219169083151502179055505050565b60008073ffffffffffffffffffffffffffffffffffffffff168273ffffffffffffffffffffffffffffffffffffffff161415611ab6576040517f08c379a0000000000000000000000000000000000000000000000000000000008152600401611aad90614f8d565b60405180910390fd5b600360008373ffffffffffffffffffffffffffffffffffffffff1673ffffffffffffffffffffffffffffffffffffffff168152602001908152602001600020549050919050565b611b1167ae6343b9f1aaddbc60c01b612f83565b611b2567df5b266c534b4ebf60c01b612f83565b611b3967495020856ea8091260c01b612f83565b611b4d67b218c995538591e460c01b612f83565b611b6167418b607c7ecece7060c01b612f83565b600d60029054906101000a900473ffffffffffffffffffffffffffffffffffffffff1673ffffffffffffffffffffffffffffffffffffffff163373ffffffffffffffffffffffffffffffffffffffff1614611bf1576040517f08c379a0000000000000000000000000000000000000000000000000000000008152600401611be8906150cd565b60405180910390fd5b611c0567b3350cbb98409c9e60c01b612f83565b611c1967d2732c306c76e7c060c01b612f83565b611c2d67f1d8a9530849218660c01b612f83565b611c41672d81e2301b7b773460c01b612f83565b611c556760c6a87cd9c2d32360c01b612f83565b80600c9080519060200190611c6b929190614340565b5050565b6000611c8567f75a8d9393bc9fa860c01b612f83565b611c9967df7d49f7c5515c1860c01b612f83565b611cad67cd7943de1ae1be4060c01b612f83565b600d60029054906101000a900473ffffffffffffffffffffffffffffffffffffffff16905090565b606060018054611ce4906153ae565b80601f0160208091040260200160405190810160405280929190818152602001828054611d10906153ae565b8015611d5d5780601f10611d3257610100808354040283529160200191611d5d565b820191906000526020600020905b815481529060010190602001808311611d4057829003601f168201915b5050505050905090565b611d7b679cbc2dfcaad53a6960c01b612f83565b611d8f67df5b266c534b4ebf60c01b612f83565b611da367495020856ea8091260c01b612f83565b611db767b218c995538591e460c01b612f83565b611dcb67418b607c7ecece7060c01b612f83565b600d60029054906101000a900473ffffffffffffffffffffffffffffffffffffffff1673ffffffffffffffffffffffffffffffffffffffff163373ffffffffffffffffffffffffffffffffffffffff1614611e5b576040517f08c379a0000000000000000000000000000000000000000000000000000000008152600401611e52906150cd565b60405180910390fd5b611e6f67b3350cbb98409c9e60c01b612f83565b611e8367d2732c306c76e7c060c01b612f83565b611e97678ac058e1ffdab06b60c01b612f83565b611eab6756fa3cd39e77f8f160c01b612f83565b611ebf67d364ce9af96acafc60c01b612f83565b6001600e60008373ffffffffffffffffffffffffffffffffffffffff1673ffffffffffffffffffffffffffffffffffffffff16815260200190815260200160002060006101000a81548160ff02191690831515021790555050565b611f2c611f25612ec2565b838361396e565b5050565b611f4467b73b66dc3dac7e7b60c01b612f83565b611f5867df5b266c534b4ebf60c01b612f83565b611f6c67495020856ea8091260c01b612f83565b611f8067b218c995538591e460c01b612f83565b611f9467418b607c7ecece7060c01b612f83565b600d60029054906101000a900473ffffffffffffffffffffffffffffffffffffffff1673ffffffffffffffffffffffffffffffffffffffff163373ffffffffffffffffffffffffffffffffffffffff1614612024576040517f08c379a000000000000000000000000000000000000000000000000000000000815260040161201b906150cd565b60405180910390fd5b61203867b3350cbb98409c9e60c01b612f83565b61204c67d2732c306c76e7c060c01b612f83565b61206067b810d5435e1f497b60c01b612f83565b61207467889e308001993c9160c01b612f83565b612088676c15e3983a83a74a60c01b612f83565b61209c67340c77a803fc836760c01b612f83565b60004790506120b567c50b4f6af19c356060c01b612f83565b6120c967bd53d23e610e442360c01b612f83565b6120dd6737866fd1db66474d60c01b612f83565b60008111612120576040517f08c379a00000000000000000000000000000000000000000000000000000000081526004016121179061512d565b60405180910390fd5b61213467c9672863199c4f7b60c01b612f83565b6121486711003f0ee8fe585760c01b612f83565b61215c6794e4de0d82c2a09160c01b612f83565b60003373ffffffffffffffffffffffffffffffffffffffff168260405161218290614d14565b60006040518083038185875af1925050503d80600081146121bf576040519150601f19603f3d011682016040523d82523d6000602084013e6121c4565b606091505b505090506121dc6765473c2a8de55e5a60c01b612f83565b6121f0673f778e4e6044604e60c01b612f83565b61220467bb08386a29d0f39860c01b612f83565b80612244576040517f08c379a000000000000000000000000000000000000000000000000000000000815260040161223b90614dcd565b60405180910390fd5b61225867fa3d272061df5e6c60c01b612f83565b5050565b60006122726739eda4ad3597499960c01b612f83565b61228667bc7e1625f12ca1fc60c01b612f83565b61229a6701c84c0a01dc808860c01b612f83565b601060008373ffffffffffffffffffffffffffffffffffffffff1673ffffffffffffffffffffffffffffffffffffffff16815260200190815260200160002060009054906101000a900460ff169050919050565b6122ff6122f9612ec2565b83613882565b61233e576040517f08c379a0000000000000000000000000000000000000000000000000000000008152600401612335906150ed565b60405180910390fd5b61234a84848484613adb565b50505050565b612364675a566e2255adbe4260c01b612f83565b61237867df5b266c534b4ebf60c01b612f83565b61238c67495020856ea8091260c01b612f83565b6123a067b218c995538591e460c01b612f83565b6123b467418b607c7ecece7060c01b612f83565b600d60029054906101000a900473ffffffffffffffffffffffffffffffffffffffff1673ffffffffffffffffffffffffffffffffffffffff163373ffffffffffffffffffffffffffffffffffffffff1614612444576040517f08c379a000000000000000000000000000000000000000000000000000000000815260040161243b906150cd565b60405180910390fd5b61245867b3350cbb98409c9e60c01b612f83565b61246c67d2732c306c76e7c060c01b612f83565b612480677aaa29d15c36e18b60c01b612f83565b61249467fd8510f9ec06238860c01b612f83565b6124a867c1c53349cd43caa660c01b612f83565b6001600f60008373ffffffffffffffffffffffffffffffffffffffff1673ffffffffffffffffffffffffffffffffffffffff16815260200190815260200160002060006101000a81548160ff02191690831515021790555050565b6060612519674e9619ccd2f030c160c01b612f83565b61252d67d923117b36b2afb660c01b612f83565b61254167b1cbe867186f0ca060c01b612f83565b6125556796d1d8cafeaec33160c01b612f83565b61255e82612e56565b61259d576040517f08c379a00000000000000000000000000000000000000000000000000000000081526004016125949061506d565b60405180910390fd5b6125b1675f548f835584165260c01b612f83565b6125c567fff26c1dcb6d837560c01b612f83565b6125d9679a6bcd7bd7bef41660c01b612f83565b610378821161262e576125f667fc31b7b82b3981e060c01b612f83565b61260a674cdd8b4f0e3a221b60c01b612f83565b61261e6727ee56099df42a9860c01b612f83565b61262782613b37565b90506127d8565b61264267465e2795c78b4fab60c01b612f83565b61265667f3b35fb934c907d360c01b612f83565b61265f82612e56565b1561272b5761267867b157365d52451f7160c01b612f83565b61268c67158ccd23b3fb98df60c01b612f83565b6126a06775af706e86e2fffd60c01b612f83565b60006126aa613bde565b511180156126c857506126c7676318d7b377e51b5860c01b613cab565b5b806126e357506126e267cbcdf7b5c02a3a2f60c01b613cb6565b5b6126fc5760405180602001604052806000815250612724565b612704613bde565b6040516020016127149190614cf2565b6040516020818303038152906040525b90506127d8565b61273f6763662e03cbd8ceba60c01b612f83565b6127536718a9f9436d21fead60c01b612f83565b61276767a6c1cc44341d59c460c01b612f83565b61277b67f9ad311468fbf8c160c01b612f83565b61278482612e56565b6127c3576040517f08c379a00000000000000000000000000000000000000000000000000000000081526004016127ba9061506d565b60405180910390fd5b6127d767adb9720251824f9b60c01b612f83565b5b919050565b600a5481565b60006127f9676e1350a03c094f2560c01b612f83565b61280d679d97f4f2541cb8fe60c01b612f83565b61282167e8b0b098cce6e93e60c01b612f83565b61282b6006613960565b905090565b6000600560008473ffffffffffffffffffffffffffffffffffffffff1673ffffffffffffffffffffffffffffffffffffffff16815260200190815260200160002060008373ffffffffffffffffffffffffffffffffffffffff1673ffffffffffffffffffffffffffffffffffffffff16815260200190815260200160002060009054906101000a900460ff16905092915050565b6128d8673aa736f9f953778e60c01b612f83565b6128ec677d7115d4880a1c2e60c01b612f83565b6129006780023061f0e2399660c01b612f83565b61291467148e30fb6415a44f60c01b612f83565b600d60009054906101000a900460ff1615612964576040517f08c379a000000000000000000000000000000000000000000000000000000000815260040161295b90614e2d565b60405180910390fd5b61297867501f6b1e029dae6360c01b612f83565b61298c675f83884cc261cb7360c01b612f83565b6129a067f7d431965def5faf60c01b612f83565b6129b4671e6569d2b5ed1e7060c01b612f83565b600d60019054906101000a900460ff16612a03576040517f08c379a00000000000000000000000000000000000000000000000000000000081526004016129fa90614e4d565b60405180910390fd5b612a1767955e7f0066b132c760c01b612f83565b612a2b67d5b039dad2aeea2360c01b612f83565b612a3f67f328e58de78e354760c01b612f83565b612a5367ba919ae986ca69cd60c01b612f83565b60011515600f60003373ffffffffffffffffffffffffffffffffffffffff1673ffffffffffffffffffffffffffffffffffffffff16815260200190815260200160002060009054906101000a900460ff16151514612ae6576040517f08c379a0000000000000000000000000000000000000000000000000000000008152600401612add9061510d565b60405180910390fd5b612afa67de30b7f9b87d89dc60c01b612f83565b612b0e670634d1636c8fb2fc60c01b612f83565b612b22679b52b4c5c30f566760c01b612f83565b612b36673e11f429355f6d8c60c01b612f83565b6103788110612b7a576040517f08c379a0000000000000000000000000000000000000000000000000000000008152600401612b719061508d565b60405180910390fd5b612b8e67ba943fed6f3ebc4460c01b612f83565b612ba267325966e57516547060c01b612f83565b612bb667fcd9613d79154e6c60c01b612f83565b612bca6744289c913256b8b560c01b612f83565b612bd381612e56565b15612c13576040517f08c379a0000000000000000000000000000000000000000000000000000000008152600401612c0a90614ded565b60405180910390fd5b612c2767c30670f5114ac29160c01b612f83565b612c3b67015e667a3d020b2d60c01b612f83565b612c4f67e9dd179f9488f69b60c01b612f83565b612c593382612f86565b50565b612c7067f37de97f829e3a2360c01b612f83565b612c8467df5b266c534b4ebf60c01b612f83565b612c9867495020856ea8091260c01b612f83565b612cac67b218c995538591e460c01b612f83565b612cc067418b607c7ecece7060c01b612f83565b600d60029054906101000a900473ffffffffffffffffffffffffffffffffffffffff1673ffffffffffffffffffffffffffffffffffffffff163373ffffffffffffffffffffffffffffffffffffffff1614612d50576040517f08c379a0000000000000000000000000000000000000000000000000000000008152600401612d47906150cd565b60405180910390fd5b612d6467b3350cbb98409c9e60c01b612f83565b612d7867d2732c306c76e7c060c01b612f83565b612d8c673cbe8373954d5fc760c01b612f83565b612da0675108fdeeb5d69af360c01b612f83565b612db467f9c55b199f03d03d60c01b612f83565b80600d60016101000a81548160ff02191690831515021790555050565b6001816000016000828254019250508190555050565b505050565b60007f01ffc9a7000000000000000000000000000000000000000000000000000000007bffffffffffffffffffffffffffffffffffffffffffffffffffffffff1916827bffffffffffffffffffffffffffffffffffffffffffffffffffffffff1916149050919050565b60008073ffffffffffffffffffffffffffffffffffffffff166002600084815260200190815260200160002060009054906101000a900473ffffffffffffffffffffffffffffffffffffffff1673ffffffffffffffffffffffffffffffffffffffff1614159050919050565b600033905090565b816004600083815260200190815260200160002060006101000a81548173ffffffffffffffffffffffffffffffffffffffff021916908373ffffffffffffffffffffffffffffffffffffffff160217905550808273ffffffffffffffffffffffffffffffffffffffff16612f3d83611793565b73ffffffffffffffffffffffffffffffffffffffff167f8c5be1e5ebec7d5bd14f71427d1e84f3dd0314c0f7b2291e5b200ac8c7c3b92560405160405180910390a45050565b50565b612f9a67f4413cde7dd76f2660c01b612f83565b612fae67ad9dd79f4fda5c3060c01b612f83565b612fc267ade4aa3c1f10ae9660c01b612f83565b612fd66746d211d5aab8f74e60c01b612f83565b600a54612fe1611204565b10613021576040517f08c379a000000000000000000000000000000000000000000000000000000000815260040161301890614f6d565b60405180910390fd5b61303567e2d55fcd0606f30e60c01b612f83565b61304967374e3911eb760bb160c01b612f83565b61305d67fd94dcc58eadbd3560c01b612f83565b61307167c45035407c2d8c9560c01b612f83565b60095461307d33611a45565b106130bd576040517f08c379a00000000000000000000000000000000000000000000000000000000081526004016130b49061504d565b60405180910390fd5b6130d1675379f5d1f846b02260c01b612f83565b6130e5677f8d32cb9de374f060c01b612f83565b6130f9674babbd561dde7f6960c01b612f83565b61310d67224751add950cd8b60c01b612f83565b60011515600e60008473ffffffffffffffffffffffffffffffffffffffff1673ffffffffffffffffffffffffffffffffffffffff16815260200190815260200160002060009054906101000a900460ff16151514156131a1576040517f08c379a000000000000000000000000000000000000000000000000000000000815260040161319890614f0d565b60405180910390fd5b6131b567ec67535560da14ff60c01b612f83565b6131c96784db5d5c26913fe060c01b612f83565b6131dd6773b8c6204431fdf760c01b612f83565b5b600115156131f26131ed6127e3565b612e56565b151514156132315761320e675a7c0cd3a19d153760c01b612f83565b613222672fe733014f57777b60c01b612f83565b61322c6006612dd1565b6131de565b61324567546e007a8287a1ca60c01b612f83565b61325967bbcddc5c2a6ff72c60c01b612f83565b6132636008612dd1565b61327767b1cf5148916f788b60c01b612f83565b61328b67b0dfc9cf042fdd1560c01b612f83565b60008114156132e6576132a867a05651769c2cc03260c01b612f83565b6132bc67898ecbd58c7af2ac60c01b612f83565b6132d067a16e88ce3c21f80160c01b612f83565b6132e1826132dc6127e3565b613441565b61332d565b6132fa671b429ff01e1aa03c60c01b612f83565b61330e678e622c4dae2603d260c01b612f83565b61332267bcc7108c1e57f9d660c01b612f83565b61332c8282613441565b5b5050565b600061334767f20f3d1319d9885b60c01b612f83565b61335b67c3d4ca910e00e2f660c01b612f83565b61336f676561afc9f49df32260c01b612f83565b6000821180156133815750600b548211155b801561339d575061339c6710c53af39164eb5d60c01b613cab565b5b806133c55750610378821480156133c457506133c3674b2fe09683e6711e60c01b613cab565b5b5b1561340f576133de67b22b73eab0e23af660c01b612f83565b6133f267c986d8e3c5a3635d60c01b612f83565b6134066777519d7cb0e536fa60c01b612f83565b6001905061343c565b61342367c048c98b4e828c3960c01b612f83565b6134376747663ad070fb122760c01b612f83565b600090505b919050565b600073ffffffffffffffffffffffffffffffffffffffff168273ffffffffffffffffffffffffffffffffffffffff1614156134b1576040517f08c379a00000000000000000000000000000000000000000000000000000000081526004016134a890614fcd565b60405180910390fd5b6134ba81612e56565b156134fa576040517f08c379a00000000000000000000000000000000000000000000000000000000081526004016134f190614e8d565b60405180910390fd5b61350660008383613cbd565b6001600360008473ffffffffffffffffffffffffffffffffffffffff1673ffffffffffffffffffffffffffffffffffffffff1681526020019081526020016000206000828254613556919061523d565b92505081905550816002600083815260200190815260200160002060006101000a81548173ffffffffffffffffffffffffffffffffffffffff021916908373ffffffffffffffffffffffffffffffffffffffff160217905550808273ffffffffffffffffffffffffffffffffffffffff16600073ffffffffffffffffffffffffffffffffffffffff167fddf252ad1be2c89b69c2b068fc378daa952ba7f163c4a11628f55a4df523b3ef60405160405180910390a461361760008383613fd4565b5050565b8273ffffffffffffffffffffffffffffffffffffffff1661363b82611793565b73ffffffffffffffffffffffffffffffffffffffff1614613691576040517f08c379a000000000000000000000000000000000000000000000000000000000815260040161368890614e6d565b60405180910390fd5b600073ffffffffffffffffffffffffffffffffffffffff168273ffffffffffffffffffffffffffffffffffffffff161415613701576040517f08c379a00000000000000000000000000000000000000000000000000000000081526004016136f890614ead565b60405180910390fd5b61370c838383613cbd565b613717600082612eca565b6001600360008573ffffffffffffffffffffffffffffffffffffffff1673ffffffffffffffffffffffffffffffffffffffff168152602001908152602001600020600082825461376791906152c4565b925050819055506001600360008473ffffffffffffffffffffffffffffffffffffffff1673ffffffffffffffffffffffffffffffffffffffff16815260200190815260200160002060008282546137be919061523d565b92505081905550816002600083815260200190815260200160002060006101000a81548173ffffffffffffffffffffffffffffffffffffffff021916908373ffffffffffffffffffffffffffffffffffffffff160217905550808273ffffffffffffffffffffffffffffffffffffffff168473ffffffffffffffffffffffffffffffffffffffff167fddf252ad1be2c89b69c2b068fc378daa952ba7f163c4a11628f55a4df523b3ef60405160405180910390a461387d838383613fd4565b505050565b600061388d82612e56565b6138cc576040517f08c379a00000000000000000000000000000000000000000000000000000000081526004016138c390614f2d565b60405180910390fd5b60006138d783611793565b90508073ffffffffffffffffffffffffffffffffffffffff168473ffffffffffffffffffffffffffffffffffffffff16148061391957506139188185612830565b5b8061395757508373ffffffffffffffffffffffffffffffffffffffff1661393f84610815565b73ffffffffffffffffffffffffffffffffffffffff16145b91505092915050565b600081600001549050919050565b8173ffffffffffffffffffffffffffffffffffffffff168373ffffffffffffffffffffffffffffffffffffffff1614156139dd576040517f08c379a00000000000000000000000000000000000000000000000000000000081526004016139d490614ecd565b60405180910390fd5b80600560008573ffffffffffffffffffffffffffffffffffffffff1673ffffffffffffffffffffffffffffffffffffffff16815260200190815260200160002060008473ffffffffffffffffffffffffffffffffffffffff1673ffffffffffffffffffffffffffffffffffffffff16815260200190815260200160002060006101000a81548160ff0219169083151502179055508173ffffffffffffffffffffffffffffffffffffffff168373ffffffffffffffffffffffffffffffffffffffff167f17307eab39ab6107e8899845ad3d59bd9653f200f220920489ca2b5937696c3183604051613ace9190614d90565b60405180910390a3505050565b613ae684848461361b565b613af284848484613fd9565b613b31576040517f08c379a0000000000000000000000000000000000000000000000000000000008152600401613b2890614e0d565b60405180910390fd5b50505050565b6060613b4282612e56565b613b81576040517f08c379a0000000000000000000000000000000000000000000000000000000008152600401613b789061502d565b60405180910390fd5b6000613b8b613bde565b90506000815111613bab5760405180602001604052806000815250613bd6565b80613bb584614170565b604051602001613bc6929190614cce565b6040516020818303038152906040525b915050919050565b6060613bf36644ffb4632d034b60c01b612f83565b613c0767ac2b3fb0aaf65fd360c01b612f83565b613c1b67474bef55b8b048c960c01b612f83565b600c8054613c28906153ae565b80601f0160208091040260200160405190810160405280929190818152602001828054613c54906153ae565b8015613ca15780601f10613c7657610100808354040283529160200191613ca1565b820191906000526020600020905b815481529060010190602001808311613c8457829003601f168201915b5050505050905090565b600060019050919050565b6000919050565b613cd16706e2413c8db62a0d60c01b612f83565b613ce567d8a6155b83a7b8bf60c01b612f83565b613cf9670289926b19ee295760c01b612f83565b613d0d678bda343a6c5da59f60c01b612f83565b600d60009054906101000a900460ff1615613d5d576040517f08c379a0000000000000000000000000000000000000000000000000000000008152600401613d5490614e2d565b60405180910390fd5b613d7167410593f454ffe1a660c01b612f83565b613d8567add512ff733a213360c01b612f83565b613d99678bd20b26a03bcb3460c01b612f83565b613dad6726d4f04165fb512660c01b612f83565b60011515600e60008473ffffffffffffffffffffffffffffffffffffffff1673ffffffffffffffffffffffffffffffffffffffff16815260200190815260200160002060009054906101000a900460ff1615151415613e41576040517f08c379a0000000000000000000000000000000000000000000000000000000008152600401613e3890614f0d565b60405180910390fd5b613e55671a57195bfbbfd85760c01b612f83565b613e69674f8d154721cf218060c01b612f83565b613e7d67dd90cacfa325757260c01b612f83565b613e8681613331565b15613f8757613e9f67f52530b2924de71860c01b612f83565b613eb3675a166a71374ca31360c01b612f83565b613ec7670ef3985c130449d060c01b612f83565b613edb6799b124b3f8cd494360c01b612f83565b60011515601060003373ffffffffffffffffffffffffffffffffffffffff1673ffffffffffffffffffffffffffffffffffffffff16815260200190815260200160002060009054906101000a900460ff16151514613f6e576040517f08c379a0000000000000000000000000000000000000000000000000000000008152600401613f6590614eed565b60405180910390fd5b613f82676bd8945df897d53d60c01b612f83565b613f9c565b613f9b6743d1ec25ed4b8bc960c01b612f83565b5b613fb0671b83c72a2f4883e960c01b612f83565b613fc4675db9ff110706774060c01b612f83565b613fcf838383612de7565b505050565b505050565b6000613ffa8473ffffffffffffffffffffffffffffffffffffffff1661431d565b15614163578373ffffffffffffffffffffffffffffffffffffffff1663150b7a02614023612ec2565b8786866040518563ffffffff1660e01b81526004016140459493929190614d44565b602060405180830381600087803b15801561405f57600080fd5b505af192505050801561409057506040513d601f19601f8201168201806040525081019061408d9190614715565b60015b614113573d80600081146140c0576040519150601f19603f3d011682016040523d82523d6000602084013e6140c5565b606091505b5060008151141561410b576040517f08c379a000000000000000000000000000000000000000000000000000000000815260040161410290614e0d565b60405180910390fd5b805181602001fd5b63150b7a0260e01b7bffffffffffffffffffffffffffffffffffffffffffffffffffffffff1916817bffffffffffffffffffffffffffffffffffffffffffffffffffffffff191614915050614168565b600190505b949350505050565b606060008214156141b8576040518060400160405280600181526020017f30000000000000000000000000000000000000000000000000000000000000008152509050614318565b600082905060005b600082146141ea5780806141d390615411565b915050600a826141e39190615293565b91506141c0565b60008167ffffffffffffffff81111561422c577f4e487b7100000000000000000000000000000000000000000000000000000000600052604160045260246000fd5b6040519080825280601f01601f19166020018201604052801561425e5781602001600182028036833780820191505090505b5090505b600085146143115760018261427791906152c4565b9150600a85614286919061545a565b6030614292919061523d565b60f81b8183815181106142ce577f4e487b7100000000000000000000000000000000000000000000000000000000600052603260045260246000fd5b60200101907effffffffffffffffffffffffffffffffffffffffffffffffffffffffffffff1916908160001a905350600a8561430a9190615293565b9450614262565b8093505050505b919050565b6000808273ffffffffffffffffffffffffffffffffffffffff163b119050919050565b82805461434c906153ae565b90600052602060002090601f01602090048101928261436e57600085556143b5565b82601f1061438757805160ff19168380011785556143b5565b828001600101855582156143b5579182015b828111156143b4578251825591602001919060010190614399565b5b5090506143c291906143c6565b5090565b5b808211156143df5760008160009055506001016143c7565b5090565b60006143f66143f18461518d565b615168565b90508281526020810184848401111561440e57600080fd5b61441984828561536c565b509392505050565b600061443461442f846151be565b615168565b90508281526020810184848401111561444c57600080fd5b61445784828561536c565b509392505050565b60008135905061446e81615db6565b92915050565b60008135905061448381615dcd565b92915050565b60008135905061449881615de4565b92915050565b6000815190506144ad81615de4565b92915050565b600082601f8301126144c457600080fd5b81356144d48482602086016143e3565b91505092915050565b600082601f8301126144ee57600080fd5b81356144fe848260208601614421565b91505092915050565b60008135905061451681615dfb565b92915050565b60006020828403121561452e57600080fd5b600061453c8482850161445f565b91505092915050565b6000806040838503121561455857600080fd5b60006145668582860161445f565b92505060206145778582860161445f565b9150509250929050565b60008060006060848603121561459657600080fd5b60006145a48682870161445f565b93505060206145b58682870161445f565b92505060406145c686828701614507565b9150509250925092565b600080600080608085870312156145e657600080fd5b60006145f48782880161445f565b94505060206146058782880161445f565b935050604061461687828801614507565b925050606085013567ffffffffffffffff81111561463357600080fd5b61463f878288016144b3565b91505092959194509250565b6000806040838503121561465e57600080fd5b600061466c8582860161445f565b925050602061467d85828601614474565b9150509250929050565b6000806040838503121561469a57600080fd5b60006146a88582860161445f565b92505060206146b985828601614507565b9150509250929050565b6000602082840312156146d557600080fd5b60006146e384828501614474565b91505092915050565b6000602082840312156146fe57600080fd5b600061470c84828501614489565b91505092915050565b60006020828403121561472757600080fd5b60006147358482850161449e565b91505092915050565b60006020828403121561475057600080fd5b600082013567ffffffffffffffff81111561476a57600080fd5b614776848285016144dd565b91505092915050565b60006020828403121561479157600080fd5b600061479f84828501614507565b91505092915050565b600080604083850312156147bb57600080fd5b60006147c985828601614507565b92505060206147da8582860161445f565b9150509250929050565b6147ed816152f8565b82525050565b6147fc8161530a565b82525050565b600061480d826151ef565b6148178185615205565b935061482781856020860161537b565b61483081615547565b840191505092915050565b6000614846826151fa565b6148508185615221565b935061486081856020860161537b565b61486981615547565b840191505092915050565b600061487f826151fa565b6148898185615232565b935061489981856020860161537b565b80840191505092915050565b60006148b2602583615221565b91506148bd82615558565b604082019050919050565b60006148d5604483615221565b91506148e0826155a7565b606082019050919050565b60006148f8603283615221565b91506149038261561c565b604082019050919050565b600061491b600483615221565b91506149268261566b565b602082019050919050565b600061493e604583615221565b915061494982615694565b606082019050919050565b6000614961602583615221565b915061496c82615709565b604082019050919050565b6000614984601c83615221565b915061498f82615758565b602082019050919050565b60006149a7602483615221565b91506149b282615781565b604082019050919050565b60006149ca601983615221565b91506149d5826157d0565b602082019050919050565b60006149ed604083615221565b91506149f8826157f9565b604082019050919050565b6000614a10600c83615221565b9150614a1b82615848565b602082019050919050565b6000614a33602c83615221565b9150614a3e82615871565b604082019050919050565b6000614a56603883615221565b9150614a61826158c0565b604082019050919050565b6000614a79602d83615221565b9150614a848261590f565b604082019050919050565b6000614a9c602a83615221565b9150614aa78261595e565b604082019050919050565b6000614abf602983615221565b9150614aca826159ad565b604082019050919050565b6000614ae2602083615221565b9150614aed826159fc565b602082019050919050565b6000614b05600783615232565b9150614b1082615a25565b600782019050919050565b6000614b28602c83615221565b9150614b3382615a4e565b604082019050919050565b6000614b4b604383615221565b9150614b5682615a9d565b606082019050919050565b6000614b6e602f83615221565b9150614b7982615b12565b604082019050919050565b6000614b91603083615221565b9150614b9c82615b61565b604082019050919050565b6000614bb4601883615221565b9150614bbf82615bb0565b602082019050919050565b6000614bd7602f83615221565b9150614be282615bd9565b604082019050919050565b6000614bfa602183615221565b9150614c0582615c28565b604082019050919050565b6000614c1d600083615216565b9150614c2882615c77565b600082019050919050565b6000614c40603283615221565b9150614c4b82615c7a565b604082019050919050565b6000614c63603183615221565b9150614c6e82615cc9565b604082019050919050565b6000614c86601783615221565b9150614c9182615d18565b602082019050919050565b6000614ca9604183615221565b9150614cb482615d41565b606082019050919050565b614cc881615362565b82525050565b6000614cda8285614874565b9150614ce68284614874565b91508190509392505050565b6000614cfe8284614874565b9150614d0982614af8565b915081905092915050565b6000614d1f82614c10565b9150819050919050565b6000602082019050614d3e60008301846147e4565b92915050565b6000608082019050614d5960008301876147e4565b614d6660208301866147e4565b614d736040830185614cbf565b8181036060830152614d858184614802565b905095945050505050565b6000602082019050614da560008301846147f3565b92915050565b60006020820190508181036000830152614dc5818461483b565b905092915050565b60006020820190508181036000830152614de6816148a5565b9050919050565b60006020820190508181036000830152614e06816148c8565b9050919050565b60006020820190508181036000830152614e26816148eb565b9050919050565b60006020820190508181036000830152614e468161490e565b9050919050565b60006020820190508181036000830152614e6681614931565b9050919050565b60006020820190508181036000830152614e8681614954565b9050919050565b60006020820190508181036000830152614ea681614977565b9050919050565b60006020820190508181036000830152614ec68161499a565b9050919050565b60006020820190508181036000830152614ee6816149bd565b9050919050565b60006020820190508181036000830152614f06816149e0565b9050919050565b60006020820190508181036000830152614f2681614a03565b9050919050565b60006020820190508181036000830152614f4681614a26565b9050919050565b60006020820190508181036000830152614f6681614a49565b9050919050565b60006020820190508181036000830152614f8681614a6c565b9050919050565b60006020820190508181036000830152614fa681614a8f565b9050919050565b60006020820190508181036000830152614fc681614ab2565b9050919050565b60006020820190508181036000830152614fe681614ad5565b9050919050565b6000602082019050818103600083015261500681614b1b565b9050919050565b6000602082019050818103600083015261502681614b3e565b9050919050565b6000602082019050818103600083015261504681614b61565b9050919050565b6000602082019050818103600083015261506681614b84565b9050919050565b6000602082019050818103600083015261508681614ba7565b9050919050565b600060208201905081810360008301526150a681614bca565b9050919050565b600060208201905081810360008301526150c681614bed565b9050919050565b600060208201905081810360008301526150e681614c33565b9050919050565b6000602082019050818103600083015261510681614c56565b9050919050565b6000602082019050818103600083015261512681614c79565b9050919050565b6000602082019050818103600083015261514681614c9c565b9050919050565b60006020820190506151626000830184614cbf565b92915050565b6000615172615183565b905061517e82826153e0565b919050565b6000604051905090565b600067ffffffffffffffff8211156151a8576151a7615518565b5b6151b182615547565b9050602081019050919050565b600067ffffffffffffffff8211156151d9576151d8615518565b5b6151e282615547565b9050602081019050919050565b600081519050919050565b600081519050919050565b600082825260208201905092915050565b600081905092915050565b600082825260208201905092915050565b600081905092915050565b600061524882615362565b915061525383615362565b9250827fffffffffffffffffffffffffffffffffffffffffffffffffffffffffffffffff038211156152885761528761548b565b5b828201905092915050565b600061529e82615362565b91506152a983615362565b9250826152b9576152b86154ba565b5b828204905092915050565b60006152cf82615362565b91506152da83615362565b9250828210156152ed576152ec61548b565b5b828203905092915050565b600061530382615342565b9050919050565b60008115159050919050565b60007fffffffff0000000000000000000000000000000000000000000000000000000082169050919050565b600073ffffffffffffffffffffffffffffffffffffffff82169050919050565b6000819050919050565b82818337600083830152505050565b60005b8381101561539957808201518184015260208101905061537e565b838111156153a8576000848401525b50505050565b600060028204905060018216806153c657607f821691505b602082108114156153da576153d96154e9565b5b50919050565b6153e982615547565b810181811067ffffffffffffffff8211171561540857615407615518565b5b80604052505050565b600061541c82615362565b91507fffffffffffffffffffffffffffffffffffffffffffffffffffffffffffffffff82141561544f5761544e61548b565b5b600182019050919050565b600061546582615362565b915061547083615362565b9250826154805761547f6154ba565b5b828206905092915050565b7f4e487b7100000000000000000000000000000000000000000000000000000000600052601160045260246000fd5b7f4e487b7100000000000000000000000000000000000000000000000000000000600052601260045260246000fd5b7f4e487b7100000000000000000000000000000000000000000000000000000000600052602260045260246000fd5b7f4e487b7100000000000000000000000000000000000000000000000000000000600052604160045260246000fd5b6000601f19601f8301169050919050565b7f7a706d4020736179733a207769746864726177206661696c65642c207265766560008201527f7274696e67000000000000000000000000000000000000000000000000000000602082015250565b7f596f7520686176652067726561742074617374653b20736f6d656f6e6520656c60008201527f73652068617320616c7265616479206d696e74656420796f7572206661766f7260208201527f6974652e00000000000000000000000000000000000000000000000000000000604082015250565b7f4552433732313a207472616e7366657220746f206e6f6e20455243373231526560008201527f63656976657220696d706c656d656e7465720000000000000000000000000000602082015250565b7f534f4f4e00000000000000000000000000000000000000000000000000000000600082015250565b7f416c6c6f776c697374696e672069736e277420656e61626c65642e205069636b60008201527f696e67206661766f72697465732069732061207468696e67206f66207468652060208201527f706173742e000000000000000000000000000000000000000000000000000000604082015250565b7f4552433732313a207472616e736665722066726f6d20696e636f72726563742060008201527f6f776e6572000000000000000000000000000000000000000000000000000000602082015250565b7f4552433732313a20746f6b656e20616c7265616479206d696e74656400000000600082015250565b7f4552433732313a207472616e7366657220746f20746865207a65726f2061646460008201527f7265737300000000000000000000000000000000000000000000000000000000602082015250565b7f4552433732313a20617070726f766520746f2063616c6c657200000000000000600082015250565b7f4f6e6c79204d7574616e7420417572656c6975732063616e20626573746f772060008201527f6f776e657220686973206661766f722075706f6e20746865206d61737365732e602082015250565b7f4e4f4e4520464f5220594f550000000000000000000000000000000000000000600082015250565b7f4552433732313a206f70657261746f7220717565727920666f72206e6f6e657860008201527f697374656e7420746f6b656e0000000000000000000000000000000000000000602082015250565b7f4552433732313a20617070726f76652063616c6c6572206973206e6f74206f7760008201527f6e6572206e6f7220617070726f76656420666f7220616c6c0000000000000000602082015250565b7f4d616e79206861766520636f6d65206265666f726520796f752e20546f6f206d60008201527f616e792c20696e20666163742e00000000000000000000000000000000000000602082015250565b7f4552433732313a2062616c616e636520717565727920666f7220746865207a6560008201527f726f206164647265737300000000000000000000000000000000000000000000602082015250565b7f4552433732313a206f776e657220717565727920666f72206e6f6e657869737460008201527f656e7420746f6b656e0000000000000000000000000000000000000000000000602082015250565b7f4552433732313a206d696e7420746f20746865207a65726f2061646472657373600082015250565b7f6d656d656e746f00000000000000000000000000000000000000000000000000600082015250565b7f4552433732313a20617070726f76656420717565727920666f72206e6f6e657860008201527f697374656e7420746f6b656e0000000000000000000000000000000000000000602082015250565b7f404d7574616e74417572656c697573202d20636865636b20796f757220746f6b60008201527f656e20494420616761696e2e20536f6d657468696e672069736e27742072696760208201527f68742e0000000000000000000000000000000000000000000000000000000000604082015250565b7f4552433732314d657461646174613a2055524920717565727920666f72206e6f60008201527f6e6578697374656e7420746f6b656e0000000000000000000000000000000000602082015250565b7f4f6e652063616e20706c65646765206f6e652773206c6f79616c7479206f6e6c60008201527f7920736f206d616e792074696d65732e00000000000000000000000000000000602082015250565b7f4552433732313a20696e76616c696420746f6b656e2049440000000000000000600082015250565b7f596f7527726520747279696e6720746f206d696e7420616e204175726575732060008201527f6f75747369646520746865207365740000000000000000000000000000000000602082015250565b7f4552433732313a20617070726f76616c20746f2063757272656e74206f776e6560008201527f7200000000000000000000000000000000000000000000000000000000000000602082015250565b50565b7f496d706f73746f727320746f20746865207468726f6e6520656d62617272617360008201527f73206f6e6c79207468656d73656c7665732e0000000000000000000000000000602082015250565b7f4552433732313a207472616e736665722063616c6c6572206973206e6f74206f60008201527f776e6572206e6f7220617070726f766564000000000000000000000000000000602082015250565b7f596f75277265206e6f74206f6e20746865206c6973742e000000000000000000600082015250565b7f7a706d4020736179733a20646f6e277420776173746520796f7572206761732060008201527f747279696e6720746f2077697468647261772061207a65726f2062616c616e6360208201527f6500000000000000000000000000000000000000000000000000000000000000604082015250565b615dbf816152f8565b8114615dca57600080fd5b50565b615dd68161530a565b8114615de157600080fd5b50565b615ded81615316565b8114615df857600080fd5b50565b615e0481615362565b8114615e0f57600080fd5b5056fea26469706673582212202cdf80e9d8184cf0b7a6a50e944367b02988f14e7cf4a0b92ee5904ac2e81c6b64736f6c63430008040033",
  "linkReferences": {},
  "deployedLinkReferences": {}
}