{"contracts/MutantAureliusAurei.sol":{"MutantAureliusAurei":{"abi":[{"inputs":[],"stateMutability":"nonpayable","type":"constructor"},{"anonymous":false,"inputs":[{"indexed":true,"internalType":"address","name":"owner","type":"address"},{"indexed":true,"internalType":"address","name":"approved","type":"address"},{"indexed":true,"internalType":"uint256","name":"tokenId","type":"uint256"}],"name":"Approval","type":"event"},{"anonymous":false,"inputs":[{"indexed":true,"internalType":"address","name":"owner","type":"address"},{"indexed":true,"internalType":"address","name":"operator","type":"address"},{"indexed":false,"internalType":"bool","name":"approved","type":"bool"}],"name":"ApprovalForAll","type":"event"},{"anonymous":false,"inputs":[{"indexed":true,"internalType":"address","name":"from","type":"address"},{"indexed":true,"internalType":"address","name":"to","type":"address"},{"indexed":true,"internalType":"uint256","name":"tokenId","type":"uint256"}],"name":"Transfer","type":"event"},{"inputs":[{"internalType":"address","name":"to","type":"address"},{"internalType":"uint256","name":"tokenId","type":"uint256"}],"name":"approve","outputs":[],"stateMutability":"nonpayable","type":"function"},{"inputs":[{"internalType":"address","name":"owner","type":"address"}],"name":"balanceOf","outputs":[{"internalType":"uint256","name":"","type":"uint256"}],"stateMutability":"view","type":"function"},{"inputs":[{"internalType":"uint256","name":"tokenId","type":"uint256"}],"name":"getApproved","outputs":[{"internalType":"address","name":"","type":"address"}],"stateMutability":"view","type":"function"},{"inputs":[],"name":"getContractIsPaused","outputs":[{"internalType":"bool","name":"","type":"bool"}],"stateMutability":"view","type":"function"},{"inputs":[],"name":"getIndexedAureiCount","outputs":[{"internalType":"uint256","name":"","type":"uint256"}],"stateMutability":"view","type":"function"},{"inputs":[],"name":"getIssuedMementoCount","outputs":[{"internalType":"uint256","name":"","type":"uint256"}],"stateMutability":"view","type":"function"},{"inputs":[],"name":"getTotalAureiMinted","outputs":[{"internalType":"uint256","name":"","type":"uint256"}],"stateMutability":"view","type":"function"},{"inputs":[],"name":"initialOwnerManagedTokens","outputs":[{"internalType":"uint256","name":"","type":"uint256"}],"stateMutability":"view","type":"function"},{"inputs":[{"internalType":"address","name":"owner","type":"address"},{"internalType":"address","name":"operator","type":"address"}],"name":"isApprovedForAll","outputs":[{"internalType":"bool","name":"","type":"bool"}],"stateMutability":"view","type":"function"},{"inputs":[{"internalType":"address","name":"questionedAddress","type":"address"}],"name":"isOnExtendedOwnerList","outputs":[{"internalType":"bool","name":"","type":"bool"}],"stateMutability":"view","type":"function"},{"inputs":[{"internalType":"address","name":"questionedAddress","type":"address"}],"name":"isOnShitlist","outputs":[{"internalType":"bool","name":"","type":"bool"}],"stateMutability":"view","type":"function"},{"inputs":[],"name":"mint","outputs":[],"stateMutability":"nonpayable","type":"function"},{"inputs":[{"internalType":"uint256","name":"tokenId","type":"uint256"}],"name":"mintFavorite","outputs":[],"stateMutability":"nonpayable","type":"function"},{"inputs":[],"name":"name","outputs":[{"internalType":"string","name":"","type":"string"}],"stateMutability":"view","type":"function"},{"inputs":[],"name":"owner","outputs":[{"internalType":"address","name":"","type":"address"}],"stateMutability":"view","type":"function"},{"inputs":[{"internalType":"address","name":"_allowAddress","type":"address"}],"name":"ownerAddToAllowlist","outputs":[],"stateMutability":"nonpayable","type":"function"},{"inputs":[{"internalType":"address","name":"_shittyAddress","type":"address"}],"name":"ownerAddToShitlist","outputs":[],"stateMutability":"nonpayable","type":"function"},{"inputs":[{"internalType":"uint256","name":"tokenId","type":"uint256"}],"name":"ownerOf","outputs":[{"internalType":"address","name":"","type":"address"}],"stateMutability":"view","type":"function"},{"inputs":[{"internalType":"address","name":"_allowAddress","type":"address"}],"name":"ownerRemoveFromAllowlist","outputs":[],"stateMutability":"nonpayable","type":"function"},{"inputs":[{"internalType":"address","name":"_shittyAddress","type":"address"}],"name":"ownerRemoveFromShitlist","outputs":[],"stateMutability":"nonpayable","type":"function"},{"inputs":[{"internalType":"bool","name":"allowlistActivityLevel","type":"bool"}],"name":"ownerSetAllowlistActive","outputs":[],"stateMutability":"nonpayable","type":"function"},{"inputs":[{"internalType":"string","name":"newBaseTokenURI","type":"string"}],"name":"ownerSetBaseTokenURI","outputs":[],"stateMutability":"nonpayable","type":"function"},{"inputs":[{"internalType":"uint256","name":"tokenId","type":"uint256"},{"internalType":"address","name":"newOwner","type":"address"}],"name":"ownerSetNewTokenOwner","outputs":[],"stateMutability":"nonpayable","type":"function"},{"inputs":[{"internalType":"bool","name":"contractIsPaused","type":"bool"}],"name":"ownerSetPausedState","outputs":[],"stateMutability":"nonpayable","type":"function"},{"inputs":[{"internalType":"uint256","name":"new_limit","type":"uint256"}],"name":"ownerUpdateWalletLimit","outputs":[],"stateMutability":"nonpayable","type":"function"},{"inputs":[],"name":"ownerWithdrawContractBalance","outputs":[],"stateMutability":"nonpayable","type":"function"},{"inputs":[{"internalType":"address","name":"from","type":"address"},{"internalType":"address","name":"to","type":"address"},{"internalType":"uint256","name":"tokenId","type":"uint256"}],"name":"safeTransferFrom","outputs":[],"stateMutability":"nonpayable","type":"function"},{"inputs":[{"internalType":"address","name":"from","type":"address"},{"internalType":"address","name":"to","type":"address"},{"internalType":"uint256","name":"tokenId","type":"uint256"},{"internalType":"bytes","name":"_data","type":"bytes"}],"name":"safeTransferFrom","outputs":[],"stateMutability":"nonpayable","type":"function"},{"inputs":[{"internalType":"address","name":"operator","type":"address"},{"internalType":"bool","name":"approved","type":"bool"}],"name":"setApprovalForAll","outputs":[],"stateMutability":"nonpayable","type":"function"},{"inputs":[{"internalType":"bytes4","name":"interfaceId","type":"bytes4"}],"name":"supportsInterface","outputs":[{"internalType":"bool","name":"","type":"bool"}],"stateMutability":"view","type":"function"},{"inputs":[],"name":"symbol","outputs":[{"internalType":"string","name":"","type":"string"}],"stateMutability":"view","type":"function"},{"inputs":[{"internalType":"uint256","name":"tokenId","type":"uint256"}],"name":"tokenURI","outputs":[{"internalType":"string","name":"","type":"string"}],"stateMutability":"view","type":"function"},{"inputs":[],"name":"totalAureiSupply","outputs":[{"internalType":"uint256","name":"","type":"uint256"}],"stateMutability":"view","type":"function"},{"inputs":[],"name":"totalSupply","outputs":[{"internalType":"uint256","name":"","type":"uint256"}],"stateMutability":"view","type":"function"},{"inputs":[{"internalType":"address","name":"from","type":"address"},{"internalType":"address","name":"to","type":"address"},{"internalType":"uint256","name":"tokenId","type":"uint256"}],"name":"transferFrom","outputs":[],"stateMutability":"nonpayable","type":"function"},{"inputs":[{"internalType":"address","name":"_extendedOwnerAddress","type":"address"},{"internalType":"bool","name":"isExtendedOwner","type":"bool"}],"name":"updateExtendedOwnerList","outputs":[],"stateMutability":"nonpayable","type":"function"}],"evm":{"bytecode":{"linkReferences":{},"object":"60806040526001600955610378600a556007600b553480156200002157600080fd5b506040518060400160405280601581526020017f4d7574616e7420417572656c69757320417572656900000000000000000000008152506040518060400160405280600381526020017f4d414100000000000000000000000000000000000000000000000000000000008152508160009080519060200190620000a69291906200101f565b508060019080519060200190620000bf9291906200101f565b505050620000de67e0d8f64c35b4662660c01b6200054e60201b60201c565b620000fa678d8e65ee42cf04f760c01b6200054e60201b60201c565b6040518060400160405280601281526020017f697066733a2f2f6c6f72656d697073756d2f0000000000000000000000000000815250600c9080519060200190620001479291906200101f565b506200016467d66ef6945b1023ed60c01b6200054e60201b60201c565b33600d60026101000a81548173ffffffffffffffffffffffffffffffffffffffff021916908373ffffffffffffffffffffffffffffffffffffffff160217905550620001c167c5e9175ab5631d2260c01b6200054e60201b60201c565b6001600e6000737d4c4d5380ca2f9c7a091bb622b80613da7eae8c73ffffffffffffffffffffffffffffffffffffffff1673ffffffffffffffffffffffffffffffffffffffff16815260200190815260200160002060006101000a81548160ff0219169083151502179055506200024967e087e08251acd61560c01b6200054e60201b60201c565b6001600e600073385375fd99d6019c630b1315d3815bb162aa039e73ffffffffffffffffffffffffffffffffffffffff1673ffffffffffffffffffffffffffffffffffffffff16815260200190815260200160002060006101000a81548160ff021916908315150217905550620002d16744f7115e5f33454a60c01b6200054e60201b60201c565b6001600e60007390f79bf6eb2c4f870365e785982e1f101e93b90673ffffffffffffffffffffffffffffffffffffffff1673ffffffffffffffffffffffffffffffffffffffff16815260200190815260200160002060006101000a81548160ff0219169083151502179055506200035967d63242095c39f4ed60c01b6200054e60201b60201c565b600160106000600d60029054906101000a900473ffffffffffffffffffffffffffffffffffffffff1673ffffffffffffffffffffffffffffffffffffffff1673ffffffffffffffffffffffffffffffffffffffff16815260200190815260200160002060006101000a81548160ff021916908315150217905550620003ef67a3d4a0069cf509d360c01b6200054e60201b60201c565b600160106000735a97d44de4fe69e194541a4d78db37218872d85973ffffffffffffffffffffffffffffffffffffffff1673ffffffffffffffffffffffffffffffffffffffff16815260200190815260200160002060006101000a81548160ff021916908315150217905550620004776790ea1e812e55101960c01b6200054e60201b60201c565b6000600d60006101000a81548160ff021916908315150217905550620004ae67a2b0084584f9a7e460c01b6200054e60201b60201c565b6001600d60016101000a81548160ff021916908315150217905550620004e5675974744348234cfe60c01b6200054e60201b60201c565b6200050167ca50876acd34321860c01b6200054e60201b60201c565b620005116200055160201b60201c565b6200052d6756a9294783d9ac6360c01b6200054e60201b60201c565b6001600d60006101000a81548160ff02191690831515021790555062001489565b50565b6200056d6764577b37abe5ea1b60c01b6200054e60201b60201c565b6200058967cc29fd2a0a061cb860c01b6200054e60201b60201c565b620005a5673408ef2217df15d160c01b6200054e60201b60201c565b620005c1676cd6d473d23fb66360c01b6200054e60201b60201c565b600d60009054906101000a900460ff161562000614576040517f08c379a00000000000000000000000000000000000000000000000000000000081526004016200060b9062001192565b60405180910390fd5b620006306736e80d77e1908c7560c01b6200054e60201b60201c565b6200064c67afb7f0556a84254f60c01b6200054e60201b60201c565b6200066867696846d90c5b70dd60c01b6200054e60201b60201c565b6000600190505b600b5481116200079957620006956761f4f5242cbf82a960c01b6200054e60201b60201c565b620006b1675e8407bdd982041460c01b6200054e60201b60201c565b620006c860066200085960201b62002dd11760201c565b620006e467e6d07700d4a3ec3760c01b6200054e60201b60201c565b6200070067de6693aadf5000c760c01b6200054e60201b60201c565b6200071760086200085960201b62002dd11760201c565b6200073367722e1638f836ad5360c01b6200054e60201b60201c565b6200074f673a4ccab9c1dbabfe60c01b6200054e60201b60201c565b62000783600d60029054906101000a900473ffffffffffffffffffffffffffffffffffffffff16826200086f60201b60201c565b80806200079090620012ea565b9150506200066f565b50620007b667f0070a58d9a3bdd060c01b6200054e60201b60201c565b620007d267f968dbbc425b18e260c01b6200054e60201b60201c565b620007e960086200085960201b62002dd11760201c565b62000805673037e111f582648f60c01b6200054e60201b60201c565b6200082167b7523dd4a2bf665160c01b6200054e60201b60201c565b62000857600d60029054906101000a900473ffffffffffffffffffffffffffffffffffffffff166103786200086f60201b60201c565b565b6001816000016000828254019250508190555050565b600073ffffffffffffffffffffffffffffffffffffffff168273ffffffffffffffffffffffffffffffffffffffff161415620008e2576040517f08c379a0000000000000000000000000000000000000000000000000000000008152600401620008d9906200121a565b60405180910390fd5b620008f38162000a6960201b60201c565b1562000936576040517f08c379a00000000000000000000000000000000000000000000000000000000081526004016200092d90620011b4565b60405180910390fd5b6200094a6000838362000ad560201b60201c565b6001600360008473ffffffffffffffffffffffffffffffffffffffff1673ffffffffffffffffffffffffffffffffffffffff16815260200190815260200160002060008282546200099c91906200124d565b92505081905550816002600083815260200190815260200160002060006101000a81548173ffffffffffffffffffffffffffffffffffffffff021916908373ffffffffffffffffffffffffffffffffffffffff160217905550808273ffffffffffffffffffffffffffffffffffffffff16600073ffffffffffffffffffffffffffffffffffffffff167fddf252ad1be2c89b69c2b068fc378daa952ba7f163c4a11628f55a4df523b3ef60405160405180910390a462000a656000838362000ea460201b60201c565b5050565b60008073ffffffffffffffffffffffffffffffffffffffff166002600084815260200190815260200160002060009054906101000a900473ffffffffffffffffffffffffffffffffffffffff1673ffffffffffffffffffffffffffffffffffffffff1614159050919050565b62000af16706e2413c8db62a0d60c01b6200054e60201b60201c565b62000b0d67d8a6155b83a7b8bf60c01b6200054e60201b60201c565b62000b29670289926b19ee295760c01b6200054e60201b60201c565b62000b45678bda343a6c5da59f60c01b6200054e60201b60201c565b600d60009054906101000a900460ff161562000b98576040517f08c379a000000000000000000000000000000000000000000000000000000000815260040162000b8f9062001192565b60405180910390fd5b62000bb467410593f454ffe1a660c01b6200054e60201b60201c565b62000bd067add512ff733a213360c01b6200054e60201b60201c565b62000bec678bd20b26a03bcb3460c01b6200054e60201b60201c565b62000c086726d4f04165fb512660c01b6200054e60201b60201c565b60011515600e60008473ffffffffffffffffffffffffffffffffffffffff1673ffffffffffffffffffffffffffffffffffffffff16815260200190815260200160002060009054906101000a900460ff161515141562000c9f576040517f08c379a000000000000000000000000000000000000000000000000000000000815260040162000c9690620011f8565b60405180910390fd5b62000cbb671a57195bfbbfd85760c01b6200054e60201b60201c565b62000cd7674f8d154721cf218060c01b6200054e60201b60201c565b62000cf367dd90cacfa325757260c01b6200054e60201b60201c565b62000d048162000ea960201b60201c565b1562000e325762000d2667f52530b2924de71860c01b6200054e60201b60201c565b62000d42675a166a71374ca31360c01b6200054e60201b60201c565b62000d5e670ef3985c130449d060c01b6200054e60201b60201c565b62000d7a6799b124b3f8cd494360c01b6200054e60201b60201c565b60011515601060003373ffffffffffffffffffffffffffffffffffffffff1673ffffffffffffffffffffffffffffffffffffffff16815260200190815260200160002060009054906101000a900460ff1615151462000e10576040517f08c379a000000000000000000000000000000000000000000000000000000000815260040162000e0790620011d6565b60405180910390fd5b62000e2c676bd8945df897d53d60c01b6200054e60201b60201c565b62000e4f565b62000e4e6743d1ec25ed4b8bc960c01b6200054e60201b60201c565b5b62000e6b671b83c72a2f4883e960c01b6200054e60201b60201c565b62000e87675db9ff110706774060c01b6200054e60201b60201c565b62000e9f8383836200100f60201b62002de71760201c565b505050565b505050565b600062000ec767f20f3d1319d9885b60c01b6200054e60201b60201c565b62000ee367c3d4ca910e00e2f660c01b6200054e60201b60201c565b62000eff676561afc9f49df32260c01b6200054e60201b60201c565b60008211801562000f125750600b548211155b801562000f37575062000f366710c53af39164eb5d60c01b6200101460201b60201c565b5b8062000f6957506103788214801562000f68575062000f67674b2fe09683e6711e60c01b6200101460201b60201c565b5b5b1562000fcd5762000f8b67b22b73eab0e23af660c01b6200054e60201b60201c565b62000fa767c986d8e3c5a3635d60c01b6200054e60201b60201c565b62000fc36777519d7cb0e536fa60c01b6200054e60201b60201c565b600190506200100a565b62000fe967c048c98b4e828c3960c01b6200054e60201b60201c565b620010056747663ad070fb122760c01b6200054e60201b60201c565b600090505b919050565b505050565b600060019050919050565b8280546200102d90620012b4565b90600052602060002090601f0160209004810192826200105157600085556200109d565b82601f106200106c57805160ff19168380011785556200109d565b828001600101855582156200109d579182015b828111156200109c5782518255916020019190600101906200107f565b5b509050620010ac9190620010b0565b5090565b5b80821115620010cb576000816000905550600101620010b1565b5090565b6000620010de6004836200123c565b9150620010eb8262001396565b602082019050919050565b600062001105601c836200123c565b91506200111282620013bf565b602082019050919050565b60006200112c6040836200123c565b91506200113982620013e8565b604082019050919050565b600062001153600c836200123c565b9150620011608262001437565b602082019050919050565b60006200117a6020836200123c565b9150620011878262001460565b602082019050919050565b60006020820190508181036000830152620011ad81620010cf565b9050919050565b60006020820190508181036000830152620011cf81620010f6565b9050919050565b60006020820190508181036000830152620011f1816200111d565b9050919050565b60006020820190508181036000830152620012138162001144565b9050919050565b6000602082019050818103600083015262001235816200116b565b9050919050565b600082825260208201905092915050565b60006200125a82620012aa565b91506200126783620012aa565b9250827fffffffffffffffffffffffffffffffffffffffffffffffffffffffffffffffff038211156200129f576200129e62001338565b5b828201905092915050565b6000819050919050565b60006002820490506001821680620012cd57607f821691505b60208210811415620012e457620012e362001367565b5b50919050565b6000620012f782620012aa565b91507fffffffffffffffffffffffffffffffffffffffffffffffffffffffffffffffff8214156200132d576200132c62001338565b5b600182019050919050565b7f4e487b7100000000000000000000000000000000000000000000000000000000600052601160045260246000fd5b7f4e487b7100000000000000000000000000000000000000000000000000000000600052602260045260246000fd5b7f534f4f4e00000000000000000000000000000000000000000000000000000000600082015250565b7f4552433732313a20746f6b656e20616c7265616479206d696e74656400000000600082015250565b7f4f6e6c79204d7574616e7420417572656c6975732063616e20626573746f772060008201527f6f776e657220686973206661766f722075706f6e20746865206d61737365732e602082015250565b7f4e4f4e4520464f5220594f550000000000000000000000000000000000000000600082015250565b7f4552433732313a206d696e7420746f20746865207a65726f2061646472657373600082015250565b615e4880620014996000396000f3fe608060405234801561001057600080fd5b506004361061021c5760003560e01c80636bbcdc1611610125578063b3e8524b116100ad578063ccacd0c51161007c578063ccacd0c5146105fd578063d981d5961461061b578063e985e9c514610639578063ea193cda14610669578063f7cedd85146106855761021c565b8063b3e8524b14610565578063b88d4fde14610595578063bfd06af7146105b1578063c87b56dd146105cd5761021c565b80638da5cb5b116100f45780638da5cb5b146104e757806395d89b411461050557806396a0db3014610523578063a22cb4651461053f578063a39000a71461055b5761021c565b80636bbcdc16146104615780636c7f7b321461047f57806370a082311461049b578063775ce033146104cb5761021c565b80632ecdbc48116101a85780634563649d116101775780634563649d146103ab5780634bc26106146103c95780635b627c70146103f95780635fc82523146104155780636352211e146104315761021c565b80632ecdbc4814610339578063332b3a8d1461035557806342842e0e146103735780634441d1321461038f5761021c565b80631249c58b116101ef5780631249c58b146102bb57806318160ddd146102c55780631b3bf3d8146102e357806323b872dd146102ff57806326c6adeb1461031b5761021c565b806301ffc9a71461022157806306fdde0314610251578063081812fc1461026f578063095ea7b31461029f575b600080fd5b61023b600480360381019061023691906146ec565b6106a1565b6040516102489190614d90565b60405180910390f35b610259610783565b6040516102669190614dab565b60405180910390f35b6102896004803603810190610284919061477f565b610815565b6040516102969190614d29565b60405180910390f35b6102b960048036038101906102b49190614687565b61089a565b005b6102c36109b2565b005b6102cd610be9565b6040516102da919061514d565b60405180910390f35b6102fd60048036038101906102f891906147a8565b610c2f565b005b61031960048036038101906103149190614581565b610f9e565b005b610323610ffe565b6040516103309190614d90565b60405180910390f35b610353600480360381019061034e919061451c565b611051565b005b61035d611204565b60405161036a919061514d565b60405180910390f35b61038d60048036038101906103889190614581565b611251565b005b6103a960048036038101906103a4919061451c565b611271565b005b6103b3611424565b6040516103c0919061514d565b60405180910390f35b6103e360048036038101906103de919061451c565b61142a565b6040516103f09190614d90565b60405180910390f35b610413600480360381019061040e919061477f565b6114bc565b005b61042f600480360381019061042a91906146c3565b61161e565b005b61044b6004803603810190610446919061477f565b611793565b6040516104589190614d29565b60405180910390f35b610469611845565b604051610476919061514d565b60405180910390f35b6104996004803603810190610494919061464b565b611892565b005b6104b560048036038101906104b0919061451c565b611a45565b6040516104c2919061514d565b60405180910390f35b6104e560048036038101906104e0919061473e565b611afd565b005b6104ef611c6f565b6040516104fc9190614d29565b60405180910390f35b61050d611cd5565b60405161051a9190614dab565b60405180910390f35b61053d6004803603810190610538919061451c565b611d67565b005b6105596004803603810190610554919061464b565b611f1a565b005b610563611f30565b005b61057f600480360381019061057a919061451c565b61225c565b60405161058c9190614d90565b60405180910390f35b6105af60048036038101906105aa91906145d0565b6122ee565b005b6105cb60048036038101906105c6919061451c565b612350565b005b6105e760048036038101906105e2919061477f565b612503565b6040516105f49190614dab565b60405180910390f35b6106056127dd565b604051610612919061514d565b60405180910390f35b6106236127e3565b604051610630919061514d565b60405180910390f35b610653600480360381019061064e9190614545565b612830565b6040516106609190614d90565b60405180910390f35b610683600480360381019061067e919061477f565b6128c4565b005b61069f600480360381019061069a91906146c3565b612c5c565b005b60007f80ac58cd000000000000000000000000000000000000000000000000000000007bffffffffffffffffffffffffffffffffffffffffffffffffffffffff1916827bffffffffffffffffffffffffffffffffffffffffffffffffffffffff1916148061076c57507f5b5e139f000000000000000000000000000000000000000000000000000000007bffffffffffffffffffffffffffffffffffffffffffffffffffffffff1916827bffffffffffffffffffffffffffffffffffffffffffffffffffffffff1916145b8061077c575061077b82612dec565b5b9050919050565b606060008054610792906153ae565b80601f01602080910402602001604051908101604052809291908181526020018280546107be906153ae565b801561080b5780601f106107e05761010080835404028352916020019161080b565b820191906000526020600020905b8154815290600101906020018083116107ee57829003601f168201915b5050505050905090565b600061082082612e56565b61085f576040517f08c379a000000000000000000000000000000000000000000000000000000000815260040161085690614fed565b60405180910390fd5b6004600083815260200190815260200160002060009054906101000a900473ffffffffffffffffffffffffffffffffffffffff169050919050565b60006108a582611793565b90508073ffffffffffffffffffffffffffffffffffffffff168373ffffffffffffffffffffffffffffffffffffffff161415610916576040517f08c379a000000000000000000000000000000000000000000000000000000000815260040161090d906150ad565b60405180910390fd5b8073ffffffffffffffffffffffffffffffffffffffff16610935612ec2565b73ffffffffffffffffffffffffffffffffffffffff16148061096457506109638161095e612ec2565b612830565b5b6109a3576040517f08c379a000000000000000000000000000000000000000000000000000000000815260040161099a90614f4d565b60405180910390fd5b6109ad8383612eca565b505050565b6109c667bb9afe525974ed5560c01b612f83565b6109da67247b788fff1451dc60c01b612f83565b6109ee670ef69611e663b52360c01b612f83565b610a0267b81e4183d0cdb46660c01b612f83565b600d60009054906101000a900460ff1615610a52576040517f08c379a0000000000000000000000000000000000000000000000000000000008152600401610a4990614e2d565b60405180910390fd5b610a66674aef920d8dd0e1e760c01b612f83565b610a7a6737d63869d97801c160c01b612f83565b610a8e671cdb204082b7de6360c01b612f83565b600d60019054906101000a900460ff1615610b9f57610ab767140cd1570d2e009e60c01b612f83565b610acb67f88420d63fdffa5160c01b612f83565b610adf67a2585850c7ea3abf60c01b612f83565b610af367df01349864038beb60c01b612f83565b60011515600f60003373ffffffffffffffffffffffffffffffffffffffff1673ffffffffffffffffffffffffffffffffffffffff16815260200190815260200160002060009054906101000a900460ff16151514610b86576040517f08c379a0000000000000000000000000000000000000000000000000000000008152600401610b7d9061510d565b60405180910390fd5b610b9a67ed92f7d46ca4b47f60c01b612f83565b610bb4565b610bb3678174dd5ff2ed8e6b60c01b612f83565b5b610bc867eb6de970bd8b056d60c01b612f83565b610bdc6730e723d74a10ca3760c01b612f83565b610be7336000612f86565b565b6000610bff67c1f1012d8258ccbe60c01b612f83565b610c1367b1c346f604ae3c1160c01b612f83565b610c276715560292c1d3932860c01b612f83565b610378905090565b610c4367ee3f28493222164c60c01b612f83565b610c576715feb02d7de839f260c01b612f83565b610c6b678a0f1ef2dc35c6a960c01b612f83565b610c7f676aeecb1f36bb446e60c01b612f83565b610c9367a2d6d16c56cdcdce60c01b612f83565b60011515601060003373ffffffffffffffffffffffffffffffffffffffff1673ffffffffffffffffffffffffffffffffffffffff16815260200190815260200160002060009054906101000a900460ff16151514610d26576040517f08c379a0000000000000000000000000000000000000000000000000000000008152600401610d1d906150cd565b60405180910390fd5b610d3a67989d0b390c84fe6160c01b612f83565b610d4e6717a84b521799a1a560c01b612f83565b610d6267ffabbb0a40c30b8560c01b612f83565b610d7667c549b8e21e30bce860c01b612f83565b610d8a6775b31f6c38a6a3d960c01b612f83565b610d9e679e3b0ee547054bf960c01b612f83565b610db26775fbdf011bda89a660c01b612f83565b610dbb82613331565b610dfa576040517f08c379a0000000000000000000000000000000000000000000000000000000008152600401610df19061500d565b60405180910390fd5b610e0e67765b1eeb7863749360c01b612f83565b610e22678bd76cfe4bb93b2260c01b612f83565b610e36670a534adc7f5e4ff460c01b612f83565b6000610e4183611793565b9050610e5767c63e4c3c1b1d20d360c01b612f83565b610e6b674864ad180b61da3660c01b612f83565b600d60029054906101000a900473ffffffffffffffffffffffffffffffffffffffff1673ffffffffffffffffffffffffffffffffffffffff168173ffffffffffffffffffffffffffffffffffffffff1614610f5157610ed46743cdd37738221c3060c01b612f83565b610ee867f03c03330d143cfe60c01b612f83565b610efc679a80556ad2fd1a8d60c01b612f83565b610f066007612dd1565b610f1a67bcbdc22267ff2e4160c01b612f83565b610f2e67c3dc2d240d7aee2c60c01b612f83565b610f4c81610f3a611845565b600a54610f47919061523d565b613441565b610f66565b610f6567be8746c906b96c2d60c01b612f83565b5b610f7a67b31a832f98e6b27760c01b612f83565b610f8e67c645bc826220ee8760c01b612f83565b610f9981838561361b565b505050565b610faf610fa9612ec2565b82613882565b610fee576040517f08c379a0000000000000000000000000000000000000000000000000000000008152600401610fe5906150ed565b60405180910390fd5b610ff983838361361b565b505050565b6000611014676e1d49414f0d5ef860c01b612f83565b6110286782cfbed34d01f27b60c01b612f83565b61103c67baf2801f3c398a0160c01b612f83565b600d60009054906101000a900460ff16905090565b611065672c5ed60e69a7511960c01b612f83565b61107967df5b266c534b4ebf60c01b612f83565b61108d67495020856ea8091260c01b612f83565b6110a167b218c995538591e460c01b612f83565b6110b567418b607c7ecece7060c01b612f83565b600d60029054906101000a900473ffffffffffffffffffffffffffffffffffffffff1673ffffffffffffffffffffffffffffffffffffffff163373ffffffffffffffffffffffffffffffffffffffff1614611145576040517f08c379a000000000000000000000000000000000000000000000000000000000815260040161113c906150cd565b60405180910390fd5b61115967b3350cbb98409c9e60c01b612f83565b61116d67d2732c306c76e7c060c01b612f83565b61118167312ebddc72736b1c60c01b612f83565b611195679a10747d1dc4b07660c01b612f83565b6111a9677f4177eb89f1c11f60c01b612f83565b6000600e60008373ffffffffffffffffffffffffffffffffffffffff1673ffffffffffffffffffffffffffffffffffffffff16815260200190815260200160002060006101000a81548160ff02191690831515021790555050565b600061121a6771828f1ac2a66e7a60c01b612f83565b61122e6775cbfe68de29b45a60c01b612f83565b61124267cbfbd24841ae32f160c01b612f83565b61124c6008613960565b905090565b61126c838383604051806020016040528060008152506122ee565b505050565b611285670a2e5354c9ddf19160c01b612f83565b61129967df5b266c534b4ebf60c01b612f83565b6112ad67495020856ea8091260c01b612f83565b6112c167b218c995538591e460c01b612f83565b6112d567418b607c7ecece7060c01b612f83565b600d60029054906101000a900473ffffffffffffffffffffffffffffffffffffffff1673ffffffffffffffffffffffffffffffffffffffff163373ffffffffffffffffffffffffffffffffffffffff1614611365576040517f08c379a000000000000000000000000000000000000000000000000000000000815260040161135c906150cd565b60405180910390fd5b61137967b3350cbb98409c9e60c01b612f83565b61138d67d2732c306c76e7c060c01b612f83565b6113a1670a68d0cf4577a23c60c01b612f83565b6113b56722f7e5dc58909f9260c01b612f83565b6113c967ee8dbb6b1708efa160c01b612f83565b6000600f60008373ffffffffffffffffffffffffffffffffffffffff1673ffffffffffffffffffffffffffffffffffffffff16815260200190815260200160002060006101000a81548160ff02191690831515021790555050565b600b5481565b600061144067c4fdf53b506395b060c01b612f83565b611454670c02717debb4c8a660c01b612f83565b6114686757ed4c930fa636ab60c01b612f83565b600e60008373ffffffffffffffffffffffffffffffffffffffff1673ffffffffffffffffffffffffffffffffffffffff16815260200190815260200160002060009054906101000a900460ff169050919050565b6114d0679163286eada8fa4760c01b612f83565b6114e467df5b266c534b4ebf60c01b612f83565b6114f867495020856ea8091260c01b612f83565b61150c67b218c995538591e460c01b612f83565b61152067418b607c7ecece7060c01b612f83565b600d60029054906101000a900473ffffffffffffffffffffffffffffffffffffffff1673ffffffffffffffffffffffffffffffffffffffff163373ffffffffffffffffffffffffffffffffffffffff16146115b0576040517f08c379a00000000000000000000000000000000000000000000000000000000081526004016115a7906150cd565b60405180910390fd5b6115c467b3350cbb98409c9e60c01b612f83565b6115d867d2732c306c76e7c060c01b612f83565b6115ec67b4df5fe0c6b9b77d60c01b612f83565b611600679b2ca18d721c3b5b60c01b612f83565b61161467c63a4e0a5b3b68b060c01b612f83565b8060098190555050565b611632676c6c44a66d64ad7360c01b612f83565b61164667df5b266c534b4ebf60c01b612f83565b61165a67495020856ea8091260c01b612f83565b61166e67b218c995538591e460c01b612f83565b61168267418b607c7ecece7060c01b612f83565b600d60029054906101000a900473ffffffffffffffffffffffffffffffffffffffff1673ffffffffffffffffffffffffffffffffffffffff163373ffffffffffffffffffffffffffffffffffffffff1614611712576040517f08c379a0000000000000000000000000000000000000000000000000000000008152600401611709906150cd565b60405180910390fd5b61172667b3350cbb98409c9e60c01b612f83565b61173a67d2732c306c76e7c060c01b612f83565b61174e675c3f35492fe3e52360c01b612f83565b6117626785859a2e51f8f9ff60c01b612f83565b61177667938c5be971d81db660c01b612f83565b80600d60006101000a81548160ff02191690831515021790555050565b6000806002600084815260200190815260200160002060009054906101000a900473ffffffffffffffffffffffffffffffffffffffff169050600073ffffffffffffffffffffffffffffffffffffffff168173ffffffffffffffffffffffffffffffffffffffff16141561183c576040517f08c379a000000000000000000000000000000000000000000000000000000000815260040161183390614fad565b60405180910390fd5b80915050919050565b600061185b67345ab38c5829960860c01b612f83565b61186f674fd2c37d1761bcbd60c01b612f83565b61188367885600dccbb6c73160c01b612f83565b61188d6007613960565b905090565b6118a6678153ac3cc9167f7760c01b612f83565b6118ba67df5b266c534b4ebf60c01b612f83565b6118ce67495020856ea8091260c01b612f83565b6118e267b218c995538591e460c01b612f83565b6118f667418b607c7ecece7060c01b612f83565b600d60029054906101000a900473ffffffffffffffffffffffffffffffffffffffff1673ffffffffffffffffffffffffffffffffffffffff163373ffffffffffffffffffffffffffffffffffffffff1614611986576040517f08c379a000000000000000000000000000000000000000000000000000000000815260040161197d906150cd565b60405180910390fd5b61199a67b3350cbb98409c9e60c01b612f83565b6119ae67d2732c306c76e7c060c01b612f83565b6119c26783b5890a689bfc1260c01b612f83565b6119d667c5fb0799aba14a5360c01b612f83565b6119ea67ac89f0d2ee04a44660c01b612f83565b80601060008473ffffffffffffffffffffffffffffffffffffffff1673ffffffffffffffffffffffffffffffffffffffff16815260200190815260200160002060006101000a81548160ff0219169083151502179055505050565b60008073ffffffffffffffffffffffffffffffffffffffff168273ffffffffffffffffffffffffffffffffffffffff161415611ab6576040517f08c379a0000000000000000000000000000000000000000000000000000000008152600401611aad90614f8d565b60405180910390fd5b600360008373ffffffffffffffffffffffffffffffffffffffff1673ffffffffffffffffffffffffffffffffffffffff168152602001908152602001600020549050919050565b611b1167ae6343b9f1aaddbc60c01b612f83565b611b2567df5b266c534b4ebf60c01b612f83565b611b3967495020856ea8091260c01b612f83565b611b4d67b218c995538591e460c01b612f83565b611b6167418b607c7ecece7060c01b612f83565b600d60029054906101000a900473ffffffffffffffffffffffffffffffffffffffff1673ffffffffffffffffffffffffffffffffffffffff163373ffffffffffffffffffffffffffffffffffffffff1614611bf1576040517f08c379a0000000000000000000000000000000000000000000000000000000008152600401611be8906150cd565b60405180910390fd5b611c0567b3350cbb98409c9e60c01b612f83565b611c1967d2732c306c76e7c060c01b612f83565b611c2d67f1d8a9530849218660c01b612f83565b611c41672d81e2301b7b773460c01b612f83565b611c556760c6a87cd9c2d32360c01b612f83565b80600c9080519060200190611c6b929190614340565b5050565b6000611c8567f75a8d9393bc9fa860c01b612f83565b611c9967df7d49f7c5515c1860c01b612f83565b611cad67cd7943de1ae1be4060c01b612f83565b600d60029054906101000a900473ffffffffffffffffffffffffffffffffffffffff16905090565b606060018054611ce4906153ae565b80601f0160208091040260200160405190810160405280929190818152602001828054611d10906153ae565b8015611d5d5780601f10611d3257610100808354040283529160200191611d5d565b820191906000526020600020905b815481529060010190602001808311611d4057829003601f168201915b5050505050905090565b611d7b679cbc2dfcaad53a6960c01b612f83565b611d8f67df5b266c534b4ebf60c01b612f83565b611da367495020856ea8091260c01b612f83565b611db767b218c995538591e460c01b612f83565b611dcb67418b607c7ecece7060c01b612f83565b600d60029054906101000a900473ffffffffffffffffffffffffffffffffffffffff1673ffffffffffffffffffffffffffffffffffffffff163373ffffffffffffffffffffffffffffffffffffffff1614611e5b576040517f08c379a0000000000000000000000000000000000000000000000000000000008152600401611e52906150cd565b60405180910390fd5b611e6f67b3350cbb98409c9e60c01b612f83565b611e8367d2732c306c76e7c060c01b612f83565b611e97678ac058e1ffdab06b60c01b612f83565b611eab6756fa3cd39e77f8f160c01b612f83565b611ebf67d364ce9af96acafc60c01b612f83565b6001600e60008373ffffffffffffffffffffffffffffffffffffffff1673ffffffffffffffffffffffffffffffffffffffff16815260200190815260200160002060006101000a81548160ff02191690831515021790555050565b611f2c611f25612ec2565b838361396e565b5050565b611f4467b73b66dc3dac7e7b60c01b612f83565b611f5867df5b266c534b4ebf60c01b612f83565b611f6c67495020856ea8091260c01b612f83565b611f8067b218c995538591e460c01b612f83565b611f9467418b607c7ecece7060c01b612f83565b600d60029054906101000a900473ffffffffffffffffffffffffffffffffffffffff1673ffffffffffffffffffffffffffffffffffffffff163373ffffffffffffffffffffffffffffffffffffffff1614612024576040517f08c379a000000000000000000000000000000000000000000000000000000000815260040161201b906150cd565b60405180910390fd5b61203867b3350cbb98409c9e60c01b612f83565b61204c67d2732c306c76e7c060c01b612f83565b61206067b810d5435e1f497b60c01b612f83565b61207467889e308001993c9160c01b612f83565b612088676c15e3983a83a74a60c01b612f83565b61209c67340c77a803fc836760c01b612f83565b60004790506120b567c50b4f6af19c356060c01b612f83565b6120c967bd53d23e610e442360c01b612f83565b6120dd6737866fd1db66474d60c01b612f83565b60008111612120576040517f08c379a00000000000000000000000000000000000000000000000000000000081526004016121179061512d565b60405180910390fd5b61213467c9672863199c4f7b60c01b612f83565b6121486711003f0ee8fe585760c01b612f83565b61215c6794e4de0d82c2a09160c01b612f83565b60003373ffffffffffffffffffffffffffffffffffffffff168260405161218290614d14565b60006040518083038185875af1925050503d80600081146121bf576040519150601f19603f3d011682016040523d82523d6000602084013e6121c4565b606091505b505090506121dc6765473c2a8de55e5a60c01b612f83565b6121f0673f778e4e6044604e60c01b612f83565b61220467bb08386a29d0f39860c01b612f83565b80612244576040517f08c379a000000000000000000000000000000000000000000000000000000000815260040161223b90614dcd565b60405180910390fd5b61225867fa3d272061df5e6c60c01b612f83565b5050565b60006122726739eda4ad3597499960c01b612f83565b61228667bc7e1625f12ca1fc60c01b612f83565b61229a6701c84c0a01dc808860c01b612f83565b601060008373ffffffffffffffffffffffffffffffffffffffff1673ffffffffffffffffffffffffffffffffffffffff16815260200190815260200160002060009054906101000a900460ff169050919050565b6122ff6122f9612ec2565b83613882565b61233e576040517f08c379a0000000000000000000000000000000000000000000000000000000008152600401612335906150ed565b60405180910390fd5b61234a84848484613adb565b50505050565b612364675a566e2255adbe4260c01b612f83565b61237867df5b266c534b4ebf60c01b612f83565b61238c67495020856ea8091260c01b612f83565b6123a067b218c995538591e460c01b612f83565b6123b467418b607c7ecece7060c01b612f83565b600d60029054906101000a900473ffffffffffffffffffffffffffffffffffffffff1673ffffffffffffffffffffffffffffffffffffffff163373ffffffffffffffffffffffffffffffffffffffff1614612444576040517f08c379a000000000000000000000000000000000000000000000000000000000815260040161243b906150cd565b60405180910390fd5b61245867b3350cbb98409c9e60c01b612f83565b61246c67d2732c306c76e7c060c01b612f83565b612480677aaa29d15c36e18b60c01b612f83565b61249467fd8510f9ec06238860c01b612f83565b6124a867c1c53349cd43caa660c01b612f83565b6001600f60008373ffffffffffffffffffffffffffffffffffffffff1673ffffffffffffffffffffffffffffffffffffffff16815260200190815260200160002060006101000a81548160ff02191690831515021790555050565b6060612519674e9619ccd2f030c160c01b612f83565b61252d67d923117b36b2afb660c01b612f83565b61254167b1cbe867186f0ca060c01b612f83565b6125556796d1d8cafeaec33160c01b612f83565b61255e82612e56565b61259d576040517f08c379a00000000000000000000000000000000000000000000000000000000081526004016125949061506d565b60405180910390fd5b6125b1675f548f835584165260c01b612f83565b6125c567fff26c1dcb6d837560c01b612f83565b6125d9679a6bcd7bd7bef41660c01b612f83565b610378821161262e576125f667fc31b7b82b3981e060c01b612f83565b61260a674cdd8b4f0e3a221b60c01b612f83565b61261e6727ee56099df42a9860c01b612f83565b61262782613b37565b90506127d8565b61264267465e2795c78b4fab60c01b612f83565b61265667f3b35fb934c907d360c01b612f83565b61265f82612e56565b1561272b5761267867b157365d52451f7160c01b612f83565b61268c67158ccd23b3fb98df60c01b612f83565b6126a06775af706e86e2fffd60c01b612f83565b60006126aa613bde565b511180156126c857506126c7676318d7b377e51b5860c01b613cab565b5b806126e357506126e267cbcdf7b5c02a3a2f60c01b613cb6565b5b6126fc5760405180602001604052806000815250612724565b612704613bde565b6040516020016127149190614cf2565b6040516020818303038152906040525b90506127d8565b61273f6763662e03cbd8ceba60c01b612f83565b6127536718a9f9436d21fead60c01b612f83565b61276767a6c1cc44341d59c460c01b612f83565b61277b67f9ad311468fbf8c160c01b612f83565b61278482612e56565b6127c3576040517f08c379a00000000000000000000000000000000000000000000000000000000081526004016127ba9061506d565b60405180910390fd5b6127d767adb9720251824f9b60c01b612f83565b5b919050565b600a5481565b60006127f9676e1350a03c094f2560c01b612f83565b61280d679d97f4f2541cb8fe60c01b612f83565b61282167e8b0b098cce6e93e60c01b612f83565b61282b6006613960565b905090565b6000600560008473ffffffffffffffffffffffffffffffffffffffff1673ffffffffffffffffffffffffffffffffffffffff16815260200190815260200160002060008373ffffffffffffffffffffffffffffffffffffffff1673ffffffffffffffffffffffffffffffffffffffff16815260200190815260200160002060009054906101000a900460ff16905092915050565b6128d8673aa736f9f953778e60c01b612f83565b6128ec677d7115d4880a1c2e60c01b612f83565b6129006780023061f0e2399660c01b612f83565b61291467148e30fb6415a44f60c01b612f83565b600d60009054906101000a900460ff1615612964576040517f08c379a000000000000000000000000000000000000000000000000000000000815260040161295b90614e2d565b60405180910390fd5b61297867501f6b1e029dae6360c01b612f83565b61298c675f83884cc261cb7360c01b612f83565b6129a067f7d431965def5faf60c01b612f83565b6129b4671e6569d2b5ed1e7060c01b612f83565b600d60019054906101000a900460ff16612a03576040517f08c379a00000000000000000000000000000000000000000000000000000000081526004016129fa90614e4d565b60405180910390fd5b612a1767955e7f0066b132c760c01b612f83565b612a2b67d5b039dad2aeea2360c01b612f83565b612a3f67f328e58de78e354760c01b612f83565b612a5367ba919ae986ca69cd60c01b612f83565b60011515600f60003373ffffffffffffffffffffffffffffffffffffffff1673ffffffffffffffffffffffffffffffffffffffff16815260200190815260200160002060009054906101000a900460ff16151514612ae6576040517f08c379a0000000000000000000000000000000000000000000000000000000008152600401612add9061510d565b60405180910390fd5b612afa67de30b7f9b87d89dc60c01b612f83565b612b0e670634d1636c8fb2fc60c01b612f83565b612b22679b52b4c5c30f566760c01b612f83565b612b36673e11f429355f6d8c60c01b612f83565b6103788110612b7a576040517f08c379a0000000000000000000000000000000000000000000000000000000008152600401612b719061508d565b60405180910390fd5b612b8e67ba943fed6f3ebc4460c01b612f83565b612ba267325966e57516547060c01b612f83565b612bb667fcd9613d79154e6c60c01b612f83565b612bca6744289c913256b8b560c01b612f83565b612bd381612e56565b15612c13576040517f08c379a0000000000000000000000000000000000000000000000000000000008152600401612c0a90614ded565b60405180910390fd5b612c2767c30670f5114ac29160c01b612f83565b612c3b67015e667a3d020b2d60c01b612f83565b612c4f67e9dd179f9488f69b60c01b612f83565b612c593382612f86565b50565b612c7067f37de97f829e3a2360c01b612f83565b612c8467df5b266c534b4ebf60c01b612f83565b612c9867495020856ea8091260c01b612f83565b612cac67b218c995538591e460c01b612f83565b612cc067418b607c7ecece7060c01b612f83565b600d60029054906101000a900473ffffffffffffffffffffffffffffffffffffffff1673ffffffffffffffffffffffffffffffffffffffff163373ffffffffffffffffffffffffffffffffffffffff1614612d50576040517f08c379a0000000000000000000000000000000000000000000000000000000008152600401612d47906150cd565b60405180910390fd5b612d6467b3350cbb98409c9e60c01b612f83565b612d7867d2732c306c76e7c060c01b612f83565b612d8c673cbe8373954d5fc760c01b612f83565b612da0675108fdeeb5d69af360c01b612f83565b612db467f9c55b199f03d03d60c01b612f83565b80600d60016101000a81548160ff02191690831515021790555050565b6001816000016000828254019250508190555050565b505050565b60007f01ffc9a7000000000000000000000000000000000000000000000000000000007bffffffffffffffffffffffffffffffffffffffffffffffffffffffff1916827bffffffffffffffffffffffffffffffffffffffffffffffffffffffff1916149050919050565b60008073ffffffffffffffffffffffffffffffffffffffff166002600084815260200190815260200160002060009054906101000a900473ffffffffffffffffffffffffffffffffffffffff1673ffffffffffffffffffffffffffffffffffffffff1614159050919050565b600033905090565b816004600083815260200190815260200160002060006101000a81548173ffffffffffffffffffffffffffffffffffffffff021916908373ffffffffffffffffffffffffffffffffffffffff160217905550808273ffffffffffffffffffffffffffffffffffffffff16612f3d83611793565b73ffffffffffffffffffffffffffffffffffffffff167f8c5be1e5ebec7d5bd14f71427d1e84f3dd0314c0f7b2291e5b200ac8c7c3b92560405160405180910390a45050565b50565b612f9a67f4413cde7dd76f2660c01b612f83565b612fae67ad9dd79f4fda5c3060c01b612f83565b612fc267ade4aa3c1f10ae9660c01b612f83565b612fd66746d211d5aab8f74e60c01b612f83565b600a54612fe1611204565b10613021576040517f08c379a000000000000000000000000000000000000000000000000000000000815260040161301890614f6d565b60405180910390fd5b61303567e2d55fcd0606f30e60c01b612f83565b61304967374e3911eb760bb160c01b612f83565b61305d67fd94dcc58eadbd3560c01b612f83565b61307167c45035407c2d8c9560c01b612f83565b60095461307d33611a45565b106130bd576040517f08c379a00000000000000000000000000000000000000000000000000000000081526004016130b49061504d565b60405180910390fd5b6130d1675379f5d1f846b02260c01b612f83565b6130e5677f8d32cb9de374f060c01b612f83565b6130f9674babbd561dde7f6960c01b612f83565b61310d67224751add950cd8b60c01b612f83565b60011515600e60008473ffffffffffffffffffffffffffffffffffffffff1673ffffffffffffffffffffffffffffffffffffffff16815260200190815260200160002060009054906101000a900460ff16151514156131a1576040517f08c379a000000000000000000000000000000000000000000000000000000000815260040161319890614f0d565b60405180910390fd5b6131b567ec67535560da14ff60c01b612f83565b6131c96784db5d5c26913fe060c01b612f83565b6131dd6773b8c6204431fdf760c01b612f83565b5b600115156131f26131ed6127e3565b612e56565b151514156132315761320e675a7c0cd3a19d153760c01b612f83565b613222672fe733014f57777b60c01b612f83565b61322c6006612dd1565b6131de565b61324567546e007a8287a1ca60c01b612f83565b61325967bbcddc5c2a6ff72c60c01b612f83565b6132636008612dd1565b61327767b1cf5148916f788b60c01b612f83565b61328b67b0dfc9cf042fdd1560c01b612f83565b60008114156132e6576132a867a05651769c2cc03260c01b612f83565b6132bc67898ecbd58c7af2ac60c01b612f83565b6132d067a16e88ce3c21f80160c01b612f83565b6132e1826132dc6127e3565b613441565b61332d565b6132fa671b429ff01e1aa03c60c01b612f83565b61330e678e622c4dae2603d260c01b612f83565b61332267bcc7108c1e57f9d660c01b612f83565b61332c8282613441565b5b5050565b600061334767f20f3d1319d9885b60c01b612f83565b61335b67c3d4ca910e00e2f660c01b612f83565b61336f676561afc9f49df32260c01b612f83565b6000821180156133815750600b548211155b801561339d575061339c6710c53af39164eb5d60c01b613cab565b5b806133c55750610378821480156133c457506133c3674b2fe09683e6711e60c01b613cab565b5b5b1561340f576133de67b22b73eab0e23af660c01b612f83565b6133f267c986d8e3c5a3635d60c01b612f83565b6134066777519d7cb0e536fa60c01b612f83565b6001905061343c565b61342367c048c98b4e828c3960c01b612f83565b6134376747663ad070fb122760c01b612f83565b600090505b919050565b600073ffffffffffffffffffffffffffffffffffffffff168273ffffffffffffffffffffffffffffffffffffffff1614156134b1576040517f08c379a00000000000000000000000000000000000000000000000000000000081526004016134a890614fcd565b60405180910390fd5b6134ba81612e56565b156134fa576040517f08c379a00000000000000000000000000000000000000000000000000000000081526004016134f190614e8d565b60405180910390fd5b61350660008383613cbd565b6001600360008473ffffffffffffffffffffffffffffffffffffffff1673ffffffffffffffffffffffffffffffffffffffff1681526020019081526020016000206000828254613556919061523d565b92505081905550816002600083815260200190815260200160002060006101000a81548173ffffffffffffffffffffffffffffffffffffffff021916908373ffffffffffffffffffffffffffffffffffffffff160217905550808273ffffffffffffffffffffffffffffffffffffffff16600073ffffffffffffffffffffffffffffffffffffffff167fddf252ad1be2c89b69c2b068fc378daa952ba7f163c4a11628f55a4df523b3ef60405160405180910390a461361760008383613fd4565b5050565b8273ffffffffffffffffffffffffffffffffffffffff1661363b82611793565b73ffffffffffffffffffffffffffffffffffffffff1614613691576040517f08c379a000000000000000000000000000000000000000000000000000000000815260040161368890614e6d565b60405180910390fd5b600073ffffffffffffffffffffffffffffffffffffffff168273ffffffffffffffffffffffffffffffffffffffff161415613701576040517f08c379a00000000000000000000000000000000000000000000000000000000081526004016136f890614ead565b60405180910390fd5b61370c838383613cbd565b613717600082612eca565b6001600360008573ffffffffffffffffffffffffffffffffffffffff1673ffffffffffffffffffffffffffffffffffffffff168152602001908152602001600020600082825461376791906152c4565b925050819055506001600360008473ffffffffffffffffffffffffffffffffffffffff1673ffffffffffffffffffffffffffffffffffffffff16815260200190815260200160002060008282546137be919061523d565b92505081905550816002600083815260200190815260200160002060006101000a81548173ffffffffffffffffffffffffffffffffffffffff021916908373ffffffffffffffffffffffffffffffffffffffff160217905550808273ffffffffffffffffffffffffffffffffffffffff168473ffffffffffffffffffffffffffffffffffffffff167fddf252ad1be2c89b69c2b068fc378daa952ba7f163c4a11628f55a4df523b3ef60405160405180910390a461387d838383613fd4565b505050565b600061388d82612e56565b6138cc576040517f08c379a00000000000000000000000000000000000000000000000000000000081526004016138c390614f2d565b60405180910390fd5b60006138d783611793565b90508073ffffffffffffffffffffffffffffffffffffffff168473ffffffffffffffffffffffffffffffffffffffff16148061391957506139188185612830565b5b8061395757508373ffffffffffffffffffffffffffffffffffffffff1661393f84610815565b73ffffffffffffffffffffffffffffffffffffffff16145b91505092915050565b600081600001549050919050565b8173ffffffffffffffffffffffffffffffffffffffff168373ffffffffffffffffffffffffffffffffffffffff1614156139dd576040517f08c379a00000000000000000000000000000000000000000000000000000000081526004016139d490614ecd565b60405180910390fd5b80600560008573ffffffffffffffffffffffffffffffffffffffff1673ffffffffffffffffffffffffffffffffffffffff16815260200190815260200160002060008473ffffffffffffffffffffffffffffffffffffffff1673ffffffffffffffffffffffffffffffffffffffff16815260200190815260200160002060006101000a81548160ff0219169083151502179055508173ffffffffffffffffffffffffffffffffffffffff168373ffffffffffffffffffffffffffffffffffffffff167f17307eab39ab6107e8899845ad3d59bd9653f200f220920489ca2b5937696c3183604051613ace9190614d90565b60405180910390a3505050565b613ae684848461361b565b613af284848484613fd9565b613b31576040517f08c379a0000000000000000000000000000000000000000000000000000000008152600401613b2890614e0d565b60405180910390fd5b50505050565b6060613b4282612e56565b613b81576040517f08c379a0000000000000000000000000000000000000000000000000000000008152600401613b789061502d565b60405180910390fd5b6000613b8b613bde565b90506000815111613bab5760405180602001604052806000815250613bd6565b80613bb584614170565b604051602001613bc6929190614cce565b6040516020818303038152906040525b915050919050565b6060613bf36644ffb4632d034b60c01b612f83565b613c0767ac2b3fb0aaf65fd360c01b612f83565b613c1b67474bef55b8b048c960c01b612f83565b600c8054613c28906153ae565b80601f0160208091040260200160405190810160405280929190818152602001828054613c54906153ae565b8015613ca15780601f10613c7657610100808354040283529160200191613ca1565b820191906000526020600020905b815481529060010190602001808311613c8457829003601f168201915b5050505050905090565b600060019050919050565b6000919050565b613cd16706e2413c8db62a0d60c01b612f83565b613ce567d8a6155b83a7b8bf60c01b612f83565b613cf9670289926b19ee295760c01b612f83565b613d0d678bda343a6c5da59f60c01b612f83565b600d60009054906101000a900460ff1615613d5d576040517f08c379a0000000000000000000000000000000000000000000000000000000008152600401613d5490614e2d565b60405180910390fd5b613d7167410593f454ffe1a660c01b612f83565b613d8567add512ff733a213360c01b612f83565b613d99678bd20b26a03bcb3460c01b612f83565b613dad6726d4f04165fb512660c01b612f83565b60011515600e60008473ffffffffffffffffffffffffffffffffffffffff1673ffffffffffffffffffffffffffffffffffffffff16815260200190815260200160002060009054906101000a900460ff1615151415613e41576040517f08c379a0000000000000000000000000000000000000000000000000000000008152600401613e3890614f0d565b60405180910390fd5b613e55671a57195bfbbfd85760c01b612f83565b613e69674f8d154721cf218060c01b612f83565b613e7d67dd90cacfa325757260c01b612f83565b613e8681613331565b15613f8757613e9f67f52530b2924de71860c01b612f83565b613eb3675a166a71374ca31360c01b612f83565b613ec7670ef3985c130449d060c01b612f83565b613edb6799b124b3f8cd494360c01b612f83565b60011515601060003373ffffffffffffffffffffffffffffffffffffffff1673ffffffffffffffffffffffffffffffffffffffff16815260200190815260200160002060009054906101000a900460ff16151514613f6e576040517f08c379a0000000000000000000000000000000000000000000000000000000008152600401613f6590614eed565b60405180910390fd5b613f82676bd8945df897d53d60c01b612f83565b613f9c565b613f9b6743d1ec25ed4b8bc960c01b612f83565b5b613fb0671b83c72a2f4883e960c01b612f83565b613fc4675db9ff110706774060c01b612f83565b613fcf838383612de7565b505050565b505050565b6000613ffa8473ffffffffffffffffffffffffffffffffffffffff1661431d565b15614163578373ffffffffffffffffffffffffffffffffffffffff1663150b7a02614023612ec2565b8786866040518563ffffffff1660e01b81526004016140459493929190614d44565b602060405180830381600087803b15801561405f57600080fd5b505af192505050801561409057506040513d601f19601f8201168201806040525081019061408d9190614715565b60015b614113573d80600081146140c0576040519150601f19603f3d011682016040523d82523d6000602084013e6140c5565b606091505b5060008151141561410b576040517f08c379a000000000000000000000000000000000000000000000000000000000815260040161410290614e0d565b60405180910390fd5b805181602001fd5b63150b7a0260e01b7bffffffffffffffffffffffffffffffffffffffffffffffffffffffff1916817bffffffffffffffffffffffffffffffffffffffffffffffffffffffff191614915050614168565b600190505b949350505050565b606060008214156141b8576040518060400160405280600181526020017f30000000000000000000000000000000000000000000000000000000000000008152509050614318565b600082905060005b600082146141ea5780806141d390615411565b915050600a826141e39190615293565b91506141c0565b60008167ffffffffffffffff81111561422c577f4e487b7100000000000000000000000000000000000000000000000000000000600052604160045260246000fd5b6040519080825280601f01601f19166020018201604052801561425e5781602001600182028036833780820191505090505b5090505b600085146143115760018261427791906152c4565b9150600a85614286919061545a565b6030614292919061523d565b60f81b8183815181106142ce577f4e487b7100000000000000000000000000000000000000000000000000000000600052603260045260246000fd5b60200101907effffffffffffffffffffffffffffffffffffffffffffffffffffffffffffff1916908160001a905350600a8561430a9190615293565b9450614262565b8093505050505b919050565b6000808273ffffffffffffffffffffffffffffffffffffffff163b119050919050565b82805461434c906153ae565b90600052602060002090601f01602090048101928261436e57600085556143b5565b82601f1061438757805160ff19168380011785556143b5565b828001600101855582156143b5579182015b828111156143b4578251825591602001919060010190614399565b5b5090506143c291906143c6565b5090565b5b808211156143df5760008160009055506001016143c7565b5090565b60006143f66143f18461518d565b615168565b90508281526020810184848401111561440e57600080fd5b61441984828561536c565b509392505050565b600061443461442f846151be565b615168565b90508281526020810184848401111561444c57600080fd5b61445784828561536c565b509392505050565b60008135905061446e81615db6565b92915050565b60008135905061448381615dcd565b92915050565b60008135905061449881615de4565b92915050565b6000815190506144ad81615de4565b92915050565b600082601f8301126144c457600080fd5b81356144d48482602086016143e3565b91505092915050565b600082601f8301126144ee57600080fd5b81356144fe848260208601614421565b91505092915050565b60008135905061451681615dfb565b92915050565b60006020828403121561452e57600080fd5b600061453c8482850161445f565b91505092915050565b6000806040838503121561455857600080fd5b60006145668582860161445f565b92505060206145778582860161445f565b9150509250929050565b60008060006060848603121561459657600080fd5b60006145a48682870161445f565b93505060206145b58682870161445f565b92505060406145c686828701614507565b9150509250925092565b600080600080608085870312156145e657600080fd5b60006145f48782880161445f565b94505060206146058782880161445f565b935050604061461687828801614507565b925050606085013567ffffffffffffffff81111561463357600080fd5b61463f878288016144b3565b91505092959194509250565b6000806040838503121561465e57600080fd5b600061466c8582860161445f565b925050602061467d85828601614474565b9150509250929050565b6000806040838503121561469a57600080fd5b60006146a88582860161445f565b92505060206146b985828601614507565b9150509250929050565b6000602082840312156146d557600080fd5b60006146e384828501614474565b91505092915050565b6000602082840312156146fe57600080fd5b600061470c84828501614489565b91505092915050565b60006020828403121561472757600080fd5b60006147358482850161449e565b91505092915050565b60006020828403121561475057600080fd5b600082013567ffffffffffffffff81111561476a57600080fd5b614776848285016144dd565b91505092915050565b60006020828403121561479157600080fd5b600061479f84828501614507565b91505092915050565b600080604083850312156147bb57600080fd5b60006147c985828601614507565b92505060206147da8582860161445f565b9150509250929050565b6147ed816152f8565b82525050565b6147fc8161530a565b82525050565b600061480d826151ef565b6148178185615205565b935061482781856020860161537b565b61483081615547565b840191505092915050565b6000614846826151fa565b6148508185615221565b935061486081856020860161537b565b61486981615547565b840191505092915050565b600061487f826151fa565b6148898185615232565b935061489981856020860161537b565b80840191505092915050565b60006148b2602583615221565b91506148bd82615558565b604082019050919050565b60006148d5604483615221565b91506148e0826155a7565b606082019050919050565b60006148f8603283615221565b91506149038261561c565b604082019050919050565b600061491b600483615221565b91506149268261566b565b602082019050919050565b600061493e604583615221565b915061494982615694565b606082019050919050565b6000614961602583615221565b915061496c82615709565b604082019050919050565b6000614984601c83615221565b915061498f82615758565b602082019050919050565b60006149a7602483615221565b91506149b282615781565b604082019050919050565b60006149ca601983615221565b91506149d5826157d0565b602082019050919050565b60006149ed604083615221565b91506149f8826157f9565b604082019050919050565b6000614a10600c83615221565b9150614a1b82615848565b602082019050919050565b6000614a33602c83615221565b9150614a3e82615871565b604082019050919050565b6000614a56603883615221565b9150614a61826158c0565b604082019050919050565b6000614a79602d83615221565b9150614a848261590f565b604082019050919050565b6000614a9c602a83615221565b9150614aa78261595e565b604082019050919050565b6000614abf602983615221565b9150614aca826159ad565b604082019050919050565b6000614ae2602083615221565b9150614aed826159fc565b602082019050919050565b6000614b05600783615232565b9150614b1082615a25565b600782019050919050565b6000614b28602c83615221565b9150614b3382615a4e565b604082019050919050565b6000614b4b604383615221565b9150614b5682615a9d565b606082019050919050565b6000614b6e602f83615221565b9150614b7982615b12565b604082019050919050565b6000614b91603083615221565b9150614b9c82615b61565b604082019050919050565b6000614bb4601883615221565b9150614bbf82615bb0565b602082019050919050565b6000614bd7602f83615221565b9150614be282615bd9565b604082019050919050565b6000614bfa602183615221565b9150614c0582615c28565b604082019050919050565b6000614c1d600083615216565b9150614c2882615c77565b600082019050919050565b6000614c40603283615221565b9150614c4b82615c7a565b604082019050919050565b6000614c63603183615221565b9150614c6e82615cc9565b604082019050919050565b6000614c86601783615221565b9150614c9182615d18565b602082019050919050565b6000614ca9604183615221565b9150614cb482615d41565b606082019050919050565b614cc881615362565b82525050565b6000614cda8285614874565b9150614ce68284614874565b91508190509392505050565b6000614cfe8284614874565b9150614d0982614af8565b915081905092915050565b6000614d1f82614c10565b9150819050919050565b6000602082019050614d3e60008301846147e4565b92915050565b6000608082019050614d5960008301876147e4565b614d6660208301866147e4565b614d736040830185614cbf565b8181036060830152614d858184614802565b905095945050505050565b6000602082019050614da560008301846147f3565b92915050565b60006020820190508181036000830152614dc5818461483b565b905092915050565b60006020820190508181036000830152614de6816148a5565b9050919050565b60006020820190508181036000830152614e06816148c8565b9050919050565b60006020820190508181036000830152614e26816148eb565b9050919050565b60006020820190508181036000830152614e468161490e565b9050919050565b60006020820190508181036000830152614e6681614931565b9050919050565b60006020820190508181036000830152614e8681614954565b9050919050565b60006020820190508181036000830152614ea681614977565b9050919050565b60006020820190508181036000830152614ec68161499a565b9050919050565b60006020820190508181036000830152614ee6816149bd565b9050919050565b60006020820190508181036000830152614f06816149e0565b9050919050565b60006020820190508181036000830152614f2681614a03565b9050919050565b60006020820190508181036000830152614f4681614a26565b9050919050565b60006020820190508181036000830152614f6681614a49565b9050919050565b60006020820190508181036000830152614f8681614a6c565b9050919050565b60006020820190508181036000830152614fa681614a8f565b9050919050565b60006020820190508181036000830152614fc681614ab2565b9050919050565b60006020820190508181036000830152614fe681614ad5565b9050919050565b6000602082019050818103600083015261500681614b1b565b9050919050565b6000602082019050818103600083015261502681614b3e565b9050919050565b6000602082019050818103600083015261504681614b61565b9050919050565b6000602082019050818103600083015261506681614b84565b9050919050565b6000602082019050818103600083015261508681614ba7565b9050919050565b600060208201905081810360008301526150a681614bca565b9050919050565b600060208201905081810360008301526150c681614bed565b9050919050565b600060208201905081810360008301526150e681614c33565b9050919050565b6000602082019050818103600083015261510681614c56565b9050919050565b6000602082019050818103600083015261512681614c79565b9050919050565b6000602082019050818103600083015261514681614c9c565b9050919050565b60006020820190506151626000830184614cbf565b92915050565b6000615172615183565b905061517e82826153e0565b919050565b6000604051905090565b600067ffffffffffffffff8211156151a8576151a7615518565b5b6151b182615547565b9050602081019050919050565b600067ffffffffffffffff8211156151d9576151d8615518565b5b6151e282615547565b9050602081019050919050565b600081519050919050565b600081519050919050565b600082825260208201905092915050565b600081905092915050565b600082825260208201905092915050565b600081905092915050565b600061524882615362565b915061525383615362565b9250827fffffffffffffffffffffffffffffffffffffffffffffffffffffffffffffffff038211156152885761528761548b565b5b828201905092915050565b600061529e82615362565b91506152a983615362565b9250826152b9576152b86154ba565b5b828204905092915050565b60006152cf82615362565b91506152da83615362565b9250828210156152ed576152ec61548b565b5b828203905092915050565b600061530382615342565b9050919050565b60008115159050919050565b60007fffffffff0000000000000000000000000000000000000000000000000000000082169050919050565b600073ffffffffffffffffffffffffffffffffffffffff82169050919050565b6000819050919050565b82818337600083830152505050565b60005b8381101561539957808201518184015260208101905061537e565b838111156153a8576000848401525b50505050565b600060028204905060018216806153c657607f821691505b602082108114156153da576153d96154e9565b5b50919050565b6153e982615547565b810181811067ffffffffffffffff8211171561540857615407615518565b5b80604052505050565b600061541c82615362565b91507fffffffffffffffffffffffffffffffffffffffffffffffffffffffffffffffff82141561544f5761544e61548b565b5b600182019050919050565b600061546582615362565b915061547083615362565b9250826154805761547f6154ba565b5b828206905092915050565b7f4e487b7100000000000000000000000000000000000000000000000000000000600052601160045260246000fd5b7f4e487b7100000000000000000000000000000000000000000000000000000000600052601260045260246000fd5b7f4e487b7100000000000000000000000000000000000000000000000000000000600052602260045260246000fd5b7f4e487b7100000000000000000000000000000000000000000000000000000000600052604160045260246000fd5b6000601f19601f8301169050919050565b7f7a706d4020736179733a207769746864726177206661696c65642c207265766560008201527f7274696e67000000000000000000000000000000000000000000000000000000602082015250565b7f596f7520686176652067726561742074617374653b20736f6d656f6e6520656c60008201527f73652068617320616c7265616479206d696e74656420796f7572206661766f7260208201527f6974652e00000000000000000000000000000000000000000000000000000000604082015250565b7f4552433732313a207472616e7366657220746f206e6f6e20455243373231526560008201527f63656976657220696d706c656d656e7465720000000000000000000000000000602082015250565b7f534f4f4e00000000000000000000000000000000000000000000000000000000600082015250565b7f416c6c6f776c697374696e672069736e277420656e61626c65642e205069636b60008201527f696e67206661766f72697465732069732061207468696e67206f66207468652060208201527f706173742e000000000000000000000000000000000000000000000000000000604082015250565b7f4552433732313a207472616e736665722066726f6d20696e636f72726563742060008201527f6f776e6572000000000000000000000000000000000000000000000000000000602082015250565b7f4552433732313a20746f6b656e20616c7265616479206d696e74656400000000600082015250565b7f4552433732313a207472616e7366657220746f20746865207a65726f2061646460008201527f7265737300000000000000000000000000000000000000000000000000000000602082015250565b7f4552433732313a20617070726f766520746f2063616c6c657200000000000000600082015250565b7f4f6e6c79204d7574616e7420417572656c6975732063616e20626573746f772060008201527f6f776e657220686973206661766f722075706f6e20746865206d61737365732e602082015250565b7f4e4f4e4520464f5220594f550000000000000000000000000000000000000000600082015250565b7f4552433732313a206f70657261746f7220717565727920666f72206e6f6e657860008201527f697374656e7420746f6b656e0000000000000000000000000000000000000000602082015250565b7f4552433732313a20617070726f76652063616c6c6572206973206e6f74206f7760008201527f6e6572206e6f7220617070726f76656420666f7220616c6c0000000000000000602082015250565b7f4d616e79206861766520636f6d65206265666f726520796f752e20546f6f206d60008201527f616e792c20696e20666163742e00000000000000000000000000000000000000602082015250565b7f4552433732313a2062616c616e636520717565727920666f7220746865207a6560008201527f726f206164647265737300000000000000000000000000000000000000000000602082015250565b7f4552433732313a206f776e657220717565727920666f72206e6f6e657869737460008201527f656e7420746f6b656e0000000000000000000000000000000000000000000000602082015250565b7f4552433732313a206d696e7420746f20746865207a65726f2061646472657373600082015250565b7f6d656d656e746f00000000000000000000000000000000000000000000000000600082015250565b7f4552433732313a20617070726f76656420717565727920666f72206e6f6e657860008201527f697374656e7420746f6b656e0000000000000000000000000000000000000000602082015250565b7f404d7574616e74417572656c697573202d20636865636b20796f757220746f6b60008201527f656e20494420616761696e2e20536f6d657468696e672069736e27742072696760208201527f68742e0000000000000000000000000000000000000000000000000000000000604082015250565b7f4552433732314d657461646174613a2055524920717565727920666f72206e6f60008201527f6e6578697374656e7420746f6b656e0000000000000000000000000000000000602082015250565b7f4f6e652063616e20706c65646765206f6e652773206c6f79616c7479206f6e6c60008201527f7920736f206d616e792074696d65732e00000000000000000000000000000000602082015250565b7f4552433732313a20696e76616c696420746f6b656e2049440000000000000000600082015250565b7f596f7527726520747279696e6720746f206d696e7420616e204175726575732060008201527f6f75747369646520746865207365740000000000000000000000000000000000602082015250565b7f4552433732313a20617070726f76616c20746f2063757272656e74206f776e6560008201527f7200000000000000000000000000000000000000000000000000000000000000602082015250565b50565b7f496d706f73746f727320746f20746865207468726f6e6520656d62617272617360008201527f73206f6e6c79207468656d73656c7665732e0000000000000000000000000000602082015250565b7f4552433732313a207472616e736665722063616c6c6572206973206e6f74206f60008201527f776e6572206e6f7220617070726f766564000000000000000000000000000000602082015250565b7f596f75277265206e6f74206f6e20746865206c6973742e000000000000000000600082015250565b7f7a706d4020736179733a20646f6e277420776173746520796f7572206761732060008201527f747279696e6720746f2077697468647261772061207a65726f2062616c616e6360208201527f6500000000000000000000000000000000000000000000000000000000000000604082015250565b615dbf816152f8565b8114615dca57600080fd5b50565b615dd68161530a565b8114615de157600080fd5b50565b615ded81615316565b8114615df857600080fd5b50565b615e0481615362565b8114615e0f57600080fd5b5056fea26469706673582212202cdf80e9d8184cf0b7a6a50e944367b02988f14e7cf4a0b92ee5904ac2e81c6b64736f6c63430008040033","opcodes":"PUSH1 0x80 PUSH1 0x40 MSTORE PUSH1 0x1 PUSH1 0x9 SSTORE PUSH2 0x378 PUSH1 0xA SSTORE PUSH1 0x7 PUSH1 0xB SSTORE CALLVALUE DUP1 ISZERO PUSH3 0x21 JUMPI PUSH1 0x0 DUP1 REVERT JUMPDEST POP PUSH1 0x40 MLOAD DUP1 PUSH1 0x40 ADD PUSH1 0x40 MSTORE DUP1 PUSH1 0x15 DUP2 MSTORE PUSH1 0x20 ADD PUSH32 0x4D7574616E7420417572656C6975732041757265690000000000000000000000 DUP2 MSTORE POP PUSH1 0x40 MLOAD DUP1 PUSH1 0x40 ADD PUSH1 0x40 MSTORE DUP1 PUSH1 0x3 DUP2 MSTORE PUSH1 0x20 ADD PUSH32 0x4D41410000000000000000000000000000000000000000000000000000000000 DUP2 MSTORE POP DUP2 PUSH1 0x0 SWAP1 DUP1 MLOAD SWAP1 PUSH1 0x20 ADD SWAP1 PUSH3 0xA6 SWAP3 SWAP2 SWAP1 PUSH3 0x101F JUMP JUMPDEST POP DUP1 PUSH1 0x1 SWAP1 DUP1 MLOAD SWAP1 PUSH1 0x20 ADD SWAP1 PUSH3 0xBF SWAP3 SWAP2 SWAP1 PUSH3 0x101F JUMP JUMPDEST POP POP POP PUSH3 0xDE PUSH8 0xE0D8F64C35B46626 PUSH1 0xC0 SHL PUSH3 0x54E PUSH1 0x20 SHL PUSH1 0x20 SHR JUMP JUMPDEST PUSH3 0xFA PUSH8 0x8D8E65EE42CF04F7 PUSH1 0xC0 SHL PUSH3 0x54E PUSH1 0x20 SHL PUSH1 0x20 SHR JUMP JUMPDEST PUSH1 0x40 MLOAD DUP1 PUSH1 0x40 ADD PUSH1 0x40 MSTORE DUP1 PUSH1 0x12 DUP2 MSTORE PUSH1 0x20 ADD PUSH32 0x697066733A2F2F6C6F72656D697073756D2F0000000000000000000000000000 DUP2 MSTORE POP PUSH1 0xC SWAP1 DUP1 MLOAD SWAP1 PUSH1 0x20 ADD SWAP1 PUSH3 0x147 SWAP3 SWAP2 SWAP1 PUSH3 0x101F JUMP JUMPDEST POP PUSH3 0x164 PUSH8 0xD66EF6945B1023ED PUSH1 0xC0 SHL PUSH3 0x54E PUSH1 0x20 SHL PUSH1 0x20 SHR JUMP JUMPDEST CALLER PUSH1 0xD PUSH1 0x2 PUSH2 0x100 EXP DUP2 SLOAD DUP2 PUSH20 0xFFFFFFFFFFFFFFFFFFFFFFFFFFFFFFFFFFFFFFFF MUL NOT AND SWAP1 DUP4 PUSH20 0xFFFFFFFFFFFFFFFFFFFFFFFFFFFFFFFFFFFFFFFF AND MUL OR SWAP1 SSTORE POP PUSH3 0x1C1 PUSH8 0xC5E9175AB5631D22 PUSH1 0xC0 SHL PUSH3 0x54E PUSH1 0x20 SHL PUSH1 0x20 SHR JUMP JUMPDEST PUSH1 0x1 PUSH1 0xE PUSH1 0x0 PUSH20 0x7D4C4D5380CA2F9C7A091BB622B80613DA7EAE8C PUSH20 0xFFFFFFFFFFFFFFFFFFFFFFFFFFFFFFFFFFFFFFFF AND PUSH20 0xFFFFFFFFFFFFFFFFFFFFFFFFFFFFFFFFFFFFFFFF AND DUP2 MSTORE PUSH1 0x20 ADD SWAP1 DUP2 MSTORE PUSH1 0x20 ADD PUSH1 0x0 KECCAK256 PUSH1 0x0 PUSH2 0x100 EXP DUP2 SLOAD DUP2 PUSH1 0xFF MUL NOT AND SWAP1 DUP4 ISZERO ISZERO MUL OR SWAP1 SSTORE POP PUSH3 0x249 PUSH8 0xE087E08251ACD615 PUSH1 0xC0 SHL PUSH3 0x54E PUSH1 0x20 SHL PUSH1 0x20 SHR JUMP JUMPDEST PUSH1 0x1 PUSH1 0xE PUSH1 0x0 PUSH20 0x385375FD99D6019C630B1315D3815BB162AA039E PUSH20 0xFFFFFFFFFFFFFFFFFFFFFFFFFFFFFFFFFFFFFFFF AND PUSH20 0xFFFFFFFFFFFFFFFFFFFFFFFFFFFFFFFFFFFFFFFF AND DUP2 MSTORE PUSH1 0x20 ADD SWAP1 DUP2 MSTORE PUSH1 0x20 ADD PUSH1 0x0 KECCAK256 PUSH1 0x0 PUSH2 0x100 EXP DUP2 SLOAD DUP2 PUSH1 0xFF MUL NOT AND SWAP1 DUP4 ISZERO ISZERO MUL OR SWAP1 SSTORE POP PUSH3 0x2D1 PUSH8 0x44F7115E5F33454A PUSH1 0xC0 SHL PUSH3 0x54E PUSH1 0x20 SHL PUSH1 0x20 SHR JUMP JUMPDEST PUSH1 0x1 PUSH1 0xE PUSH1 0x0 PUSH20 0x90F79BF6EB2C4F870365E785982E1F101E93B906 PUSH20 0xFFFFFFFFFFFFFFFFFFFFFFFFFFFFFFFFFFFFFFFF AND PUSH20 0xFFFFFFFFFFFFFFFFFFFFFFFFFFFFFFFFFFFFFFFF AND DUP2 MSTORE PUSH1 0x20 ADD SWAP1 DUP2 MSTORE PUSH1 0x20 ADD PUSH1 0x0 KECCAK256 PUSH1 0x0 PUSH2 0x100 EXP DUP2 SLOAD DUP2 PUSH1 0xFF MUL NOT AND SWAP1 DUP4 ISZERO ISZERO MUL OR SWAP1 SSTORE POP PUSH3 0x359 PUSH8 0xD63242095C39F4ED PUSH1 0xC0 SHL PUSH3 0x54E PUSH1 0x20 SHL PUSH1 0x20 SHR JUMP JUMPDEST PUSH1 0x1 PUSH1 0x10 PUSH1 0x0 PUSH1 0xD PUSH1 0x2 SWAP1 SLOAD SWAP1 PUSH2 0x100 EXP SWAP1 DIV PUSH20 0xFFFFFFFFFFFFFFFFFFFFFFFFFFFFFFFFFFFFFFFF AND PUSH20 0xFFFFFFFFFFFFFFFFFFFFFFFFFFFFFFFFFFFFFFFF AND PUSH20 0xFFFFFFFFFFFFFFFFFFFFFFFFFFFFFFFFFFFFFFFF AND DUP2 MSTORE PUSH1 0x20 ADD SWAP1 DUP2 MSTORE PUSH1 0x20 ADD PUSH1 0x0 KECCAK256 PUSH1 0x0 PUSH2 0x100 EXP DUP2 SLOAD DUP2 PUSH1 0xFF MUL NOT AND SWAP1 DUP4 ISZERO ISZERO MUL OR SWAP1 SSTORE POP PUSH3 0x3EF PUSH8 0xA3D4A0069CF509D3 PUSH1 0xC0 SHL PUSH3 0x54E PUSH1 0x20 SHL PUSH1 0x20 SHR JUMP JUMPDEST PUSH1 0x1 PUSH1 0x10 PUSH1 0x0 PUSH20 0x5A97D44DE4FE69E194541A4D78DB37218872D859 PUSH20 0xFFFFFFFFFFFFFFFFFFFFFFFFFFFFFFFFFFFFFFFF AND PUSH20 0xFFFFFFFFFFFFFFFFFFFFFFFFFFFFFFFFFFFFFFFF AND DUP2 MSTORE PUSH1 0x20 ADD SWAP1 DUP2 MSTORE PUSH1 0x20 ADD PUSH1 0x0 KECCAK256 PUSH1 0x0 PUSH2 0x100 EXP DUP2 SLOAD DUP2 PUSH1 0xFF MUL NOT AND SWAP1 DUP4 ISZERO ISZERO MUL OR SWAP1 SSTORE POP PUSH3 0x477 PUSH8 0x90EA1E812E551019 PUSH1 0xC0 SHL PUSH3 0x54E PUSH1 0x20 SHL PUSH1 0x20 SHR JUMP JUMPDEST PUSH1 0x0 PUSH1 0xD PUSH1 0x0 PUSH2 0x100 EXP DUP2 SLOAD DUP2 PUSH1 0xFF MUL NOT AND SWAP1 DUP4 ISZERO ISZERO MUL OR SWAP1 SSTORE POP PUSH3 0x4AE PUSH8 0xA2B0084584F9A7E4 PUSH1 0xC0 SHL PUSH3 0x54E PUSH1 0x20 SHL PUSH1 0x20 SHR JUMP JUMPDEST PUSH1 0x1 PUSH1 0xD PUSH1 0x1 PUSH2 0x100 EXP DUP2 SLOAD DUP2 PUSH1 0xFF MUL NOT AND SWAP1 DUP4 ISZERO ISZERO MUL OR SWAP1 SSTORE POP PUSH3 0x4E5 PUSH8 0x5974744348234CFE PUSH1 0xC0 SHL PUSH3 0x54E PUSH1 0x20 SHL PUSH1 0x20 SHR JUMP JUMPDEST PUSH3 0x501 PUSH8 0xCA50876ACD343218 PUSH1 0xC0 SHL PUSH3 0x54E PUSH1 0x20 SHL PUSH1 0x20 SHR JUMP JUMPDEST PUSH3 0x511 PUSH3 0x551 PUSH1 0x20 SHL PUSH1 0x20 SHR JUMP JUMPDEST PUSH3 0x52D PUSH8 0x56A9294783D9AC63 PUSH1 0xC0 SHL PUSH3 0x54E PUSH1 0x20 SHL PUSH1 0x20 SHR JUMP JUMPDEST PUSH1 0x1 PUSH1 0xD PUSH1 0x0 PUSH2 0x100 EXP DUP2 SLOAD DUP2 PUSH1 0xFF MUL NOT AND SWAP1 DUP4 ISZERO ISZERO MUL OR SWAP1 SSTORE POP PUSH3 0x1489 JUMP JUMPDEST POP JUMP JUMPDEST PUSH3 0x56D PUSH8 0x64577B37ABE5EA1B PUSH1 0xC0 SHL PUSH3 0x54E PUSH1 0x20 SHL PUSH1 0x20 SHR JUMP JUMPDEST PUSH3 0x589 PUSH8 0xCC29FD2A0A061CB8 PUSH1 0xC0 SHL PUSH3 0x54E PUSH1 0x20 SHL PUSH1 0x20 SHR JUMP JUMPDEST PUSH3 0x5A5 PUSH8 0x3408EF2217DF15D1 PUSH1 0xC0 SHL PUSH3 0x54E PUSH1 0x20 SHL PUSH1 0x20 SHR JUMP JUMPDEST PUSH3 0x5C1 PUSH8 0x6CD6D473D23FB663 PUSH1 0xC0 SHL PUSH3 0x54E PUSH1 0x20 SHL PUSH1 0x20 SHR JUMP JUMPDEST PUSH1 0xD PUSH1 0x0 SWAP1 SLOAD SWAP1 PUSH2 0x100 EXP SWAP1 DIV PUSH1 0xFF AND ISZERO PUSH3 0x614 JUMPI PUSH1 0x40 MLOAD PUSH32 0x8C379A000000000000000000000000000000000000000000000000000000000 DUP2 MSTORE PUSH1 0x4 ADD PUSH3 0x60B SWAP1 PUSH3 0x1192 JUMP JUMPDEST PUSH1 0x40 MLOAD DUP1 SWAP2 SUB SWAP1 REVERT JUMPDEST PUSH3 0x630 PUSH8 0x36E80D77E1908C75 PUSH1 0xC0 SHL PUSH3 0x54E PUSH1 0x20 SHL PUSH1 0x20 SHR JUMP JUMPDEST PUSH3 0x64C PUSH8 0xAFB7F0556A84254F PUSH1 0xC0 SHL PUSH3 0x54E PUSH1 0x20 SHL PUSH1 0x20 SHR JUMP JUMPDEST PUSH3 0x668 PUSH8 0x696846D90C5B70DD PUSH1 0xC0 SHL PUSH3 0x54E PUSH1 0x20 SHL PUSH1 0x20 SHR JUMP JUMPDEST PUSH1 0x0 PUSH1 0x1 SWAP1 POP JUMPDEST PUSH1 0xB SLOAD DUP2 GT PUSH3 0x799 JUMPI PUSH3 0x695 PUSH8 0x61F4F5242CBF82A9 PUSH1 0xC0 SHL PUSH3 0x54E PUSH1 0x20 SHL PUSH1 0x20 SHR JUMP JUMPDEST PUSH3 0x6B1 PUSH8 0x5E8407BDD9820414 PUSH1 0xC0 SHL PUSH3 0x54E PUSH1 0x20 SHL PUSH1 0x20 SHR JUMP JUMPDEST PUSH3 0x6C8 PUSH1 0x6 PUSH3 0x859 PUSH1 0x20 SHL PUSH3 0x2DD1 OR PUSH1 0x20 SHR JUMP JUMPDEST PUSH3 0x6E4 PUSH8 0xE6D07700D4A3EC37 PUSH1 0xC0 SHL PUSH3 0x54E PUSH1 0x20 SHL PUSH1 0x20 SHR JUMP JUMPDEST PUSH3 0x700 PUSH8 0xDE6693AADF5000C7 PUSH1 0xC0 SHL PUSH3 0x54E PUSH1 0x20 SHL PUSH1 0x20 SHR JUMP JUMPDEST PUSH3 0x717 PUSH1 0x8 PUSH3 0x859 PUSH1 0x20 SHL PUSH3 0x2DD1 OR PUSH1 0x20 SHR JUMP JUMPDEST PUSH3 0x733 PUSH8 0x722E1638F836AD53 PUSH1 0xC0 SHL PUSH3 0x54E PUSH1 0x20 SHL PUSH1 0x20 SHR JUMP JUMPDEST PUSH3 0x74F PUSH8 0x3A4CCAB9C1DBABFE PUSH1 0xC0 SHL PUSH3 0x54E PUSH1 0x20 SHL PUSH1 0x20 SHR JUMP JUMPDEST PUSH3 0x783 PUSH1 0xD PUSH1 0x2 SWAP1 SLOAD SWAP1 PUSH2 0x100 EXP SWAP1 DIV PUSH20 0xFFFFFFFFFFFFFFFFFFFFFFFFFFFFFFFFFFFFFFFF AND DUP3 PUSH3 0x86F PUSH1 0x20 SHL PUSH1 0x20 SHR JUMP JUMPDEST DUP1 DUP1 PUSH3 0x790 SWAP1 PUSH3 0x12EA JUMP JUMPDEST SWAP2 POP POP PUSH3 0x66F JUMP JUMPDEST POP PUSH3 0x7B6 PUSH8 0xF0070A58D9A3BDD0 PUSH1 0xC0 SHL PUSH3 0x54E PUSH1 0x20 SHL PUSH1 0x20 SHR JUMP JUMPDEST PUSH3 0x7D2 PUSH8 0xF968DBBC425B18E2 PUSH1 0xC0 SHL PUSH3 0x54E PUSH1 0x20 SHL PUSH1 0x20 SHR JUMP JUMPDEST PUSH3 0x7E9 PUSH1 0x8 PUSH3 0x859 PUSH1 0x20 SHL PUSH3 0x2DD1 OR PUSH1 0x20 SHR JUMP JUMPDEST PUSH3 0x805 PUSH8 0x3037E111F582648F PUSH1 0xC0 SHL PUSH3 0x54E PUSH1 0x20 SHL PUSH1 0x20 SHR JUMP JUMPDEST PUSH3 0x821 PUSH8 0xB7523DD4A2BF6651 PUSH1 0xC0 SHL PUSH3 0x54E PUSH1 0x20 SHL PUSH1 0x20 SHR JUMP JUMPDEST PUSH3 0x857 PUSH1 0xD PUSH1 0x2 SWAP1 SLOAD SWAP1 PUSH2 0x100 EXP SWAP1 DIV PUSH20 0xFFFFFFFFFFFFFFFFFFFFFFFFFFFFFFFFFFFFFFFF AND PUSH2 0x378 PUSH3 0x86F PUSH1 0x20 SHL PUSH1 0x20 SHR JUMP JUMPDEST JUMP JUMPDEST PUSH1 0x1 DUP2 PUSH1 0x0 ADD PUSH1 0x0 DUP3 DUP3 SLOAD ADD SWAP3 POP POP DUP2 SWAP1 SSTORE POP POP JUMP JUMPDEST PUSH1 0x0 PUSH20 0xFFFFFFFFFFFFFFFFFFFFFFFFFFFFFFFFFFFFFFFF AND DUP3 PUSH20 0xFFFFFFFFFFFFFFFFFFFFFFFFFFFFFFFFFFFFFFFF AND EQ ISZERO PUSH3 0x8E2 JUMPI PUSH1 0x40 MLOAD PUSH32 0x8C379A000000000000000000000000000000000000000000000000000000000 DUP2 MSTORE PUSH1 0x4 ADD PUSH3 0x8D9 SWAP1 PUSH3 0x121A JUMP JUMPDEST PUSH1 0x40 MLOAD DUP1 SWAP2 SUB SWAP1 REVERT JUMPDEST PUSH3 0x8F3 DUP2 PUSH3 0xA69 PUSH1 0x20 SHL PUSH1 0x20 SHR JUMP JUMPDEST ISZERO PUSH3 0x936 JUMPI PUSH1 0x40 MLOAD PUSH32 0x8C379A000000000000000000000000000000000000000000000000000000000 DUP2 MSTORE PUSH1 0x4 ADD PUSH3 0x92D SWAP1 PUSH3 0x11B4 JUMP JUMPDEST PUSH1 0x40 MLOAD DUP1 SWAP2 SUB SWAP1 REVERT JUMPDEST PUSH3 0x94A PUSH1 0x0 DUP4 DUP4 PUSH3 0xAD5 PUSH1 0x20 SHL PUSH1 0x20 SHR JUMP JUMPDEST PUSH1 0x1 PUSH1 0x3 PUSH1 0x0 DUP5 PUSH20 0xFFFFFFFFFFFFFFFFFFFFFFFFFFFFFFFFFFFFFFFF AND PUSH20 0xFFFFFFFFFFFFFFFFFFFFFFFFFFFFFFFFFFFFFFFF AND DUP2 MSTORE PUSH1 0x20 ADD SWAP1 DUP2 MSTORE PUSH1 0x20 ADD PUSH1 0x0 KECCAK256 PUSH1 0x0 DUP3 DUP3 SLOAD PUSH3 0x99C SWAP2 SWAP1 PUSH3 0x124D JUMP JUMPDEST SWAP3 POP POP DUP2 SWAP1 SSTORE POP DUP2 PUSH1 0x2 PUSH1 0x0 DUP4 DUP2 MSTORE PUSH1 0x20 ADD SWAP1 DUP2 MSTORE PUSH1 0x20 ADD PUSH1 0x0 KECCAK256 PUSH1 0x0 PUSH2 0x100 EXP DUP2 SLOAD DUP2 PUSH20 0xFFFFFFFFFFFFFFFFFFFFFFFFFFFFFFFFFFFFFFFF MUL NOT AND SWAP1 DUP4 PUSH20 0xFFFFFFFFFFFFFFFFFFFFFFFFFFFFFFFFFFFFFFFF AND MUL OR SWAP1 SSTORE POP DUP1 DUP3 PUSH20 0xFFFFFFFFFFFFFFFFFFFFFFFFFFFFFFFFFFFFFFFF AND PUSH1 0x0 PUSH20 0xFFFFFFFFFFFFFFFFFFFFFFFFFFFFFFFFFFFFFFFF AND PUSH32 0xDDF252AD1BE2C89B69C2B068FC378DAA952BA7F163C4A11628F55A4DF523B3EF PUSH1 0x40 MLOAD PUSH1 0x40 MLOAD DUP1 SWAP2 SUB SWAP1 LOG4 PUSH3 0xA65 PUSH1 0x0 DUP4 DUP4 PUSH3 0xEA4 PUSH1 0x20 SHL PUSH1 0x20 SHR JUMP JUMPDEST POP POP JUMP JUMPDEST PUSH1 0x0 DUP1 PUSH20 0xFFFFFFFFFFFFFFFFFFFFFFFFFFFFFFFFFFFFFFFF AND PUSH1 0x2 PUSH1 0x0 DUP5 DUP2 MSTORE PUSH1 0x20 ADD SWAP1 DUP2 MSTORE PUSH1 0x20 ADD PUSH1 0x0 KECCAK256 PUSH1 0x0 SWAP1 SLOAD SWAP1 PUSH2 0x100 EXP SWAP1 DIV PUSH20 0xFFFFFFFFFFFFFFFFFFFFFFFFFFFFFFFFFFFFFFFF AND PUSH20 0xFFFFFFFFFFFFFFFFFFFFFFFFFFFFFFFFFFFFFFFF AND EQ ISZERO SWAP1 POP SWAP2 SWAP1 POP JUMP JUMPDEST PUSH3 0xAF1 PUSH8 0x6E2413C8DB62A0D PUSH1 0xC0 SHL PUSH3 0x54E PUSH1 0x20 SHL PUSH1 0x20 SHR JUMP JUMPDEST PUSH3 0xB0D PUSH8 0xD8A6155B83A7B8BF PUSH1 0xC0 SHL PUSH3 0x54E PUSH1 0x20 SHL PUSH1 0x20 SHR JUMP JUMPDEST PUSH3 0xB29 PUSH8 0x289926B19EE2957 PUSH1 0xC0 SHL PUSH3 0x54E PUSH1 0x20 SHL PUSH1 0x20 SHR JUMP JUMPDEST PUSH3 0xB45 PUSH8 0x8BDA343A6C5DA59F PUSH1 0xC0 SHL PUSH3 0x54E PUSH1 0x20 SHL PUSH1 0x20 SHR JUMP JUMPDEST PUSH1 0xD PUSH1 0x0 SWAP1 SLOAD SWAP1 PUSH2 0x100 EXP SWAP1 DIV PUSH1 0xFF AND ISZERO PUSH3 0xB98 JUMPI PUSH1 0x40 MLOAD PUSH32 0x8C379A000000000000000000000000000000000000000000000000000000000 DUP2 MSTORE PUSH1 0x4 ADD PUSH3 0xB8F SWAP1 PUSH3 0x1192 JUMP JUMPDEST PUSH1 0x40 MLOAD DUP1 SWAP2 SUB SWAP1 REVERT JUMPDEST PUSH3 0xBB4 PUSH8 0x410593F454FFE1A6 PUSH1 0xC0 SHL PUSH3 0x54E PUSH1 0x20 SHL PUSH1 0x20 SHR JUMP JUMPDEST PUSH3 0xBD0 PUSH8 0xADD512FF733A2133 PUSH1 0xC0 SHL PUSH3 0x54E PUSH1 0x20 SHL PUSH1 0x20 SHR JUMP JUMPDEST PUSH3 0xBEC PUSH8 0x8BD20B26A03BCB34 PUSH1 0xC0 SHL PUSH3 0x54E PUSH1 0x20 SHL PUSH1 0x20 SHR JUMP JUMPDEST PUSH3 0xC08 PUSH8 0x26D4F04165FB5126 PUSH1 0xC0 SHL PUSH3 0x54E PUSH1 0x20 SHL PUSH1 0x20 SHR JUMP JUMPDEST PUSH1 0x1 ISZERO ISZERO PUSH1 0xE PUSH1 0x0 DUP5 PUSH20 0xFFFFFFFFFFFFFFFFFFFFFFFFFFFFFFFFFFFFFFFF AND PUSH20 0xFFFFFFFFFFFFFFFFFFFFFFFFFFFFFFFFFFFFFFFF AND DUP2 MSTORE PUSH1 0x20 ADD SWAP1 DUP2 MSTORE PUSH1 0x20 ADD PUSH1 0x0 KECCAK256 PUSH1 0x0 SWAP1 SLOAD SWAP1 PUSH2 0x100 EXP SWAP1 DIV PUSH1 0xFF AND ISZERO ISZERO EQ ISZERO PUSH3 0xC9F JUMPI PUSH1 0x40 MLOAD PUSH32 0x8C379A000000000000000000000000000000000000000000000000000000000 DUP2 MSTORE PUSH1 0x4 ADD PUSH3 0xC96 SWAP1 PUSH3 0x11F8 JUMP JUMPDEST PUSH1 0x40 MLOAD DUP1 SWAP2 SUB SWAP1 REVERT JUMPDEST PUSH3 0xCBB PUSH8 0x1A57195BFBBFD857 PUSH1 0xC0 SHL PUSH3 0x54E PUSH1 0x20 SHL PUSH1 0x20 SHR JUMP JUMPDEST PUSH3 0xCD7 PUSH8 0x4F8D154721CF2180 PUSH1 0xC0 SHL PUSH3 0x54E PUSH1 0x20 SHL PUSH1 0x20 SHR JUMP JUMPDEST PUSH3 0xCF3 PUSH8 0xDD90CACFA3257572 PUSH1 0xC0 SHL PUSH3 0x54E PUSH1 0x20 SHL PUSH1 0x20 SHR JUMP JUMPDEST PUSH3 0xD04 DUP2 PUSH3 0xEA9 PUSH1 0x20 SHL PUSH1 0x20 SHR JUMP JUMPDEST ISZERO PUSH3 0xE32 JUMPI PUSH3 0xD26 PUSH8 0xF52530B2924DE718 PUSH1 0xC0 SHL PUSH3 0x54E PUSH1 0x20 SHL PUSH1 0x20 SHR JUMP JUMPDEST PUSH3 0xD42 PUSH8 0x5A166A71374CA313 PUSH1 0xC0 SHL PUSH3 0x54E PUSH1 0x20 SHL PUSH1 0x20 SHR JUMP JUMPDEST PUSH3 0xD5E PUSH8 0xEF3985C130449D0 PUSH1 0xC0 SHL PUSH3 0x54E PUSH1 0x20 SHL PUSH1 0x20 SHR JUMP JUMPDEST PUSH3 0xD7A PUSH8 0x99B124B3F8CD4943 PUSH1 0xC0 SHL PUSH3 0x54E PUSH1 0x20 SHL PUSH1 0x20 SHR JUMP JUMPDEST PUSH1 0x1 ISZERO ISZERO PUSH1 0x10 PUSH1 0x0 CALLER PUSH20 0xFFFFFFFFFFFFFFFFFFFFFFFFFFFFFFFFFFFFFFFF AND PUSH20 0xFFFFFFFFFFFFFFFFFFFFFFFFFFFFFFFFFFFFFFFF AND DUP2 MSTORE PUSH1 0x20 ADD SWAP1 DUP2 MSTORE PUSH1 0x20 ADD PUSH1 0x0 KECCAK256 PUSH1 0x0 SWAP1 SLOAD SWAP1 PUSH2 0x100 EXP SWAP1 DIV PUSH1 0xFF AND ISZERO ISZERO EQ PUSH3 0xE10 JUMPI PUSH1 0x40 MLOAD PUSH32 0x8C379A000000000000000000000000000000000000000000000000000000000 DUP2 MSTORE PUSH1 0x4 ADD PUSH3 0xE07 SWAP1 PUSH3 0x11D6 JUMP JUMPDEST PUSH1 0x40 MLOAD DUP1 SWAP2 SUB SWAP1 REVERT JUMPDEST PUSH3 0xE2C PUSH8 0x6BD8945DF897D53D PUSH1 0xC0 SHL PUSH3 0x54E PUSH1 0x20 SHL PUSH1 0x20 SHR JUMP JUMPDEST PUSH3 0xE4F JUMP JUMPDEST PUSH3 0xE4E PUSH8 0x43D1EC25ED4B8BC9 PUSH1 0xC0 SHL PUSH3 0x54E PUSH1 0x20 SHL PUSH1 0x20 SHR JUMP JUMPDEST JUMPDEST PUSH3 0xE6B PUSH8 0x1B83C72A2F4883E9 PUSH1 0xC0 SHL PUSH3 0x54E PUSH1 0x20 SHL PUSH1 0x20 SHR JUMP JUMPDEST PUSH3 0xE87 PUSH8 0x5DB9FF1107067740 PUSH1 0xC0 SHL PUSH3 0x54E PUSH1 0x20 SHL PUSH1 0x20 SHR JUMP JUMPDEST PUSH3 0xE9F DUP4 DUP4 DUP4 PUSH3 0x100F PUSH1 0x20 SHL PUSH3 0x2DE7 OR PUSH1 0x20 SHR JUMP JUMPDEST POP POP POP JUMP JUMPDEST POP POP POP JUMP JUMPDEST PUSH1 0x0 PUSH3 0xEC7 PUSH8 0xF20F3D1319D9885B PUSH1 0xC0 SHL PUSH3 0x54E PUSH1 0x20 SHL PUSH1 0x20 SHR JUMP JUMPDEST PUSH3 0xEE3 PUSH8 0xC3D4CA910E00E2F6 PUSH1 0xC0 SHL PUSH3 0x54E PUSH1 0x20 SHL PUSH1 0x20 SHR JUMP JUMPDEST PUSH3 0xEFF PUSH8 0x6561AFC9F49DF322 PUSH1 0xC0 SHL PUSH3 0x54E PUSH1 0x20 SHL PUSH1 0x20 SHR JUMP JUMPDEST PUSH1 0x0 DUP3 GT DUP1 ISZERO PUSH3 0xF12 JUMPI POP PUSH1 0xB SLOAD DUP3 GT ISZERO JUMPDEST DUP1 ISZERO PUSH3 0xF37 JUMPI POP PUSH3 0xF36 PUSH8 0x10C53AF39164EB5D PUSH1 0xC0 SHL PUSH3 0x1014 PUSH1 0x20 SHL PUSH1 0x20 SHR JUMP JUMPDEST JUMPDEST DUP1 PUSH3 0xF69 JUMPI POP PUSH2 0x378 DUP3 EQ DUP1 ISZERO PUSH3 0xF68 JUMPI POP PUSH3 0xF67 PUSH8 0x4B2FE09683E6711E PUSH1 0xC0 SHL PUSH3 0x1014 PUSH1 0x20 SHL PUSH1 0x20 SHR JUMP JUMPDEST JUMPDEST JUMPDEST ISZERO PUSH3 0xFCD JUMPI PUSH3 0xF8B PUSH8 0xB22B73EAB0E23AF6 PUSH1 0xC0 SHL PUSH3 0x54E PUSH1 0x20 SHL PUSH1 0x20 SHR JUMP JUMPDEST PUSH3 0xFA7 PUSH8 0xC986D8E3C5A3635D PUSH1 0xC0 SHL PUSH3 0x54E PUSH1 0x20 SHL PUSH1 0x20 SHR JUMP JUMPDEST PUSH3 0xFC3 PUSH8 0x77519D7CB0E536FA PUSH1 0xC0 SHL PUSH3 0x54E PUSH1 0x20 SHL PUSH1 0x20 SHR JUMP JUMPDEST PUSH1 0x1 SWAP1 POP PUSH3 0x100A JUMP JUMPDEST PUSH3 0xFE9 PUSH8 0xC048C98B4E828C39 PUSH1 0xC0 SHL PUSH3 0x54E PUSH1 0x20 SHL PUSH1 0x20 SHR JUMP JUMPDEST PUSH3 0x1005 PUSH8 0x47663AD070FB1227 PUSH1 0xC0 SHL PUSH3 0x54E PUSH1 0x20 SHL PUSH1 0x20 SHR JUMP JUMPDEST PUSH1 0x0 SWAP1 POP JUMPDEST SWAP2 SWAP1 POP JUMP JUMPDEST POP POP POP JUMP JUMPDEST PUSH1 0x0 PUSH1 0x1 SWAP1 POP SWAP2 SWAP1 POP JUMP JUMPDEST DUP3 DUP1 SLOAD PUSH3 0x102D SWAP1 PUSH3 0x12B4 JUMP JUMPDEST SWAP1 PUSH1 0x0 MSTORE PUSH1 0x20 PUSH1 0x0 KECCAK256 SWAP1 PUSH1 0x1F ADD PUSH1 0x20 SWAP1 DIV DUP2 ADD SWAP3 DUP3 PUSH3 0x1051 JUMPI PUSH1 0x0 DUP6 SSTORE PUSH3 0x109D JUMP JUMPDEST DUP3 PUSH1 0x1F LT PUSH3 0x106C JUMPI DUP1 MLOAD PUSH1 0xFF NOT AND DUP4 DUP1 ADD OR DUP6 SSTORE PUSH3 0x109D JUMP JUMPDEST DUP3 DUP1 ADD PUSH1 0x1 ADD DUP6 SSTORE DUP3 ISZERO PUSH3 0x109D JUMPI SWAP2 DUP3 ADD JUMPDEST DUP3 DUP2 GT ISZERO PUSH3 0x109C JUMPI DUP3 MLOAD DUP3 SSTORE SWAP2 PUSH1 0x20 ADD SWAP2 SWAP1 PUSH1 0x1 ADD SWAP1 PUSH3 0x107F JUMP JUMPDEST JUMPDEST POP SWAP1 POP PUSH3 0x10AC SWAP2 SWAP1 PUSH3 0x10B0 JUMP JUMPDEST POP SWAP1 JUMP JUMPDEST JUMPDEST DUP1 DUP3 GT ISZERO PUSH3 0x10CB JUMPI PUSH1 0x0 DUP2 PUSH1 0x0 SWAP1 SSTORE POP PUSH1 0x1 ADD PUSH3 0x10B1 JUMP JUMPDEST POP SWAP1 JUMP JUMPDEST PUSH1 0x0 PUSH3 0x10DE PUSH1 0x4 DUP4 PUSH3 0x123C JUMP JUMPDEST SWAP2 POP PUSH3 0x10EB DUP3 PUSH3 0x1396 JUMP JUMPDEST PUSH1 0x20 DUP3 ADD SWAP1 POP SWAP2 SWAP1 POP JUMP JUMPDEST PUSH1 0x0 PUSH3 0x1105 PUSH1 0x1C DUP4 PUSH3 0x123C JUMP JUMPDEST SWAP2 POP PUSH3 0x1112 DUP3 PUSH3 0x13BF JUMP JUMPDEST PUSH1 0x20 DUP3 ADD SWAP1 POP SWAP2 SWAP1 POP JUMP JUMPDEST PUSH1 0x0 PUSH3 0x112C PUSH1 0x40 DUP4 PUSH3 0x123C JUMP JUMPDEST SWAP2 POP PUSH3 0x1139 DUP3 PUSH3 0x13E8 JUMP JUMPDEST PUSH1 0x40 DUP3 ADD SWAP1 POP SWAP2 SWAP1 POP JUMP JUMPDEST PUSH1 0x0 PUSH3 0x1153 PUSH1 0xC DUP4 PUSH3 0x123C JUMP JUMPDEST SWAP2 POP PUSH3 0x1160 DUP3 PUSH3 0x1437 JUMP JUMPDEST PUSH1 0x20 DUP3 ADD SWAP1 POP SWAP2 SWAP1 POP JUMP JUMPDEST PUSH1 0x0 PUSH3 0x117A PUSH1 0x20 DUP4 PUSH3 0x123C JUMP JUMPDEST SWAP2 POP PUSH3 0x1187 DUP3 PUSH3 0x1460 JUMP JUMPDEST PUSH1 0x20 DUP3 ADD SWAP1 POP SWAP2 SWAP1 POP JUMP JUMPDEST PUSH1 0x0 PUSH1 0x20 DUP3 ADD SWAP1 POP DUP2 DUP2 SUB PUSH1 0x0 DUP4 ADD MSTORE PUSH3 0x11AD DUP2 PUSH3 0x10CF JUMP JUMPDEST SWAP1 POP SWAP2 SWAP1 POP JUMP JUMPDEST PUSH1 0x0 PUSH1 0x20 DUP3 ADD SWAP1 POP DUP2 DUP2 SUB PUSH1 0x0 DUP4 ADD MSTORE PUSH3 0x11CF DUP2 PUSH3 0x10F6 JUMP JUMPDEST SWAP1 POP SWAP2 SWAP1 POP JUMP JUMPDEST PUSH1 0x0 PUSH1 0x20 DUP3 ADD SWAP1 POP DUP2 DUP2 SUB PUSH1 0x0 DUP4 ADD MSTORE PUSH3 0x11F1 DUP2 PUSH3 0x111D JUMP JUMPDEST SWAP1 POP SWAP2 SWAP1 POP JUMP JUMPDEST PUSH1 0x0 PUSH1 0x20 DUP3 ADD SWAP1 POP DUP2 DUP2 SUB PUSH1 0x0 DUP4 ADD MSTORE PUSH3 0x1213 DUP2 PUSH3 0x1144 JUMP JUMPDEST SWAP1 POP SWAP2 SWAP1 POP JUMP JUMPDEST PUSH1 0x0 PUSH1 0x20 DUP3 ADD SWAP1 POP DUP2 DUP2 SUB PUSH1 0x0 DUP4 ADD MSTORE PUSH3 0x1235 DUP2 PUSH3 0x116B JUMP JUMPDEST SWAP1 POP SWAP2 SWAP1 POP JUMP JUMPDEST PUSH1 0x0 DUP3 DUP3 MSTORE PUSH1 0x20 DUP3 ADD SWAP1 POP SWAP3 SWAP2 POP POP JUMP JUMPDEST PUSH1 0x0 PUSH3 0x125A DUP3 PUSH3 0x12AA JUMP JUMPDEST SWAP2 POP PUSH3 0x1267 DUP4 PUSH3 0x12AA JUMP JUMPDEST SWAP3 POP DUP3 PUSH32 0xFFFFFFFFFFFFFFFFFFFFFFFFFFFFFFFFFFFFFFFFFFFFFFFFFFFFFFFFFFFFFFFF SUB DUP3 GT ISZERO PUSH3 0x129F JUMPI PUSH3 0x129E PUSH3 0x1338 JUMP JUMPDEST JUMPDEST DUP3 DUP3 ADD SWAP1 POP SWAP3 SWAP2 POP POP JUMP JUMPDEST PUSH1 0x0 DUP2 SWAP1 POP SWAP2 SWAP1 POP JUMP JUMPDEST PUSH1 0x0 PUSH1 0x2 DUP3 DIV SWAP1 POP PUSH1 0x1 DUP3 AND DUP1 PUSH3 0x12CD JUMPI PUSH1 0x7F DUP3 AND SWAP2 POP JUMPDEST PUSH1 0x20 DUP3 LT DUP2 EQ ISZERO PUSH3 0x12E4 JUMPI PUSH3 0x12E3 PUSH3 0x1367 JUMP JUMPDEST JUMPDEST POP SWAP2 SWAP1 POP JUMP JUMPDEST PUSH1 0x0 PUSH3 0x12F7 DUP3 PUSH3 0x12AA JUMP JUMPDEST SWAP2 POP PUSH32 0xFFFFFFFFFFFFFFFFFFFFFFFFFFFFFFFFFFFFFFFFFFFFFFFFFFFFFFFFFFFFFFFF DUP3 EQ ISZERO PUSH3 0x132D JUMPI PUSH3 0x132C PUSH3 0x1338 JUMP JUMPDEST JUMPDEST PUSH1 0x1 DUP3 ADD SWAP1 POP SWAP2 SWAP1 POP JUMP JUMPDEST PUSH32 0x4E487B7100000000000000000000000000000000000000000000000000000000 PUSH1 0x0 MSTORE PUSH1 0x11 PUSH1 0x4 MSTORE PUSH1 0x24 PUSH1 0x0 REVERT JUMPDEST PUSH32 0x4E487B7100000000000000000000000000000000000000000000000000000000 PUSH1 0x0 MSTORE PUSH1 0x22 PUSH1 0x4 MSTORE PUSH1 0x24 PUSH1 0x0 REVERT JUMPDEST PUSH32 0x534F4F4E00000000000000000000000000000000000000000000000000000000 PUSH1 0x0 DUP3 ADD MSTORE POP JUMP JUMPDEST PUSH32 0x4552433732313A20746F6B656E20616C7265616479206D696E74656400000000 PUSH1 0x0 DUP3 ADD MSTORE POP JUMP JUMPDEST PUSH32 0x4F6E6C79204D7574616E7420417572656C6975732063616E20626573746F7720 PUSH1 0x0 DUP3 ADD MSTORE PUSH32 0x6F776E657220686973206661766F722075706F6E20746865206D61737365732E PUSH1 0x20 DUP3 ADD MSTORE POP JUMP JUMPDEST PUSH32 0x4E4F4E4520464F5220594F550000000000000000000000000000000000000000 PUSH1 0x0 DUP3 ADD MSTORE POP JUMP JUMPDEST PUSH32 0x4552433732313A206D696E7420746F20746865207A65726F2061646472657373 PUSH1 0x0 DUP3 ADD MSTORE POP JUMP JUMPDEST PUSH2 0x5E48 DUP1 PUSH3 0x1499 PUSH1 0x0 CODECOPY PUSH1 0x0 RETURN INVALID PUSH1 0x80 PUSH1 0x40 MSTORE CALLVALUE DUP1 ISZERO PUSH2 0x10 JUMPI PUSH1 0x0 DUP1 REVERT JUMPDEST POP PUSH1 0x4 CALLDATASIZE LT PUSH2 0x21C JUMPI PUSH1 0x0 CALLDATALOAD PUSH1 0xE0 SHR DUP1 PUSH4 0x6BBCDC16 GT PUSH2 0x125 JUMPI DUP1 PUSH4 0xB3E8524B GT PUSH2 0xAD JUMPI DUP1 PUSH4 0xCCACD0C5 GT PUSH2 0x7C JUMPI DUP1 PUSH4 0xCCACD0C5 EQ PUSH2 0x5FD JUMPI DUP1 PUSH4 0xD981D596 EQ PUSH2 0x61B JUMPI DUP1 PUSH4 0xE985E9C5 EQ PUSH2 0x639 JUMPI DUP1 PUSH4 0xEA193CDA EQ PUSH2 0x669 JUMPI DUP1 PUSH4 0xF7CEDD85 EQ PUSH2 0x685 JUMPI PUSH2 0x21C JUMP JUMPDEST DUP1 PUSH4 0xB3E8524B EQ PUSH2 0x565 JUMPI DUP1 PUSH4 0xB88D4FDE EQ PUSH2 0x595 JUMPI DUP1 PUSH4 0xBFD06AF7 EQ PUSH2 0x5B1 JUMPI DUP1 PUSH4 0xC87B56DD EQ PUSH2 0x5CD JUMPI PUSH2 0x21C JUMP JUMPDEST DUP1 PUSH4 0x8DA5CB5B GT PUSH2 0xF4 JUMPI DUP1 PUSH4 0x8DA5CB5B EQ PUSH2 0x4E7 JUMPI DUP1 PUSH4 0x95D89B41 EQ PUSH2 0x505 JUMPI DUP1 PUSH4 0x96A0DB30 EQ PUSH2 0x523 JUMPI DUP1 PUSH4 0xA22CB465 EQ PUSH2 0x53F JUMPI DUP1 PUSH4 0xA39000A7 EQ PUSH2 0x55B JUMPI PUSH2 0x21C JUMP JUMPDEST DUP1 PUSH4 0x6BBCDC16 EQ PUSH2 0x461 JUMPI DUP1 PUSH4 0x6C7F7B32 EQ PUSH2 0x47F JUMPI DUP1 PUSH4 0x70A08231 EQ PUSH2 0x49B JUMPI DUP1 PUSH4 0x775CE033 EQ PUSH2 0x4CB JUMPI PUSH2 0x21C JUMP JUMPDEST DUP1 PUSH4 0x2ECDBC48 GT PUSH2 0x1A8 JUMPI DUP1 PUSH4 0x4563649D GT PUSH2 0x177 JUMPI DUP1 PUSH4 0x4563649D EQ PUSH2 0x3AB JUMPI DUP1 PUSH4 0x4BC26106 EQ PUSH2 0x3C9 JUMPI DUP1 PUSH4 0x5B627C70 EQ PUSH2 0x3F9 JUMPI DUP1 PUSH4 0x5FC82523 EQ PUSH2 0x415 JUMPI DUP1 PUSH4 0x6352211E EQ PUSH2 0x431 JUMPI PUSH2 0x21C JUMP JUMPDEST DUP1 PUSH4 0x2ECDBC48 EQ PUSH2 0x339 JUMPI DUP1 PUSH4 0x332B3A8D EQ PUSH2 0x355 JUMPI DUP1 PUSH4 0x42842E0E EQ PUSH2 0x373 JUMPI DUP1 PUSH4 0x4441D132 EQ PUSH2 0x38F JUMPI PUSH2 0x21C JUMP JUMPDEST DUP1 PUSH4 0x1249C58B GT PUSH2 0x1EF JUMPI DUP1 PUSH4 0x1249C58B EQ PUSH2 0x2BB JUMPI DUP1 PUSH4 0x18160DDD EQ PUSH2 0x2C5 JUMPI DUP1 PUSH4 0x1B3BF3D8 EQ PUSH2 0x2E3 JUMPI DUP1 PUSH4 0x23B872DD EQ PUSH2 0x2FF JUMPI DUP1 PUSH4 0x26C6ADEB EQ PUSH2 0x31B JUMPI PUSH2 0x21C JUMP JUMPDEST DUP1 PUSH4 0x1FFC9A7 EQ PUSH2 0x221 JUMPI DUP1 PUSH4 0x6FDDE03 EQ PUSH2 0x251 JUMPI DUP1 PUSH4 0x81812FC EQ PUSH2 0x26F JUMPI DUP1 PUSH4 0x95EA7B3 EQ PUSH2 0x29F JUMPI JUMPDEST PUSH1 0x0 DUP1 REVERT JUMPDEST PUSH2 0x23B PUSH1 0x4 DUP1 CALLDATASIZE SUB DUP2 ADD SWAP1 PUSH2 0x236 SWAP2 SWAP1 PUSH2 0x46EC JUMP JUMPDEST PUSH2 0x6A1 JUMP JUMPDEST PUSH1 0x40 MLOAD PUSH2 0x248 SWAP2 SWAP1 PUSH2 0x4D90 JUMP JUMPDEST PUSH1 0x40 MLOAD DUP1 SWAP2 SUB SWAP1 RETURN JUMPDEST PUSH2 0x259 PUSH2 0x783 JUMP JUMPDEST PUSH1 0x40 MLOAD PUSH2 0x266 SWAP2 SWAP1 PUSH2 0x4DAB JUMP JUMPDEST PUSH1 0x40 MLOAD DUP1 SWAP2 SUB SWAP1 RETURN JUMPDEST PUSH2 0x289 PUSH1 0x4 DUP1 CALLDATASIZE SUB DUP2 ADD SWAP1 PUSH2 0x284 SWAP2 SWAP1 PUSH2 0x477F JUMP JUMPDEST PUSH2 0x815 JUMP JUMPDEST PUSH1 0x40 MLOAD PUSH2 0x296 SWAP2 SWAP1 PUSH2 0x4D29 JUMP JUMPDEST PUSH1 0x40 MLOAD DUP1 SWAP2 SUB SWAP1 RETURN JUMPDEST PUSH2 0x2B9 PUSH1 0x4 DUP1 CALLDATASIZE SUB DUP2 ADD SWAP1 PUSH2 0x2B4 SWAP2 SWAP1 PUSH2 0x4687 JUMP JUMPDEST PUSH2 0x89A JUMP JUMPDEST STOP JUMPDEST PUSH2 0x2C3 PUSH2 0x9B2 JUMP JUMPDEST STOP JUMPDEST PUSH2 0x2CD PUSH2 0xBE9 JUMP JUMPDEST PUSH1 0x40 MLOAD PUSH2 0x2DA SWAP2 SWAP1 PUSH2 0x514D JUMP JUMPDEST PUSH1 0x40 MLOAD DUP1 SWAP2 SUB SWAP1 RETURN JUMPDEST PUSH2 0x2FD PUSH1 0x4 DUP1 CALLDATASIZE SUB DUP2 ADD SWAP1 PUSH2 0x2F8 SWAP2 SWAP1 PUSH2 0x47A8 JUMP JUMPDEST PUSH2 0xC2F JUMP JUMPDEST STOP JUMPDEST PUSH2 0x319 PUSH1 0x4 DUP1 CALLDATASIZE SUB DUP2 ADD SWAP1 PUSH2 0x314 SWAP2 SWAP1 PUSH2 0x4581 JUMP JUMPDEST PUSH2 0xF9E JUMP JUMPDEST STOP JUMPDEST PUSH2 0x323 PUSH2 0xFFE JUMP JUMPDEST PUSH1 0x40 MLOAD PUSH2 0x330 SWAP2 SWAP1 PUSH2 0x4D90 JUMP JUMPDEST PUSH1 0x40 MLOAD DUP1 SWAP2 SUB SWAP1 RETURN JUMPDEST PUSH2 0x353 PUSH1 0x4 DUP1 CALLDATASIZE SUB DUP2 ADD SWAP1 PUSH2 0x34E SWAP2 SWAP1 PUSH2 0x451C JUMP JUMPDEST PUSH2 0x1051 JUMP JUMPDEST STOP JUMPDEST PUSH2 0x35D PUSH2 0x1204 JUMP JUMPDEST PUSH1 0x40 MLOAD PUSH2 0x36A SWAP2 SWAP1 PUSH2 0x514D JUMP JUMPDEST PUSH1 0x40 MLOAD DUP1 SWAP2 SUB SWAP1 RETURN JUMPDEST PUSH2 0x38D PUSH1 0x4 DUP1 CALLDATASIZE SUB DUP2 ADD SWAP1 PUSH2 0x388 SWAP2 SWAP1 PUSH2 0x4581 JUMP JUMPDEST PUSH2 0x1251 JUMP JUMPDEST STOP JUMPDEST PUSH2 0x3A9 PUSH1 0x4 DUP1 CALLDATASIZE SUB DUP2 ADD SWAP1 PUSH2 0x3A4 SWAP2 SWAP1 PUSH2 0x451C JUMP JUMPDEST PUSH2 0x1271 JUMP JUMPDEST STOP JUMPDEST PUSH2 0x3B3 PUSH2 0x1424 JUMP JUMPDEST PUSH1 0x40 MLOAD PUSH2 0x3C0 SWAP2 SWAP1 PUSH2 0x514D JUMP JUMPDEST PUSH1 0x40 MLOAD DUP1 SWAP2 SUB SWAP1 RETURN JUMPDEST PUSH2 0x3E3 PUSH1 0x4 DUP1 CALLDATASIZE SUB DUP2 ADD SWAP1 PUSH2 0x3DE SWAP2 SWAP1 PUSH2 0x451C JUMP JUMPDEST PUSH2 0x142A JUMP JUMPDEST PUSH1 0x40 MLOAD PUSH2 0x3F0 SWAP2 SWAP1 PUSH2 0x4D90 JUMP JUMPDEST PUSH1 0x40 MLOAD DUP1 SWAP2 SUB SWAP1 RETURN JUMPDEST PUSH2 0x413 PUSH1 0x4 DUP1 CALLDATASIZE SUB DUP2 ADD SWAP1 PUSH2 0x40E SWAP2 SWAP1 PUSH2 0x477F JUMP JUMPDEST PUSH2 0x14BC JUMP JUMPDEST STOP JUMPDEST PUSH2 0x42F PUSH1 0x4 DUP1 CALLDATASIZE SUB DUP2 ADD SWAP1 PUSH2 0x42A SWAP2 SWAP1 PUSH2 0x46C3 JUMP JUMPDEST PUSH2 0x161E JUMP JUMPDEST STOP JUMPDEST PUSH2 0x44B PUSH1 0x4 DUP1 CALLDATASIZE SUB DUP2 ADD SWAP1 PUSH2 0x446 SWAP2 SWAP1 PUSH2 0x477F JUMP JUMPDEST PUSH2 0x1793 JUMP JUMPDEST PUSH1 0x40 MLOAD PUSH2 0x458 SWAP2 SWAP1 PUSH2 0x4D29 JUMP JUMPDEST PUSH1 0x40 MLOAD DUP1 SWAP2 SUB SWAP1 RETURN JUMPDEST PUSH2 0x469 PUSH2 0x1845 JUMP JUMPDEST PUSH1 0x40 MLOAD PUSH2 0x476 SWAP2 SWAP1 PUSH2 0x514D JUMP JUMPDEST PUSH1 0x40 MLOAD DUP1 SWAP2 SUB SWAP1 RETURN JUMPDEST PUSH2 0x499 PUSH1 0x4 DUP1 CALLDATASIZE SUB DUP2 ADD SWAP1 PUSH2 0x494 SWAP2 SWAP1 PUSH2 0x464B JUMP JUMPDEST PUSH2 0x1892 JUMP JUMPDEST STOP JUMPDEST PUSH2 0x4B5 PUSH1 0x4 DUP1 CALLDATASIZE SUB DUP2 ADD SWAP1 PUSH2 0x4B0 SWAP2 SWAP1 PUSH2 0x451C JUMP JUMPDEST PUSH2 0x1A45 JUMP JUMPDEST PUSH1 0x40 MLOAD PUSH2 0x4C2 SWAP2 SWAP1 PUSH2 0x514D JUMP JUMPDEST PUSH1 0x40 MLOAD DUP1 SWAP2 SUB SWAP1 RETURN JUMPDEST PUSH2 0x4E5 PUSH1 0x4 DUP1 CALLDATASIZE SUB DUP2 ADD SWAP1 PUSH2 0x4E0 SWAP2 SWAP1 PUSH2 0x473E JUMP JUMPDEST PUSH2 0x1AFD JUMP JUMPDEST STOP JUMPDEST PUSH2 0x4EF PUSH2 0x1C6F JUMP JUMPDEST PUSH1 0x40 MLOAD PUSH2 0x4FC SWAP2 SWAP1 PUSH2 0x4D29 JUMP JUMPDEST PUSH1 0x40 MLOAD DUP1 SWAP2 SUB SWAP1 RETURN JUMPDEST PUSH2 0x50D PUSH2 0x1CD5 JUMP JUMPDEST PUSH1 0x40 MLOAD PUSH2 0x51A SWAP2 SWAP1 PUSH2 0x4DAB JUMP JUMPDEST PUSH1 0x40 MLOAD DUP1 SWAP2 SUB SWAP1 RETURN JUMPDEST PUSH2 0x53D PUSH1 0x4 DUP1 CALLDATASIZE SUB DUP2 ADD SWAP1 PUSH2 0x538 SWAP2 SWAP1 PUSH2 0x451C JUMP JUMPDEST PUSH2 0x1D67 JUMP JUMPDEST STOP JUMPDEST PUSH2 0x559 PUSH1 0x4 DUP1 CALLDATASIZE SUB DUP2 ADD SWAP1 PUSH2 0x554 SWAP2 SWAP1 PUSH2 0x464B JUMP JUMPDEST PUSH2 0x1F1A JUMP JUMPDEST STOP JUMPDEST PUSH2 0x563 PUSH2 0x1F30 JUMP JUMPDEST STOP JUMPDEST PUSH2 0x57F PUSH1 0x4 DUP1 CALLDATASIZE SUB DUP2 ADD SWAP1 PUSH2 0x57A SWAP2 SWAP1 PUSH2 0x451C JUMP JUMPDEST PUSH2 0x225C JUMP JUMPDEST PUSH1 0x40 MLOAD PUSH2 0x58C SWAP2 SWAP1 PUSH2 0x4D90 JUMP JUMPDEST PUSH1 0x40 MLOAD DUP1 SWAP2 SUB SWAP1 RETURN JUMPDEST PUSH2 0x5AF PUSH1 0x4 DUP1 CALLDATASIZE SUB DUP2 ADD SWAP1 PUSH2 0x5AA SWAP2 SWAP1 PUSH2 0x45D0 JUMP JUMPDEST PUSH2 0x22EE JUMP JUMPDEST STOP JUMPDEST PUSH2 0x5CB PUSH1 0x4 DUP1 CALLDATASIZE SUB DUP2 ADD SWAP1 PUSH2 0x5C6 SWAP2 SWAP1 PUSH2 0x451C JUMP JUMPDEST PUSH2 0x2350 JUMP JUMPDEST STOP JUMPDEST PUSH2 0x5E7 PUSH1 0x4 DUP1 CALLDATASIZE SUB DUP2 ADD SWAP1 PUSH2 0x5E2 SWAP2 SWAP1 PUSH2 0x477F JUMP JUMPDEST PUSH2 0x2503 JUMP JUMPDEST PUSH1 0x40 MLOAD PUSH2 0x5F4 SWAP2 SWAP1 PUSH2 0x4DAB JUMP JUMPDEST PUSH1 0x40 MLOAD DUP1 SWAP2 SUB SWAP1 RETURN JUMPDEST PUSH2 0x605 PUSH2 0x27DD JUMP JUMPDEST PUSH1 0x40 MLOAD PUSH2 0x612 SWAP2 SWAP1 PUSH2 0x514D JUMP JUMPDEST PUSH1 0x40 MLOAD DUP1 SWAP2 SUB SWAP1 RETURN JUMPDEST PUSH2 0x623 PUSH2 0x27E3 JUMP JUMPDEST PUSH1 0x40 MLOAD PUSH2 0x630 SWAP2 SWAP1 PUSH2 0x514D JUMP JUMPDEST PUSH1 0x40 MLOAD DUP1 SWAP2 SUB SWAP1 RETURN JUMPDEST PUSH2 0x653 PUSH1 0x4 DUP1 CALLDATASIZE SUB DUP2 ADD SWAP1 PUSH2 0x64E SWAP2 SWAP1 PUSH2 0x4545 JUMP JUMPDEST PUSH2 0x2830 JUMP JUMPDEST PUSH1 0x40 MLOAD PUSH2 0x660 SWAP2 SWAP1 PUSH2 0x4D90 JUMP JUMPDEST PUSH1 0x40 MLOAD DUP1 SWAP2 SUB SWAP1 RETURN JUMPDEST PUSH2 0x683 PUSH1 0x4 DUP1 CALLDATASIZE SUB DUP2 ADD SWAP1 PUSH2 0x67E SWAP2 SWAP1 PUSH2 0x477F JUMP JUMPDEST PUSH2 0x28C4 JUMP JUMPDEST STOP JUMPDEST PUSH2 0x69F PUSH1 0x4 DUP1 CALLDATASIZE SUB DUP2 ADD SWAP1 PUSH2 0x69A SWAP2 SWAP1 PUSH2 0x46C3 JUMP JUMPDEST PUSH2 0x2C5C JUMP JUMPDEST STOP JUMPDEST PUSH1 0x0 PUSH32 0x80AC58CD00000000000000000000000000000000000000000000000000000000 PUSH28 0xFFFFFFFFFFFFFFFFFFFFFFFFFFFFFFFFFFFFFFFFFFFFFFFFFFFFFFFF NOT AND DUP3 PUSH28 0xFFFFFFFFFFFFFFFFFFFFFFFFFFFFFFFFFFFFFFFFFFFFFFFFFFFFFFFF NOT AND EQ DUP1 PUSH2 0x76C JUMPI POP PUSH32 0x5B5E139F00000000000000000000000000000000000000000000000000000000 PUSH28 0xFFFFFFFFFFFFFFFFFFFFFFFFFFFFFFFFFFFFFFFFFFFFFFFFFFFFFFFF NOT AND DUP3 PUSH28 0xFFFFFFFFFFFFFFFFFFFFFFFFFFFFFFFFFFFFFFFFFFFFFFFFFFFFFFFF NOT AND EQ JUMPDEST DUP1 PUSH2 0x77C JUMPI POP PUSH2 0x77B DUP3 PUSH2 0x2DEC JUMP JUMPDEST JUMPDEST SWAP1 POP SWAP2 SWAP1 POP JUMP JUMPDEST PUSH1 0x60 PUSH1 0x0 DUP1 SLOAD PUSH2 0x792 SWAP1 PUSH2 0x53AE JUMP JUMPDEST DUP1 PUSH1 0x1F ADD PUSH1 0x20 DUP1 SWAP2 DIV MUL PUSH1 0x20 ADD PUSH1 0x40 MLOAD SWAP1 DUP2 ADD PUSH1 0x40 MSTORE DUP1 SWAP3 SWAP2 SWAP1 DUP2 DUP2 MSTORE PUSH1 0x20 ADD DUP3 DUP1 SLOAD PUSH2 0x7BE SWAP1 PUSH2 0x53AE JUMP JUMPDEST DUP1 ISZERO PUSH2 0x80B JUMPI DUP1 PUSH1 0x1F LT PUSH2 0x7E0 JUMPI PUSH2 0x100 DUP1 DUP4 SLOAD DIV MUL DUP4 MSTORE SWAP2 PUSH1 0x20 ADD SWAP2 PUSH2 0x80B JUMP JUMPDEST DUP3 ADD SWAP2 SWAP1 PUSH1 0x0 MSTORE PUSH1 0x20 PUSH1 0x0 KECCAK256 SWAP1 JUMPDEST DUP2 SLOAD DUP2 MSTORE SWAP1 PUSH1 0x1 ADD SWAP1 PUSH1 0x20 ADD DUP1 DUP4 GT PUSH2 0x7EE JUMPI DUP3 SWAP1 SUB PUSH1 0x1F AND DUP3 ADD SWAP2 JUMPDEST POP POP POP POP POP SWAP1 POP SWAP1 JUMP JUMPDEST PUSH1 0x0 PUSH2 0x820 DUP3 PUSH2 0x2E56 JUMP JUMPDEST PUSH2 0x85F JUMPI PUSH1 0x40 MLOAD PUSH32 0x8C379A000000000000000000000000000000000000000000000000000000000 DUP2 MSTORE PUSH1 0x4 ADD PUSH2 0x856 SWAP1 PUSH2 0x4FED JUMP JUMPDEST PUSH1 0x40 MLOAD DUP1 SWAP2 SUB SWAP1 REVERT JUMPDEST PUSH1 0x4 PUSH1 0x0 DUP4 DUP2 MSTORE PUSH1 0x20 ADD SWAP1 DUP2 MSTORE PUSH1 0x20 ADD PUSH1 0x0 KECCAK256 PUSH1 0x0 SWAP1 SLOAD SWAP1 PUSH2 0x100 EXP SWAP1 DIV PUSH20 0xFFFFFFFFFFFFFFFFFFFFFFFFFFFFFFFFFFFFFFFF AND SWAP1 POP SWAP2 SWAP1 POP JUMP JUMPDEST PUSH1 0x0 PUSH2 0x8A5 DUP3 PUSH2 0x1793 JUMP JUMPDEST SWAP1 POP DUP1 PUSH20 0xFFFFFFFFFFFFFFFFFFFFFFFFFFFFFFFFFFFFFFFF AND DUP4 PUSH20 0xFFFFFFFFFFFFFFFFFFFFFFFFFFFFFFFFFFFFFFFF AND EQ ISZERO PUSH2 0x916 JUMPI PUSH1 0x40 MLOAD PUSH32 0x8C379A000000000000000000000000000000000000000000000000000000000 DUP2 MSTORE PUSH1 0x4 ADD PUSH2 0x90D SWAP1 PUSH2 0x50AD JUMP JUMPDEST PUSH1 0x40 MLOAD DUP1 SWAP2 SUB SWAP1 REVERT JUMPDEST DUP1 PUSH20 0xFFFFFFFFFFFFFFFFFFFFFFFFFFFFFFFFFFFFFFFF AND PUSH2 0x935 PUSH2 0x2EC2 JUMP JUMPDEST PUSH20 0xFFFFFFFFFFFFFFFFFFFFFFFFFFFFFFFFFFFFFFFF AND EQ DUP1 PUSH2 0x964 JUMPI POP PUSH2 0x963 DUP2 PUSH2 0x95E PUSH2 0x2EC2 JUMP JUMPDEST PUSH2 0x2830 JUMP JUMPDEST JUMPDEST PUSH2 0x9A3 JUMPI PUSH1 0x40 MLOAD PUSH32 0x8C379A000000000000000000000000000000000000000000000000000000000 DUP2 MSTORE PUSH1 0x4 ADD PUSH2 0x99A SWAP1 PUSH2 0x4F4D JUMP JUMPDEST PUSH1 0x40 MLOAD DUP1 SWAP2 SUB SWAP1 REVERT JUMPDEST PUSH2 0x9AD DUP4 DUP4 PUSH2 0x2ECA JUMP JUMPDEST POP POP POP JUMP JUMPDEST PUSH2 0x9C6 PUSH8 0xBB9AFE525974ED55 PUSH1 0xC0 SHL PUSH2 0x2F83 JUMP JUMPDEST PUSH2 0x9DA PUSH8 0x247B788FFF1451DC PUSH1 0xC0 SHL PUSH2 0x2F83 JUMP JUMPDEST PUSH2 0x9EE PUSH8 0xEF69611E663B523 PUSH1 0xC0 SHL PUSH2 0x2F83 JUMP JUMPDEST PUSH2 0xA02 PUSH8 0xB81E4183D0CDB466 PUSH1 0xC0 SHL PUSH2 0x2F83 JUMP JUMPDEST PUSH1 0xD PUSH1 0x0 SWAP1 SLOAD SWAP1 PUSH2 0x100 EXP SWAP1 DIV PUSH1 0xFF AND ISZERO PUSH2 0xA52 JUMPI PUSH1 0x40 MLOAD PUSH32 0x8C379A000000000000000000000000000000000000000000000000000000000 DUP2 MSTORE PUSH1 0x4 ADD PUSH2 0xA49 SWAP1 PUSH2 0x4E2D JUMP JUMPDEST PUSH1 0x40 MLOAD DUP1 SWAP2 SUB SWAP1 REVERT JUMPDEST PUSH2 0xA66 PUSH8 0x4AEF920D8DD0E1E7 PUSH1 0xC0 SHL PUSH2 0x2F83 JUMP JUMPDEST PUSH2 0xA7A PUSH8 0x37D63869D97801C1 PUSH1 0xC0 SHL PUSH2 0x2F83 JUMP JUMPDEST PUSH2 0xA8E PUSH8 0x1CDB204082B7DE63 PUSH1 0xC0 SHL PUSH2 0x2F83 JUMP JUMPDEST PUSH1 0xD PUSH1 0x1 SWAP1 SLOAD SWAP1 PUSH2 0x100 EXP SWAP1 DIV PUSH1 0xFF AND ISZERO PUSH2 0xB9F JUMPI PUSH2 0xAB7 PUSH8 0x140CD1570D2E009E PUSH1 0xC0 SHL PUSH2 0x2F83 JUMP JUMPDEST PUSH2 0xACB PUSH8 0xF88420D63FDFFA51 PUSH1 0xC0 SHL PUSH2 0x2F83 JUMP JUMPDEST PUSH2 0xADF PUSH8 0xA2585850C7EA3ABF PUSH1 0xC0 SHL PUSH2 0x2F83 JUMP JUMPDEST PUSH2 0xAF3 PUSH8 0xDF01349864038BEB PUSH1 0xC0 SHL PUSH2 0x2F83 JUMP JUMPDEST PUSH1 0x1 ISZERO ISZERO PUSH1 0xF PUSH1 0x0 CALLER PUSH20 0xFFFFFFFFFFFFFFFFFFFFFFFFFFFFFFFFFFFFFFFF AND PUSH20 0xFFFFFFFFFFFFFFFFFFFFFFFFFFFFFFFFFFFFFFFF AND DUP2 MSTORE PUSH1 0x20 ADD SWAP1 DUP2 MSTORE PUSH1 0x20 ADD PUSH1 0x0 KECCAK256 PUSH1 0x0 SWAP1 SLOAD SWAP1 PUSH2 0x100 EXP SWAP1 DIV PUSH1 0xFF AND ISZERO ISZERO EQ PUSH2 0xB86 JUMPI PUSH1 0x40 MLOAD PUSH32 0x8C379A000000000000000000000000000000000000000000000000000000000 DUP2 MSTORE PUSH1 0x4 ADD PUSH2 0xB7D SWAP1 PUSH2 0x510D JUMP JUMPDEST PUSH1 0x40 MLOAD DUP1 SWAP2 SUB SWAP1 REVERT JUMPDEST PUSH2 0xB9A PUSH8 0xED92F7D46CA4B47F PUSH1 0xC0 SHL PUSH2 0x2F83 JUMP JUMPDEST PUSH2 0xBB4 JUMP JUMPDEST PUSH2 0xBB3 PUSH8 0x8174DD5FF2ED8E6B PUSH1 0xC0 SHL PUSH2 0x2F83 JUMP JUMPDEST JUMPDEST PUSH2 0xBC8 PUSH8 0xEB6DE970BD8B056D PUSH1 0xC0 SHL PUSH2 0x2F83 JUMP JUMPDEST PUSH2 0xBDC PUSH8 0x30E723D74A10CA37 PUSH1 0xC0 SHL PUSH2 0x2F83 JUMP JUMPDEST PUSH2 0xBE7 CALLER PUSH1 0x0 PUSH2 0x2F86 JUMP JUMPDEST JUMP JUMPDEST PUSH1 0x0 PUSH2 0xBFF PUSH8 0xC1F1012D8258CCBE PUSH1 0xC0 SHL PUSH2 0x2F83 JUMP JUMPDEST PUSH2 0xC13 PUSH8 0xB1C346F604AE3C11 PUSH1 0xC0 SHL PUSH2 0x2F83 JUMP JUMPDEST PUSH2 0xC27 PUSH8 0x15560292C1D39328 PUSH1 0xC0 SHL PUSH2 0x2F83 JUMP JUMPDEST PUSH2 0x378 SWAP1 POP SWAP1 JUMP JUMPDEST PUSH2 0xC43 PUSH8 0xEE3F28493222164C PUSH1 0xC0 SHL PUSH2 0x2F83 JUMP JUMPDEST PUSH2 0xC57 PUSH8 0x15FEB02D7DE839F2 PUSH1 0xC0 SHL PUSH2 0x2F83 JUMP JUMPDEST PUSH2 0xC6B PUSH8 0x8A0F1EF2DC35C6A9 PUSH1 0xC0 SHL PUSH2 0x2F83 JUMP JUMPDEST PUSH2 0xC7F PUSH8 0x6AEECB1F36BB446E PUSH1 0xC0 SHL PUSH2 0x2F83 JUMP JUMPDEST PUSH2 0xC93 PUSH8 0xA2D6D16C56CDCDCE PUSH1 0xC0 SHL PUSH2 0x2F83 JUMP JUMPDEST PUSH1 0x1 ISZERO ISZERO PUSH1 0x10 PUSH1 0x0 CALLER PUSH20 0xFFFFFFFFFFFFFFFFFFFFFFFFFFFFFFFFFFFFFFFF AND PUSH20 0xFFFFFFFFFFFFFFFFFFFFFFFFFFFFFFFFFFFFFFFF AND DUP2 MSTORE PUSH1 0x20 ADD SWAP1 DUP2 MSTORE PUSH1 0x20 ADD PUSH1 0x0 KECCAK256 PUSH1 0x0 SWAP1 SLOAD SWAP1 PUSH2 0x100 EXP SWAP1 DIV PUSH1 0xFF AND ISZERO ISZERO EQ PUSH2 0xD26 JUMPI PUSH1 0x40 MLOAD PUSH32 0x8C379A000000000000000000000000000000000000000000000000000000000 DUP2 MSTORE PUSH1 0x4 ADD PUSH2 0xD1D SWAP1 PUSH2 0x50CD JUMP JUMPDEST PUSH1 0x40 MLOAD DUP1 SWAP2 SUB SWAP1 REVERT JUMPDEST PUSH2 0xD3A PUSH8 0x989D0B390C84FE61 PUSH1 0xC0 SHL PUSH2 0x2F83 JUMP JUMPDEST PUSH2 0xD4E PUSH8 0x17A84B521799A1A5 PUSH1 0xC0 SHL PUSH2 0x2F83 JUMP JUMPDEST PUSH2 0xD62 PUSH8 0xFFABBB0A40C30B85 PUSH1 0xC0 SHL PUSH2 0x2F83 JUMP JUMPDEST PUSH2 0xD76 PUSH8 0xC549B8E21E30BCE8 PUSH1 0xC0 SHL PUSH2 0x2F83 JUMP JUMPDEST PUSH2 0xD8A PUSH8 0x75B31F6C38A6A3D9 PUSH1 0xC0 SHL PUSH2 0x2F83 JUMP JUMPDEST PUSH2 0xD9E PUSH8 0x9E3B0EE547054BF9 PUSH1 0xC0 SHL PUSH2 0x2F83 JUMP JUMPDEST PUSH2 0xDB2 PUSH8 0x75FBDF011BDA89A6 PUSH1 0xC0 SHL PUSH2 0x2F83 JUMP JUMPDEST PUSH2 0xDBB DUP3 PUSH2 0x3331 JUMP JUMPDEST PUSH2 0xDFA JUMPI PUSH1 0x40 MLOAD PUSH32 0x8C379A000000000000000000000000000000000000000000000000000000000 DUP2 MSTORE PUSH1 0x4 ADD PUSH2 0xDF1 SWAP1 PUSH2 0x500D JUMP JUMPDEST PUSH1 0x40 MLOAD DUP1 SWAP2 SUB SWAP1 REVERT JUMPDEST PUSH2 0xE0E PUSH8 0x765B1EEB78637493 PUSH1 0xC0 SHL PUSH2 0x2F83 JUMP JUMPDEST PUSH2 0xE22 PUSH8 0x8BD76CFE4BB93B22 PUSH1 0xC0 SHL PUSH2 0x2F83 JUMP JUMPDEST PUSH2 0xE36 PUSH8 0xA534ADC7F5E4FF4 PUSH1 0xC0 SHL PUSH2 0x2F83 JUMP JUMPDEST PUSH1 0x0 PUSH2 0xE41 DUP4 PUSH2 0x1793 JUMP JUMPDEST SWAP1 POP PUSH2 0xE57 PUSH8 0xC63E4C3C1B1D20D3 PUSH1 0xC0 SHL PUSH2 0x2F83 JUMP JUMPDEST PUSH2 0xE6B PUSH8 0x4864AD180B61DA36 PUSH1 0xC0 SHL PUSH2 0x2F83 JUMP JUMPDEST PUSH1 0xD PUSH1 0x2 SWAP1 SLOAD SWAP1 PUSH2 0x100 EXP SWAP1 DIV PUSH20 0xFFFFFFFFFFFFFFFFFFFFFFFFFFFFFFFFFFFFFFFF AND PUSH20 0xFFFFFFFFFFFFFFFFFFFFFFFFFFFFFFFFFFFFFFFF AND DUP2 PUSH20 0xFFFFFFFFFFFFFFFFFFFFFFFFFFFFFFFFFFFFFFFF AND EQ PUSH2 0xF51 JUMPI PUSH2 0xED4 PUSH8 0x43CDD37738221C30 PUSH1 0xC0 SHL PUSH2 0x2F83 JUMP JUMPDEST PUSH2 0xEE8 PUSH8 0xF03C03330D143CFE PUSH1 0xC0 SHL PUSH2 0x2F83 JUMP JUMPDEST PUSH2 0xEFC PUSH8 0x9A80556AD2FD1A8D PUSH1 0xC0 SHL PUSH2 0x2F83 JUMP JUMPDEST PUSH2 0xF06 PUSH1 0x7 PUSH2 0x2DD1 JUMP JUMPDEST PUSH2 0xF1A PUSH8 0xBCBDC22267FF2E41 PUSH1 0xC0 SHL PUSH2 0x2F83 JUMP JUMPDEST PUSH2 0xF2E PUSH8 0xC3DC2D240D7AEE2C PUSH1 0xC0 SHL PUSH2 0x2F83 JUMP JUMPDEST PUSH2 0xF4C DUP2 PUSH2 0xF3A PUSH2 0x1845 JUMP JUMPDEST PUSH1 0xA SLOAD PUSH2 0xF47 SWAP2 SWAP1 PUSH2 0x523D JUMP JUMPDEST PUSH2 0x3441 JUMP JUMPDEST PUSH2 0xF66 JUMP JUMPDEST PUSH2 0xF65 PUSH8 0xBE8746C906B96C2D PUSH1 0xC0 SHL PUSH2 0x2F83 JUMP JUMPDEST JUMPDEST PUSH2 0xF7A PUSH8 0xB31A832F98E6B277 PUSH1 0xC0 SHL PUSH2 0x2F83 JUMP JUMPDEST PUSH2 0xF8E PUSH8 0xC645BC826220EE87 PUSH1 0xC0 SHL PUSH2 0x2F83 JUMP JUMPDEST PUSH2 0xF99 DUP2 DUP4 DUP6 PUSH2 0x361B JUMP JUMPDEST POP POP POP JUMP JUMPDEST PUSH2 0xFAF PUSH2 0xFA9 PUSH2 0x2EC2 JUMP JUMPDEST DUP3 PUSH2 0x3882 JUMP JUMPDEST PUSH2 0xFEE JUMPI PUSH1 0x40 MLOAD PUSH32 0x8C379A000000000000000000000000000000000000000000000000000000000 DUP2 MSTORE PUSH1 0x4 ADD PUSH2 0xFE5 SWAP1 PUSH2 0x50ED JUMP JUMPDEST PUSH1 0x40 MLOAD DUP1 SWAP2 SUB SWAP1 REVERT JUMPDEST PUSH2 0xFF9 DUP4 DUP4 DUP4 PUSH2 0x361B JUMP JUMPDEST POP POP POP JUMP JUMPDEST PUSH1 0x0 PUSH2 0x1014 PUSH8 0x6E1D49414F0D5EF8 PUSH1 0xC0 SHL PUSH2 0x2F83 JUMP JUMPDEST PUSH2 0x1028 PUSH8 0x82CFBED34D01F27B PUSH1 0xC0 SHL PUSH2 0x2F83 JUMP JUMPDEST PUSH2 0x103C PUSH8 0xBAF2801F3C398A01 PUSH1 0xC0 SHL PUSH2 0x2F83 JUMP JUMPDEST PUSH1 0xD PUSH1 0x0 SWAP1 SLOAD SWAP1 PUSH2 0x100 EXP SWAP1 DIV PUSH1 0xFF AND SWAP1 POP SWAP1 JUMP JUMPDEST PUSH2 0x1065 PUSH8 0x2C5ED60E69A75119 PUSH1 0xC0 SHL PUSH2 0x2F83 JUMP JUMPDEST PUSH2 0x1079 PUSH8 0xDF5B266C534B4EBF PUSH1 0xC0 SHL PUSH2 0x2F83 JUMP JUMPDEST PUSH2 0x108D PUSH8 0x495020856EA80912 PUSH1 0xC0 SHL PUSH2 0x2F83 JUMP JUMPDEST PUSH2 0x10A1 PUSH8 0xB218C995538591E4 PUSH1 0xC0 SHL PUSH2 0x2F83 JUMP JUMPDEST PUSH2 0x10B5 PUSH8 0x418B607C7ECECE70 PUSH1 0xC0 SHL PUSH2 0x2F83 JUMP JUMPDEST PUSH1 0xD PUSH1 0x2 SWAP1 SLOAD SWAP1 PUSH2 0x100 EXP SWAP1 DIV PUSH20 0xFFFFFFFFFFFFFFFFFFFFFFFFFFFFFFFFFFFFFFFF AND PUSH20 0xFFFFFFFFFFFFFFFFFFFFFFFFFFFFFFFFFFFFFFFF AND CALLER PUSH20 0xFFFFFFFFFFFFFFFFFFFFFFFFFFFFFFFFFFFFFFFF AND EQ PUSH2 0x1145 JUMPI PUSH1 0x40 MLOAD PUSH32 0x8C379A000000000000000000000000000000000000000000000000000000000 DUP2 MSTORE PUSH1 0x4 ADD PUSH2 0x113C SWAP1 PUSH2 0x50CD JUMP JUMPDEST PUSH1 0x40 MLOAD DUP1 SWAP2 SUB SWAP1 REVERT JUMPDEST PUSH2 0x1159 PUSH8 0xB3350CBB98409C9E PUSH1 0xC0 SHL PUSH2 0x2F83 JUMP JUMPDEST PUSH2 0x116D PUSH8 0xD2732C306C76E7C0 PUSH1 0xC0 SHL PUSH2 0x2F83 JUMP JUMPDEST PUSH2 0x1181 PUSH8 0x312EBDDC72736B1C PUSH1 0xC0 SHL PUSH2 0x2F83 JUMP JUMPDEST PUSH2 0x1195 PUSH8 0x9A10747D1DC4B076 PUSH1 0xC0 SHL PUSH2 0x2F83 JUMP JUMPDEST PUSH2 0x11A9 PUSH8 0x7F4177EB89F1C11F PUSH1 0xC0 SHL PUSH2 0x2F83 JUMP JUMPDEST PUSH1 0x0 PUSH1 0xE PUSH1 0x0 DUP4 PUSH20 0xFFFFFFFFFFFFFFFFFFFFFFFFFFFFFFFFFFFFFFFF AND PUSH20 0xFFFFFFFFFFFFFFFFFFFFFFFFFFFFFFFFFFFFFFFF AND DUP2 MSTORE PUSH1 0x20 ADD SWAP1 DUP2 MSTORE PUSH1 0x20 ADD PUSH1 0x0 KECCAK256 PUSH1 0x0 PUSH2 0x100 EXP DUP2 SLOAD DUP2 PUSH1 0xFF MUL NOT AND SWAP1 DUP4 ISZERO ISZERO MUL OR SWAP1 SSTORE POP POP JUMP JUMPDEST PUSH1 0x0 PUSH2 0x121A PUSH8 0x71828F1AC2A66E7A PUSH1 0xC0 SHL PUSH2 0x2F83 JUMP JUMPDEST PUSH2 0x122E PUSH8 0x75CBFE68DE29B45A PUSH1 0xC0 SHL PUSH2 0x2F83 JUMP JUMPDEST PUSH2 0x1242 PUSH8 0xCBFBD24841AE32F1 PUSH1 0xC0 SHL PUSH2 0x2F83 JUMP JUMPDEST PUSH2 0x124C PUSH1 0x8 PUSH2 0x3960 JUMP JUMPDEST SWAP1 POP SWAP1 JUMP JUMPDEST PUSH2 0x126C DUP4 DUP4 DUP4 PUSH1 0x40 MLOAD DUP1 PUSH1 0x20 ADD PUSH1 0x40 MSTORE DUP1 PUSH1 0x0 DUP2 MSTORE POP PUSH2 0x22EE JUMP JUMPDEST POP POP POP JUMP JUMPDEST PUSH2 0x1285 PUSH8 0xA2E5354C9DDF191 PUSH1 0xC0 SHL PUSH2 0x2F83 JUMP JUMPDEST PUSH2 0x1299 PUSH8 0xDF5B266C534B4EBF PUSH1 0xC0 SHL PUSH2 0x2F83 JUMP JUMPDEST PUSH2 0x12AD PUSH8 0x495020856EA80912 PUSH1 0xC0 SHL PUSH2 0x2F83 JUMP JUMPDEST PUSH2 0x12C1 PUSH8 0xB218C995538591E4 PUSH1 0xC0 SHL PUSH2 0x2F83 JUMP JUMPDEST PUSH2 0x12D5 PUSH8 0x418B607C7ECECE70 PUSH1 0xC0 SHL PUSH2 0x2F83 JUMP JUMPDEST PUSH1 0xD PUSH1 0x2 SWAP1 SLOAD SWAP1 PUSH2 0x100 EXP SWAP1 DIV PUSH20 0xFFFFFFFFFFFFFFFFFFFFFFFFFFFFFFFFFFFFFFFF AND PUSH20 0xFFFFFFFFFFFFFFFFFFFFFFFFFFFFFFFFFFFFFFFF AND CALLER PUSH20 0xFFFFFFFFFFFFFFFFFFFFFFFFFFFFFFFFFFFFFFFF AND EQ PUSH2 0x1365 JUMPI PUSH1 0x40 MLOAD PUSH32 0x8C379A000000000000000000000000000000000000000000000000000000000 DUP2 MSTORE PUSH1 0x4 ADD PUSH2 0x135C SWAP1 PUSH2 0x50CD JUMP JUMPDEST PUSH1 0x40 MLOAD DUP1 SWAP2 SUB SWAP1 REVERT JUMPDEST PUSH2 0x1379 PUSH8 0xB3350CBB98409C9E PUSH1 0xC0 SHL PUSH2 0x2F83 JUMP JUMPDEST PUSH2 0x138D PUSH8 0xD2732C306C76E7C0 PUSH1 0xC0 SHL PUSH2 0x2F83 JUMP JUMPDEST PUSH2 0x13A1 PUSH8 0xA68D0CF4577A23C PUSH1 0xC0 SHL PUSH2 0x2F83 JUMP JUMPDEST PUSH2 0x13B5 PUSH8 0x22F7E5DC58909F92 PUSH1 0xC0 SHL PUSH2 0x2F83 JUMP JUMPDEST PUSH2 0x13C9 PUSH8 0xEE8DBB6B1708EFA1 PUSH1 0xC0 SHL PUSH2 0x2F83 JUMP JUMPDEST PUSH1 0x0 PUSH1 0xF PUSH1 0x0 DUP4 PUSH20 0xFFFFFFFFFFFFFFFFFFFFFFFFFFFFFFFFFFFFFFFF AND PUSH20 0xFFFFFFFFFFFFFFFFFFFFFFFFFFFFFFFFFFFFFFFF AND DUP2 MSTORE PUSH1 0x20 ADD SWAP1 DUP2 MSTORE PUSH1 0x20 ADD PUSH1 0x0 KECCAK256 PUSH1 0x0 PUSH2 0x100 EXP DUP2 SLOAD DUP2 PUSH1 0xFF MUL NOT AND SWAP1 DUP4 ISZERO ISZERO MUL OR SWAP1 SSTORE POP POP JUMP JUMPDEST PUSH1 0xB SLOAD DUP2 JUMP JUMPDEST PUSH1 0x0 PUSH2 0x1440 PUSH8 0xC4FDF53B506395B0 PUSH1 0xC0 SHL PUSH2 0x2F83 JUMP JUMPDEST PUSH2 0x1454 PUSH8 0xC02717DEBB4C8A6 PUSH1 0xC0 SHL PUSH2 0x2F83 JUMP JUMPDEST PUSH2 0x1468 PUSH8 0x57ED4C930FA636AB PUSH1 0xC0 SHL PUSH2 0x2F83 JUMP JUMPDEST PUSH1 0xE PUSH1 0x0 DUP4 PUSH20 0xFFFFFFFFFFFFFFFFFFFFFFFFFFFFFFFFFFFFFFFF AND PUSH20 0xFFFFFFFFFFFFFFFFFFFFFFFFFFFFFFFFFFFFFFFF AND DUP2 MSTORE PUSH1 0x20 ADD SWAP1 DUP2 MSTORE PUSH1 0x20 ADD PUSH1 0x0 KECCAK256 PUSH1 0x0 SWAP1 SLOAD SWAP1 PUSH2 0x100 EXP SWAP1 DIV PUSH1 0xFF AND SWAP1 POP SWAP2 SWAP1 POP JUMP JUMPDEST PUSH2 0x14D0 PUSH8 0x9163286EADA8FA47 PUSH1 0xC0 SHL PUSH2 0x2F83 JUMP JUMPDEST PUSH2 0x14E4 PUSH8 0xDF5B266C534B4EBF PUSH1 0xC0 SHL PUSH2 0x2F83 JUMP JUMPDEST PUSH2 0x14F8 PUSH8 0x495020856EA80912 PUSH1 0xC0 SHL PUSH2 0x2F83 JUMP JUMPDEST PUSH2 0x150C PUSH8 0xB218C995538591E4 PUSH1 0xC0 SHL PUSH2 0x2F83 JUMP JUMPDEST PUSH2 0x1520 PUSH8 0x418B607C7ECECE70 PUSH1 0xC0 SHL PUSH2 0x2F83 JUMP JUMPDEST PUSH1 0xD PUSH1 0x2 SWAP1 SLOAD SWAP1 PUSH2 0x100 EXP SWAP1 DIV PUSH20 0xFFFFFFFFFFFFFFFFFFFFFFFFFFFFFFFFFFFFFFFF AND PUSH20 0xFFFFFFFFFFFFFFFFFFFFFFFFFFFFFFFFFFFFFFFF AND CALLER PUSH20 0xFFFFFFFFFFFFFFFFFFFFFFFFFFFFFFFFFFFFFFFF AND EQ PUSH2 0x15B0 JUMPI PUSH1 0x40 MLOAD PUSH32 0x8C379A000000000000000000000000000000000000000000000000000000000 DUP2 MSTORE PUSH1 0x4 ADD PUSH2 0x15A7 SWAP1 PUSH2 0x50CD JUMP JUMPDEST PUSH1 0x40 MLOAD DUP1 SWAP2 SUB SWAP1 REVERT JUMPDEST PUSH2 0x15C4 PUSH8 0xB3350CBB98409C9E PUSH1 0xC0 SHL PUSH2 0x2F83 JUMP JUMPDEST PUSH2 0x15D8 PUSH8 0xD2732C306C76E7C0 PUSH1 0xC0 SHL PUSH2 0x2F83 JUMP JUMPDEST PUSH2 0x15EC PUSH8 0xB4DF5FE0C6B9B77D PUSH1 0xC0 SHL PUSH2 0x2F83 JUMP JUMPDEST PUSH2 0x1600 PUSH8 0x9B2CA18D721C3B5B PUSH1 0xC0 SHL PUSH2 0x2F83 JUMP JUMPDEST PUSH2 0x1614 PUSH8 0xC63A4E0A5B3B68B0 PUSH1 0xC0 SHL PUSH2 0x2F83 JUMP JUMPDEST DUP1 PUSH1 0x9 DUP2 SWAP1 SSTORE POP POP JUMP JUMPDEST PUSH2 0x1632 PUSH8 0x6C6C44A66D64AD73 PUSH1 0xC0 SHL PUSH2 0x2F83 JUMP JUMPDEST PUSH2 0x1646 PUSH8 0xDF5B266C534B4EBF PUSH1 0xC0 SHL PUSH2 0x2F83 JUMP JUMPDEST PUSH2 0x165A PUSH8 0x495020856EA80912 PUSH1 0xC0 SHL PUSH2 0x2F83 JUMP JUMPDEST PUSH2 0x166E PUSH8 0xB218C995538591E4 PUSH1 0xC0 SHL PUSH2 0x2F83 JUMP JUMPDEST PUSH2 0x1682 PUSH8 0x418B607C7ECECE70 PUSH1 0xC0 SHL PUSH2 0x2F83 JUMP JUMPDEST PUSH1 0xD PUSH1 0x2 SWAP1 SLOAD SWAP1 PUSH2 0x100 EXP SWAP1 DIV PUSH20 0xFFFFFFFFFFFFFFFFFFFFFFFFFFFFFFFFFFFFFFFF AND PUSH20 0xFFFFFFFFFFFFFFFFFFFFFFFFFFFFFFFFFFFFFFFF AND CALLER PUSH20 0xFFFFFFFFFFFFFFFFFFFFFFFFFFFFFFFFFFFFFFFF AND EQ PUSH2 0x1712 JUMPI PUSH1 0x40 MLOAD PUSH32 0x8C379A000000000000000000000000000000000000000000000000000000000 DUP2 MSTORE PUSH1 0x4 ADD PUSH2 0x1709 SWAP1 PUSH2 0x50CD JUMP JUMPDEST PUSH1 0x40 MLOAD DUP1 SWAP2 SUB SWAP1 REVERT JUMPDEST PUSH2 0x1726 PUSH8 0xB3350CBB98409C9E PUSH1 0xC0 SHL PUSH2 0x2F83 JUMP JUMPDEST PUSH2 0x173A PUSH8 0xD2732C306C76E7C0 PUSH1 0xC0 SHL PUSH2 0x2F83 JUMP JUMPDEST PUSH2 0x174E PUSH8 0x5C3F35492FE3E523 PUSH1 0xC0 SHL PUSH2 0x2F83 JUMP JUMPDEST PUSH2 0x1762 PUSH8 0x85859A2E51F8F9FF PUSH1 0xC0 SHL PUSH2 0x2F83 JUMP JUMPDEST PUSH2 0x1776 PUSH8 0x938C5BE971D81DB6 PUSH1 0xC0 SHL PUSH2 0x2F83 JUMP JUMPDEST DUP1 PUSH1 0xD PUSH1 0x0 PUSH2 0x100 EXP DUP2 SLOAD DUP2 PUSH1 0xFF MUL NOT AND SWAP1 DUP4 ISZERO ISZERO MUL OR SWAP1 SSTORE POP POP JUMP JUMPDEST PUSH1 0x0 DUP1 PUSH1 0x2 PUSH1 0x0 DUP5 DUP2 MSTORE PUSH1 0x20 ADD SWAP1 DUP2 MSTORE PUSH1 0x20 ADD PUSH1 0x0 KECCAK256 PUSH1 0x0 SWAP1 SLOAD SWAP1 PUSH2 0x100 EXP SWAP1 DIV PUSH20 0xFFFFFFFFFFFFFFFFFFFFFFFFFFFFFFFFFFFFFFFF AND SWAP1 POP PUSH1 0x0 PUSH20 0xFFFFFFFFFFFFFFFFFFFFFFFFFFFFFFFFFFFFFFFF AND DUP2 PUSH20 0xFFFFFFFFFFFFFFFFFFFFFFFFFFFFFFFFFFFFFFFF AND EQ ISZERO PUSH2 0x183C JUMPI PUSH1 0x40 MLOAD PUSH32 0x8C379A000000000000000000000000000000000000000000000000000000000 DUP2 MSTORE PUSH1 0x4 ADD PUSH2 0x1833 SWAP1 PUSH2 0x4FAD JUMP JUMPDEST PUSH1 0x40 MLOAD DUP1 SWAP2 SUB SWAP1 REVERT JUMPDEST DUP1 SWAP2 POP POP SWAP2 SWAP1 POP JUMP JUMPDEST PUSH1 0x0 PUSH2 0x185B PUSH8 0x345AB38C58299608 PUSH1 0xC0 SHL PUSH2 0x2F83 JUMP JUMPDEST PUSH2 0x186F PUSH8 0x4FD2C37D1761BCBD PUSH1 0xC0 SHL PUSH2 0x2F83 JUMP JUMPDEST PUSH2 0x1883 PUSH8 0x885600DCCBB6C731 PUSH1 0xC0 SHL PUSH2 0x2F83 JUMP JUMPDEST PUSH2 0x188D PUSH1 0x7 PUSH2 0x3960 JUMP JUMPDEST SWAP1 POP SWAP1 JUMP JUMPDEST PUSH2 0x18A6 PUSH8 0x8153AC3CC9167F77 PUSH1 0xC0 SHL PUSH2 0x2F83 JUMP JUMPDEST PUSH2 0x18BA PUSH8 0xDF5B266C534B4EBF PUSH1 0xC0 SHL PUSH2 0x2F83 JUMP JUMPDEST PUSH2 0x18CE PUSH8 0x495020856EA80912 PUSH1 0xC0 SHL PUSH2 0x2F83 JUMP JUMPDEST PUSH2 0x18E2 PUSH8 0xB218C995538591E4 PUSH1 0xC0 SHL PUSH2 0x2F83 JUMP JUMPDEST PUSH2 0x18F6 PUSH8 0x418B607C7ECECE70 PUSH1 0xC0 SHL PUSH2 0x2F83 JUMP JUMPDEST PUSH1 0xD PUSH1 0x2 SWAP1 SLOAD SWAP1 PUSH2 0x100 EXP SWAP1 DIV PUSH20 0xFFFFFFFFFFFFFFFFFFFFFFFFFFFFFFFFFFFFFFFF AND PUSH20 0xFFFFFFFFFFFFFFFFFFFFFFFFFFFFFFFFFFFFFFFF AND CALLER PUSH20 0xFFFFFFFFFFFFFFFFFFFFFFFFFFFFFFFFFFFFFFFF AND EQ PUSH2 0x1986 JUMPI PUSH1 0x40 MLOAD PUSH32 0x8C379A000000000000000000000000000000000000000000000000000000000 DUP2 MSTORE PUSH1 0x4 ADD PUSH2 0x197D SWAP1 PUSH2 0x50CD JUMP JUMPDEST PUSH1 0x40 MLOAD DUP1 SWAP2 SUB SWAP1 REVERT JUMPDEST PUSH2 0x199A PUSH8 0xB3350CBB98409C9E PUSH1 0xC0 SHL PUSH2 0x2F83 JUMP JUMPDEST PUSH2 0x19AE PUSH8 0xD2732C306C76E7C0 PUSH1 0xC0 SHL PUSH2 0x2F83 JUMP JUMPDEST PUSH2 0x19C2 PUSH8 0x83B5890A689BFC12 PUSH1 0xC0 SHL PUSH2 0x2F83 JUMP JUMPDEST PUSH2 0x19D6 PUSH8 0xC5FB0799ABA14A53 PUSH1 0xC0 SHL PUSH2 0x2F83 JUMP JUMPDEST PUSH2 0x19EA PUSH8 0xAC89F0D2EE04A446 PUSH1 0xC0 SHL PUSH2 0x2F83 JUMP JUMPDEST DUP1 PUSH1 0x10 PUSH1 0x0 DUP5 PUSH20 0xFFFFFFFFFFFFFFFFFFFFFFFFFFFFFFFFFFFFFFFF AND PUSH20 0xFFFFFFFFFFFFFFFFFFFFFFFFFFFFFFFFFFFFFFFF AND DUP2 MSTORE PUSH1 0x20 ADD SWAP1 DUP2 MSTORE PUSH1 0x20 ADD PUSH1 0x0 KECCAK256 PUSH1 0x0 PUSH2 0x100 EXP DUP2 SLOAD DUP2 PUSH1 0xFF MUL NOT AND SWAP1 DUP4 ISZERO ISZERO MUL OR SWAP1 SSTORE POP POP POP JUMP JUMPDEST PUSH1 0x0 DUP1 PUSH20 0xFFFFFFFFFFFFFFFFFFFFFFFFFFFFFFFFFFFFFFFF AND DUP3 PUSH20 0xFFFFFFFFFFFFFFFFFFFFFFFFFFFFFFFFFFFFFFFF AND EQ ISZERO PUSH2 0x1AB6 JUMPI PUSH1 0x40 MLOAD PUSH32 0x8C379A000000000000000000000000000000000000000000000000000000000 DUP2 MSTORE PUSH1 0x4 ADD PUSH2 0x1AAD SWAP1 PUSH2 0x4F8D JUMP JUMPDEST PUSH1 0x40 MLOAD DUP1 SWAP2 SUB SWAP1 REVERT JUMPDEST PUSH1 0x3 PUSH1 0x0 DUP4 PUSH20 0xFFFFFFFFFFFFFFFFFFFFFFFFFFFFFFFFFFFFFFFF AND PUSH20 0xFFFFFFFFFFFFFFFFFFFFFFFFFFFFFFFFFFFFFFFF AND DUP2 MSTORE PUSH1 0x20 ADD SWAP1 DUP2 MSTORE PUSH1 0x20 ADD PUSH1 0x0 KECCAK256 SLOAD SWAP1 POP SWAP2 SWAP1 POP JUMP JUMPDEST PUSH2 0x1B11 PUSH8 0xAE6343B9F1AADDBC PUSH1 0xC0 SHL PUSH2 0x2F83 JUMP JUMPDEST PUSH2 0x1B25 PUSH8 0xDF5B266C534B4EBF PUSH1 0xC0 SHL PUSH2 0x2F83 JUMP JUMPDEST PUSH2 0x1B39 PUSH8 0x495020856EA80912 PUSH1 0xC0 SHL PUSH2 0x2F83 JUMP JUMPDEST PUSH2 0x1B4D PUSH8 0xB218C995538591E4 PUSH1 0xC0 SHL PUSH2 0x2F83 JUMP JUMPDEST PUSH2 0x1B61 PUSH8 0x418B607C7ECECE70 PUSH1 0xC0 SHL PUSH2 0x2F83 JUMP JUMPDEST PUSH1 0xD PUSH1 0x2 SWAP1 SLOAD SWAP1 PUSH2 0x100 EXP SWAP1 DIV PUSH20 0xFFFFFFFFFFFFFFFFFFFFFFFFFFFFFFFFFFFFFFFF AND PUSH20 0xFFFFFFFFFFFFFFFFFFFFFFFFFFFFFFFFFFFFFFFF AND CALLER PUSH20 0xFFFFFFFFFFFFFFFFFFFFFFFFFFFFFFFFFFFFFFFF AND EQ PUSH2 0x1BF1 JUMPI PUSH1 0x40 MLOAD PUSH32 0x8C379A000000000000000000000000000000000000000000000000000000000 DUP2 MSTORE PUSH1 0x4 ADD PUSH2 0x1BE8 SWAP1 PUSH2 0x50CD JUMP JUMPDEST PUSH1 0x40 MLOAD DUP1 SWAP2 SUB SWAP1 REVERT JUMPDEST PUSH2 0x1C05 PUSH8 0xB3350CBB98409C9E PUSH1 0xC0 SHL PUSH2 0x2F83 JUMP JUMPDEST PUSH2 0x1C19 PUSH8 0xD2732C306C76E7C0 PUSH1 0xC0 SHL PUSH2 0x2F83 JUMP JUMPDEST PUSH2 0x1C2D PUSH8 0xF1D8A95308492186 PUSH1 0xC0 SHL PUSH2 0x2F83 JUMP JUMPDEST PUSH2 0x1C41 PUSH8 0x2D81E2301B7B7734 PUSH1 0xC0 SHL PUSH2 0x2F83 JUMP JUMPDEST PUSH2 0x1C55 PUSH8 0x60C6A87CD9C2D323 PUSH1 0xC0 SHL PUSH2 0x2F83 JUMP JUMPDEST DUP1 PUSH1 0xC SWAP1 DUP1 MLOAD SWAP1 PUSH1 0x20 ADD SWAP1 PUSH2 0x1C6B SWAP3 SWAP2 SWAP1 PUSH2 0x4340 JUMP JUMPDEST POP POP JUMP JUMPDEST PUSH1 0x0 PUSH2 0x1C85 PUSH8 0xF75A8D9393BC9FA8 PUSH1 0xC0 SHL PUSH2 0x2F83 JUMP JUMPDEST PUSH2 0x1C99 PUSH8 0xDF7D49F7C5515C18 PUSH1 0xC0 SHL PUSH2 0x2F83 JUMP JUMPDEST PUSH2 0x1CAD PUSH8 0xCD7943DE1AE1BE40 PUSH1 0xC0 SHL PUSH2 0x2F83 JUMP JUMPDEST PUSH1 0xD PUSH1 0x2 SWAP1 SLOAD SWAP1 PUSH2 0x100 EXP SWAP1 DIV PUSH20 0xFFFFFFFFFFFFFFFFFFFFFFFFFFFFFFFFFFFFFFFF AND SWAP1 POP SWAP1 JUMP JUMPDEST PUSH1 0x60 PUSH1 0x1 DUP1 SLOAD PUSH2 0x1CE4 SWAP1 PUSH2 0x53AE JUMP JUMPDEST DUP1 PUSH1 0x1F ADD PUSH1 0x20 DUP1 SWAP2 DIV MUL PUSH1 0x20 ADD PUSH1 0x40 MLOAD SWAP1 DUP2 ADD PUSH1 0x40 MSTORE DUP1 SWAP3 SWAP2 SWAP1 DUP2 DUP2 MSTORE PUSH1 0x20 ADD DUP3 DUP1 SLOAD PUSH2 0x1D10 SWAP1 PUSH2 0x53AE JUMP JUMPDEST DUP1 ISZERO PUSH2 0x1D5D JUMPI DUP1 PUSH1 0x1F LT PUSH2 0x1D32 JUMPI PUSH2 0x100 DUP1 DUP4 SLOAD DIV MUL DUP4 MSTORE SWAP2 PUSH1 0x20 ADD SWAP2 PUSH2 0x1D5D JUMP JUMPDEST DUP3 ADD SWAP2 SWAP1 PUSH1 0x0 MSTORE PUSH1 0x20 PUSH1 0x0 KECCAK256 SWAP1 JUMPDEST DUP2 SLOAD DUP2 MSTORE SWAP1 PUSH1 0x1 ADD SWAP1 PUSH1 0x20 ADD DUP1 DUP4 GT PUSH2 0x1D40 JUMPI DUP3 SWAP1 SUB PUSH1 0x1F AND DUP3 ADD SWAP2 JUMPDEST POP POP POP POP POP SWAP1 POP SWAP1 JUMP JUMPDEST PUSH2 0x1D7B PUSH8 0x9CBC2DFCAAD53A69 PUSH1 0xC0 SHL PUSH2 0x2F83 JUMP JUMPDEST PUSH2 0x1D8F PUSH8 0xDF5B266C534B4EBF PUSH1 0xC0 SHL PUSH2 0x2F83 JUMP JUMPDEST PUSH2 0x1DA3 PUSH8 0x495020856EA80912 PUSH1 0xC0 SHL PUSH2 0x2F83 JUMP JUMPDEST PUSH2 0x1DB7 PUSH8 0xB218C995538591E4 PUSH1 0xC0 SHL PUSH2 0x2F83 JUMP JUMPDEST PUSH2 0x1DCB PUSH8 0x418B607C7ECECE70 PUSH1 0xC0 SHL PUSH2 0x2F83 JUMP JUMPDEST PUSH1 0xD PUSH1 0x2 SWAP1 SLOAD SWAP1 PUSH2 0x100 EXP SWAP1 DIV PUSH20 0xFFFFFFFFFFFFFFFFFFFFFFFFFFFFFFFFFFFFFFFF AND PUSH20 0xFFFFFFFFFFFFFFFFFFFFFFFFFFFFFFFFFFFFFFFF AND CALLER PUSH20 0xFFFFFFFFFFFFFFFFFFFFFFFFFFFFFFFFFFFFFFFF AND EQ PUSH2 0x1E5B JUMPI PUSH1 0x40 MLOAD PUSH32 0x8C379A000000000000000000000000000000000000000000000000000000000 DUP2 MSTORE PUSH1 0x4 ADD PUSH2 0x1E52 SWAP1 PUSH2 0x50CD JUMP JUMPDEST PUSH1 0x40 MLOAD DUP1 SWAP2 SUB SWAP1 REVERT JUMPDEST PUSH2 0x1E6F PUSH8 0xB3350CBB98409C9E PUSH1 0xC0 SHL PUSH2 0x2F83 JUMP JUMPDEST PUSH2 0x1E83 PUSH8 0xD2732C306C76E7C0 PUSH1 0xC0 SHL PUSH2 0x2F83 JUMP JUMPDEST PUSH2 0x1E97 PUSH8 0x8AC058E1FFDAB06B PUSH1 0xC0 SHL PUSH2 0x2F83 JUMP JUMPDEST PUSH2 0x1EAB PUSH8 0x56FA3CD39E77F8F1 PUSH1 0xC0 SHL PUSH2 0x2F83 JUMP JUMPDEST PUSH2 0x1EBF PUSH8 0xD364CE9AF96ACAFC PUSH1 0xC0 SHL PUSH2 0x2F83 JUMP JUMPDEST PUSH1 0x1 PUSH1 0xE PUSH1 0x0 DUP4 PUSH20 0xFFFFFFFFFFFFFFFFFFFFFFFFFFFFFFFFFFFFFFFF AND PUSH20 0xFFFFFFFFFFFFFFFFFFFFFFFFFFFFFFFFFFFFFFFF AND DUP2 MSTORE PUSH1 0x20 ADD SWAP1 DUP2 MSTORE PUSH1 0x20 ADD PUSH1 0x0 KECCAK256 PUSH1 0x0 PUSH2 0x100 EXP DUP2 SLOAD DUP2 PUSH1 0xFF MUL NOT AND SWAP1 DUP4 ISZERO ISZERO MUL OR SWAP1 SSTORE POP POP JUMP JUMPDEST PUSH2 0x1F2C PUSH2 0x1F25 PUSH2 0x2EC2 JUMP JUMPDEST DUP4 DUP4 PUSH2 0x396E JUMP JUMPDEST POP POP JUMP JUMPDEST PUSH2 0x1F44 PUSH8 0xB73B66DC3DAC7E7B PUSH1 0xC0 SHL PUSH2 0x2F83 JUMP JUMPDEST PUSH2 0x1F58 PUSH8 0xDF5B266C534B4EBF PUSH1 0xC0 SHL PUSH2 0x2F83 JUMP JUMPDEST PUSH2 0x1F6C PUSH8 0x495020856EA80912 PUSH1 0xC0 SHL PUSH2 0x2F83 JUMP JUMPDEST PUSH2 0x1F80 PUSH8 0xB218C995538591E4 PUSH1 0xC0 SHL PUSH2 0x2F83 JUMP JUMPDEST PUSH2 0x1F94 PUSH8 0x418B607C7ECECE70 PUSH1 0xC0 SHL PUSH2 0x2F83 JUMP JUMPDEST PUSH1 0xD PUSH1 0x2 SWAP1 SLOAD SWAP1 PUSH2 0x100 EXP SWAP1 DIV PUSH20 0xFFFFFFFFFFFFFFFFFFFFFFFFFFFFFFFFFFFFFFFF AND PUSH20 0xFFFFFFFFFFFFFFFFFFFFFFFFFFFFFFFFFFFFFFFF AND CALLER PUSH20 0xFFFFFFFFFFFFFFFFFFFFFFFFFFFFFFFFFFFFFFFF AND EQ PUSH2 0x2024 JUMPI PUSH1 0x40 MLOAD PUSH32 0x8C379A000000000000000000000000000000000000000000000000000000000 DUP2 MSTORE PUSH1 0x4 ADD PUSH2 0x201B SWAP1 PUSH2 0x50CD JUMP JUMPDEST PUSH1 0x40 MLOAD DUP1 SWAP2 SUB SWAP1 REVERT JUMPDEST PUSH2 0x2038 PUSH8 0xB3350CBB98409C9E PUSH1 0xC0 SHL PUSH2 0x2F83 JUMP JUMPDEST PUSH2 0x204C PUSH8 0xD2732C306C76E7C0 PUSH1 0xC0 SHL PUSH2 0x2F83 JUMP JUMPDEST PUSH2 0x2060 PUSH8 0xB810D5435E1F497B PUSH1 0xC0 SHL PUSH2 0x2F83 JUMP JUMPDEST PUSH2 0x2074 PUSH8 0x889E308001993C91 PUSH1 0xC0 SHL PUSH2 0x2F83 JUMP JUMPDEST PUSH2 0x2088 PUSH8 0x6C15E3983A83A74A PUSH1 0xC0 SHL PUSH2 0x2F83 JUMP JUMPDEST PUSH2 0x209C PUSH8 0x340C77A803FC8367 PUSH1 0xC0 SHL PUSH2 0x2F83 JUMP JUMPDEST PUSH1 0x0 SELFBALANCE SWAP1 POP PUSH2 0x20B5 PUSH8 0xC50B4F6AF19C3560 PUSH1 0xC0 SHL PUSH2 0x2F83 JUMP JUMPDEST PUSH2 0x20C9 PUSH8 0xBD53D23E610E4423 PUSH1 0xC0 SHL PUSH2 0x2F83 JUMP JUMPDEST PUSH2 0x20DD PUSH8 0x37866FD1DB66474D PUSH1 0xC0 SHL PUSH2 0x2F83 JUMP JUMPDEST PUSH1 0x0 DUP2 GT PUSH2 0x2120 JUMPI PUSH1 0x40 MLOAD PUSH32 0x8C379A000000000000000000000000000000000000000000000000000000000 DUP2 MSTORE PUSH1 0x4 ADD PUSH2 0x2117 SWAP1 PUSH2 0x512D JUMP JUMPDEST PUSH1 0x40 MLOAD DUP1 SWAP2 SUB SWAP1 REVERT JUMPDEST PUSH2 0x2134 PUSH8 0xC9672863199C4F7B PUSH1 0xC0 SHL PUSH2 0x2F83 JUMP JUMPDEST PUSH2 0x2148 PUSH8 0x11003F0EE8FE5857 PUSH1 0xC0 SHL PUSH2 0x2F83 JUMP JUMPDEST PUSH2 0x215C PUSH8 0x94E4DE0D82C2A091 PUSH1 0xC0 SHL PUSH2 0x2F83 JUMP JUMPDEST PUSH1 0x0 CALLER PUSH20 0xFFFFFFFFFFFFFFFFFFFFFFFFFFFFFFFFFFFFFFFF AND DUP3 PUSH1 0x40 MLOAD PUSH2 0x2182 SWAP1 PUSH2 0x4D14 JUMP JUMPDEST PUSH1 0x0 PUSH1 0x40 MLOAD DUP1 DUP4 SUB DUP2 DUP6 DUP8 GAS CALL SWAP3 POP POP POP RETURNDATASIZE DUP1 PUSH1 0x0 DUP2 EQ PUSH2 0x21BF JUMPI PUSH1 0x40 MLOAD SWAP2 POP PUSH1 0x1F NOT PUSH1 0x3F RETURNDATASIZE ADD AND DUP3 ADD PUSH1 0x40 MSTORE RETURNDATASIZE DUP3 MSTORE RETURNDATASIZE PUSH1 0x0 PUSH1 0x20 DUP5 ADD RETURNDATACOPY PUSH2 0x21C4 JUMP JUMPDEST PUSH1 0x60 SWAP2 POP JUMPDEST POP POP SWAP1 POP PUSH2 0x21DC PUSH8 0x65473C2A8DE55E5A PUSH1 0xC0 SHL PUSH2 0x2F83 JUMP JUMPDEST PUSH2 0x21F0 PUSH8 0x3F778E4E6044604E PUSH1 0xC0 SHL PUSH2 0x2F83 JUMP JUMPDEST PUSH2 0x2204 PUSH8 0xBB08386A29D0F398 PUSH1 0xC0 SHL PUSH2 0x2F83 JUMP JUMPDEST DUP1 PUSH2 0x2244 JUMPI PUSH1 0x40 MLOAD PUSH32 0x8C379A000000000000000000000000000000000000000000000000000000000 DUP2 MSTORE PUSH1 0x4 ADD PUSH2 0x223B SWAP1 PUSH2 0x4DCD JUMP JUMPDEST PUSH1 0x40 MLOAD DUP1 SWAP2 SUB SWAP1 REVERT JUMPDEST PUSH2 0x2258 PUSH8 0xFA3D272061DF5E6C PUSH1 0xC0 SHL PUSH2 0x2F83 JUMP JUMPDEST POP POP JUMP JUMPDEST PUSH1 0x0 PUSH2 0x2272 PUSH8 0x39EDA4AD35974999 PUSH1 0xC0 SHL PUSH2 0x2F83 JUMP JUMPDEST PUSH2 0x2286 PUSH8 0xBC7E1625F12CA1FC PUSH1 0xC0 SHL PUSH2 0x2F83 JUMP JUMPDEST PUSH2 0x229A PUSH8 0x1C84C0A01DC8088 PUSH1 0xC0 SHL PUSH2 0x2F83 JUMP JUMPDEST PUSH1 0x10 PUSH1 0x0 DUP4 PUSH20 0xFFFFFFFFFFFFFFFFFFFFFFFFFFFFFFFFFFFFFFFF AND PUSH20 0xFFFFFFFFFFFFFFFFFFFFFFFFFFFFFFFFFFFFFFFF AND DUP2 MSTORE PUSH1 0x20 ADD SWAP1 DUP2 MSTORE PUSH1 0x20 ADD PUSH1 0x0 KECCAK256 PUSH1 0x0 SWAP1 SLOAD SWAP1 PUSH2 0x100 EXP SWAP1 DIV PUSH1 0xFF AND SWAP1 POP SWAP2 SWAP1 POP JUMP JUMPDEST PUSH2 0x22FF PUSH2 0x22F9 PUSH2 0x2EC2 JUMP JUMPDEST DUP4 PUSH2 0x3882 JUMP JUMPDEST PUSH2 0x233E JUMPI PUSH1 0x40 MLOAD PUSH32 0x8C379A000000000000000000000000000000000000000000000000000000000 DUP2 MSTORE PUSH1 0x4 ADD PUSH2 0x2335 SWAP1 PUSH2 0x50ED JUMP JUMPDEST PUSH1 0x40 MLOAD DUP1 SWAP2 SUB SWAP1 REVERT JUMPDEST PUSH2 0x234A DUP5 DUP5 DUP5 DUP5 PUSH2 0x3ADB JUMP JUMPDEST POP POP POP POP JUMP JUMPDEST PUSH2 0x2364 PUSH8 0x5A566E2255ADBE42 PUSH1 0xC0 SHL PUSH2 0x2F83 JUMP JUMPDEST PUSH2 0x2378 PUSH8 0xDF5B266C534B4EBF PUSH1 0xC0 SHL PUSH2 0x2F83 JUMP JUMPDEST PUSH2 0x238C PUSH8 0x495020856EA80912 PUSH1 0xC0 SHL PUSH2 0x2F83 JUMP JUMPDEST PUSH2 0x23A0 PUSH8 0xB218C995538591E4 PUSH1 0xC0 SHL PUSH2 0x2F83 JUMP JUMPDEST PUSH2 0x23B4 PUSH8 0x418B607C7ECECE70 PUSH1 0xC0 SHL PUSH2 0x2F83 JUMP JUMPDEST PUSH1 0xD PUSH1 0x2 SWAP1 SLOAD SWAP1 PUSH2 0x100 EXP SWAP1 DIV PUSH20 0xFFFFFFFFFFFFFFFFFFFFFFFFFFFFFFFFFFFFFFFF AND PUSH20 0xFFFFFFFFFFFFFFFFFFFFFFFFFFFFFFFFFFFFFFFF AND CALLER PUSH20 0xFFFFFFFFFFFFFFFFFFFFFFFFFFFFFFFFFFFFFFFF AND EQ PUSH2 0x2444 JUMPI PUSH1 0x40 MLOAD PUSH32 0x8C379A000000000000000000000000000000000000000000000000000000000 DUP2 MSTORE PUSH1 0x4 ADD PUSH2 0x243B SWAP1 PUSH2 0x50CD JUMP JUMPDEST PUSH1 0x40 MLOAD DUP1 SWAP2 SUB SWAP1 REVERT JUMPDEST PUSH2 0x2458 PUSH8 0xB3350CBB98409C9E PUSH1 0xC0 SHL PUSH2 0x2F83 JUMP JUMPDEST PUSH2 0x246C PUSH8 0xD2732C306C76E7C0 PUSH1 0xC0 SHL PUSH2 0x2F83 JUMP JUMPDEST PUSH2 0x2480 PUSH8 0x7AAA29D15C36E18B PUSH1 0xC0 SHL PUSH2 0x2F83 JUMP JUMPDEST PUSH2 0x2494 PUSH8 0xFD8510F9EC062388 PUSH1 0xC0 SHL PUSH2 0x2F83 JUMP JUMPDEST PUSH2 0x24A8 PUSH8 0xC1C53349CD43CAA6 PUSH1 0xC0 SHL PUSH2 0x2F83 JUMP JUMPDEST PUSH1 0x1 PUSH1 0xF PUSH1 0x0 DUP4 PUSH20 0xFFFFFFFFFFFFFFFFFFFFFFFFFFFFFFFFFFFFFFFF AND PUSH20 0xFFFFFFFFFFFFFFFFFFFFFFFFFFFFFFFFFFFFFFFF AND DUP2 MSTORE PUSH1 0x20 ADD SWAP1 DUP2 MSTORE PUSH1 0x20 ADD PUSH1 0x0 KECCAK256 PUSH1 0x0 PUSH2 0x100 EXP DUP2 SLOAD DUP2 PUSH1 0xFF MUL NOT AND SWAP1 DUP4 ISZERO ISZERO MUL OR SWAP1 SSTORE POP POP JUMP JUMPDEST PUSH1 0x60 PUSH2 0x2519 PUSH8 0x4E9619CCD2F030C1 PUSH1 0xC0 SHL PUSH2 0x2F83 JUMP JUMPDEST PUSH2 0x252D PUSH8 0xD923117B36B2AFB6 PUSH1 0xC0 SHL PUSH2 0x2F83 JUMP JUMPDEST PUSH2 0x2541 PUSH8 0xB1CBE867186F0CA0 PUSH1 0xC0 SHL PUSH2 0x2F83 JUMP JUMPDEST PUSH2 0x2555 PUSH8 0x96D1D8CAFEAEC331 PUSH1 0xC0 SHL PUSH2 0x2F83 JUMP JUMPDEST PUSH2 0x255E DUP3 PUSH2 0x2E56 JUMP JUMPDEST PUSH2 0x259D JUMPI PUSH1 0x40 MLOAD PUSH32 0x8C379A000000000000000000000000000000000000000000000000000000000 DUP2 MSTORE PUSH1 0x4 ADD PUSH2 0x2594 SWAP1 PUSH2 0x506D JUMP JUMPDEST PUSH1 0x40 MLOAD DUP1 SWAP2 SUB SWAP1 REVERT JUMPDEST PUSH2 0x25B1 PUSH8 0x5F548F8355841652 PUSH1 0xC0 SHL PUSH2 0x2F83 JUMP JUMPDEST PUSH2 0x25C5 PUSH8 0xFFF26C1DCB6D8375 PUSH1 0xC0 SHL PUSH2 0x2F83 JUMP JUMPDEST PUSH2 0x25D9 PUSH8 0x9A6BCD7BD7BEF416 PUSH1 0xC0 SHL PUSH2 0x2F83 JUMP JUMPDEST PUSH2 0x378 DUP3 GT PUSH2 0x262E JUMPI PUSH2 0x25F6 PUSH8 0xFC31B7B82B3981E0 PUSH1 0xC0 SHL PUSH2 0x2F83 JUMP JUMPDEST PUSH2 0x260A PUSH8 0x4CDD8B4F0E3A221B PUSH1 0xC0 SHL PUSH2 0x2F83 JUMP JUMPDEST PUSH2 0x261E PUSH8 0x27EE56099DF42A98 PUSH1 0xC0 SHL PUSH2 0x2F83 JUMP JUMPDEST PUSH2 0x2627 DUP3 PUSH2 0x3B37 JUMP JUMPDEST SWAP1 POP PUSH2 0x27D8 JUMP JUMPDEST PUSH2 0x2642 PUSH8 0x465E2795C78B4FAB PUSH1 0xC0 SHL PUSH2 0x2F83 JUMP JUMPDEST PUSH2 0x2656 PUSH8 0xF3B35FB934C907D3 PUSH1 0xC0 SHL PUSH2 0x2F83 JUMP JUMPDEST PUSH2 0x265F DUP3 PUSH2 0x2E56 JUMP JUMPDEST ISZERO PUSH2 0x272B JUMPI PUSH2 0x2678 PUSH8 0xB157365D52451F71 PUSH1 0xC0 SHL PUSH2 0x2F83 JUMP JUMPDEST PUSH2 0x268C PUSH8 0x158CCD23B3FB98DF PUSH1 0xC0 SHL PUSH2 0x2F83 JUMP JUMPDEST PUSH2 0x26A0 PUSH8 0x75AF706E86E2FFFD PUSH1 0xC0 SHL PUSH2 0x2F83 JUMP JUMPDEST PUSH1 0x0 PUSH2 0x26AA PUSH2 0x3BDE JUMP JUMPDEST MLOAD GT DUP1 ISZERO PUSH2 0x26C8 JUMPI POP PUSH2 0x26C7 PUSH8 0x6318D7B377E51B58 PUSH1 0xC0 SHL PUSH2 0x3CAB JUMP JUMPDEST JUMPDEST DUP1 PUSH2 0x26E3 JUMPI POP PUSH2 0x26E2 PUSH8 0xCBCDF7B5C02A3A2F PUSH1 0xC0 SHL PUSH2 0x3CB6 JUMP JUMPDEST JUMPDEST PUSH2 0x26FC JUMPI PUSH1 0x40 MLOAD DUP1 PUSH1 0x20 ADD PUSH1 0x40 MSTORE DUP1 PUSH1 0x0 DUP2 MSTORE POP PUSH2 0x2724 JUMP JUMPDEST PUSH2 0x2704 PUSH2 0x3BDE JUMP JUMPDEST PUSH1 0x40 MLOAD PUSH1 0x20 ADD PUSH2 0x2714 SWAP2 SWAP1 PUSH2 0x4CF2 JUMP JUMPDEST PUSH1 0x40 MLOAD PUSH1 0x20 DUP2 DUP4 SUB SUB DUP2 MSTORE SWAP1 PUSH1 0x40 MSTORE JUMPDEST SWAP1 POP PUSH2 0x27D8 JUMP JUMPDEST PUSH2 0x273F PUSH8 0x63662E03CBD8CEBA PUSH1 0xC0 SHL PUSH2 0x2F83 JUMP JUMPDEST PUSH2 0x2753 PUSH8 0x18A9F9436D21FEAD PUSH1 0xC0 SHL PUSH2 0x2F83 JUMP JUMPDEST PUSH2 0x2767 PUSH8 0xA6C1CC44341D59C4 PUSH1 0xC0 SHL PUSH2 0x2F83 JUMP JUMPDEST PUSH2 0x277B PUSH8 0xF9AD311468FBF8C1 PUSH1 0xC0 SHL PUSH2 0x2F83 JUMP JUMPDEST PUSH2 0x2784 DUP3 PUSH2 0x2E56 JUMP JUMPDEST PUSH2 0x27C3 JUMPI PUSH1 0x40 MLOAD PUSH32 0x8C379A000000000000000000000000000000000000000000000000000000000 DUP2 MSTORE PUSH1 0x4 ADD PUSH2 0x27BA SWAP1 PUSH2 0x506D JUMP JUMPDEST PUSH1 0x40 MLOAD DUP1 SWAP2 SUB SWAP1 REVERT JUMPDEST PUSH2 0x27D7 PUSH8 0xADB9720251824F9B PUSH1 0xC0 SHL PUSH2 0x2F83 JUMP JUMPDEST JUMPDEST SWAP2 SWAP1 POP JUMP JUMPDEST PUSH1 0xA SLOAD DUP2 JUMP JUMPDEST PUSH1 0x0 PUSH2 0x27F9 PUSH8 0x6E1350A03C094F25 PUSH1 0xC0 SHL PUSH2 0x2F83 JUMP JUMPDEST PUSH2 0x280D PUSH8 0x9D97F4F2541CB8FE PUSH1 0xC0 SHL PUSH2 0x2F83 JUMP JUMPDEST PUSH2 0x2821 PUSH8 0xE8B0B098CCE6E93E PUSH1 0xC0 SHL PUSH2 0x2F83 JUMP JUMPDEST PUSH2 0x282B PUSH1 0x6 PUSH2 0x3960 JUMP JUMPDEST SWAP1 POP SWAP1 JUMP JUMPDEST PUSH1 0x0 PUSH1 0x5 PUSH1 0x0 DUP5 PUSH20 0xFFFFFFFFFFFFFFFFFFFFFFFFFFFFFFFFFFFFFFFF AND PUSH20 0xFFFFFFFFFFFFFFFFFFFFFFFFFFFFFFFFFFFFFFFF AND DUP2 MSTORE PUSH1 0x20 ADD SWAP1 DUP2 MSTORE PUSH1 0x20 ADD PUSH1 0x0 KECCAK256 PUSH1 0x0 DUP4 PUSH20 0xFFFFFFFFFFFFFFFFFFFFFFFFFFFFFFFFFFFFFFFF AND PUSH20 0xFFFFFFFFFFFFFFFFFFFFFFFFFFFFFFFFFFFFFFFF AND DUP2 MSTORE PUSH1 0x20 ADD SWAP1 DUP2 MSTORE PUSH1 0x20 ADD PUSH1 0x0 KECCAK256 PUSH1 0x0 SWAP1 SLOAD SWAP1 PUSH2 0x100 EXP SWAP1 DIV PUSH1 0xFF AND SWAP1 POP SWAP3 SWAP2 POP POP JUMP JUMPDEST PUSH2 0x28D8 PUSH8 0x3AA736F9F953778E PUSH1 0xC0 SHL PUSH2 0x2F83 JUMP JUMPDEST PUSH2 0x28EC PUSH8 0x7D7115D4880A1C2E PUSH1 0xC0 SHL PUSH2 0x2F83 JUMP JUMPDEST PUSH2 0x2900 PUSH8 0x80023061F0E23996 PUSH1 0xC0 SHL PUSH2 0x2F83 JUMP JUMPDEST PUSH2 0x2914 PUSH8 0x148E30FB6415A44F PUSH1 0xC0 SHL PUSH2 0x2F83 JUMP JUMPDEST PUSH1 0xD PUSH1 0x0 SWAP1 SLOAD SWAP1 PUSH2 0x100 EXP SWAP1 DIV PUSH1 0xFF AND ISZERO PUSH2 0x2964 JUMPI PUSH1 0x40 MLOAD PUSH32 0x8C379A000000000000000000000000000000000000000000000000000000000 DUP2 MSTORE PUSH1 0x4 ADD PUSH2 0x295B SWAP1 PUSH2 0x4E2D JUMP JUMPDEST PUSH1 0x40 MLOAD DUP1 SWAP2 SUB SWAP1 REVERT JUMPDEST PUSH2 0x2978 PUSH8 0x501F6B1E029DAE63 PUSH1 0xC0 SHL PUSH2 0x2F83 JUMP JUMPDEST PUSH2 0x298C PUSH8 0x5F83884CC261CB73 PUSH1 0xC0 SHL PUSH2 0x2F83 JUMP JUMPDEST PUSH2 0x29A0 PUSH8 0xF7D431965DEF5FAF PUSH1 0xC0 SHL PUSH2 0x2F83 JUMP JUMPDEST PUSH2 0x29B4 PUSH8 0x1E6569D2B5ED1E70 PUSH1 0xC0 SHL PUSH2 0x2F83 JUMP JUMPDEST PUSH1 0xD PUSH1 0x1 SWAP1 SLOAD SWAP1 PUSH2 0x100 EXP SWAP1 DIV PUSH1 0xFF AND PUSH2 0x2A03 JUMPI PUSH1 0x40 MLOAD PUSH32 0x8C379A000000000000000000000000000000000000000000000000000000000 DUP2 MSTORE PUSH1 0x4 ADD PUSH2 0x29FA SWAP1 PUSH2 0x4E4D JUMP JUMPDEST PUSH1 0x40 MLOAD DUP1 SWAP2 SUB SWAP1 REVERT JUMPDEST PUSH2 0x2A17 PUSH8 0x955E7F0066B132C7 PUSH1 0xC0 SHL PUSH2 0x2F83 JUMP JUMPDEST PUSH2 0x2A2B PUSH8 0xD5B039DAD2AEEA23 PUSH1 0xC0 SHL PUSH2 0x2F83 JUMP JUMPDEST PUSH2 0x2A3F PUSH8 0xF328E58DE78E3547 PUSH1 0xC0 SHL PUSH2 0x2F83 JUMP JUMPDEST PUSH2 0x2A53 PUSH8 0xBA919AE986CA69CD PUSH1 0xC0 SHL PUSH2 0x2F83 JUMP JUMPDEST PUSH1 0x1 ISZERO ISZERO PUSH1 0xF PUSH1 0x0 CALLER PUSH20 0xFFFFFFFFFFFFFFFFFFFFFFFFFFFFFFFFFFFFFFFF AND PUSH20 0xFFFFFFFFFFFFFFFFFFFFFFFFFFFFFFFFFFFFFFFF AND DUP2 MSTORE PUSH1 0x20 ADD SWAP1 DUP2 MSTORE PUSH1 0x20 ADD PUSH1 0x0 KECCAK256 PUSH1 0x0 SWAP1 SLOAD SWAP1 PUSH2 0x100 EXP SWAP1 DIV PUSH1 0xFF AND ISZERO ISZERO EQ PUSH2 0x2AE6 JUMPI PUSH1 0x40 MLOAD PUSH32 0x8C379A000000000000000000000000000000000000000000000000000000000 DUP2 MSTORE PUSH1 0x4 ADD PUSH2 0x2ADD SWAP1 PUSH2 0x510D JUMP JUMPDEST PUSH1 0x40 MLOAD DUP1 SWAP2 SUB SWAP1 REVERT JUMPDEST PUSH2 0x2AFA PUSH8 0xDE30B7F9B87D89DC PUSH1 0xC0 SHL PUSH2 0x2F83 JUMP JUMPDEST PUSH2 0x2B0E PUSH8 0x634D1636C8FB2FC PUSH1 0xC0 SHL PUSH2 0x2F83 JUMP JUMPDEST PUSH2 0x2B22 PUSH8 0x9B52B4C5C30F5667 PUSH1 0xC0 SHL PUSH2 0x2F83 JUMP JUMPDEST PUSH2 0x2B36 PUSH8 0x3E11F429355F6D8C PUSH1 0xC0 SHL PUSH2 0x2F83 JUMP JUMPDEST PUSH2 0x378 DUP2 LT PUSH2 0x2B7A JUMPI PUSH1 0x40 MLOAD PUSH32 0x8C379A000000000000000000000000000000000000000000000000000000000 DUP2 MSTORE PUSH1 0x4 ADD PUSH2 0x2B71 SWAP1 PUSH2 0x508D JUMP JUMPDEST PUSH1 0x40 MLOAD DUP1 SWAP2 SUB SWAP1 REVERT JUMPDEST PUSH2 0x2B8E PUSH8 0xBA943FED6F3EBC44 PUSH1 0xC0 SHL PUSH2 0x2F83 JUMP JUMPDEST PUSH2 0x2BA2 PUSH8 0x325966E575165470 PUSH1 0xC0 SHL PUSH2 0x2F83 JUMP JUMPDEST PUSH2 0x2BB6 PUSH8 0xFCD9613D79154E6C PUSH1 0xC0 SHL PUSH2 0x2F83 JUMP JUMPDEST PUSH2 0x2BCA PUSH8 0x44289C913256B8B5 PUSH1 0xC0 SHL PUSH2 0x2F83 JUMP JUMPDEST PUSH2 0x2BD3 DUP2 PUSH2 0x2E56 JUMP JUMPDEST ISZERO PUSH2 0x2C13 JUMPI PUSH1 0x40 MLOAD PUSH32 0x8C379A000000000000000000000000000000000000000000000000000000000 DUP2 MSTORE PUSH1 0x4 ADD PUSH2 0x2C0A SWAP1 PUSH2 0x4DED JUMP JUMPDEST PUSH1 0x40 MLOAD DUP1 SWAP2 SUB SWAP1 REVERT JUMPDEST PUSH2 0x2C27 PUSH8 0xC30670F5114AC291 PUSH1 0xC0 SHL PUSH2 0x2F83 JUMP JUMPDEST PUSH2 0x2C3B PUSH8 0x15E667A3D020B2D PUSH1 0xC0 SHL PUSH2 0x2F83 JUMP JUMPDEST PUSH2 0x2C4F PUSH8 0xE9DD179F9488F69B PUSH1 0xC0 SHL PUSH2 0x2F83 JUMP JUMPDEST PUSH2 0x2C59 CALLER DUP3 PUSH2 0x2F86 JUMP JUMPDEST POP JUMP JUMPDEST PUSH2 0x2C70 PUSH8 0xF37DE97F829E3A23 PUSH1 0xC0 SHL PUSH2 0x2F83 JUMP JUMPDEST PUSH2 0x2C84 PUSH8 0xDF5B266C534B4EBF PUSH1 0xC0 SHL PUSH2 0x2F83 JUMP JUMPDEST PUSH2 0x2C98 PUSH8 0x495020856EA80912 PUSH1 0xC0 SHL PUSH2 0x2F83 JUMP JUMPDEST PUSH2 0x2CAC PUSH8 0xB218C995538591E4 PUSH1 0xC0 SHL PUSH2 0x2F83 JUMP JUMPDEST PUSH2 0x2CC0 PUSH8 0x418B607C7ECECE70 PUSH1 0xC0 SHL PUSH2 0x2F83 JUMP JUMPDEST PUSH1 0xD PUSH1 0x2 SWAP1 SLOAD SWAP1 PUSH2 0x100 EXP SWAP1 DIV PUSH20 0xFFFFFFFFFFFFFFFFFFFFFFFFFFFFFFFFFFFFFFFF AND PUSH20 0xFFFFFFFFFFFFFFFFFFFFFFFFFFFFFFFFFFFFFFFF AND CALLER PUSH20 0xFFFFFFFFFFFFFFFFFFFFFFFFFFFFFFFFFFFFFFFF AND EQ PUSH2 0x2D50 JUMPI PUSH1 0x40 MLOAD PUSH32 0x8C379A000000000000000000000000000000000000000000000000000000000 DUP2 MSTORE PUSH1 0x4 ADD PUSH2 0x2D47 SWAP1 PUSH2 0x50CD JUMP JUMPDEST PUSH1 0x40 MLOAD DUP1 SWAP2 SUB SWAP1 REVERT JUMPDEST PUSH2 0x2D64 PUSH8 0xB3350CBB98409C9E PUSH1 0xC0 SHL PUSH2 0x2F83 JUMP JUMPDEST PUSH2 0x2D78 PUSH8 0xD2732C306C76E7C0 PUSH1 0xC0 SHL PUSH2 0x2F83 JUMP JUMPDEST PUSH2 0x2D8C PUSH8 0x3CBE8373954D5FC7 PUSH1 0xC0 SHL PUSH2 0x2F83 JUMP JUMPDEST PUSH2 0x2DA0 PUSH8 0x5108FDEEB5D69AF3 PUSH1 0xC0 SHL PUSH2 0x2F83 JUMP JUMPDEST PUSH2 0x2DB4 PUSH8 0xF9C55B199F03D03D PUSH1 0xC0 SHL PUSH2 0x2F83 JUMP JUMPDEST DUP1 PUSH1 0xD PUSH1 0x1 PUSH2 0x100 EXP DUP2 SLOAD DUP2 PUSH1 0xFF MUL NOT AND SWAP1 DUP4 ISZERO ISZERO MUL OR SWAP1 SSTORE POP POP JUMP JUMPDEST PUSH1 0x1 DUP2 PUSH1 0x0 ADD PUSH1 0x0 DUP3 DUP3 SLOAD ADD SWAP3 POP POP DUP2 SWAP1 SSTORE POP POP JUMP JUMPDEST POP POP POP JUMP JUMPDEST PUSH1 0x0 PUSH32 0x1FFC9A700000000000000000000000000000000000000000000000000000000 PUSH28 0xFFFFFFFFFFFFFFFFFFFFFFFFFFFFFFFFFFFFFFFFFFFFFFFFFFFFFFFF NOT AND DUP3 PUSH28 0xFFFFFFFFFFFFFFFFFFFFFFFFFFFFFFFFFFFFFFFFFFFFFFFFFFFFFFFF NOT AND EQ SWAP1 POP SWAP2 SWAP1 POP JUMP JUMPDEST PUSH1 0x0 DUP1 PUSH20 0xFFFFFFFFFFFFFFFFFFFFFFFFFFFFFFFFFFFFFFFF AND PUSH1 0x2 PUSH1 0x0 DUP5 DUP2 MSTORE PUSH1 0x20 ADD SWAP1 DUP2 MSTORE PUSH1 0x20 ADD PUSH1 0x0 KECCAK256 PUSH1 0x0 SWAP1 SLOAD SWAP1 PUSH2 0x100 EXP SWAP1 DIV PUSH20 0xFFFFFFFFFFFFFFFFFFFFFFFFFFFFFFFFFFFFFFFF AND PUSH20 0xFFFFFFFFFFFFFFFFFFFFFFFFFFFFFFFFFFFFFFFF AND EQ ISZERO SWAP1 POP SWAP2 SWAP1 POP JUMP JUMPDEST PUSH1 0x0 CALLER SWAP1 POP SWAP1 JUMP JUMPDEST DUP2 PUSH1 0x4 PUSH1 0x0 DUP4 DUP2 MSTORE PUSH1 0x20 ADD SWAP1 DUP2 MSTORE PUSH1 0x20 ADD PUSH1 0x0 KECCAK256 PUSH1 0x0 PUSH2 0x100 EXP DUP2 SLOAD DUP2 PUSH20 0xFFFFFFFFFFFFFFFFFFFFFFFFFFFFFFFFFFFFFFFF MUL NOT AND SWAP1 DUP4 PUSH20 0xFFFFFFFFFFFFFFFFFFFFFFFFFFFFFFFFFFFFFFFF AND MUL OR SWAP1 SSTORE POP DUP1 DUP3 PUSH20 0xFFFFFFFFFFFFFFFFFFFFFFFFFFFFFFFFFFFFFFFF AND PUSH2 0x2F3D DUP4 PUSH2 0x1793 JUMP JUMPDEST PUSH20 0xFFFFFFFFFFFFFFFFFFFFFFFFFFFFFFFFFFFFFFFF AND PUSH32 0x8C5BE1E5EBEC7D5BD14F71427D1E84F3DD0314C0F7B2291E5B200AC8C7C3B925 PUSH1 0x40 MLOAD PUSH1 0x40 MLOAD DUP1 SWAP2 SUB SWAP1 LOG4 POP POP JUMP JUMPDEST POP JUMP JUMPDEST PUSH2 0x2F9A PUSH8 0xF4413CDE7DD76F26 PUSH1 0xC0 SHL PUSH2 0x2F83 JUMP JUMPDEST PUSH2 0x2FAE PUSH8 0xAD9DD79F4FDA5C30 PUSH1 0xC0 SHL PUSH2 0x2F83 JUMP JUMPDEST PUSH2 0x2FC2 PUSH8 0xADE4AA3C1F10AE96 PUSH1 0xC0 SHL PUSH2 0x2F83 JUMP JUMPDEST PUSH2 0x2FD6 PUSH8 0x46D211D5AAB8F74E PUSH1 0xC0 SHL PUSH2 0x2F83 JUMP JUMPDEST PUSH1 0xA SLOAD PUSH2 0x2FE1 PUSH2 0x1204 JUMP JUMPDEST LT PUSH2 0x3021 JUMPI PUSH1 0x40 MLOAD PUSH32 0x8C379A000000000000000000000000000000000000000000000000000000000 DUP2 MSTORE PUSH1 0x4 ADD PUSH2 0x3018 SWAP1 PUSH2 0x4F6D JUMP JUMPDEST PUSH1 0x40 MLOAD DUP1 SWAP2 SUB SWAP1 REVERT JUMPDEST PUSH2 0x3035 PUSH8 0xE2D55FCD0606F30E PUSH1 0xC0 SHL PUSH2 0x2F83 JUMP JUMPDEST PUSH2 0x3049 PUSH8 0x374E3911EB760BB1 PUSH1 0xC0 SHL PUSH2 0x2F83 JUMP JUMPDEST PUSH2 0x305D PUSH8 0xFD94DCC58EADBD35 PUSH1 0xC0 SHL PUSH2 0x2F83 JUMP JUMPDEST PUSH2 0x3071 PUSH8 0xC45035407C2D8C95 PUSH1 0xC0 SHL PUSH2 0x2F83 JUMP JUMPDEST PUSH1 0x9 SLOAD PUSH2 0x307D CALLER PUSH2 0x1A45 JUMP JUMPDEST LT PUSH2 0x30BD JUMPI PUSH1 0x40 MLOAD PUSH32 0x8C379A000000000000000000000000000000000000000000000000000000000 DUP2 MSTORE PUSH1 0x4 ADD PUSH2 0x30B4 SWAP1 PUSH2 0x504D JUMP JUMPDEST PUSH1 0x40 MLOAD DUP1 SWAP2 SUB SWAP1 REVERT JUMPDEST PUSH2 0x30D1 PUSH8 0x5379F5D1F846B022 PUSH1 0xC0 SHL PUSH2 0x2F83 JUMP JUMPDEST PUSH2 0x30E5 PUSH8 0x7F8D32CB9DE374F0 PUSH1 0xC0 SHL PUSH2 0x2F83 JUMP JUMPDEST PUSH2 0x30F9 PUSH8 0x4BABBD561DDE7F69 PUSH1 0xC0 SHL PUSH2 0x2F83 JUMP JUMPDEST PUSH2 0x310D PUSH8 0x224751ADD950CD8B PUSH1 0xC0 SHL PUSH2 0x2F83 JUMP JUMPDEST PUSH1 0x1 ISZERO ISZERO PUSH1 0xE PUSH1 0x0 DUP5 PUSH20 0xFFFFFFFFFFFFFFFFFFFFFFFFFFFFFFFFFFFFFFFF AND PUSH20 0xFFFFFFFFFFFFFFFFFFFFFFFFFFFFFFFFFFFFFFFF AND DUP2 MSTORE PUSH1 0x20 ADD SWAP1 DUP2 MSTORE PUSH1 0x20 ADD PUSH1 0x0 KECCAK256 PUSH1 0x0 SWAP1 SLOAD SWAP1 PUSH2 0x100 EXP SWAP1 DIV PUSH1 0xFF AND ISZERO ISZERO EQ ISZERO PUSH2 0x31A1 JUMPI PUSH1 0x40 MLOAD PUSH32 0x8C379A000000000000000000000000000000000000000000000000000000000 DUP2 MSTORE PUSH1 0x4 ADD PUSH2 0x3198 SWAP1 PUSH2 0x4F0D JUMP JUMPDEST PUSH1 0x40 MLOAD DUP1 SWAP2 SUB SWAP1 REVERT JUMPDEST PUSH2 0x31B5 PUSH8 0xEC67535560DA14FF PUSH1 0xC0 SHL PUSH2 0x2F83 JUMP JUMPDEST PUSH2 0x31C9 PUSH8 0x84DB5D5C26913FE0 PUSH1 0xC0 SHL PUSH2 0x2F83 JUMP JUMPDEST PUSH2 0x31DD PUSH8 0x73B8C6204431FDF7 PUSH1 0xC0 SHL PUSH2 0x2F83 JUMP JUMPDEST JUMPDEST PUSH1 0x1 ISZERO ISZERO PUSH2 0x31F2 PUSH2 0x31ED PUSH2 0x27E3 JUMP JUMPDEST PUSH2 0x2E56 JUMP JUMPDEST ISZERO ISZERO EQ ISZERO PUSH2 0x3231 JUMPI PUSH2 0x320E PUSH8 0x5A7C0CD3A19D1537 PUSH1 0xC0 SHL PUSH2 0x2F83 JUMP JUMPDEST PUSH2 0x3222 PUSH8 0x2FE733014F57777B PUSH1 0xC0 SHL PUSH2 0x2F83 JUMP JUMPDEST PUSH2 0x322C PUSH1 0x6 PUSH2 0x2DD1 JUMP JUMPDEST PUSH2 0x31DE JUMP JUMPDEST PUSH2 0x3245 PUSH8 0x546E007A8287A1CA PUSH1 0xC0 SHL PUSH2 0x2F83 JUMP JUMPDEST PUSH2 0x3259 PUSH8 0xBBCDDC5C2A6FF72C PUSH1 0xC0 SHL PUSH2 0x2F83 JUMP JUMPDEST PUSH2 0x3263 PUSH1 0x8 PUSH2 0x2DD1 JUMP JUMPDEST PUSH2 0x3277 PUSH8 0xB1CF5148916F788B PUSH1 0xC0 SHL PUSH2 0x2F83 JUMP JUMPDEST PUSH2 0x328B PUSH8 0xB0DFC9CF042FDD15 PUSH1 0xC0 SHL PUSH2 0x2F83 JUMP JUMPDEST PUSH1 0x0 DUP2 EQ ISZERO PUSH2 0x32E6 JUMPI PUSH2 0x32A8 PUSH8 0xA05651769C2CC032 PUSH1 0xC0 SHL PUSH2 0x2F83 JUMP JUMPDEST PUSH2 0x32BC PUSH8 0x898ECBD58C7AF2AC PUSH1 0xC0 SHL PUSH2 0x2F83 JUMP JUMPDEST PUSH2 0x32D0 PUSH8 0xA16E88CE3C21F801 PUSH1 0xC0 SHL PUSH2 0x2F83 JUMP JUMPDEST PUSH2 0x32E1 DUP3 PUSH2 0x32DC PUSH2 0x27E3 JUMP JUMPDEST PUSH2 0x3441 JUMP JUMPDEST PUSH2 0x332D JUMP JUMPDEST PUSH2 0x32FA PUSH8 0x1B429FF01E1AA03C PUSH1 0xC0 SHL PUSH2 0x2F83 JUMP JUMPDEST PUSH2 0x330E PUSH8 0x8E622C4DAE2603D2 PUSH1 0xC0 SHL PUSH2 0x2F83 JUMP JUMPDEST PUSH2 0x3322 PUSH8 0xBCC7108C1E57F9D6 PUSH1 0xC0 SHL PUSH2 0x2F83 JUMP JUMPDEST PUSH2 0x332C DUP3 DUP3 PUSH2 0x3441 JUMP JUMPDEST JUMPDEST POP POP JUMP JUMPDEST PUSH1 0x0 PUSH2 0x3347 PUSH8 0xF20F3D1319D9885B PUSH1 0xC0 SHL PUSH2 0x2F83 JUMP JUMPDEST PUSH2 0x335B PUSH8 0xC3D4CA910E00E2F6 PUSH1 0xC0 SHL PUSH2 0x2F83 JUMP JUMPDEST PUSH2 0x336F PUSH8 0x6561AFC9F49DF322 PUSH1 0xC0 SHL PUSH2 0x2F83 JUMP JUMPDEST PUSH1 0x0 DUP3 GT DUP1 ISZERO PUSH2 0x3381 JUMPI POP PUSH1 0xB SLOAD DUP3 GT ISZERO JUMPDEST DUP1 ISZERO PUSH2 0x339D JUMPI POP PUSH2 0x339C PUSH8 0x10C53AF39164EB5D PUSH1 0xC0 SHL PUSH2 0x3CAB JUMP JUMPDEST JUMPDEST DUP1 PUSH2 0x33C5 JUMPI POP PUSH2 0x378 DUP3 EQ DUP1 ISZERO PUSH2 0x33C4 JUMPI POP PUSH2 0x33C3 PUSH8 0x4B2FE09683E6711E PUSH1 0xC0 SHL PUSH2 0x3CAB JUMP JUMPDEST JUMPDEST JUMPDEST ISZERO PUSH2 0x340F JUMPI PUSH2 0x33DE PUSH8 0xB22B73EAB0E23AF6 PUSH1 0xC0 SHL PUSH2 0x2F83 JUMP JUMPDEST PUSH2 0x33F2 PUSH8 0xC986D8E3C5A3635D PUSH1 0xC0 SHL PUSH2 0x2F83 JUMP JUMPDEST PUSH2 0x3406 PUSH8 0x77519D7CB0E536FA PUSH1 0xC0 SHL PUSH2 0x2F83 JUMP JUMPDEST PUSH1 0x1 SWAP1 POP PUSH2 0x343C JUMP JUMPDEST PUSH2 0x3423 PUSH8 0xC048C98B4E828C39 PUSH1 0xC0 SHL PUSH2 0x2F83 JUMP JUMPDEST PUSH2 0x3437 PUSH8 0x47663AD070FB1227 PUSH1 0xC0 SHL PUSH2 0x2F83 JUMP JUMPDEST PUSH1 0x0 SWAP1 POP JUMPDEST SWAP2 SWAP1 POP JUMP JUMPDEST PUSH1 0x0 PUSH20 0xFFFFFFFFFFFFFFFFFFFFFFFFFFFFFFFFFFFFFFFF AND DUP3 PUSH20 0xFFFFFFFFFFFFFFFFFFFFFFFFFFFFFFFFFFFFFFFF AND EQ ISZERO PUSH2 0x34B1 JUMPI PUSH1 0x40 MLOAD PUSH32 0x8C379A000000000000000000000000000000000000000000000000000000000 DUP2 MSTORE PUSH1 0x4 ADD PUSH2 0x34A8 SWAP1 PUSH2 0x4FCD JUMP JUMPDEST PUSH1 0x40 MLOAD DUP1 SWAP2 SUB SWAP1 REVERT JUMPDEST PUSH2 0x34BA DUP2 PUSH2 0x2E56 JUMP JUMPDEST ISZERO PUSH2 0x34FA JUMPI PUSH1 0x40 MLOAD PUSH32 0x8C379A000000000000000000000000000000000000000000000000000000000 DUP2 MSTORE PUSH1 0x4 ADD PUSH2 0x34F1 SWAP1 PUSH2 0x4E8D JUMP JUMPDEST PUSH1 0x40 MLOAD DUP1 SWAP2 SUB SWAP1 REVERT JUMPDEST PUSH2 0x3506 PUSH1 0x0 DUP4 DUP4 PUSH2 0x3CBD JUMP JUMPDEST PUSH1 0x1 PUSH1 0x3 PUSH1 0x0 DUP5 PUSH20 0xFFFFFFFFFFFFFFFFFFFFFFFFFFFFFFFFFFFFFFFF AND PUSH20 0xFFFFFFFFFFFFFFFFFFFFFFFFFFFFFFFFFFFFFFFF AND DUP2 MSTORE PUSH1 0x20 ADD SWAP1 DUP2 MSTORE PUSH1 0x20 ADD PUSH1 0x0 KECCAK256 PUSH1 0x0 DUP3 DUP3 SLOAD PUSH2 0x3556 SWAP2 SWAP1 PUSH2 0x523D JUMP JUMPDEST SWAP3 POP POP DUP2 SWAP1 SSTORE POP DUP2 PUSH1 0x2 PUSH1 0x0 DUP4 DUP2 MSTORE PUSH1 0x20 ADD SWAP1 DUP2 MSTORE PUSH1 0x20 ADD PUSH1 0x0 KECCAK256 PUSH1 0x0 PUSH2 0x100 EXP DUP2 SLOAD DUP2 PUSH20 0xFFFFFFFFFFFFFFFFFFFFFFFFFFFFFFFFFFFFFFFF MUL NOT AND SWAP1 DUP4 PUSH20 0xFFFFFFFFFFFFFFFFFFFFFFFFFFFFFFFFFFFFFFFF AND MUL OR SWAP1 SSTORE POP DUP1 DUP3 PUSH20 0xFFFFFFFFFFFFFFFFFFFFFFFFFFFFFFFFFFFFFFFF AND PUSH1 0x0 PUSH20 0xFFFFFFFFFFFFFFFFFFFFFFFFFFFFFFFFFFFFFFFF AND PUSH32 0xDDF252AD1BE2C89B69C2B068FC378DAA952BA7F163C4A11628F55A4DF523B3EF PUSH1 0x40 MLOAD PUSH1 0x40 MLOAD DUP1 SWAP2 SUB SWAP1 LOG4 PUSH2 0x3617 PUSH1 0x0 DUP4 DUP4 PUSH2 0x3FD4 JUMP JUMPDEST POP POP JUMP JUMPDEST DUP3 PUSH20 0xFFFFFFFFFFFFFFFFFFFFFFFFFFFFFFFFFFFFFFFF AND PUSH2 0x363B DUP3 PUSH2 0x1793 JUMP JUMPDEST PUSH20 0xFFFFFFFFFFFFFFFFFFFFFFFFFFFFFFFFFFFFFFFF AND EQ PUSH2 0x3691 JUMPI PUSH1 0x40 MLOAD PUSH32 0x8C379A000000000000000000000000000000000000000000000000000000000 DUP2 MSTORE PUSH1 0x4 ADD PUSH2 0x3688 SWAP1 PUSH2 0x4E6D JUMP JUMPDEST PUSH1 0x40 MLOAD DUP1 SWAP2 SUB SWAP1 REVERT JUMPDEST PUSH1 0x0 PUSH20 0xFFFFFFFFFFFFFFFFFFFFFFFFFFFFFFFFFFFFFFFF AND DUP3 PUSH20 0xFFFFFFFFFFFFFFFFFFFFFFFFFFFFFFFFFFFFFFFF AND EQ ISZERO PUSH2 0x3701 JUMPI PUSH1 0x40 MLOAD PUSH32 0x8C379A000000000000000000000000000000000000000000000000000000000 DUP2 MSTORE PUSH1 0x4 ADD PUSH2 0x36F8 SWAP1 PUSH2 0x4EAD JUMP JUMPDEST PUSH1 0x40 MLOAD DUP1 SWAP2 SUB SWAP1 REVERT JUMPDEST PUSH2 0x370C DUP4 DUP4 DUP4 PUSH2 0x3CBD JUMP JUMPDEST PUSH2 0x3717 PUSH1 0x0 DUP3 PUSH2 0x2ECA JUMP JUMPDEST PUSH1 0x1 PUSH1 0x3 PUSH1 0x0 DUP6 PUSH20 0xFFFFFFFFFFFFFFFFFFFFFFFFFFFFFFFFFFFFFFFF AND PUSH20 0xFFFFFFFFFFFFFFFFFFFFFFFFFFFFFFFFFFFFFFFF AND DUP2 MSTORE PUSH1 0x20 ADD SWAP1 DUP2 MSTORE PUSH1 0x20 ADD PUSH1 0x0 KECCAK256 PUSH1 0x0 DUP3 DUP3 SLOAD PUSH2 0x3767 SWAP2 SWAP1 PUSH2 0x52C4 JUMP JUMPDEST SWAP3 POP POP DUP2 SWAP1 SSTORE POP PUSH1 0x1 PUSH1 0x3 PUSH1 0x0 DUP5 PUSH20 0xFFFFFFFFFFFFFFFFFFFFFFFFFFFFFFFFFFFFFFFF AND PUSH20 0xFFFFFFFFFFFFFFFFFFFFFFFFFFFFFFFFFFFFFFFF AND DUP2 MSTORE PUSH1 0x20 ADD SWAP1 DUP2 MSTORE PUSH1 0x20 ADD PUSH1 0x0 KECCAK256 PUSH1 0x0 DUP3 DUP3 SLOAD PUSH2 0x37BE SWAP2 SWAP1 PUSH2 0x523D JUMP JUMPDEST SWAP3 POP POP DUP2 SWAP1 SSTORE POP DUP2 PUSH1 0x2 PUSH1 0x0 DUP4 DUP2 MSTORE PUSH1 0x20 ADD SWAP1 DUP2 MSTORE PUSH1 0x20 ADD PUSH1 0x0 KECCAK256 PUSH1 0x0 PUSH2 0x100 EXP DUP2 SLOAD DUP2 PUSH20 0xFFFFFFFFFFFFFFFFFFFFFFFFFFFFFFFFFFFFFFFF MUL NOT AND SWAP1 DUP4 PUSH20 0xFFFFFFFFFFFFFFFFFFFFFFFFFFFFFFFFFFFFFFFF AND MUL OR SWAP1 SSTORE POP DUP1 DUP3 PUSH20 0xFFFFFFFFFFFFFFFFFFFFFFFFFFFFFFFFFFFFFFFF AND DUP5 PUSH20 0xFFFFFFFFFFFFFFFFFFFFFFFFFFFFFFFFFFFFFFFF AND PUSH32 0xDDF252AD1BE2C89B69C2B068FC378DAA952BA7F163C4A11628F55A4DF523B3EF PUSH1 0x40 MLOAD PUSH1 0x40 MLOAD DUP1 SWAP2 SUB SWAP1 LOG4 PUSH2 0x387D DUP4 DUP4 DUP4 PUSH2 0x3FD4 JUMP JUMPDEST POP POP POP JUMP JUMPDEST PUSH1 0x0 PUSH2 0x388D DUP3 PUSH2 0x2E56 JUMP JUMPDEST PUSH2 0x38CC JUMPI PUSH1 0x40 MLOAD PUSH32 0x8C379A000000000000000000000000000000000000000000000000000000000 DUP2 MSTORE PUSH1 0x4 ADD PUSH2 0x38C3 SWAP1 PUSH2 0x4F2D JUMP JUMPDEST PUSH1 0x40 MLOAD DUP1 SWAP2 SUB SWAP1 REVERT JUMPDEST PUSH1 0x0 PUSH2 0x38D7 DUP4 PUSH2 0x1793 JUMP JUMPDEST SWAP1 POP DUP1 PUSH20 0xFFFFFFFFFFFFFFFFFFFFFFFFFFFFFFFFFFFFFFFF AND DUP5 PUSH20 0xFFFFFFFFFFFFFFFFFFFFFFFFFFFFFFFFFFFFFFFF AND EQ DUP1 PUSH2 0x3919 JUMPI POP PUSH2 0x3918 DUP2 DUP6 PUSH2 0x2830 JUMP JUMPDEST JUMPDEST DUP1 PUSH2 0x3957 JUMPI POP DUP4 PUSH20 0xFFFFFFFFFFFFFFFFFFFFFFFFFFFFFFFFFFFFFFFF AND PUSH2 0x393F DUP5 PUSH2 0x815 JUMP JUMPDEST PUSH20 0xFFFFFFFFFFFFFFFFFFFFFFFFFFFFFFFFFFFFFFFF AND EQ JUMPDEST SWAP2 POP POP SWAP3 SWAP2 POP POP JUMP JUMPDEST PUSH1 0x0 DUP2 PUSH1 0x0 ADD SLOAD SWAP1 POP SWAP2 SWAP1 POP JUMP JUMPDEST DUP2 PUSH20 0xFFFFFFFFFFFFFFFFFFFFFFFFFFFFFFFFFFFFFFFF AND DUP4 PUSH20 0xFFFFFFFFFFFFFFFFFFFFFFFFFFFFFFFFFFFFFFFF AND EQ ISZERO PUSH2 0x39DD JUMPI PUSH1 0x40 MLOAD PUSH32 0x8C379A000000000000000000000000000000000000000000000000000000000 DUP2 MSTORE PUSH1 0x4 ADD PUSH2 0x39D4 SWAP1 PUSH2 0x4ECD JUMP JUMPDEST PUSH1 0x40 MLOAD DUP1 SWAP2 SUB SWAP1 REVERT JUMPDEST DUP1 PUSH1 0x5 PUSH1 0x0 DUP6 PUSH20 0xFFFFFFFFFFFFFFFFFFFFFFFFFFFFFFFFFFFFFFFF AND PUSH20 0xFFFFFFFFFFFFFFFFFFFFFFFFFFFFFFFFFFFFFFFF AND DUP2 MSTORE PUSH1 0x20 ADD SWAP1 DUP2 MSTORE PUSH1 0x20 ADD PUSH1 0x0 KECCAK256 PUSH1 0x0 DUP5 PUSH20 0xFFFFFFFFFFFFFFFFFFFFFFFFFFFFFFFFFFFFFFFF AND PUSH20 0xFFFFFFFFFFFFFFFFFFFFFFFFFFFFFFFFFFFFFFFF AND DUP2 MSTORE PUSH1 0x20 ADD SWAP1 DUP2 MSTORE PUSH1 0x20 ADD PUSH1 0x0 KECCAK256 PUSH1 0x0 PUSH2 0x100 EXP DUP2 SLOAD DUP2 PUSH1 0xFF MUL NOT AND SWAP1 DUP4 ISZERO ISZERO MUL OR SWAP1 SSTORE POP DUP2 PUSH20 0xFFFFFFFFFFFFFFFFFFFFFFFFFFFFFFFFFFFFFFFF AND DUP4 PUSH20 0xFFFFFFFFFFFFFFFFFFFFFFFFFFFFFFFFFFFFFFFF AND PUSH32 0x17307EAB39AB6107E8899845AD3D59BD9653F200F220920489CA2B5937696C31 DUP4 PUSH1 0x40 MLOAD PUSH2 0x3ACE SWAP2 SWAP1 PUSH2 0x4D90 JUMP JUMPDEST PUSH1 0x40 MLOAD DUP1 SWAP2 SUB SWAP1 LOG3 POP POP POP JUMP JUMPDEST PUSH2 0x3AE6 DUP5 DUP5 DUP5 PUSH2 0x361B JUMP JUMPDEST PUSH2 0x3AF2 DUP5 DUP5 DUP5 DUP5 PUSH2 0x3FD9 JUMP JUMPDEST PUSH2 0x3B31 JUMPI PUSH1 0x40 MLOAD PUSH32 0x8C379A000000000000000000000000000000000000000000000000000000000 DUP2 MSTORE PUSH1 0x4 ADD PUSH2 0x3B28 SWAP1 PUSH2 0x4E0D JUMP JUMPDEST PUSH1 0x40 MLOAD DUP1 SWAP2 SUB SWAP1 REVERT JUMPDEST POP POP POP POP JUMP JUMPDEST PUSH1 0x60 PUSH2 0x3B42 DUP3 PUSH2 0x2E56 JUMP JUMPDEST PUSH2 0x3B81 JUMPI PUSH1 0x40 MLOAD PUSH32 0x8C379A000000000000000000000000000000000000000000000000000000000 DUP2 MSTORE PUSH1 0x4 ADD PUSH2 0x3B78 SWAP1 PUSH2 0x502D JUMP JUMPDEST PUSH1 0x40 MLOAD DUP1 SWAP2 SUB SWAP1 REVERT JUMPDEST PUSH1 0x0 PUSH2 0x3B8B PUSH2 0x3BDE JUMP JUMPDEST SWAP1 POP PUSH1 0x0 DUP2 MLOAD GT PUSH2 0x3BAB JUMPI PUSH1 0x40 MLOAD DUP1 PUSH1 0x20 ADD PUSH1 0x40 MSTORE DUP1 PUSH1 0x0 DUP2 MSTORE POP PUSH2 0x3BD6 JUMP JUMPDEST DUP1 PUSH2 0x3BB5 DUP5 PUSH2 0x4170 JUMP JUMPDEST PUSH1 0x40 MLOAD PUSH1 0x20 ADD PUSH2 0x3BC6 SWAP3 SWAP2 SWAP1 PUSH2 0x4CCE JUMP JUMPDEST PUSH1 0x40 MLOAD PUSH1 0x20 DUP2 DUP4 SUB SUB DUP2 MSTORE SWAP1 PUSH1 0x40 MSTORE JUMPDEST SWAP2 POP POP SWAP2 SWAP1 POP JUMP JUMPDEST PUSH1 0x60 PUSH2 0x3BF3 PUSH7 0x44FFB4632D034B PUSH1 0xC0 SHL PUSH2 0x2F83 JUMP JUMPDEST PUSH2 0x3C07 PUSH8 0xAC2B3FB0AAF65FD3 PUSH1 0xC0 SHL PUSH2 0x2F83 JUMP JUMPDEST PUSH2 0x3C1B PUSH8 0x474BEF55B8B048C9 PUSH1 0xC0 SHL PUSH2 0x2F83 JUMP JUMPDEST PUSH1 0xC DUP1 SLOAD PUSH2 0x3C28 SWAP1 PUSH2 0x53AE JUMP JUMPDEST DUP1 PUSH1 0x1F ADD PUSH1 0x20 DUP1 SWAP2 DIV MUL PUSH1 0x20 ADD PUSH1 0x40 MLOAD SWAP1 DUP2 ADD PUSH1 0x40 MSTORE DUP1 SWAP3 SWAP2 SWAP1 DUP2 DUP2 MSTORE PUSH1 0x20 ADD DUP3 DUP1 SLOAD PUSH2 0x3C54 SWAP1 PUSH2 0x53AE JUMP JUMPDEST DUP1 ISZERO PUSH2 0x3CA1 JUMPI DUP1 PUSH1 0x1F LT PUSH2 0x3C76 JUMPI PUSH2 0x100 DUP1 DUP4 SLOAD DIV MUL DUP4 MSTORE SWAP2 PUSH1 0x20 ADD SWAP2 PUSH2 0x3CA1 JUMP JUMPDEST DUP3 ADD SWAP2 SWAP1 PUSH1 0x0 MSTORE PUSH1 0x20 PUSH1 0x0 KECCAK256 SWAP1 JUMPDEST DUP2 SLOAD DUP2 MSTORE SWAP1 PUSH1 0x1 ADD SWAP1 PUSH1 0x20 ADD DUP1 DUP4 GT PUSH2 0x3C84 JUMPI DUP3 SWAP1 SUB PUSH1 0x1F AND DUP3 ADD SWAP2 JUMPDEST POP POP POP POP POP SWAP1 POP SWAP1 JUMP JUMPDEST PUSH1 0x0 PUSH1 0x1 SWAP1 POP SWAP2 SWAP1 POP JUMP JUMPDEST PUSH1 0x0 SWAP2 SWAP1 POP JUMP JUMPDEST PUSH2 0x3CD1 PUSH8 0x6E2413C8DB62A0D PUSH1 0xC0 SHL PUSH2 0x2F83 JUMP JUMPDEST PUSH2 0x3CE5 PUSH8 0xD8A6155B83A7B8BF PUSH1 0xC0 SHL PUSH2 0x2F83 JUMP JUMPDEST PUSH2 0x3CF9 PUSH8 0x289926B19EE2957 PUSH1 0xC0 SHL PUSH2 0x2F83 JUMP JUMPDEST PUSH2 0x3D0D PUSH8 0x8BDA343A6C5DA59F PUSH1 0xC0 SHL PUSH2 0x2F83 JUMP JUMPDEST PUSH1 0xD PUSH1 0x0 SWAP1 SLOAD SWAP1 PUSH2 0x100 EXP SWAP1 DIV PUSH1 0xFF AND ISZERO PUSH2 0x3D5D JUMPI PUSH1 0x40 MLOAD PUSH32 0x8C379A000000000000000000000000000000000000000000000000000000000 DUP2 MSTORE PUSH1 0x4 ADD PUSH2 0x3D54 SWAP1 PUSH2 0x4E2D JUMP JUMPDEST PUSH1 0x40 MLOAD DUP1 SWAP2 SUB SWAP1 REVERT JUMPDEST PUSH2 0x3D71 PUSH8 0x410593F454FFE1A6 PUSH1 0xC0 SHL PUSH2 0x2F83 JUMP JUMPDEST PUSH2 0x3D85 PUSH8 0xADD512FF733A2133 PUSH1 0xC0 SHL PUSH2 0x2F83 JUMP JUMPDEST PUSH2 0x3D99 PUSH8 0x8BD20B26A03BCB34 PUSH1 0xC0 SHL PUSH2 0x2F83 JUMP JUMPDEST PUSH2 0x3DAD PUSH8 0x26D4F04165FB5126 PUSH1 0xC0 SHL PUSH2 0x2F83 JUMP JUMPDEST PUSH1 0x1 ISZERO ISZERO PUSH1 0xE PUSH1 0x0 DUP5 PUSH20 0xFFFFFFFFFFFFFFFFFFFFFFFFFFFFFFFFFFFFFFFF AND PUSH20 0xFFFFFFFFFFFFFFFFFFFFFFFFFFFFFFFFFFFFFFFF AND DUP2 MSTORE PUSH1 0x20 ADD SWAP1 DUP2 MSTORE PUSH1 0x20 ADD PUSH1 0x0 KECCAK256 PUSH1 0x0 SWAP1 SLOAD SWAP1 PUSH2 0x100 EXP SWAP1 DIV PUSH1 0xFF AND ISZERO ISZERO EQ ISZERO PUSH2 0x3E41 JUMPI PUSH1 0x40 MLOAD PUSH32 0x8C379A000000000000000000000000000000000000000000000000000000000 DUP2 MSTORE PUSH1 0x4 ADD PUSH2 0x3E38 SWAP1 PUSH2 0x4F0D JUMP JUMPDEST PUSH1 0x40 MLOAD DUP1 SWAP2 SUB SWAP1 REVERT JUMPDEST PUSH2 0x3E55 PUSH8 0x1A57195BFBBFD857 PUSH1 0xC0 SHL PUSH2 0x2F83 JUMP JUMPDEST PUSH2 0x3E69 PUSH8 0x4F8D154721CF2180 PUSH1 0xC0 SHL PUSH2 0x2F83 JUMP JUMPDEST PUSH2 0x3E7D PUSH8 0xDD90CACFA3257572 PUSH1 0xC0 SHL PUSH2 0x2F83 JUMP JUMPDEST PUSH2 0x3E86 DUP2 PUSH2 0x3331 JUMP JUMPDEST ISZERO PUSH2 0x3F87 JUMPI PUSH2 0x3E9F PUSH8 0xF52530B2924DE718 PUSH1 0xC0 SHL PUSH2 0x2F83 JUMP JUMPDEST PUSH2 0x3EB3 PUSH8 0x5A166A71374CA313 PUSH1 0xC0 SHL PUSH2 0x2F83 JUMP JUMPDEST PUSH2 0x3EC7 PUSH8 0xEF3985C130449D0 PUSH1 0xC0 SHL PUSH2 0x2F83 JUMP JUMPDEST PUSH2 0x3EDB PUSH8 0x99B124B3F8CD4943 PUSH1 0xC0 SHL PUSH2 0x2F83 JUMP JUMPDEST PUSH1 0x1 ISZERO ISZERO PUSH1 0x10 PUSH1 0x0 CALLER PUSH20 0xFFFFFFFFFFFFFFFFFFFFFFFFFFFFFFFFFFFFFFFF AND PUSH20 0xFFFFFFFFFFFFFFFFFFFFFFFFFFFFFFFFFFFFFFFF AND DUP2 MSTORE PUSH1 0x20 ADD SWAP1 DUP2 MSTORE PUSH1 0x20 ADD PUSH1 0x0 KECCAK256 PUSH1 0x0 SWAP1 SLOAD SWAP1 PUSH2 0x100 EXP SWAP1 DIV PUSH1 0xFF AND ISZERO ISZERO EQ PUSH2 0x3F6E JUMPI PUSH1 0x40 MLOAD PUSH32 0x8C379A000000000000000000000000000000000000000000000000000000000 DUP2 MSTORE PUSH1 0x4 ADD PUSH2 0x3F65 SWAP1 PUSH2 0x4EED JUMP JUMPDEST PUSH1 0x40 MLOAD DUP1 SWAP2 SUB SWAP1 REVERT JUMPDEST PUSH2 0x3F82 PUSH8 0x6BD8945DF897D53D PUSH1 0xC0 SHL PUSH2 0x2F83 JUMP JUMPDEST PUSH2 0x3F9C JUMP JUMPDEST PUSH2 0x3F9B PUSH8 0x43D1EC25ED4B8BC9 PUSH1 0xC0 SHL PUSH2 0x2F83 JUMP JUMPDEST JUMPDEST PUSH2 0x3FB0 PUSH8 0x1B83C72A2F4883E9 PUSH1 0xC0 SHL PUSH2 0x2F83 JUMP JUMPDEST PUSH2 0x3FC4 PUSH8 0x5DB9FF1107067740 PUSH1 0xC0 SHL PUSH2 0x2F83 JUMP JUMPDEST PUSH2 0x3FCF DUP4 DUP4 DUP4 PUSH2 0x2DE7 JUMP JUMPDEST POP POP POP JUMP JUMPDEST POP POP POP JUMP JUMPDEST PUSH1 0x0 PUSH2 0x3FFA DUP5 PUSH20 0xFFFFFFFFFFFFFFFFFFFFFFFFFFFFFFFFFFFFFFFF AND PUSH2 0x431D JUMP JUMPDEST ISZERO PUSH2 0x4163 JUMPI DUP4 PUSH20 0xFFFFFFFFFFFFFFFFFFFFFFFFFFFFFFFFFFFFFFFF AND PUSH4 0x150B7A02 PUSH2 0x4023 PUSH2 0x2EC2 JUMP JUMPDEST DUP8 DUP7 DUP7 PUSH1 0x40 MLOAD DUP6 PUSH4 0xFFFFFFFF AND PUSH1 0xE0 SHL DUP2 MSTORE PUSH1 0x4 ADD PUSH2 0x4045 SWAP5 SWAP4 SWAP3 SWAP2 SWAP1 PUSH2 0x4D44 JUMP JUMPDEST PUSH1 0x20 PUSH1 0x40 MLOAD DUP1 DUP4 SUB DUP2 PUSH1 0x0 DUP8 DUP1 EXTCODESIZE ISZERO DUP1 ISZERO PUSH2 0x405F JUMPI PUSH1 0x0 DUP1 REVERT JUMPDEST POP GAS CALL SWAP3 POP POP POP DUP1 ISZERO PUSH2 0x4090 JUMPI POP PUSH1 0x40 MLOAD RETURNDATASIZE PUSH1 0x1F NOT PUSH1 0x1F DUP3 ADD AND DUP3 ADD DUP1 PUSH1 0x40 MSTORE POP DUP2 ADD SWAP1 PUSH2 0x408D SWAP2 SWAP1 PUSH2 0x4715 JUMP JUMPDEST PUSH1 0x1 JUMPDEST PUSH2 0x4113 JUMPI RETURNDATASIZE DUP1 PUSH1 0x0 DUP2 EQ PUSH2 0x40C0 JUMPI PUSH1 0x40 MLOAD SWAP2 POP PUSH1 0x1F NOT PUSH1 0x3F RETURNDATASIZE ADD AND DUP3 ADD PUSH1 0x40 MSTORE RETURNDATASIZE DUP3 MSTORE RETURNDATASIZE PUSH1 0x0 PUSH1 0x20 DUP5 ADD RETURNDATACOPY PUSH2 0x40C5 JUMP JUMPDEST PUSH1 0x60 SWAP2 POP JUMPDEST POP PUSH1 0x0 DUP2 MLOAD EQ ISZERO PUSH2 0x410B JUMPI PUSH1 0x40 MLOAD PUSH32 0x8C379A000000000000000000000000000000000000000000000000000000000 DUP2 MSTORE PUSH1 0x4 ADD PUSH2 0x4102 SWAP1 PUSH2 0x4E0D JUMP JUMPDEST PUSH1 0x40 MLOAD DUP1 SWAP2 SUB SWAP1 REVERT JUMPDEST DUP1 MLOAD DUP2 PUSH1 0x20 ADD REVERT JUMPDEST PUSH4 0x150B7A02 PUSH1 0xE0 SHL PUSH28 0xFFFFFFFFFFFFFFFFFFFFFFFFFFFFFFFFFFFFFFFFFFFFFFFFFFFFFFFF NOT AND DUP2 PUSH28 0xFFFFFFFFFFFFFFFFFFFFFFFFFFFFFFFFFFFFFFFFFFFFFFFFFFFFFFFF NOT AND EQ SWAP2 POP POP PUSH2 0x4168 JUMP JUMPDEST PUSH1 0x1 SWAP1 POP JUMPDEST SWAP5 SWAP4 POP POP POP POP JUMP JUMPDEST PUSH1 0x60 PUSH1 0x0 DUP3 EQ ISZERO PUSH2 0x41B8 JUMPI PUSH1 0x40 MLOAD DUP1 PUSH1 0x40 ADD PUSH1 0x40 MSTORE DUP1 PUSH1 0x1 DUP2 MSTORE PUSH1 0x20 ADD PUSH32 0x3000000000000000000000000000000000000000000000000000000000000000 DUP2 MSTORE POP SWAP1 POP PUSH2 0x4318 JUMP JUMPDEST PUSH1 0x0 DUP3 SWAP1 POP PUSH1 0x0 JUMPDEST PUSH1 0x0 DUP3 EQ PUSH2 0x41EA JUMPI DUP1 DUP1 PUSH2 0x41D3 SWAP1 PUSH2 0x5411 JUMP JUMPDEST SWAP2 POP POP PUSH1 0xA DUP3 PUSH2 0x41E3 SWAP2 SWAP1 PUSH2 0x5293 JUMP JUMPDEST SWAP2 POP PUSH2 0x41C0 JUMP JUMPDEST PUSH1 0x0 DUP2 PUSH8 0xFFFFFFFFFFFFFFFF DUP2 GT ISZERO PUSH2 0x422C JUMPI PUSH32 0x4E487B7100000000000000000000000000000000000000000000000000000000 PUSH1 0x0 MSTORE PUSH1 0x41 PUSH1 0x4 MSTORE PUSH1 0x24 PUSH1 0x0 REVERT JUMPDEST PUSH1 0x40 MLOAD SWAP1 DUP1 DUP3 MSTORE DUP1 PUSH1 0x1F ADD PUSH1 0x1F NOT AND PUSH1 0x20 ADD DUP3 ADD PUSH1 0x40 MSTORE DUP1 ISZERO PUSH2 0x425E JUMPI DUP2 PUSH1 0x20 ADD PUSH1 0x1 DUP3 MUL DUP1 CALLDATASIZE DUP4 CALLDATACOPY DUP1 DUP3 ADD SWAP2 POP POP SWAP1 POP JUMPDEST POP SWAP1 POP JUMPDEST PUSH1 0x0 DUP6 EQ PUSH2 0x4311 JUMPI PUSH1 0x1 DUP3 PUSH2 0x4277 SWAP2 SWAP1 PUSH2 0x52C4 JUMP JUMPDEST SWAP2 POP PUSH1 0xA DUP6 PUSH2 0x4286 SWAP2 SWAP1 PUSH2 0x545A JUMP JUMPDEST PUSH1 0x30 PUSH2 0x4292 SWAP2 SWAP1 PUSH2 0x523D JUMP JUMPDEST PUSH1 0xF8 SHL DUP2 DUP4 DUP2 MLOAD DUP2 LT PUSH2 0x42CE JUMPI PUSH32 0x4E487B7100000000000000000000000000000000000000000000000000000000 PUSH1 0x0 MSTORE PUSH1 0x32 PUSH1 0x4 MSTORE PUSH1 0x24 PUSH1 0x0 REVERT JUMPDEST PUSH1 0x20 ADD ADD SWAP1 PUSH31 0xFFFFFFFFFFFFFFFFFFFFFFFFFFFFFFFFFFFFFFFFFFFFFFFFFFFFFFFFFFFFFF NOT AND SWAP1 DUP2 PUSH1 0x0 BYTE SWAP1 MSTORE8 POP PUSH1 0xA DUP6 PUSH2 0x430A SWAP2 SWAP1 PUSH2 0x5293 JUMP JUMPDEST SWAP5 POP PUSH2 0x4262 JUMP JUMPDEST DUP1 SWAP4 POP POP POP POP JUMPDEST SWAP2 SWAP1 POP JUMP JUMPDEST PUSH1 0x0 DUP1 DUP3 PUSH20 0xFFFFFFFFFFFFFFFFFFFFFFFFFFFFFFFFFFFFFFFF AND EXTCODESIZE GT SWAP1 POP SWAP2 SWAP1 POP JUMP JUMPDEST DUP3 DUP1 SLOAD PUSH2 0x434C SWAP1 PUSH2 0x53AE JUMP JUMPDEST SWAP1 PUSH1 0x0 MSTORE PUSH1 0x20 PUSH1 0x0 KECCAK256 SWAP1 PUSH1 0x1F ADD PUSH1 0x20 SWAP1 DIV DUP2 ADD SWAP3 DUP3 PUSH2 0x436E JUMPI PUSH1 0x0 DUP6 SSTORE PUSH2 0x43B5 JUMP JUMPDEST DUP3 PUSH1 0x1F LT PUSH2 0x4387 JUMPI DUP1 MLOAD PUSH1 0xFF NOT AND DUP4 DUP1 ADD OR DUP6 SSTORE PUSH2 0x43B5 JUMP JUMPDEST DUP3 DUP1 ADD PUSH1 0x1 ADD DUP6 SSTORE DUP3 ISZERO PUSH2 0x43B5 JUMPI SWAP2 DUP3 ADD JUMPDEST DUP3 DUP2 GT ISZERO PUSH2 0x43B4 JUMPI DUP3 MLOAD DUP3 SSTORE SWAP2 PUSH1 0x20 ADD SWAP2 SWAP1 PUSH1 0x1 ADD SWAP1 PUSH2 0x4399 JUMP JUMPDEST JUMPDEST POP SWAP1 POP PUSH2 0x43C2 SWAP2 SWAP1 PUSH2 0x43C6 JUMP JUMPDEST POP SWAP1 JUMP JUMPDEST JUMPDEST DUP1 DUP3 GT ISZERO PUSH2 0x43DF JUMPI PUSH1 0x0 DUP2 PUSH1 0x0 SWAP1 SSTORE POP PUSH1 0x1 ADD PUSH2 0x43C7 JUMP JUMPDEST POP SWAP1 JUMP JUMPDEST PUSH1 0x0 PUSH2 0x43F6 PUSH2 0x43F1 DUP5 PUSH2 0x518D JUMP JUMPDEST PUSH2 0x5168 JUMP JUMPDEST SWAP1 POP DUP3 DUP2 MSTORE PUSH1 0x20 DUP2 ADD DUP5 DUP5 DUP5 ADD GT ISZERO PUSH2 0x440E JUMPI PUSH1 0x0 DUP1 REVERT JUMPDEST PUSH2 0x4419 DUP5 DUP3 DUP6 PUSH2 0x536C JUMP JUMPDEST POP SWAP4 SWAP3 POP POP POP JUMP JUMPDEST PUSH1 0x0 PUSH2 0x4434 PUSH2 0x442F DUP5 PUSH2 0x51BE JUMP JUMPDEST PUSH2 0x5168 JUMP JUMPDEST SWAP1 POP DUP3 DUP2 MSTORE PUSH1 0x20 DUP2 ADD DUP5 DUP5 DUP5 ADD GT ISZERO PUSH2 0x444C JUMPI PUSH1 0x0 DUP1 REVERT JUMPDEST PUSH2 0x4457 DUP5 DUP3 DUP6 PUSH2 0x536C JUMP JUMPDEST POP SWAP4 SWAP3 POP POP POP JUMP JUMPDEST PUSH1 0x0 DUP2 CALLDATALOAD SWAP1 POP PUSH2 0x446E DUP2 PUSH2 0x5DB6 JUMP JUMPDEST SWAP3 SWAP2 POP POP JUMP JUMPDEST PUSH1 0x0 DUP2 CALLDATALOAD SWAP1 POP PUSH2 0x4483 DUP2 PUSH2 0x5DCD JUMP JUMPDEST SWAP3 SWAP2 POP POP JUMP JUMPDEST PUSH1 0x0 DUP2 CALLDATALOAD SWAP1 POP PUSH2 0x4498 DUP2 PUSH2 0x5DE4 JUMP JUMPDEST SWAP3 SWAP2 POP POP JUMP JUMPDEST PUSH1 0x0 DUP2 MLOAD SWAP1 POP PUSH2 0x44AD DUP2 PUSH2 0x5DE4 JUMP JUMPDEST SWAP3 SWAP2 POP POP JUMP JUMPDEST PUSH1 0x0 DUP3 PUSH1 0x1F DUP4 ADD SLT PUSH2 0x44C4 JUMPI PUSH1 0x0 DUP1 REVERT JUMPDEST DUP2 CALLDATALOAD PUSH2 0x44D4 DUP5 DUP3 PUSH1 0x20 DUP7 ADD PUSH2 0x43E3 JUMP JUMPDEST SWAP2 POP POP SWAP3 SWAP2 POP POP JUMP JUMPDEST PUSH1 0x0 DUP3 PUSH1 0x1F DUP4 ADD SLT PUSH2 0x44EE JUMPI PUSH1 0x0 DUP1 REVERT JUMPDEST DUP2 CALLDATALOAD PUSH2 0x44FE DUP5 DUP3 PUSH1 0x20 DUP7 ADD PUSH2 0x4421 JUMP JUMPDEST SWAP2 POP POP SWAP3 SWAP2 POP POP JUMP JUMPDEST PUSH1 0x0 DUP2 CALLDATALOAD SWAP1 POP PUSH2 0x4516 DUP2 PUSH2 0x5DFB JUMP JUMPDEST SWAP3 SWAP2 POP POP JUMP JUMPDEST PUSH1 0x0 PUSH1 0x20 DUP3 DUP5 SUB SLT ISZERO PUSH2 0x452E JUMPI PUSH1 0x0 DUP1 REVERT JUMPDEST PUSH1 0x0 PUSH2 0x453C DUP5 DUP3 DUP6 ADD PUSH2 0x445F JUMP JUMPDEST SWAP2 POP POP SWAP3 SWAP2 POP POP JUMP JUMPDEST PUSH1 0x0 DUP1 PUSH1 0x40 DUP4 DUP6 SUB SLT ISZERO PUSH2 0x4558 JUMPI PUSH1 0x0 DUP1 REVERT JUMPDEST PUSH1 0x0 PUSH2 0x4566 DUP6 DUP3 DUP7 ADD PUSH2 0x445F JUMP JUMPDEST SWAP3 POP POP PUSH1 0x20 PUSH2 0x4577 DUP6 DUP3 DUP7 ADD PUSH2 0x445F JUMP JUMPDEST SWAP2 POP POP SWAP3 POP SWAP3 SWAP1 POP JUMP JUMPDEST PUSH1 0x0 DUP1 PUSH1 0x0 PUSH1 0x60 DUP5 DUP7 SUB SLT ISZERO PUSH2 0x4596 JUMPI PUSH1 0x0 DUP1 REVERT JUMPDEST PUSH1 0x0 PUSH2 0x45A4 DUP7 DUP3 DUP8 ADD PUSH2 0x445F JUMP JUMPDEST SWAP4 POP POP PUSH1 0x20 PUSH2 0x45B5 DUP7 DUP3 DUP8 ADD PUSH2 0x445F JUMP JUMPDEST SWAP3 POP POP PUSH1 0x40 PUSH2 0x45C6 DUP7 DUP3 DUP8 ADD PUSH2 0x4507 JUMP JUMPDEST SWAP2 POP POP SWAP3 POP SWAP3 POP SWAP3 JUMP JUMPDEST PUSH1 0x0 DUP1 PUSH1 0x0 DUP1 PUSH1 0x80 DUP6 DUP8 SUB SLT ISZERO PUSH2 0x45E6 JUMPI PUSH1 0x0 DUP1 REVERT JUMPDEST PUSH1 0x0 PUSH2 0x45F4 DUP8 DUP3 DUP9 ADD PUSH2 0x445F JUMP JUMPDEST SWAP5 POP POP PUSH1 0x20 PUSH2 0x4605 DUP8 DUP3 DUP9 ADD PUSH2 0x445F JUMP JUMPDEST SWAP4 POP POP PUSH1 0x40 PUSH2 0x4616 DUP8 DUP3 DUP9 ADD PUSH2 0x4507 JUMP JUMPDEST SWAP3 POP POP PUSH1 0x60 DUP6 ADD CALLDATALOAD PUSH8 0xFFFFFFFFFFFFFFFF DUP2 GT ISZERO PUSH2 0x4633 JUMPI PUSH1 0x0 DUP1 REVERT JUMPDEST PUSH2 0x463F DUP8 DUP3 DUP9 ADD PUSH2 0x44B3 JUMP JUMPDEST SWAP2 POP POP SWAP3 SWAP6 SWAP2 SWAP5 POP SWAP3 POP JUMP JUMPDEST PUSH1 0x0 DUP1 PUSH1 0x40 DUP4 DUP6 SUB SLT ISZERO PUSH2 0x465E JUMPI PUSH1 0x0 DUP1 REVERT JUMPDEST PUSH1 0x0 PUSH2 0x466C DUP6 DUP3 DUP7 ADD PUSH2 0x445F JUMP JUMPDEST SWAP3 POP POP PUSH1 0x20 PUSH2 0x467D DUP6 DUP3 DUP7 ADD PUSH2 0x4474 JUMP JUMPDEST SWAP2 POP POP SWAP3 POP SWAP3 SWAP1 POP JUMP JUMPDEST PUSH1 0x0 DUP1 PUSH1 0x40 DUP4 DUP6 SUB SLT ISZERO PUSH2 0x469A JUMPI PUSH1 0x0 DUP1 REVERT JUMPDEST PUSH1 0x0 PUSH2 0x46A8 DUP6 DUP3 DUP7 ADD PUSH2 0x445F JUMP JUMPDEST SWAP3 POP POP PUSH1 0x20 PUSH2 0x46B9 DUP6 DUP3 DUP7 ADD PUSH2 0x4507 JUMP JUMPDEST SWAP2 POP POP SWAP3 POP SWAP3 SWAP1 POP JUMP JUMPDEST PUSH1 0x0 PUSH1 0x20 DUP3 DUP5 SUB SLT ISZERO PUSH2 0x46D5 JUMPI PUSH1 0x0 DUP1 REVERT JUMPDEST PUSH1 0x0 PUSH2 0x46E3 DUP5 DUP3 DUP6 ADD PUSH2 0x4474 JUMP JUMPDEST SWAP2 POP POP SWAP3 SWAP2 POP POP JUMP JUMPDEST PUSH1 0x0 PUSH1 0x20 DUP3 DUP5 SUB SLT ISZERO PUSH2 0x46FE JUMPI PUSH1 0x0 DUP1 REVERT JUMPDEST PUSH1 0x0 PUSH2 0x470C DUP5 DUP3 DUP6 ADD PUSH2 0x4489 JUMP JUMPDEST SWAP2 POP POP SWAP3 SWAP2 POP POP JUMP JUMPDEST PUSH1 0x0 PUSH1 0x20 DUP3 DUP5 SUB SLT ISZERO PUSH2 0x4727 JUMPI PUSH1 0x0 DUP1 REVERT JUMPDEST PUSH1 0x0 PUSH2 0x4735 DUP5 DUP3 DUP6 ADD PUSH2 0x449E JUMP JUMPDEST SWAP2 POP POP SWAP3 SWAP2 POP POP JUMP JUMPDEST PUSH1 0x0 PUSH1 0x20 DUP3 DUP5 SUB SLT ISZERO PUSH2 0x4750 JUMPI PUSH1 0x0 DUP1 REVERT JUMPDEST PUSH1 0x0 DUP3 ADD CALLDATALOAD PUSH8 0xFFFFFFFFFFFFFFFF DUP2 GT ISZERO PUSH2 0x476A JUMPI PUSH1 0x0 DUP1 REVERT JUMPDEST PUSH2 0x4776 DUP5 DUP3 DUP6 ADD PUSH2 0x44DD JUMP JUMPDEST SWAP2 POP POP SWAP3 SWAP2 POP POP JUMP JUMPDEST PUSH1 0x0 PUSH1 0x20 DUP3 DUP5 SUB SLT ISZERO PUSH2 0x4791 JUMPI PUSH1 0x0 DUP1 REVERT JUMPDEST PUSH1 0x0 PUSH2 0x479F DUP5 DUP3 DUP6 ADD PUSH2 0x4507 JUMP JUMPDEST SWAP2 POP POP SWAP3 SWAP2 POP POP JUMP JUMPDEST PUSH1 0x0 DUP1 PUSH1 0x40 DUP4 DUP6 SUB SLT ISZERO PUSH2 0x47BB JUMPI PUSH1 0x0 DUP1 REVERT JUMPDEST PUSH1 0x0 PUSH2 0x47C9 DUP6 DUP3 DUP7 ADD PUSH2 0x4507 JUMP JUMPDEST SWAP3 POP POP PUSH1 0x20 PUSH2 0x47DA DUP6 DUP3 DUP7 ADD PUSH2 0x445F JUMP JUMPDEST SWAP2 POP POP SWAP3 POP SWAP3 SWAP1 POP JUMP JUMPDEST PUSH2 0x47ED DUP2 PUSH2 0x52F8 JUMP JUMPDEST DUP3 MSTORE POP POP JUMP JUMPDEST PUSH2 0x47FC DUP2 PUSH2 0x530A JUMP JUMPDEST DUP3 MSTORE POP POP JUMP JUMPDEST PUSH1 0x0 PUSH2 0x480D DUP3 PUSH2 0x51EF JUMP JUMPDEST PUSH2 0x4817 DUP2 DUP6 PUSH2 0x5205 JUMP JUMPDEST SWAP4 POP PUSH2 0x4827 DUP2 DUP6 PUSH1 0x20 DUP7 ADD PUSH2 0x537B JUMP JUMPDEST PUSH2 0x4830 DUP2 PUSH2 0x5547 JUMP JUMPDEST DUP5 ADD SWAP2 POP POP SWAP3 SWAP2 POP POP JUMP JUMPDEST PUSH1 0x0 PUSH2 0x4846 DUP3 PUSH2 0x51FA JUMP JUMPDEST PUSH2 0x4850 DUP2 DUP6 PUSH2 0x5221 JUMP JUMPDEST SWAP4 POP PUSH2 0x4860 DUP2 DUP6 PUSH1 0x20 DUP7 ADD PUSH2 0x537B JUMP JUMPDEST PUSH2 0x4869 DUP2 PUSH2 0x5547 JUMP JUMPDEST DUP5 ADD SWAP2 POP POP SWAP3 SWAP2 POP POP JUMP JUMPDEST PUSH1 0x0 PUSH2 0x487F DUP3 PUSH2 0x51FA JUMP JUMPDEST PUSH2 0x4889 DUP2 DUP6 PUSH2 0x5232 JUMP JUMPDEST SWAP4 POP PUSH2 0x4899 DUP2 DUP6 PUSH1 0x20 DUP7 ADD PUSH2 0x537B JUMP JUMPDEST DUP1 DUP5 ADD SWAP2 POP POP SWAP3 SWAP2 POP POP JUMP JUMPDEST PUSH1 0x0 PUSH2 0x48B2 PUSH1 0x25 DUP4 PUSH2 0x5221 JUMP JUMPDEST SWAP2 POP PUSH2 0x48BD DUP3 PUSH2 0x5558 JUMP JUMPDEST PUSH1 0x40 DUP3 ADD SWAP1 POP SWAP2 SWAP1 POP JUMP JUMPDEST PUSH1 0x0 PUSH2 0x48D5 PUSH1 0x44 DUP4 PUSH2 0x5221 JUMP JUMPDEST SWAP2 POP PUSH2 0x48E0 DUP3 PUSH2 0x55A7 JUMP JUMPDEST PUSH1 0x60 DUP3 ADD SWAP1 POP SWAP2 SWAP1 POP JUMP JUMPDEST PUSH1 0x0 PUSH2 0x48F8 PUSH1 0x32 DUP4 PUSH2 0x5221 JUMP JUMPDEST SWAP2 POP PUSH2 0x4903 DUP3 PUSH2 0x561C JUMP JUMPDEST PUSH1 0x40 DUP3 ADD SWAP1 POP SWAP2 SWAP1 POP JUMP JUMPDEST PUSH1 0x0 PUSH2 0x491B PUSH1 0x4 DUP4 PUSH2 0x5221 JUMP JUMPDEST SWAP2 POP PUSH2 0x4926 DUP3 PUSH2 0x566B JUMP JUMPDEST PUSH1 0x20 DUP3 ADD SWAP1 POP SWAP2 SWAP1 POP JUMP JUMPDEST PUSH1 0x0 PUSH2 0x493E PUSH1 0x45 DUP4 PUSH2 0x5221 JUMP JUMPDEST SWAP2 POP PUSH2 0x4949 DUP3 PUSH2 0x5694 JUMP JUMPDEST PUSH1 0x60 DUP3 ADD SWAP1 POP SWAP2 SWAP1 POP JUMP JUMPDEST PUSH1 0x0 PUSH2 0x4961 PUSH1 0x25 DUP4 PUSH2 0x5221 JUMP JUMPDEST SWAP2 POP PUSH2 0x496C DUP3 PUSH2 0x5709 JUMP JUMPDEST PUSH1 0x40 DUP3 ADD SWAP1 POP SWAP2 SWAP1 POP JUMP JUMPDEST PUSH1 0x0 PUSH2 0x4984 PUSH1 0x1C DUP4 PUSH2 0x5221 JUMP JUMPDEST SWAP2 POP PUSH2 0x498F DUP3 PUSH2 0x5758 JUMP JUMPDEST PUSH1 0x20 DUP3 ADD SWAP1 POP SWAP2 SWAP1 POP JUMP JUMPDEST PUSH1 0x0 PUSH2 0x49A7 PUSH1 0x24 DUP4 PUSH2 0x5221 JUMP JUMPDEST SWAP2 POP PUSH2 0x49B2 DUP3 PUSH2 0x5781 JUMP JUMPDEST PUSH1 0x40 DUP3 ADD SWAP1 POP SWAP2 SWAP1 POP JUMP JUMPDEST PUSH1 0x0 PUSH2 0x49CA PUSH1 0x19 DUP4 PUSH2 0x5221 JUMP JUMPDEST SWAP2 POP PUSH2 0x49D5 DUP3 PUSH2 0x57D0 JUMP JUMPDEST PUSH1 0x20 DUP3 ADD SWAP1 POP SWAP2 SWAP1 POP JUMP JUMPDEST PUSH1 0x0 PUSH2 0x49ED PUSH1 0x40 DUP4 PUSH2 0x5221 JUMP JUMPDEST SWAP2 POP PUSH2 0x49F8 DUP3 PUSH2 0x57F9 JUMP JUMPDEST PUSH1 0x40 DUP3 ADD SWAP1 POP SWAP2 SWAP1 POP JUMP JUMPDEST PUSH1 0x0 PUSH2 0x4A10 PUSH1 0xC DUP4 PUSH2 0x5221 JUMP JUMPDEST SWAP2 POP PUSH2 0x4A1B DUP3 PUSH2 0x5848 JUMP JUMPDEST PUSH1 0x20 DUP3 ADD SWAP1 POP SWAP2 SWAP1 POP JUMP JUMPDEST PUSH1 0x0 PUSH2 0x4A33 PUSH1 0x2C DUP4 PUSH2 0x5221 JUMP JUMPDEST SWAP2 POP PUSH2 0x4A3E DUP3 PUSH2 0x5871 JUMP JUMPDEST PUSH1 0x40 DUP3 ADD SWAP1 POP SWAP2 SWAP1 POP JUMP JUMPDEST PUSH1 0x0 PUSH2 0x4A56 PUSH1 0x38 DUP4 PUSH2 0x5221 JUMP JUMPDEST SWAP2 POP PUSH2 0x4A61 DUP3 PUSH2 0x58C0 JUMP JUMPDEST PUSH1 0x40 DUP3 ADD SWAP1 POP SWAP2 SWAP1 POP JUMP JUMPDEST PUSH1 0x0 PUSH2 0x4A79 PUSH1 0x2D DUP4 PUSH2 0x5221 JUMP JUMPDEST SWAP2 POP PUSH2 0x4A84 DUP3 PUSH2 0x590F JUMP JUMPDEST PUSH1 0x40 DUP3 ADD SWAP1 POP SWAP2 SWAP1 POP JUMP JUMPDEST PUSH1 0x0 PUSH2 0x4A9C PUSH1 0x2A DUP4 PUSH2 0x5221 JUMP JUMPDEST SWAP2 POP PUSH2 0x4AA7 DUP3 PUSH2 0x595E JUMP JUMPDEST PUSH1 0x40 DUP3 ADD SWAP1 POP SWAP2 SWAP1 POP JUMP JUMPDEST PUSH1 0x0 PUSH2 0x4ABF PUSH1 0x29 DUP4 PUSH2 0x5221 JUMP JUMPDEST SWAP2 POP PUSH2 0x4ACA DUP3 PUSH2 0x59AD JUMP JUMPDEST PUSH1 0x40 DUP3 ADD SWAP1 POP SWAP2 SWAP1 POP JUMP JUMPDEST PUSH1 0x0 PUSH2 0x4AE2 PUSH1 0x20 DUP4 PUSH2 0x5221 JUMP JUMPDEST SWAP2 POP PUSH2 0x4AED DUP3 PUSH2 0x59FC JUMP JUMPDEST PUSH1 0x20 DUP3 ADD SWAP1 POP SWAP2 SWAP1 POP JUMP JUMPDEST PUSH1 0x0 PUSH2 0x4B05 PUSH1 0x7 DUP4 PUSH2 0x5232 JUMP JUMPDEST SWAP2 POP PUSH2 0x4B10 DUP3 PUSH2 0x5A25 JUMP JUMPDEST PUSH1 0x7 DUP3 ADD SWAP1 POP SWAP2 SWAP1 POP JUMP JUMPDEST PUSH1 0x0 PUSH2 0x4B28 PUSH1 0x2C DUP4 PUSH2 0x5221 JUMP JUMPDEST SWAP2 POP PUSH2 0x4B33 DUP3 PUSH2 0x5A4E JUMP JUMPDEST PUSH1 0x40 DUP3 ADD SWAP1 POP SWAP2 SWAP1 POP JUMP JUMPDEST PUSH1 0x0 PUSH2 0x4B4B PUSH1 0x43 DUP4 PUSH2 0x5221 JUMP JUMPDEST SWAP2 POP PUSH2 0x4B56 DUP3 PUSH2 0x5A9D JUMP JUMPDEST PUSH1 0x60 DUP3 ADD SWAP1 POP SWAP2 SWAP1 POP JUMP JUMPDEST PUSH1 0x0 PUSH2 0x4B6E PUSH1 0x2F DUP4 PUSH2 0x5221 JUMP JUMPDEST SWAP2 POP PUSH2 0x4B79 DUP3 PUSH2 0x5B12 JUMP JUMPDEST PUSH1 0x40 DUP3 ADD SWAP1 POP SWAP2 SWAP1 POP JUMP JUMPDEST PUSH1 0x0 PUSH2 0x4B91 PUSH1 0x30 DUP4 PUSH2 0x5221 JUMP JUMPDEST SWAP2 POP PUSH2 0x4B9C DUP3 PUSH2 0x5B61 JUMP JUMPDEST PUSH1 0x40 DUP3 ADD SWAP1 POP SWAP2 SWAP1 POP JUMP JUMPDEST PUSH1 0x0 PUSH2 0x4BB4 PUSH1 0x18 DUP4 PUSH2 0x5221 JUMP JUMPDEST SWAP2 POP PUSH2 0x4BBF DUP3 PUSH2 0x5BB0 JUMP JUMPDEST PUSH1 0x20 DUP3 ADD SWAP1 POP SWAP2 SWAP1 POP JUMP JUMPDEST PUSH1 0x0 PUSH2 0x4BD7 PUSH1 0x2F DUP4 PUSH2 0x5221 JUMP JUMPDEST SWAP2 POP PUSH2 0x4BE2 DUP3 PUSH2 0x5BD9 JUMP JUMPDEST PUSH1 0x40 DUP3 ADD SWAP1 POP SWAP2 SWAP1 POP JUMP JUMPDEST PUSH1 0x0 PUSH2 0x4BFA PUSH1 0x21 DUP4 PUSH2 0x5221 JUMP JUMPDEST SWAP2 POP PUSH2 0x4C05 DUP3 PUSH2 0x5C28 JUMP JUMPDEST PUSH1 0x40 DUP3 ADD SWAP1 POP SWAP2 SWAP1 POP JUMP JUMPDEST PUSH1 0x0 PUSH2 0x4C1D PUSH1 0x0 DUP4 PUSH2 0x5216 JUMP JUMPDEST SWAP2 POP PUSH2 0x4C28 DUP3 PUSH2 0x5C77 JUMP JUMPDEST PUSH1 0x0 DUP3 ADD SWAP1 POP SWAP2 SWAP1 POP JUMP JUMPDEST PUSH1 0x0 PUSH2 0x4C40 PUSH1 0x32 DUP4 PUSH2 0x5221 JUMP JUMPDEST SWAP2 POP PUSH2 0x4C4B DUP3 PUSH2 0x5C7A JUMP JUMPDEST PUSH1 0x40 DUP3 ADD SWAP1 POP SWAP2 SWAP1 POP JUMP JUMPDEST PUSH1 0x0 PUSH2 0x4C63 PUSH1 0x31 DUP4 PUSH2 0x5221 JUMP JUMPDEST SWAP2 POP PUSH2 0x4C6E DUP3 PUSH2 0x5CC9 JUMP JUMPDEST PUSH1 0x40 DUP3 ADD SWAP1 POP SWAP2 SWAP1 POP JUMP JUMPDEST PUSH1 0x0 PUSH2 0x4C86 PUSH1 0x17 DUP4 PUSH2 0x5221 JUMP JUMPDEST SWAP2 POP PUSH2 0x4C91 DUP3 PUSH2 0x5D18 JUMP JUMPDEST PUSH1 0x20 DUP3 ADD SWAP1 POP SWAP2 SWAP1 POP JUMP JUMPDEST PUSH1 0x0 PUSH2 0x4CA9 PUSH1 0x41 DUP4 PUSH2 0x5221 JUMP JUMPDEST SWAP2 POP PUSH2 0x4CB4 DUP3 PUSH2 0x5D41 JUMP JUMPDEST PUSH1 0x60 DUP3 ADD SWAP1 POP SWAP2 SWAP1 POP JUMP JUMPDEST PUSH2 0x4CC8 DUP2 PUSH2 0x5362 JUMP JUMPDEST DUP3 MSTORE POP POP JUMP JUMPDEST PUSH1 0x0 PUSH2 0x4CDA DUP3 DUP6 PUSH2 0x4874 JUMP JUMPDEST SWAP2 POP PUSH2 0x4CE6 DUP3 DUP5 PUSH2 0x4874 JUMP JUMPDEST SWAP2 POP DUP2 SWAP1 POP SWAP4 SWAP3 POP POP POP JUMP JUMPDEST PUSH1 0x0 PUSH2 0x4CFE DUP3 DUP5 PUSH2 0x4874 JUMP JUMPDEST SWAP2 POP PUSH2 0x4D09 DUP3 PUSH2 0x4AF8 JUMP JUMPDEST SWAP2 POP DUP2 SWAP1 POP SWAP3 SWAP2 POP POP JUMP JUMPDEST PUSH1 0x0 PUSH2 0x4D1F DUP3 PUSH2 0x4C10 JUMP JUMPDEST SWAP2 POP DUP2 SWAP1 POP SWAP2 SWAP1 POP JUMP JUMPDEST PUSH1 0x0 PUSH1 0x20 DUP3 ADD SWAP1 POP PUSH2 0x4D3E PUSH1 0x0 DUP4 ADD DUP5 PUSH2 0x47E4 JUMP JUMPDEST SWAP3 SWAP2 POP POP JUMP JUMPDEST PUSH1 0x0 PUSH1 0x80 DUP3 ADD SWAP1 POP PUSH2 0x4D59 PUSH1 0x0 DUP4 ADD DUP8 PUSH2 0x47E4 JUMP JUMPDEST PUSH2 0x4D66 PUSH1 0x20 DUP4 ADD DUP7 PUSH2 0x47E4 JUMP JUMPDEST PUSH2 0x4D73 PUSH1 0x40 DUP4 ADD DUP6 PUSH2 0x4CBF JUMP JUMPDEST DUP2 DUP2 SUB PUSH1 0x60 DUP4 ADD MSTORE PUSH2 0x4D85 DUP2 DUP5 PUSH2 0x4802 JUMP JUMPDEST SWAP1 POP SWAP6 SWAP5 POP POP POP POP POP JUMP JUMPDEST PUSH1 0x0 PUSH1 0x20 DUP3 ADD SWAP1 POP PUSH2 0x4DA5 PUSH1 0x0 DUP4 ADD DUP5 PUSH2 0x47F3 JUMP JUMPDEST SWAP3 SWAP2 POP POP JUMP JUMPDEST PUSH1 0x0 PUSH1 0x20 DUP3 ADD SWAP1 POP DUP2 DUP2 SUB PUSH1 0x0 DUP4 ADD MSTORE PUSH2 0x4DC5 DUP2 DUP5 PUSH2 0x483B JUMP JUMPDEST SWAP1 POP SWAP3 SWAP2 POP POP JUMP JUMPDEST PUSH1 0x0 PUSH1 0x20 DUP3 ADD SWAP1 POP DUP2 DUP2 SUB PUSH1 0x0 DUP4 ADD MSTORE PUSH2 0x4DE6 DUP2 PUSH2 0x48A5 JUMP JUMPDEST SWAP1 POP SWAP2 SWAP1 POP JUMP JUMPDEST PUSH1 0x0 PUSH1 0x20 DUP3 ADD SWAP1 POP DUP2 DUP2 SUB PUSH1 0x0 DUP4 ADD MSTORE PUSH2 0x4E06 DUP2 PUSH2 0x48C8 JUMP JUMPDEST SWAP1 POP SWAP2 SWAP1 POP JUMP JUMPDEST PUSH1 0x0 PUSH1 0x20 DUP3 ADD SWAP1 POP DUP2 DUP2 SUB PUSH1 0x0 DUP4 ADD MSTORE PUSH2 0x4E26 DUP2 PUSH2 0x48EB JUMP JUMPDEST SWAP1 POP SWAP2 SWAP1 POP JUMP JUMPDEST PUSH1 0x0 PUSH1 0x20 DUP3 ADD SWAP1 POP DUP2 DUP2 SUB PUSH1 0x0 DUP4 ADD MSTORE PUSH2 0x4E46 DUP2 PUSH2 0x490E JUMP JUMPDEST SWAP1 POP SWAP2 SWAP1 POP JUMP JUMPDEST PUSH1 0x0 PUSH1 0x20 DUP3 ADD SWAP1 POP DUP2 DUP2 SUB PUSH1 0x0 DUP4 ADD MSTORE PUSH2 0x4E66 DUP2 PUSH2 0x4931 JUMP JUMPDEST SWAP1 POP SWAP2 SWAP1 POP JUMP JUMPDEST PUSH1 0x0 PUSH1 0x20 DUP3 ADD SWAP1 POP DUP2 DUP2 SUB PUSH1 0x0 DUP4 ADD MSTORE PUSH2 0x4E86 DUP2 PUSH2 0x4954 JUMP JUMPDEST SWAP1 POP SWAP2 SWAP1 POP JUMP JUMPDEST PUSH1 0x0 PUSH1 0x20 DUP3 ADD SWAP1 POP DUP2 DUP2 SUB PUSH1 0x0 DUP4 ADD MSTORE PUSH2 0x4EA6 DUP2 PUSH2 0x4977 JUMP JUMPDEST SWAP1 POP SWAP2 SWAP1 POP JUMP JUMPDEST PUSH1 0x0 PUSH1 0x20 DUP3 ADD SWAP1 POP DUP2 DUP2 SUB PUSH1 0x0 DUP4 ADD MSTORE PUSH2 0x4EC6 DUP2 PUSH2 0x499A JUMP JUMPDEST SWAP1 POP SWAP2 SWAP1 POP JUMP JUMPDEST PUSH1 0x0 PUSH1 0x20 DUP3 ADD SWAP1 POP DUP2 DUP2 SUB PUSH1 0x0 DUP4 ADD MSTORE PUSH2 0x4EE6 DUP2 PUSH2 0x49BD JUMP JUMPDEST SWAP1 POP SWAP2 SWAP1 POP JUMP JUMPDEST PUSH1 0x0 PUSH1 0x20 DUP3 ADD SWAP1 POP DUP2 DUP2 SUB PUSH1 0x0 DUP4 ADD MSTORE PUSH2 0x4F06 DUP2 PUSH2 0x49E0 JUMP JUMPDEST SWAP1 POP SWAP2 SWAP1 POP JUMP JUMPDEST PUSH1 0x0 PUSH1 0x20 DUP3 ADD SWAP1 POP DUP2 DUP2 SUB PUSH1 0x0 DUP4 ADD MSTORE PUSH2 0x4F26 DUP2 PUSH2 0x4A03 JUMP JUMPDEST SWAP1 POP SWAP2 SWAP1 POP JUMP JUMPDEST PUSH1 0x0 PUSH1 0x20 DUP3 ADD SWAP1 POP DUP2 DUP2 SUB PUSH1 0x0 DUP4 ADD MSTORE PUSH2 0x4F46 DUP2 PUSH2 0x4A26 JUMP JUMPDEST SWAP1 POP SWAP2 SWAP1 POP JUMP JUMPDEST PUSH1 0x0 PUSH1 0x20 DUP3 ADD SWAP1 POP DUP2 DUP2 SUB PUSH1 0x0 DUP4 ADD MSTORE PUSH2 0x4F66 DUP2 PUSH2 0x4A49 JUMP JUMPDEST SWAP1 POP SWAP2 SWAP1 POP JUMP JUMPDEST PUSH1 0x0 PUSH1 0x20 DUP3 ADD SWAP1 POP DUP2 DUP2 SUB PUSH1 0x0 DUP4 ADD MSTORE PUSH2 0x4F86 DUP2 PUSH2 0x4A6C JUMP JUMPDEST SWAP1 POP SWAP2 SWAP1 POP JUMP JUMPDEST PUSH1 0x0 PUSH1 0x20 DUP3 ADD SWAP1 POP DUP2 DUP2 SUB PUSH1 0x0 DUP4 ADD MSTORE PUSH2 0x4FA6 DUP2 PUSH2 0x4A8F JUMP JUMPDEST SWAP1 POP SWAP2 SWAP1 POP JUMP JUMPDEST PUSH1 0x0 PUSH1 0x20 DUP3 ADD SWAP1 POP DUP2 DUP2 SUB PUSH1 0x0 DUP4 ADD MSTORE PUSH2 0x4FC6 DUP2 PUSH2 0x4AB2 JUMP JUMPDEST SWAP1 POP SWAP2 SWAP1 POP JUMP JUMPDEST PUSH1 0x0 PUSH1 0x20 DUP3 ADD SWAP1 POP DUP2 DUP2 SUB PUSH1 0x0 DUP4 ADD MSTORE PUSH2 0x4FE6 DUP2 PUSH2 0x4AD5 JUMP JUMPDEST SWAP1 POP SWAP2 SWAP1 POP JUMP JUMPDEST PUSH1 0x0 PUSH1 0x20 DUP3 ADD SWAP1 POP DUP2 DUP2 SUB PUSH1 0x0 DUP4 ADD MSTORE PUSH2 0x5006 DUP2 PUSH2 0x4B1B JUMP JUMPDEST SWAP1 POP SWAP2 SWAP1 POP JUMP JUMPDEST PUSH1 0x0 PUSH1 0x20 DUP3 ADD SWAP1 POP DUP2 DUP2 SUB PUSH1 0x0 DUP4 ADD MSTORE PUSH2 0x5026 DUP2 PUSH2 0x4B3E JUMP JUMPDEST SWAP1 POP SWAP2 SWAP1 POP JUMP JUMPDEST PUSH1 0x0 PUSH1 0x20 DUP3 ADD SWAP1 POP DUP2 DUP2 SUB PUSH1 0x0 DUP4 ADD MSTORE PUSH2 0x5046 DUP2 PUSH2 0x4B61 JUMP JUMPDEST SWAP1 POP SWAP2 SWAP1 POP JUMP JUMPDEST PUSH1 0x0 PUSH1 0x20 DUP3 ADD SWAP1 POP DUP2 DUP2 SUB PUSH1 0x0 DUP4 ADD MSTORE PUSH2 0x5066 DUP2 PUSH2 0x4B84 JUMP JUMPDEST SWAP1 POP SWAP2 SWAP1 POP JUMP JUMPDEST PUSH1 0x0 PUSH1 0x20 DUP3 ADD SWAP1 POP DUP2 DUP2 SUB PUSH1 0x0 DUP4 ADD MSTORE PUSH2 0x5086 DUP2 PUSH2 0x4BA7 JUMP JUMPDEST SWAP1 POP SWAP2 SWAP1 POP JUMP JUMPDEST PUSH1 0x0 PUSH1 0x20 DUP3 ADD SWAP1 POP DUP2 DUP2 SUB PUSH1 0x0 DUP4 ADD MSTORE PUSH2 0x50A6 DUP2 PUSH2 0x4BCA JUMP JUMPDEST SWAP1 POP SWAP2 SWAP1 POP JUMP JUMPDEST PUSH1 0x0 PUSH1 0x20 DUP3 ADD SWAP1 POP DUP2 DUP2 SUB PUSH1 0x0 DUP4 ADD MSTORE PUSH2 0x50C6 DUP2 PUSH2 0x4BED JUMP JUMPDEST SWAP1 POP SWAP2 SWAP1 POP JUMP JUMPDEST PUSH1 0x0 PUSH1 0x20 DUP3 ADD SWAP1 POP DUP2 DUP2 SUB PUSH1 0x0 DUP4 ADD MSTORE PUSH2 0x50E6 DUP2 PUSH2 0x4C33 JUMP JUMPDEST SWAP1 POP SWAP2 SWAP1 POP JUMP JUMPDEST PUSH1 0x0 PUSH1 0x20 DUP3 ADD SWAP1 POP DUP2 DUP2 SUB PUSH1 0x0 DUP4 ADD MSTORE PUSH2 0x5106 DUP2 PUSH2 0x4C56 JUMP JUMPDEST SWAP1 POP SWAP2 SWAP1 POP JUMP JUMPDEST PUSH1 0x0 PUSH1 0x20 DUP3 ADD SWAP1 POP DUP2 DUP2 SUB PUSH1 0x0 DUP4 ADD MSTORE PUSH2 0x5126 DUP2 PUSH2 0x4C79 JUMP JUMPDEST SWAP1 POP SWAP2 SWAP1 POP JUMP JUMPDEST PUSH1 0x0 PUSH1 0x20 DUP3 ADD SWAP1 POP DUP2 DUP2 SUB PUSH1 0x0 DUP4 ADD MSTORE PUSH2 0x5146 DUP2 PUSH2 0x4C9C JUMP JUMPDEST SWAP1 POP SWAP2 SWAP1 POP JUMP JUMPDEST PUSH1 0x0 PUSH1 0x20 DUP3 ADD SWAP1 POP PUSH2 0x5162 PUSH1 0x0 DUP4 ADD DUP5 PUSH2 0x4CBF JUMP JUMPDEST SWAP3 SWAP2 POP POP JUMP JUMPDEST PUSH1 0x0 PUSH2 0x5172 PUSH2 0x5183 JUMP JUMPDEST SWAP1 POP PUSH2 0x517E DUP3 DUP3 PUSH2 0x53E0 JUMP JUMPDEST SWAP2 SWAP1 POP JUMP JUMPDEST PUSH1 0x0 PUSH1 0x40 MLOAD SWAP1 POP SWAP1 JUMP JUMPDEST PUSH1 0x0 PUSH8 0xFFFFFFFFFFFFFFFF DUP3 GT ISZERO PUSH2 0x51A8 JUMPI PUSH2 0x51A7 PUSH2 0x5518 JUMP JUMPDEST JUMPDEST PUSH2 0x51B1 DUP3 PUSH2 0x5547 JUMP JUMPDEST SWAP1 POP PUSH1 0x20 DUP2 ADD SWAP1 POP SWAP2 SWAP1 POP JUMP JUMPDEST PUSH1 0x0 PUSH8 0xFFFFFFFFFFFFFFFF DUP3 GT ISZERO PUSH2 0x51D9 JUMPI PUSH2 0x51D8 PUSH2 0x5518 JUMP JUMPDEST JUMPDEST PUSH2 0x51E2 DUP3 PUSH2 0x5547 JUMP JUMPDEST SWAP1 POP PUSH1 0x20 DUP2 ADD SWAP1 POP SWAP2 SWAP1 POP JUMP JUMPDEST PUSH1 0x0 DUP2 MLOAD SWAP1 POP SWAP2 SWAP1 POP JUMP JUMPDEST PUSH1 0x0 DUP2 MLOAD SWAP1 POP SWAP2 SWAP1 POP JUMP JUMPDEST PUSH1 0x0 DUP3 DUP3 MSTORE PUSH1 0x20 DUP3 ADD SWAP1 POP SWAP3 SWAP2 POP POP JUMP JUMPDEST PUSH1 0x0 DUP2 SWAP1 POP SWAP3 SWAP2 POP POP JUMP JUMPDEST PUSH1 0x0 DUP3 DUP3 MSTORE PUSH1 0x20 DUP3 ADD SWAP1 POP SWAP3 SWAP2 POP POP JUMP JUMPDEST PUSH1 0x0 DUP2 SWAP1 POP SWAP3 SWAP2 POP POP JUMP JUMPDEST PUSH1 0x0 PUSH2 0x5248 DUP3 PUSH2 0x5362 JUMP JUMPDEST SWAP2 POP PUSH2 0x5253 DUP4 PUSH2 0x5362 JUMP JUMPDEST SWAP3 POP DUP3 PUSH32 0xFFFFFFFFFFFFFFFFFFFFFFFFFFFFFFFFFFFFFFFFFFFFFFFFFFFFFFFFFFFFFFFF SUB DUP3 GT ISZERO PUSH2 0x5288 JUMPI PUSH2 0x5287 PUSH2 0x548B JUMP JUMPDEST JUMPDEST DUP3 DUP3 ADD SWAP1 POP SWAP3 SWAP2 POP POP JUMP JUMPDEST PUSH1 0x0 PUSH2 0x529E DUP3 PUSH2 0x5362 JUMP JUMPDEST SWAP2 POP PUSH2 0x52A9 DUP4 PUSH2 0x5362 JUMP JUMPDEST SWAP3 POP DUP3 PUSH2 0x52B9 JUMPI PUSH2 0x52B8 PUSH2 0x54BA JUMP JUMPDEST JUMPDEST DUP3 DUP3 DIV SWAP1 POP SWAP3 SWAP2 POP POP JUMP JUMPDEST PUSH1 0x0 PUSH2 0x52CF DUP3 PUSH2 0x5362 JUMP JUMPDEST SWAP2 POP PUSH2 0x52DA DUP4 PUSH2 0x5362 JUMP JUMPDEST SWAP3 POP DUP3 DUP3 LT ISZERO PUSH2 0x52ED JUMPI PUSH2 0x52EC PUSH2 0x548B JUMP JUMPDEST JUMPDEST DUP3 DUP3 SUB SWAP1 POP SWAP3 SWAP2 POP POP JUMP JUMPDEST PUSH1 0x0 PUSH2 0x5303 DUP3 PUSH2 0x5342 JUMP JUMPDEST SWAP1 POP SWAP2 SWAP1 POP JUMP JUMPDEST PUSH1 0x0 DUP2 ISZERO ISZERO SWAP1 POP SWAP2 SWAP1 POP JUMP JUMPDEST PUSH1 0x0 PUSH32 0xFFFFFFFF00000000000000000000000000000000000000000000000000000000 DUP3 AND SWAP1 POP SWAP2 SWAP1 POP JUMP JUMPDEST PUSH1 0x0 PUSH20 0xFFFFFFFFFFFFFFFFFFFFFFFFFFFFFFFFFFFFFFFF DUP3 AND SWAP1 POP SWAP2 SWAP1 POP JUMP JUMPDEST PUSH1 0x0 DUP2 SWAP1 POP SWAP2 SWAP1 POP JUMP JUMPDEST DUP3 DUP2 DUP4 CALLDATACOPY PUSH1 0x0 DUP4 DUP4 ADD MSTORE POP POP POP JUMP JUMPDEST PUSH1 0x0 JUMPDEST DUP4 DUP2 LT ISZERO PUSH2 0x5399 JUMPI DUP1 DUP3 ADD MLOAD DUP2 DUP5 ADD MSTORE PUSH1 0x20 DUP2 ADD SWAP1 POP PUSH2 0x537E JUMP JUMPDEST DUP4 DUP2 GT ISZERO PUSH2 0x53A8 JUMPI PUSH1 0x0 DUP5 DUP5 ADD MSTORE JUMPDEST POP POP POP POP JUMP JUMPDEST PUSH1 0x0 PUSH1 0x2 DUP3 DIV SWAP1 POP PUSH1 0x1 DUP3 AND DUP1 PUSH2 0x53C6 JUMPI PUSH1 0x7F DUP3 AND SWAP2 POP JUMPDEST PUSH1 0x20 DUP3 LT DUP2 EQ ISZERO PUSH2 0x53DA JUMPI PUSH2 0x53D9 PUSH2 0x54E9 JUMP JUMPDEST JUMPDEST POP SWAP2 SWAP1 POP JUMP JUMPDEST PUSH2 0x53E9 DUP3 PUSH2 0x5547 JUMP JUMPDEST DUP2 ADD DUP2 DUP2 LT PUSH8 0xFFFFFFFFFFFFFFFF DUP3 GT OR ISZERO PUSH2 0x5408 JUMPI PUSH2 0x5407 PUSH2 0x5518 JUMP JUMPDEST JUMPDEST DUP1 PUSH1 0x40 MSTORE POP POP POP JUMP JUMPDEST PUSH1 0x0 PUSH2 0x541C DUP3 PUSH2 0x5362 JUMP JUMPDEST SWAP2 POP PUSH32 0xFFFFFFFFFFFFFFFFFFFFFFFFFFFFFFFFFFFFFFFFFFFFFFFFFFFFFFFFFFFFFFFF DUP3 EQ ISZERO PUSH2 0x544F JUMPI PUSH2 0x544E PUSH2 0x548B JUMP JUMPDEST JUMPDEST PUSH1 0x1 DUP3 ADD SWAP1 POP SWAP2 SWAP1 POP JUMP JUMPDEST PUSH1 0x0 PUSH2 0x5465 DUP3 PUSH2 0x5362 JUMP JUMPDEST SWAP2 POP PUSH2 0x5470 DUP4 PUSH2 0x5362 JUMP JUMPDEST SWAP3 POP DUP3 PUSH2 0x5480 JUMPI PUSH2 0x547F PUSH2 0x54BA JUMP JUMPDEST JUMPDEST DUP3 DUP3 MOD SWAP1 POP SWAP3 SWAP2 POP POP JUMP JUMPDEST PUSH32 0x4E487B7100000000000000000000000000000000000000000000000000000000 PUSH1 0x0 MSTORE PUSH1 0x11 PUSH1 0x4 MSTORE PUSH1 0x24 PUSH1 0x0 REVERT JUMPDEST PUSH32 0x4E487B7100000000000000000000000000000000000000000000000000000000 PUSH1 0x0 MSTORE PUSH1 0x12 PUSH1 0x4 MSTORE PUSH1 0x24 PUSH1 0x0 REVERT JUMPDEST PUSH32 0x4E487B7100000000000000000000000000000000000000000000000000000000 PUSH1 0x0 MSTORE PUSH1 0x22 PUSH1 0x4 MSTORE PUSH1 0x24 PUSH1 0x0 REVERT JUMPDEST PUSH32 0x4E487B7100000000000000000000000000000000000000000000000000000000 PUSH1 0x0 MSTORE PUSH1 0x41 PUSH1 0x4 MSTORE PUSH1 0x24 PUSH1 0x0 REVERT JUMPDEST PUSH1 0x0 PUSH1 0x1F NOT PUSH1 0x1F DUP4 ADD AND SWAP1 POP SWAP2 SWAP1 POP JUMP JUMPDEST PUSH32 0x7A706D4020736179733A207769746864726177206661696C65642C2072657665 PUSH1 0x0 DUP3 ADD MSTORE PUSH32 0x7274696E67000000000000000000000000000000000000000000000000000000 PUSH1 0x20 DUP3 ADD MSTORE POP JUMP JUMPDEST PUSH32 0x596F7520686176652067726561742074617374653B20736F6D656F6E6520656C PUSH1 0x0 DUP3 ADD MSTORE PUSH32 0x73652068617320616C7265616479206D696E74656420796F7572206661766F72 PUSH1 0x20 DUP3 ADD MSTORE PUSH32 0x6974652E00000000000000000000000000000000000000000000000000000000 PUSH1 0x40 DUP3 ADD MSTORE POP JUMP JUMPDEST PUSH32 0x4552433732313A207472616E7366657220746F206E6F6E204552433732315265 PUSH1 0x0 DUP3 ADD MSTORE PUSH32 0x63656976657220696D706C656D656E7465720000000000000000000000000000 PUSH1 0x20 DUP3 ADD MSTORE POP JUMP JUMPDEST PUSH32 0x534F4F4E00000000000000000000000000000000000000000000000000000000 PUSH1 0x0 DUP3 ADD MSTORE POP JUMP JUMPDEST PUSH32 0x416C6C6F776C697374696E672069736E277420656E61626C65642E205069636B PUSH1 0x0 DUP3 ADD MSTORE PUSH32 0x696E67206661766F72697465732069732061207468696E67206F662074686520 PUSH1 0x20 DUP3 ADD MSTORE PUSH32 0x706173742E000000000000000000000000000000000000000000000000000000 PUSH1 0x40 DUP3 ADD MSTORE POP JUMP JUMPDEST PUSH32 0x4552433732313A207472616E736665722066726F6D20696E636F727265637420 PUSH1 0x0 DUP3 ADD MSTORE PUSH32 0x6F776E6572000000000000000000000000000000000000000000000000000000 PUSH1 0x20 DUP3 ADD MSTORE POP JUMP JUMPDEST PUSH32 0x4552433732313A20746F6B656E20616C7265616479206D696E74656400000000 PUSH1 0x0 DUP3 ADD MSTORE POP JUMP JUMPDEST PUSH32 0x4552433732313A207472616E7366657220746F20746865207A65726F20616464 PUSH1 0x0 DUP3 ADD MSTORE PUSH32 0x7265737300000000000000000000000000000000000000000000000000000000 PUSH1 0x20 DUP3 ADD MSTORE POP JUMP JUMPDEST PUSH32 0x4552433732313A20617070726F766520746F2063616C6C657200000000000000 PUSH1 0x0 DUP3 ADD MSTORE POP JUMP JUMPDEST PUSH32 0x4F6E6C79204D7574616E7420417572656C6975732063616E20626573746F7720 PUSH1 0x0 DUP3 ADD MSTORE PUSH32 0x6F776E657220686973206661766F722075706F6E20746865206D61737365732E PUSH1 0x20 DUP3 ADD MSTORE POP JUMP JUMPDEST PUSH32 0x4E4F4E4520464F5220594F550000000000000000000000000000000000000000 PUSH1 0x0 DUP3 ADD MSTORE POP JUMP JUMPDEST PUSH32 0x4552433732313A206F70657261746F7220717565727920666F72206E6F6E6578 PUSH1 0x0 DUP3 ADD MSTORE PUSH32 0x697374656E7420746F6B656E0000000000000000000000000000000000000000 PUSH1 0x20 DUP3 ADD MSTORE POP JUMP JUMPDEST PUSH32 0x4552433732313A20617070726F76652063616C6C6572206973206E6F74206F77 PUSH1 0x0 DUP3 ADD MSTORE PUSH32 0x6E6572206E6F7220617070726F76656420666F7220616C6C0000000000000000 PUSH1 0x20 DUP3 ADD MSTORE POP JUMP JUMPDEST PUSH32 0x4D616E79206861766520636F6D65206265666F726520796F752E20546F6F206D PUSH1 0x0 DUP3 ADD MSTORE PUSH32 0x616E792C20696E20666163742E00000000000000000000000000000000000000 PUSH1 0x20 DUP3 ADD MSTORE POP JUMP JUMPDEST PUSH32 0x4552433732313A2062616C616E636520717565727920666F7220746865207A65 PUSH1 0x0 DUP3 ADD MSTORE PUSH32 0x726F206164647265737300000000000000000000000000000000000000000000 PUSH1 0x20 DUP3 ADD MSTORE POP JUMP JUMPDEST PUSH32 0x4552433732313A206F776E657220717565727920666F72206E6F6E6578697374 PUSH1 0x0 DUP3 ADD MSTORE PUSH32 0x656E7420746F6B656E0000000000000000000000000000000000000000000000 PUSH1 0x20 DUP3 ADD MSTORE POP JUMP JUMPDEST PUSH32 0x4552433732313A206D696E7420746F20746865207A65726F2061646472657373 PUSH1 0x0 DUP3 ADD MSTORE POP JUMP JUMPDEST PUSH32 0x6D656D656E746F00000000000000000000000000000000000000000000000000 PUSH1 0x0 DUP3 ADD MSTORE POP JUMP JUMPDEST PUSH32 0x4552433732313A20617070726F76656420717565727920666F72206E6F6E6578 PUSH1 0x0 DUP3 ADD MSTORE PUSH32 0x697374656E7420746F6B656E0000000000000000000000000000000000000000 PUSH1 0x20 DUP3 ADD MSTORE POP JUMP JUMPDEST PUSH32 0x404D7574616E74417572656C697573202D20636865636B20796F757220746F6B PUSH1 0x0 DUP3 ADD MSTORE PUSH32 0x656E20494420616761696E2E20536F6D657468696E672069736E277420726967 PUSH1 0x20 DUP3 ADD MSTORE PUSH32 0x68742E0000000000000000000000000000000000000000000000000000000000 PUSH1 0x40 DUP3 ADD MSTORE POP JUMP JUMPDEST PUSH32 0x4552433732314D657461646174613A2055524920717565727920666F72206E6F PUSH1 0x0 DUP3 ADD MSTORE PUSH32 0x6E6578697374656E7420746F6B656E0000000000000000000000000000000000 PUSH1 0x20 DUP3 ADD MSTORE POP JUMP JUMPDEST PUSH32 0x4F6E652063616E20706C65646765206F6E652773206C6F79616C7479206F6E6C PUSH1 0x0 DUP3 ADD MSTORE PUSH32 0x7920736F206D616E792074696D65732E00000000000000000000000000000000 PUSH1 0x20 DUP3 ADD MSTORE POP JUMP JUMPDEST PUSH32 0x4552433732313A20696E76616C696420746F6B656E2049440000000000000000 PUSH1 0x0 DUP3 ADD MSTORE POP JUMP JUMPDEST PUSH32 0x596F7527726520747279696E6720746F206D696E7420616E2041757265757320 PUSH1 0x0 DUP3 ADD MSTORE PUSH32 0x6F75747369646520746865207365740000000000000000000000000000000000 PUSH1 0x20 DUP3 ADD MSTORE POP JUMP JUMPDEST PUSH32 0x4552433732313A20617070726F76616C20746F2063757272656E74206F776E65 PUSH1 0x0 DUP3 ADD MSTORE PUSH32 0x7200000000000000000000000000000000000000000000000000000000000000 PUSH1 0x20 DUP3 ADD MSTORE POP JUMP JUMPDEST POP JUMP JUMPDEST PUSH32 0x496D706F73746F727320746F20746865207468726F6E6520656D626172726173 PUSH1 0x0 DUP3 ADD MSTORE PUSH32 0x73206F6E6C79207468656D73656C7665732E0000000000000000000000000000 PUSH1 0x20 DUP3 ADD MSTORE POP JUMP JUMPDEST PUSH32 0x4552433732313A207472616E736665722063616C6C6572206973206E6F74206F PUSH1 0x0 DUP3 ADD MSTORE PUSH32 0x776E6572206E6F7220617070726F766564000000000000000000000000000000 PUSH1 0x20 DUP3 ADD MSTORE POP JUMP JUMPDEST PUSH32 0x596F75277265206E6F74206F6E20746865206C6973742E000000000000000000 PUSH1 0x0 DUP3 ADD MSTORE POP JUMP JUMPDEST PUSH32 0x7A706D4020736179733A20646F6E277420776173746520796F75722067617320 PUSH1 0x0 DUP3 ADD MSTORE PUSH32 0x747279696E6720746F2077697468647261772061207A65726F2062616C616E63 PUSH1 0x20 DUP3 ADD MSTORE PUSH32 0x6500000000000000000000000000000000000000000000000000000000000000 PUSH1 0x40 DUP3 ADD MSTORE POP JUMP JUMPDEST PUSH2 0x5DBF DUP2 PUSH2 0x52F8 JUMP JUMPDEST DUP2 EQ PUSH2 0x5DCA JUMPI PUSH1 0x0 DUP1 REVERT JUMPDEST POP JUMP JUMPDEST PUSH2 0x5DD6 DUP2 PUSH2 0x530A JUMP JUMPDEST DUP2 EQ PUSH2 0x5DE1 JUMPI PUSH1 0x0 DUP1 REVERT JUMPDEST POP JUMP JUMPDEST PUSH2 0x5DED DUP2 PUSH2 0x5316 JUMP JUMPDEST DUP2 EQ PUSH2 0x5DF8 JUMPI PUSH1 0x0 DUP1 REVERT JUMPDEST POP JUMP JUMPDEST PUSH2 0x5E04 DUP2 PUSH2 0x5362 JUMP JUMPDEST DUP2 EQ PUSH2 0x5E0F JUMPI PUSH1 0x0 DUP1 REVERT JUMPDEST POP JUMP INVALID LOG2 PUSH5 0x6970667358 0x22 SLT KECCAK256 0x2C 0xDF DUP1 0xE9 0xD8 XOR 0x4C CREATE 0xB7 0xA6 0xA5 0xE SWAP5 NUMBER PUSH8 0xB02988F14E7CF4A0 0xB9 0x2E 0xE5 SWAP1 0x4A 0xC2 0xE8 SHR PUSH12 0x64736F6C6343000804003300 "},"methodIdentifiers":{"approve(address,uint256)":"095ea7b3","balanceOf(address)":"70a08231","getApproved(uint256)":"081812fc","getContractIsPaused()":"26c6adeb","getIndexedAureiCount()":"d981d596","getIssuedMementoCount()":"6bbcdc16","getTotalAureiMinted()":"332b3a8d","initialOwnerManagedTokens()":"4563649d","isApprovedForAll(address,address)":"e985e9c5","isOnExtendedOwnerList(address)":"b3e8524b","isOnShitlist(address)":"4bc26106","mint()":"1249c58b","mintFavorite(uint256)":"ea193cda","name()":"06fdde03","owner()":"8da5cb5b","ownerAddToAllowlist(address)":"bfd06af7","ownerAddToShitlist(address)":"96a0db30","ownerOf(uint256)":"6352211e","ownerRemoveFromAllowlist(address)":"4441d132","ownerRemoveFromShitlist(address)":"2ecdbc48","ownerSetAllowlistActive(bool)":"f7cedd85","ownerSetBaseTokenURI(string)":"775ce033","ownerSetNewTokenOwner(uint256,address)":"1b3bf3d8","ownerSetPausedState(bool)":"5fc82523","ownerUpdateWalletLimit(uint256)":"5b627c70","ownerWithdrawContractBalance()":"a39000a7","safeTransferFrom(address,address,uint256)":"42842e0e","safeTransferFrom(address,address,uint256,bytes)":"b88d4fde","setApprovalForAll(address,bool)":"a22cb465","supportsInterface(bytes4)":"01ffc9a7","symbol()":"95d89b41","tokenURI(uint256)":"c87b56dd","totalAureiSupply()":"ccacd0c5","totalSupply()":"18160ddd","transferFrom(address,address,uint256)":"23b872dd","updateExtendedOwnerList(address,bool)":"6c7f7b32"}}}}}